:020000040800F2
:10000000C0260220F90300080104000803040008C8
:1000100005040008070400080904000800000000A7
:100020000000000000000000000000000B040008B9
:100030000D04000800000000F51D0008211E000846
:100040001304000813040008130400081304000834
:100050001304000813040008130400081304000824
:100060001304000813040008130400081304000814
:100070001304000813040008130400081304000804
:100080001304000813040008BD1D00081304000831
:1000900013040008130400081304000813040008E4
:1000A00013040008F91F00081304000813040008D3
:1000B0002D200008392000084520000813040008FE
:1000C00013040008130400081304000813040008B4
:1000D000130400088D20000899200008A5200008BE
:1000E0001304000813040008130400081304000894
:1000F0001304000813040008692000081304000812
:100100001304000813040008512000081304000819
:100110007520000881200008130400085D200008F5
:100120001304000813040008130400081304000853
:100130001304000813040008130400081304000843
:10014000130400081304000813040008D91D000854
:10015000130400081304000813040008B120000869
:100160001304000813040008130400081304000813
:100170001304000813040008130400080000000022
:1001800013040008130400081304000813040008F3
:1001900013040008130400081304000813040008E3
:1001A00013040008130400081304000813040008D3
:1001B00013040008130400081304000813040008C3
:1001C00013040008130400081304000813040008B3
:1001D00013040008130400081304000813040008A3
:1001E0001304000813040008130400081304000893
:1001F000130400081304000800F002F800F0BDF832
:100200000AA090E8000C82448344AAF10107DA4571
:1002100001D100F0B2F8AFF2090EBAE80F0013F006
:10022000010F18BFFB1A43F0010318479C7100002F
:10023000BC7100000A444FF0000C10F8013B13F0B1
:10024000070408BF10F8014B1D1108BF10F8015B2F
:10025000641E05D010F8016B641E01F8016BF9D122
:1002600013F0080F1EBF10F8014BAD1C0C1B09D179
:100270006D1E58BF01F801CBFAD505E014F8016BEB
:1002800001F8016B6D1EF9D59142D6D3704700007D
:100290000023002400250026103A28BF78C1FBD88F
:1002A000520728BF30C148BF0B6070476E2900F06D
:1002B000D782702900F01984662906F089836529A0
:1002C00006F08683672906F083836129AFF30080F7
:1002D00003681B0A28BF41F08001692900F084826D
:1002E000642900F08182752900F07E826F2900F078
:1002F000A683782900F0E583E92900F04183E42909
:1003000000F03E83F52900F03B83EF2900F0A38342
:10031000F82900F0E4830368DB0928BF41F080017D
:10032000632900F0B487732900F0B987E32900F04E
:10033000C487F32900F0C987002070471FB506F075
:100340003DFB9DE8030000F0ABF900F0F2F801F08E
:1003500031F804000020002106F01CF8401C606009
:100360000020002106F000F8E06000F061F91FBDF8
:1003700010B5002000F088FC10BD00F0EEFF114623
:10038000FFF7DCFF05F00AFF01F0CAF803B4FFF73E
:10039000EFFF03BC00F05EF90B49D1F800C04A68DA
:1003A0005CF8043B1068184442F8040B8C4528BFE5
:1003B000A1F1DC0C8A4228BFA1F1DC02C1F800C027
:1003C0004A6020F000407047E0050220EFF308800B
:1003D00020E9F00F80F308882DED200AEFF3088064
:1003E000704780F30888BDEC200AEFF30880B0E87E
:1003F000F00F80F308887047094880470948004794
:10040000FEE7FEE7FEE7FEE7FEE7FEE7FEE7FEE7C4
:10041000FEE7FEE704480549054A064B7047000021
:100420005D1E0008F9010008C0060220C026022057
:10043000C0160220C016022070B5064600F010F962
:10044000056806F10B0020F00704B4429CBF0020B1
:1004500070BD2B466A68BAB11068A04210D304F18F
:10046000080188423CBF5068586007D35168101992
:1004700041601168091B016058601460101D70BD57
:1004800013465268002AE7D12146284600F0F4F8C6
:100490000028DED170BD70B50446051F00F0E0F8FD
:1004A0000068002C14BF446870BD002C18BFAC421B
:1004B0003CBF20466468F8D301680A18AA4218BFF6
:1004C000456003D12A680546114401602868411936
:1004D000A1421CBF6C6070BD6168696021680844FE
:1004E000286070BD1CB50C46064B7B4469460090E5
:1004F000204600F0CEF904460020694600F0DCF901
:1005000020461CBDCB0300000B4910B5A1F17C02B5
:100510000A4CC2E93712372106E000EB104342F8DB
:100520002130074B00FB03400B1EA1F10101F4DC5D
:1005300010BD0120E8E7000080050220E119D66621
:10054000CD0D010010B5002000F0BFFBFFF710FF3C
:10055000BDE81040012000F07DB82DE9F0410746CC
:1005600015460E461020FFF767FF04000AD06760AB
:10057000C4E9026500F078F8016821600460002099
:10058000BDE8F0810120FBE710B5431C02E010F844
:10059000011B71B18107FAD14FF0013202C88C1AE8
:1005A0008C4314EAC211F9D0C01A0A0603D0C01E47
:1005B00010BDC01A10BD0A0401D0801E10BD090272
:1005C000FCD0401E10BD10B5203AC0F00B80B1E841
:1005D0001850203AA0E81850B1E81850A0E8185078
:1005E000BFF4F5AF5FEA027C24BFB1E81850A0E881
:1005F000185044BF18C918C0BDE810405FEA827C9B
:1006000024BF51F8043B40F8043B08BF7047D207B1
:1006100028BF31F8023B48BF11F8012B28BF20F852
:10062000023B48BF00F8012B704770477047704786
:1006300070B5064C7C44064D7D4403E020682044A0
:100640008047241DAC42F9D170BD0000DC6E000073
:10065000DC6E000001491820ABBEFEE72600020058
:1006600000487047F005022000487047200602202D
:10067000704770477047704738B504460A460020F7
:100680006946AFF30080002808BF38BD02460099D4
:10069000204600F02BFB012038BD012000F056BEA3
:1006A000F8B5AFF30080054600200C46102000BFCF
:1006B0000646A819A0420DD9324669460020AFF37C
:1006C0000080070008BF00F041FE0098A04218BF5C
:1006D0000546C419FFF7C4FF05600746F01D20F06A
:1006E00007004619284600F00AF8B44208BFF8BDD2
:1006F000A21B31463868BDE8F84000F0F7BA002187
:100700000160C0E9011070471020704710B500F07B
:10071000E9FA006810BD10B5044600F0E3FA046081
:1007200010BD70B5044685690068C10601D5302644
:1007300000E02026C00707D070BDD4E90121304673
:100740009047206A401C20626D1EF6D570BD70B5C2
:10075000044685690078C00707D170BDD4E901213E
:1007600020209047206A401C20626D1EF6D570BD87
:1007700009684A0501D540B27047C905FCD500B2E9
:10078000704709684A0501D5C0B27047C905FCD554
:1007900080B2704770B50C460546012A05D028780E
:1007A000800600D5EA69002302E0012305E05B1C16
:1007B000934202D2E05C0028F9D1A869E618C01A79
:1007C000A861286A184428622846FFF7AAFF04E0B7
:1007D000D5E9012114F8010B9047B442F8D328461B
:1007E000FFF7B5FF70BD00002DE9F041064600247B
:1007F00010687529314616A510D0FFF7B9FF0028FB
:1008000002DA404213A507E031688A0701D512A534
:1008100002E0490704D511A5012401E0FFF7B1FF6B
:1008200000210A2206F1240709E0B0FBF2FCB0FB2C
:10083000F2F302FB1C00303078541846491C0028A3
:10084000F3D123462A463046BDE8F04100F0ADBA68
:10085000000000002D0000002B0000002000000020
:1008600011680268006A530501D508700AE0D305D3
:1008700001D5088006E0130603D5C217C1E90002BE
:1008800000E008600120704701694A1C0261087895
:10089000704700B58FB0CDE90131002105910549C0
:1008A0007944CDE903101146684600F029F90FB0EC
:1008B00000BD0000E5FFFFFF0A6802F8010B0A60B7
:1008C000704700002DE9FF5F15468A460446DFF8B1
:1008D000AC80F8440027D8E900103E46CDE900106E
:1008E00010E03AF816106A4602A800F0F2FC411C2B
:1008F00007D02178890603D5E269391891420DD8CD
:100900000744761C2078800602D5E069B84205DDF0
:10091000AE42E6DB3AF816000028E2D1A069C01B1F
:10092000A0612046FFF7FDFED8E90010CDE90010D8
:10093000002017E03AF818106A4602A800F0C9FC37
:10094000B0F1FF3F81460BD000250DF1080B05E00B
:10095000D4E901211BF8050090476D1C4D45F7D3E4
:1009600008F10100B0428046E4DB206A384420628E
:100970002046FFF7ECFEBDE8FF9F0000FA6500008F
:100980002DE9F0418046D21D22F007020025D2E970
:100990000002F52915A614D0011E72F1000106DA35
:1009A0000023D0EB030063EB020211A608E0D8F8A5
:1009B00000108B0701D50FA602E0490701D50EA64E
:1009C00001251146002408F1240704E000F0A8F9ED
:1009D00030323A55641C50EA0102F7D12B463246B8
:1009E00021464046BDE8F04100F0DFB900000000BC
:1009F0002D0000002B0000002000000030B400217A
:100A000000F1240408E002F00705D208303542EA7C
:100A10004372DB086554491C52EA0305F3D10468AC
:100A2000002310A2250707D5A40600D421B1C4696C
:100A300001230DA2641EC46130BC00F0B6B910B52C
:100A4000044621461068FFF79CFE02462046BDE89A
:100A500010400023D2E7D21D22F00701D1E9002384
:100A6000CCE700000000000030000000F0B40D46AC
:100A70000188090502D5214C7C4402E01F4C7C44CE
:100A80000E34002100F1240608E002F00F071209DD
:100A9000E75D42EA03721B097754491C52EA0307D7
:100AA000F3D102780023120704D5702D06D009B1C6
:100AB000022311342246F0BC00F077B90123103430
:100AC000F8E770B504460D4621461068FFF759FE59
:100AD000024629462046BDE870400023C6E7D21DE5
:100AE00022F00703D3E90023C0E70368126843F04C
:100AF000200303600823C3610023B7E75C640000A0
:100B00002DE9F05F894604464FF0000ADFF874B122
:100B1000FB44C0F820A02046E1688847002874D034
:100B2000252806D0D4E901219047206A401C206284
:100B3000F1E700265F462046E16888472028054601
:100B400007DB312D05D2781910F8200C08B10643C7
:100B5000F1E7B00701D526F00406C4F81CA0002771
:100B6000C4F818A02A2D09D0284605F00FFB38B389
:100B700004EB8708303DC8F8185019E059F8041BF9
:100B8000204604EB87029161E1688847012F054602
:100B900018D1E069002820DA26F020061DE0D8F8F8
:100BA000180000EB800005EB40003038C8F8180052
:100BB0002046E1688847054605F0E8FA0028EED1AE
:100BC000012F0AD02E2D08D12046E16888477F1CCE
:100BD0000546022F46F02006C4DBA069002803DA90
:100BE000404246F00106A061F00701D026F0100651
:100BF0006C2D0BD0682D09D04C2D39D06A2D35D0F5
:100C0000742D35D07A2D33D016E038E0E1682F46C8
:100C100020468847B842054609D16C2F26D04FF4AC
:100C20008060E168064320468847054604E06C2F53
:100C30001AD04FF4807006430DB3A5F14100192876
:100C400002D8203546F400664A46294620462660EA
:100C50004E46FFF72BFB80B101280BD0F61D26F086
:100C6000070000F1080956E74020E4E78020D8E7B4
:100C70000020D6E706F104094DE7284652E7206A2E
:100C8000BDE8F09FEC6300002DE9F0410646FFF758
:100C9000EBFC8046454613E016B1E068B0420ED149
:100CA00020682860D4E90101D8F800708847204600
:100CB000FFF7F1FBD8F80000B842EBD100E0254681
:100CC0002C68002CE8D1BDE8F08110B500F026FBBF
:100CD000BDE8104000F01DBB00487047E805022049
:100CE0007047000000487047E8050220034640684E
:100CF0008C46002818BF88423CBF03464068F8D3A2
:100D000018681844884207D00CF1030020F007004F
:100D1000001D411A521A0146081D0A60FFF7BBBBAD
:100D200030B5B0F10A024FEA900E71F100034EEABD
:100D3000817EB0EB0E0061EB91014FEA101E4EEA8E
:100D4000017E10EB0E0041EB11114FEA102E4EEA1E
:100D5000016E10EB0E0041EB11214FEA104E4EEAEE
:100D6000014E10EB0E0041EB1141401841F1000122
:100D70004FEAD00040EA41704FEAD10110EB800504
:100D80004FEA810444EA907444EB01046D1944EB8A
:100D90000404521BA3414FF0000348BF0A3200D5A0
:100DA00030BD401C41F1000130BD2DE9F0470D463A
:100DB00099469246044600F124080168880604D545
:100DC000E06921F01001216000E00120A84201DD6E
:100DD000471B00E00027A1697A1902EB0900081AF5
:100DE000A0612078C00602D42046FFF79AFC0026B6
:100DF00008E0D4E901211AF806009047206A401C57
:100E0000761C20624E45F4DB2078C0060AD52046C9
:100E1000FFF787FC06E0D4E9012130209047206AE3
:100E2000401C2062381EA7F10107F4DC07E0D4E97A
:100E3000012118F805009047206A401C2062281EF6
:100E4000A5F10105F3DC2046FFF781FC20780006C0
:100E500002D50220BDE8F0870120FBE770472DE9AD
:100E6000FF4F0C461E464FF0FF378BB0D2E9000112
:100E7000DDF860800A908A46C1F30A5505B93D46FF
:100E8000002108464FF00000BAF1000F00F44000C6
:100E900005DA00EB80004FF4400101EA50004FEA10
:100EA0009059B9F1010F00DDB9460A9850EA4A009D
:100EB0000ED044F61050A5F2FF3545432F14B8F17B
:100EC000000F1ED07542291E1EDDC9F100021CE074
:100ED000B8F1010F4FF0000001D0302103E0F243E0
:100EE00005E02154401CB042FBDB304600220021CB
:100EF00021540B99C1F80880C1E900200FB0BDE86A
:100F0000F08FBD1B6D1CDEE74A4600DA694206A879
:100F100000F094FA06AB93E8070003AB83E8070000
:100F200050460A9900F082FB8DE80700A0F50050BA
:100F30001F3800900398002D0ADD42F21F014A4637
:100F40000844002303A90390684600F0EBFD09E084
:100F5000A0F500504A461F38002303A903906846B5
:100F600000F0F5FD8DE807000004000C03D04FF001
:100F7000FF30410800E01046B8F1000F03D0002216
:100F8000009215461EE0751E05D4FFF7C9FE3032EB
:100F900062556D1EF9D5B3460122084302D00022E6
:100FA0007F1C04E02078302801D100227F1E002A17
:100FB000099784D01DE0112D07DAFFF7B1FE30321A
:100FC00062556D1C50EA0102F5D1084302D0009829
:100FD000C8B10EE00021681E05E0235C625C63542A
:100FE0002254401E491C8142F7DBAB46A81B401E21
:100FF0000990002004F80B000B98099AC0F80880AB
:10100000C0E9002B7AE711264FF0000857E72DE9D9
:10101000F04F88460446D21D22F0070191B0D1E975
:101020000001CDE90A0104F055FF02460B98C00FFC
:1010300001D02D2007E02068810701D52B2002E098
:10104000202101EAC000032A099001D0072A05DB0C
:1010500003464146204600F0B1F90BE120788006B6
:1010600001D5E06900E00620B8F1650F814606D0A1
:10107000B8F1660F18D0B8F1670F70D131E00020D9
:10108000B9F1110F009001DB112301E009F1010317
:101090000AAA01A90CA8FFF7E2FEDDE90C70002600
:1010A00009F10105834647E001204B4600904FF0CF
:1010B00000470AAA01A90CA8FFF7D1FEDDE90DB08F
:1010C0000C995D46002610B909F101000D18B9EB25
:1010D000050003D4C0F1FF3609F10105A5EB0900B5
:1010E0002BE0B9F1010F01DA4FF001090020B9F14D
:1010F000110F0090484601DD112300E003460AAAC3
:1011000001A90CA8FFF7ABFEDDE90C704D460026E7
:101110008346207800070AD4AB4500DA5D4601A873
:10112000012D04DD411911F8011C302907D04F456C
:1011300002DA17F1040F04DA012082460FE06D1E77
:10114000EEE7002F02DCED1B3E4403E0781CA842D2
:1011500000DD7D1CB81B00F1010A4FF0004720782C
:10116000000703D4AA4501DB4FF0FF3A0021B7F195
:10117000004F0DF143088DF8431024D002202B239B
:10118000002F01DA7F422D230A21021EA0F1010067
:1011900000DC5FB197FBF1FC97FBF1F201FB1C7CDB
:1011A00017460CF1300C08F801CDEEE7A8F101006C
:1011B00003702188090501D5452100E06521A0F1D2
:1011C000010800F8011C09980FA9A1EB0807FF1DF1
:1011D00000B10120411901EBEA70A1693844081AF5
:1011E000401EA0612078C00602D42046FFF799FA7D
:1011F000099828B1D4E901219047206A401C206257
:101200002078C00622D52046FFF78BFA1EE0002E7C
:1012100004DBB34502DD01A8805D00E03020D4E9A5
:1012200001219047206A401C2062761CAAF101002F
:101230005FEA000A0AD100F0BDF8C0680168405CAE
:10124000D4E901219047206A401C2062281EA5F1A4
:101250000105DCDC07E0D4E9012118F8010B904717
:10126000206A401C2062381EA7F10107F3DC2046EB
:10127000FFF76DFA032011B041E610B5436913B1D1
:10128000AFF3008001E0FFF785FA012010BD12786E
:1012900000F124010A7000224A700122EDE7116872
:1012A0004FF0FF32E9E710B5436913B1AFF30080A7
:1012B00001E0FFF707FB012010BD128800F12401B7
:1012C00082840022C2840122EDE711684FF0FF32D0
:1012D000E9E770B516460C46054600F063F803686A
:1012E00093F80101012806D0FF2C0FD8185D68B1D2
:1012F00001202C7070BDD3F807013246214603F25D
:10130000071303442846BDE8704018474FF0FF30EC
:1013100070BD002801D0FFF79DB9704710B50021BE
:1013200002A000F006F9012010BD0000534947411A
:101330004252543A2041626E6F726D616C20746546
:10134000726D696E6174696F6E00000010B500F017
:1013500009F9BDE81040FFF7DCBF7546FFF7BCFC9C
:10136000AE4605006946534620F00700854618B092
:1013700020B5FFF74FF8BDE820404FF000064FF0D2
:1013800000074FF000084FF0000B21F00701AC46BA
:10139000ACE8C009ACE8C009ACE8C009ACE8C009D9
:1013A0008D46704710B500F005F8001D10BD00BF58
:1013B000E54F000000487047080602202DE9F04183
:1013C0001F46044603260168072A01F4006004DB77
:1013D00008B116A505E016A503E008B115A500E0C3
:1013E00015A521F010002060A069C01EA0610FB1FA
:1013F000401EA0612046FFF794F94FB1D4E90121C6
:1014000038469047206A401C2062C01C206206E0DB
:10141000206AFAE7D4E9012115F8010B9047761EFE
:10142000F8D22046FFF793F9BDE8F0814E414E0017
:101430006E616E00494E4600696E66002DE9F04708
:10144000814616468AB0354878440DC88DE80D00AF
:1014500032487844801C03AC0DC884E80D0041F686
:101460009B300844372190FBF1F290FBF1F5A5F198
:10147000800501FB12041B3C02D56442012000E000
:101480000020DFF898A080460027FA44AAF1BE0A9F
:101490000EE0E0070AD03246684607EB4701012319
:1014A0000AEB810100F053FB8DE8070064107F1CFC
:1014B000002CEED1194F7F44AE3F19E0E80715D05C
:1014C00007EB04100DF1180A90E80E008AE80E00F0
:1014D000C068F04201D1981908903246012306A94C
:1014E00003A800F034FB03AB83E807006D10641C15
:1014F000002DE3D14FF0010332466946B8F1000FE9
:1015000003A802D000F00EFB01E000F020FBC9E9C7
:101510000001C9F808200AB0BDE8F087445B00006C
:1015200010B50446AFF300802046BDE81040FEF73A
:101530002DBF70B505460C460A2000E06D1C00F07A
:1015400039F835B128780028F8D102E0641C00F0A1
:1015500031F814B120780028F8D1BDE870400A2095
:1015600000F028B810B5012805D0002103A0FFF72E
:10157000E0FF012010BD09A1F8E7000053494752E0
:10158000544D454D3A204F7574206F662068656153
:1015900070206D656D6F7279000000003A2048651B
:1015A0006170206D656D6F727920636F72727570F6
:1015B0007465640008B569468DF800000320ABBE71
:1015C00008BD00004FF0013C50F8042B51F8043BDB
:1015D0009A4215D1A2EB0C03934313EACC130BD11F
:1015E00050F8042B51F8043B9A4209D1A2EB0C03AA
:1015F000934313EACC13E7D04FF00000704700BFCD
:10160000D01A01BAB1FA81F101F0180122FA01F001
:10161000CB40C1F12001DBB2C0B2C01A2CFA01F3F9
:10162000D11A914311EAC311E6D170475FEA400C29
:1016300008BF91F0000F4FEA8C234FEAC12243EA22
:1016400051514FEA1C5018BF00F5F0404FEA3000EE
:1016500018BF41F000415FEA6C5C00F02980BCF1EA
:10166000FF3F08BF40F080407047130C06BF1204D4
:101670004FF0100C4FF0000C130E04BF12020CF1CF
:10168000080C130F04BF12010CF1040C930F04BFDC
:1016900092000CF1020CD30F04BF52000CF1010CAC
:1016A00011464FF00002A0F11F00A0EB0C007047A4
:1016B00011F0004F08BF704731F000413FF4D5AF43
:1016C0000B0C06BF09044FF0100C4FF0000C0B0E72
:1016D00004BF09020CF1080C0B0F04BF09010CF147
:1016E000040C8B0F04BF89000CF1020CCB0F04BF5C
:1016F00049000CF1010CCCF12003A0EB0C0022FA04
:1017000003F302FA0CF241EA030100F10100704711
:1017100020F07F4C80EA030023F07F47ACEB070307
:1017200003F57C5300F0004003F1FF032DE98049ED
:101730004FEA154B09B44FEA144325EA0B4E24EA4D
:1017400003480FF2042606EB132749083E785FEAA8
:10175000320203FB0667C7F5000707FB06F64FEAF0
:1017600054374FEAD64606F1020607FB066CCCF169
:10177000005C4FEA1C472CEA074C07FB06F40CFB05
:1017800006F504EB15464FEA961634BF00204FF0DD
:1017900000404FEAD13706FB07FC4FEA1C4C0CFB1C
:1017A0000BF7D21B03FB0CF761EB07010CFB0EF7E9
:1017B000B0EB074072EB17420CFB08F734BFA2EB0B
:1017C0000742B2EB074261EB17414FEA0C444FEA84
:1017D000910706FB07FC4FEA1C4C0CFB0BF7B0EB28
:1017E000C74072EB573203FB0CF734BFA2EBC74282
:1017F000B2EBC74261EB57310CFB0EF7B0EBC70001
:1018000072EB57720CFB08F734BFA2EBC702B2EBC6
:10181000C70261EB5771039F4FEA816141EA921160
:1018200004EBCC044FEAD1374FEA826206FB07FC97
:1018300042EA90124FEA80604FEA1C4C0CFB0BF717
:10184000D21B03FB0CF761EB07010CFB0EF7B0EBAF
:10185000074072EB17420CFB08F734BFA2EB0742BC
:10186000B2EB074261EB17414FEA8C554FEA910703
:1018700004EB9C2406FB07FC4FEA1C4C0CFB0BF70B
:10188000B0EBC74072EB573203FB0CF734BFA2EB4F
:10189000C742B2EBC74261EB57310CFB0EF7B0EB1E
:1018A000C70072EB57720CFB08F734BFA2EBC702FC
:1018B000B2EBC70261EB577115EB4C254FEA816122
:1018C00041EA92114FEA82624FEAD13742EA90121E
:1018D00006FB07FC44F100044FEA80604FEA1C4C11
:1018E0000CFB0BF7D21B03FB0CF761EB07010CFBA6
:1018F0000EF7B0EB074072EB17420CFB08F734BF52
:10190000A2EB0742B2EB074261EB174115EB1C1546
:101910004FEA813141EA92414FEA823242EA9042F3
:101920004FEA80304FEA0C7644F1000448EA034362
:101930004EEA0B484FF0000EB2EB080C71EB0307B8
:1019400024BF624639464EEB0E0E4FF0000B0018D6
:10195000524149414BEB0B0BB2EB080C71EB030707
:101960007BF1000B24BF624639464EEB0E0E4FF062
:10197000000B0018524149414BEB0B0BB2EB080C2A
:1019800071EB03077BF1000B24BF624639464EEB37
:101990000E0E51EA020718BF46F0010616EB0E764E
:1019A00055F1000254F1000103D5BDE88901BDE8FD
:1019B0000088BDE88901BDE80048B619524141EBF5
:1019C0000101A3F10103704780807F7E7D7C7B7ADB
:1019D0007978777676757473727171706F6E6E6DDB
:1019E0006C6C6B6A6A696868676666656464636381
:1019F00062616160605F5F5E5E5D5D5C5C5B5B5A07
:101A00005A59595858575756565555555454535373
:101A100052525251515050504F4F4F4E4E4D4D4DCE
:101A20004C4C4C4B4B4B4A4A4A4949494848484719
:101A30004747474646464545454444444443434357
:101A40004342424242414141002B9C4630D4770000
:101A50002BD01CB54FEA370703B44FF010004FF0FE
:101A60001001BAF1000F06D0BCF1000FDCBF40F04E
:101A7000080040F008014FF000000FBCBDE8104026
:101A80000BF1010BBBF1010F08BF5FEA170722BF83
:101A900012F1010211F101014FF0004143F1000385
:101AA00000F0004043EA00007047F9D35708D0E740
:101AB00046EA064613F1400F4FEA16461FDD13F1C2
:101AC000200FDFBF16430A46002120335B42BED001
:101AD000C3F1200746EA064602FA07F74FEA164620
:101AE00046EA0706C3F1200722FA03F201FA07F7D4
:101AF00021FA03F14FF0000342EA0702A7E746EAA2
:101B0000020646EA06464FEA164646EA0106BCBF0A
:101B100046EA0646360C4FF000034FF000024FF045
:101B2000000194E72DE9804C9A46934670B491E801
:101B3000380007C831EA400C48BF34EA430C03D5EB
:101B4000FFF7E6FDFFF780FFF0BCBDE8008C2DE954
:101B5000804C9A46934670B491E8380007C810F05C
:101B6000804F08BF13F0804F03D100F005F8FFF756
:101B70006BFFF0BCBDE8008C20F07F4780EA0300DB
:101B800023F07F4C07EB0C03A3F57C5300F00040DF
:101B9000A3F1FE0392F0000F00F0B38095F0000F68
:101BA00000F077802DE901494FEA11404FEA1446D1
:101BB00021EA004800FB06FC24EA064708FB06F67B
:101BC00007FB08F800FB07F718EB06484CEB164C30
:101BD0004FEA124B18EB07484FEA15464CEB1740FB
:101BE00022EA0B4E0BFB06FC25EA06470EFB06F627
:101BF00007FB0EFE0BFB07F71EEB064E4CEB164CDD
:101C00004FF000061EEB074E4CEB174B18EB0B0882
:101C100040F1000018EB0E0B58EB000840F10000FB
:101C20008F1A4FF000013CBFC943661B14BFB5EBD0
:101C3000040C00213CBFC943F61B4FEA17444EEA8F
:101C40008E0E27EA04454FEA1C4704FB07622CEA84
:101C5000074C05FB07F70CFB05F604FB0CFC16EB29
:101C6000074642EB174216EB0C4642EB1C421BEBBD
:101C7000060658EB0202414146EA9E0601D5BDE840
:101C80000189B619524141EB0101A3F10103BDE8FD
:101C900001894FEA14454FEA114724EA054621EA33
:101CA000074C05FB07F406FB07F70CFB06F105FBE9
:101CB0000CFC11EB074144EB17444FEA124711EBC0
:101CC0000C4144EB1C4422EA074C05FB07F206FBDF
:101CD00007F70CFB06F605FB0CFC16EB074642EB80
:101CE000174216EB0C4642EB1C456A1854F10001F2
:101CF00048BF7047B619524141EB0101A3F10103FE
:101D0000704795F0000F37D04FEA11424FEA144761
:101D100021EA024624EA074C02FB07F106FB07F71B
:101D20000CFB06F402FB0CFC14EB074441EB1741DF
:101D30004FEA154714EB0C4441EB1C4125EA074CD4
:101D400002FB07F506FB07F70CFB06F602FB0CFC93
:101D500016EB074645EB174516EB0C4645EB1C42C8
:101D6000121951F1000148BF7047B619524141EBB9
:101D70000101A3F1010370474FEA14454FEA1147EF
:101D800024EA054621EA074C05FB07F106FB07F7A5
:101D90000CFB06F24FF0000605FB0CFC12EB0742B1
:101DA00041EB174112EB0C4251EB1C4148BF70470D
:101DB000921841EB0101A3F1010370470448016847
:101DC00021F0020101600348C06801680969084701
:101DD00000220140A802022010B503F027FB0448AE
:101DE000406D03F091FDBDE8104003F011BB000011
:101DF000A802022010B5FEF7E9FA074908600021A1
:101E0000064A05481268006890470349086008467A
:101E10000068FEF7E6FA10BD18030220AC020220AB
:101E200010B5FEF7D3FA0A4908600A480949006864
:101E3000401C0860084A0121054812680068904764
:101E40000349086008460068FEF7CBFA10BD0000A1
:101E500014030220B0020220AC0202202DE9F0415E
:101E60005E48016841F4700101605D49086840F016
:101E7000010008605A4A0025083215600868594B6D
:101E8000184008600C1D58482060086820F4802025
:101E90000860101D0560086840F48030086008681C
:101EA00040F00100086000204FF4A0460B689B033F
:101EB00002D4401CB042F9D30868800346D54B4B8E
:101EC0000720186046484030036843F080530360A1
:101ED000106840F43440106045482060086840F0C5
:101EE0008070086008688001FCD5106820F003004D
:101EF0001060106840F0020010601068C0F38100AC
:101F00000228FAD1086820F0805008600868800034
:101F1000FCD4334A88321068C0F303604FF458335E
:101F200043EA006040F0A0401060101D026822F4F7
:101F300040320260001D026842F0006202600868E0
:101F400040F08050086008688000FCD523494FF0BD
:101F5000006080390860214E361F3560BFF34F8F17
:101F6000371F3868C0F34E31DFF888C043F6FF747E
:101F7000C0F3C903184604EA411242EA8078CCF85B
:101F80000080401EF9D2491E481CF3D1BFF34F8F89
:101F9000BFF36F8F3560BFF34F8F104874380168FF
:101FA00021F480310160BFF34F8F3868C0F34E31A8
:101FB000104AC0F3C9061432304604EA411343EA1A
:101FC00080751560401E451CF9D1491E481CF3D18F
:101FD000BFF34F8FBFF36F8FBDE8F08188ED00E056
:101FE00000380240FFFFF6FE10300024003C0240A3
:101FF0001964407860EF00E070B5094C20694FF03B
:102000000005C00705D00748006900F08DFA25617A
:1020100070BD054801680029FAD0056070BD000058
:1020200000000140A802022010440140014840691C
:1020300000F07ABAA80202200148806900F074BA60
:10204000A80202200148C06900F06EBAA80202206E
:102050000148006A00F068BAA80202200148406AFC
:1020600000F062BAA80202200148806A00F05CBA5F
:10207000A80202200148806C03F006BFA8020220DB
:102080000148C06C03F000BFA80202200148C06BE9
:1020900003F0FABEA80202200148006C03F0F4BE6F
:1020A000A80202200148406C03F0EEBEA802022004
:1020B0000148006D03F0E8BEA8020220002809DBF9
:1020C000012100F01F0291404009800000F1E02052
:1020D000C0F80011704770B504460025606802F032
:1020E000D5F930B12088012801D0012506E002256C
:1020F00004E06088092801D04FF0FF35284670BD04
:102100002DE9FF47044600234FF0020998464FF09F
:10211000040C6068006ACDF80880CDF80C8003EBF1
:10212000430630F81650ADF8085009EB4607C75B78
:10213000ADF80A706D1A00D56D420FFA85FABD1A16
:1021400000D56D422DB2BAF1320F05DA322D03DA25
:102150000CEB4605455D3DB15B1CDBB2092BDAD3C8
:10216000002004B0BDE8F08703EB430221780CEBBC
:10217000420281546068006A00EB46000168808872
:10218000ADF80400A068019A02F0F4FAB4F9000076
:1021900000EBD07121F00101401A401C20806088C2
:1021A000401C60800120DCE770B505460924042648
:1021B0000DE0FEF7F1F890FBF4F104FB1100696803
:1021C00000EB4002096A06EB4202895C19B168889B
:1021D00009280FD0EDE7696800EB4000022202EB0E
:1021E0004002096A8A5E31F910102846BDE8704045
:1021F000FFF786BF70BD10B504460120FEF71CF93D
:10220000A0602420FEF718F902F049FA6060A06887
:1022100002F06EFA0120208000206080204610BD70
:1022200010B50446A068002801D0FEF734F96068B4
:1022300020B102F03EFA08B1FEF72DF9204610BD9C
:10224000F8B50C461546002602F070FC0E4B2A46E7
:102250002146009602F088FC411C08D102F066FC81
:102260000121094B2A460091214602F07DFC411CC8
:1022700008D102F05BFC0221034B2A460091214663
:1022800002F072FCF8BD0000E00102202DE9F043ED
:1022900089B006467F4D2C6802F0CAFC008881B2E6
:1022A00020684269204690472C6802F0C1FC808873
:1022B00081B2206882692046904777A04FF01008CD
:1022C000002218231146CDE90080304602F07CFA46
:1022D00002F0AEFC808A04B202F0AAFC0089182247
:1022E000CDE9052804940123704C6EA107910F27B6
:1022F00000B26288B4F90010CDE90173521A03905C
:1023000012B20092E088B4F90420801A03B2304679
:1023100002F0A6FA02F08CFC808A0FFA80F902F033
:1023200087FC0089182262A10123CDE90492CDE93E
:102330000681A28900B2B4F90A10CDE90173521ADC
:10234000039012B20092208AB4F90E20801A03B2D0
:10235000304602F085FA02F06BFC808A0FFA80F9B1
:1023600002F066FC0089182254A10123CDE90492F1
:10237000CDE90681E28A00B2B4F91410CDE9017307
:10238000521A039012B20092608BB4F91820801A8E
:1023900003B2304602F064FA2C6802F049FC1221C4
:1023A000808965224FF0990880B20290CDE9002122
:1023B000206861214346466B2046B0472C6802F0F6
:1023C00037FC14228089A02180B20290CDE900124E
:1023D00020687D276C223B463946466B2046B04735
:1023E0002C6802F025FC00885C220B23414680B259
:1023F00000902068066B2046B0472C6802F018FC5D
:10240000008A7322CD2680B2009020681E233146B8
:10241000D0F830C02046E0472C6802F009FC008864
:102420006E22C82180B2009020681823D0F830C0F6
:102430002046E0472C6802F0FBFB0088B421132300
:102440003A4680B200902068D0F830C02046E0477D
:102450002C6802F0EDFB00888622C12180B200903A
:1024600020680B23076B2046B8472C6802F0E0FB7E
:102470000E22008AA021334680B20290CDE90012DC
:1024800020688A223146456B2046A84709B0BDE83E
:10249000F08300000400022048617570746D656E61
:1024A00075650000537069656C656E00E00102207F
:1024B0004869676873636F726500000045696E73F1
:1024C00074656C6C756E67656E0000000A4810B527
:1024D0000078C0070DD1084803F014FD48B1074843
:1024E00002F05EFB064A0749FEF737F80248AFF3F1
:1024F0000080024810BD00001C03022020030220BF
:1025000000000008092500087047017080ED010AED
:10251000C0ED020A70470000024B03608180C28058
:1025200070470000B06F0008426900211161016826
:10253000096908472DE9F0410E4617462DED048B39
:102540006B4940F8081B02F0FEFB08386949044655
:1025500001602674694D68482B1F0C2E74D2DFE889
:1025600006F07306111D28333E49545C646C6449BF
:1025700061610461286840F0010028601920FFF7BC
:102580009DFD61E04FF0804161614461186840F059
:10259000010018601C20FFF791FD55E05949616169
:1025A0008461186840F0020018601D20FFF786FD66
:1025B0004AE055496161C461186840F00400186040
:1025C0001E20FFF77BFD3FE05049616104621868FF
:1025D00040F0080018603220FFF770FD34E04C49ED
:1025E00061614462186840F0200018603720FFF7EE
:1025F00065FD29E0474961618462286840F0020076
:1026000028602E20FFF75AFD1EE043496161C46235
:10261000286840F48030286016E040496161046316
:10262000286840F4003028600EE03D496161446351
:10263000286840F48020286006E03A49616184639C
:10264000186840F480701860384604F0A6F89FEDD2
:10265000369B53EC192B04F0B3F89FED351B53EC6C
:10266000112B04F0ADF803F0E1FE00EE100A012595
:102670003149F2EE040A06E005EB8500450080EEE4
:10268000201AB0EE410A10EE100A8842F4DCBCEECB
:10269000C00A10EE106AE660284604F07EF841ECAD
:1026A000180B304604F079F89FED241B53EC112BE6
:1026B00004F086F853EC182B04F082F853EC192B35
:1026C00003F0E6FE04F03CF8606001206169C86038
:1026D000616948616D1E61698D626269E168D162FC
:1026E000616908602046BDEC048BBDE8F081000004
:1026F00018730008D06F0008A80202204438024076
:10270000000001400004004000080040000C0040B0
:10271000001400400004014000400140004401401A
:1027200000480140002000400000000084D797418D
:10273000000000A0F7C6B03E00FF7F470000000089
:1027400080842E4110B5044604F1080002F017FE03
:10275000A179884201D0012010BD002010BD70B5C4
:10276000044625792068416920468847207100B1D8
:102770000DB110B104E0012070BD0DB1022070BD9B
:10278000002070BD70B50C461E46049D0B4940F8F4
:10279000081B214602F018FEA0F108040020207159
:1027A0006071A57104F10800294602F0F5FD04F1FD
:1027B0000800314602F002FE204670BDEC6F0008B2
:1027C000F8B50D46164600240C480078C0070DD118
:1027D0000A4803F097FB48B1094802F0E1F9094AB9
:1027E0000949FDF7BAFE0548AFF3008004483246B8
:1027F000064B2946009402F0B7F9F8BD40030220C9
:102800004403022000000008AB4B000844020220F1
:1028100070B588B005461E4C206801680968884775
:10282000246802F005FA008881B2206842692046D7
:10283000904718A010260022CDE900601823114609
:10284000284601F0C1FF02F0F3F9808A04B202F0D9
:10285000EFF900891821CDE9051602B2049411A000
:102860000790114801240F264388B0F90010CDE9E4
:1028700001645B1A03921BB20093C388B0F9042071
:10288000981A03B2284601F0EBFF08B070BD0000B3
:10289000040002204C65747A746520537069656C7D
:1028A0006500000048000000440202200A4810B5FC
:1028B0000078C0070DD1084803F024FB48B1074851
:1028C00002F06EF9064A0749FDF747FE0248AFF3EA
:1028D0000080024810BD0000280302202C030220C3
:1028E00000000008E92800087047000000B530EE3D
:1028F000601ADFED051A001D81EE210AFFF705FEC3
:10290000024940F8041D00BD00FF7F471C7000080D
:102910002DE9F05F04468B4692461F46DDE90A89A1
:102920000025012020716079002801D002F07EFD91
:102930009FB120688168204688472068594602690F
:102940002046904707E020681AF80510466920469F
:10295000B0476D1CEDB2BD42F5D3B9F1000F1DD0EB
:10296000206881682046884720684BF00101026991
:10297000204690470025A9F1010907E020688169F8
:102980002046884708F805006D1CEDB24D45F5DB83
:102990002068C1692046884708F805002068C1689A
:1029A00020468847607908B102F032FD207910B1E5
:1029B0000020BDE8F09F0120FBE73FB583B004464F
:1029C000CDE9002360680123217A0268556804AAD2
:1029D000A847617A0843607207B030BD417A00228F
:1029E0004272084670470000024A026001220271EA
:1029F000417170473470000870B50023144A21E01B
:102A0000B0EB144F1CD132F82300C0F30330C4F3F1
:102A1000031504F00F0301F00F02032A01D041F067
:102A200002010C4C226801268640324322600A4A89
:102A300002EB80200A46294600F010F8012070BD04
:102A40005B1C9BB252F82340002CD9D1002070BDF2
:102A50006800022030380240000002402DE9F04FAB
:102A600004464FEA410C4FEAD109012088406FEA41
:102A7000000A032000FA0CF0C54348070F26C00ED9
:102A800086406FEA060B02F0030606FA0CF6C2F364
:102A9000012707FA0CF7C2F3001808FA01F8C2F38D
:102AA000013202FA0CF203F00F03834002F0BEFC85
:102AB0002068284030432060E06828403843E060C8
:102AC000606800EA0A0040EA08006060A0682840E8
:102AD0001043A06004EB8900016A01EA0B0119436D
:102AE0000162BDE8F04F02F093BC00002DE9F84F01
:102AF000884691464FF0FF37002502F017F8414B0A
:102B00004A464146009502F02FF804464FF0010670
:102B1000601C0FD102F00AF83A4B4A464146009633
:102B200002F022F80446A01C04D102F081F8012131
:102B300002F03CF8601C10D101F0F8FF0221314B8B
:102B40004A460091414602F00FF80446A01C04D109
:102B500002F06EF8002102F029F8601C10D101F09B
:102B6000E5FF0321274B4A460091414601F0FCFF57
:102B70000446A01C04D102F05BF8022102F016F812
:102B8000DFF884A0601C0DD101F0D0FF04211D4BA3
:102B90004A460091414601F0E7FF0446A01C01D1DE
:102BA0008AF80050601C0DD101F0C0FF0521154BC3
:102BB0004A460091414601F0D7FF0446A01C01D1CE
:102BC0008AF80060A01C1AD13C46104800680168D1
:102BD000096888470E480078C0070DD10C4803F0FB
:102BE00091F948B10B4801F0DBFF0B4A0B49FDF7A7
:102BF000B4FC0748AFF30080064800F063F82046B5
:102C0000BDE8F88F44020220640002200400022084
:102C1000340302203803022000000008052F0008BA
:102C2000FEB51048022528264FF4BF544FF4827297
:102C300003780D48002B00680BD0012B08D1CDE99B
:102C400000650294DC230168CC6A4FF4FA71A04756
:102C5000FEBDCDE900650294DC230168CC6A114613
:102C6000A047FEBD640002200400022038B501F038
:102C7000DFFF80694FF4BF52114968B1012815D0B8
:102C8000022808D1009232230868782201680C6B70
:102C90004FF40271A04738BD0092322308687822B1
:102CA00001680C6B4FF4CD71A04738BD0092322300
:102CB0000868782201680C6B4FF49671A04738BD04
:102CC000040002202DE9F04788B006466B4C2568C9
:102CD00001F0AEFF008881B228684269284690471B
:102CE000256801F0A5FF808881B22868826928469E
:102CF000904763A010270022CDE9007018231146E9
:102D0000304601F061FD01F093FF808A05B201F0C9
:102D10008FFF00891821CDE9051702B204955BA049
:102D200007905D4801250F274388B0F90010CDE9D1
:102D300001755B1A03921BB20093C388B0F904209B
:102D4000981A03B2304601F08BFD2068782253A315
:102D50000168CD692821A847256801F069FF808AAC
:102D60003223782280B2009028684FF4967841464A
:102D7000076B2846B8474FF6FF700090206828235D
:102D8000782201680D6B4146A847256801F050FF85
:102D9000808A322378224FF4CD7880B20090286860
:102DA0004146076B2846B84747F6CF300090206869
:102DB0002823782201680D6B4146A847256801F059
:102DC00037FF808A3223782280B2009028684FF43F
:102DD00002784146076B2846B84749F6A2000090A2
:102DE00020682823782201680D6B4146A8473046A9
:102DF000FFF73CFF20682CA34FF487794A4601680F
:102E0000CD692821A847256801F012FF0227808A92
:102E10004FF0280880B20290CDE9008728684FF46F
:102E2000827ADC2352465146D0F82CC02846E0472F
:102E3000206820A34A460168CD694FF48C71A847E9
:102E4000256801F0F5FE808ADC23CDE9008780B299
:102E5000029028684FF4FA715246C76A2846B8476C
:102E6000206817A34A460168CC6940F22621A04792
:102E700008B03046BDE8F047FFF7D2BE040002209C
:102E800053657474696E6773000000004861757063
:102E9000746D656E75000000440202204661726226
:102EA000736368656D613A00537069656C6D6F643A
:102EB00075733A0076732E20537069656C657200E5
:102EC00076732E20426F74000A4810B50078C00750
:102ED0000DD1084803F016F848B1074801F060FE2C
:102EE000064A0749FDF739FB0248AFF30080024864
:102EF00010BD000034030220380302200000000847
:102F0000052F00087047000000B5B4EE600AF1EE2E
:102F100010FA06D030EE601AF7EE001A81EE810A40
:102F200001E0B7EE000A9FED051A001D20EE010A30
:102F3000FFF7EBFA024940F8041D00BD00FF7F4790
:102F40005C70000830B5002203681C788C4204D8FD
:102F50005D788D4201D3091BCAB29B78416802FBA0
:102F60000311816030BD034600B5184602F0A5FF8D
:102F700002FB001081B2986801F0070200EBD1005B
:102F800080210078D140084008B1012000BD002018
:102F900000BD0160426082607047002070470020E1
:102FA00070472DE9F04104468846DDE906760025A4
:102FB000012020716079002801D002F037FA08F072
:102FC000FE0CBBB1A1684CEA03404860A0684168B0
:102FD00041F40051416007E0A06881698907FCD590
:102FE000515D81626D1CEDB29D42F5D3A06881698F
:102FF0004906FCD5A1684CEA064040F48060486070
:10300000A068416841F400514160002007E0A168D8
:103010008A695207FCD5496A3954401CC0B2B04293
:10302000F5D3A06881694906FCD5416841F4804127
:103030004160607908B102F0EBF9207910B100200D
:10304000BDE8F0810120FBE770477047704770478B
:1030500070B58AB00E4615461946FFF7C5FC044602
:1030600045482060012E454806D0022E13D0032E7D
:1030700020D0042E3BD12CE04149A160016841F4ED
:103080000011016010219F20FFF7B6FC1021A02045
:10309000FFF7B2FC2BE03B49A160016841F48001DD
:1030A00001601021A220FFF7A7FC1021A320FFF749
:1030B000A3FC1CE03449A160016841F400010160F7
:1030C0001021A520FFF798FC1021A620FFF794FC03
:1030D0000DE02E49A160016841F08071016010216E
:1030E000A820FFF789FC1021A920FFF785FC2848BC
:1030F000D0E90512CDE90812D0E90712CDE9061290
:10310000D0E90912CDE90412D0E90B12CDE902127F
:10311000D0E90D01CDE900012DB1022D05D0032D1F
:1031200005D0042D05D0002104E0012102E0022198
:1031300000E0032108A83DF8112010F81100000755
:1031400040EA025002AA32F8112040EA024004AAE2
:1031500032F8112040EA022006AA32F81110084382
:10316000A1680861A068016841F201021143016091
:103170000AB0204670BD0000707000084038024060
:103180000054004000580040005C004000600040D7
:10319000946E000870B50C4616461A463146FFF785
:1031A000A5FB0549054601602C61204621684C6855
:1031B0003146A047284670BD9C70000838B50446CB
:1031C0006A4604F11000042305460321FFF7F5FBCE
:1031D0002846FFF703FC002819D19DF800000221C2
:1031E000B1EB901F14D19DF802209DF8031002F05E
:1031F0000F0241EA0221A1809DF8011000F00F00AA
:1032000041EA0020A189081AE0800120207238BD1F
:103210000020207238BD000010B50C464FF4F0724B
:103220004FF4487102F006FA024605481060542334
:10323000044910461161446103760021417610BDB6
:10324000B47000086C7300080B4610B51146FFF708
:103250005BFE0446044820602361184619684B68E9
:1032600011469847204610BDCC70000830B585B097
:103270000446FEA0006804900022A06A01680B6862
:1032800011469847A06A042201684B6804A9984730
:10329000F7A0006804908022A06A01680B680021F2
:1032A0009847A06A032201684B6804A99847F1A0D7
:1032B000006804908022A06A01680B68002198478A
:1032C000A06A022201684B6804A99847EAA0006836
:1032D00004908A22A06A01680B6800219847A06ABE
:1032E000022201684B6804A998470A2002F081F87D
:1032F000E2A000680490B122A06A01680B68002176
:103300009847A06A022201684B6804A99847DCA08C
:10331000006804909122A06A01680B680021984718
:10332000A06A022201684B6804A99847D5A00068EA
:103330000490B422A06A01680B6800219847A06A33
:10334000022201684B6804A99847CFA00068049046
:103350000022A06A01680B6811469847A06A022201
:1033600001684B6804A99847C8A0006804908122AE
:10337000A06A01680B6800219847A06A02220168D0
:103380004B6804A99847C2A000680490A122A06AD3
:1033900001680B6800219847A06A022201684B6807
:1033A00004A99847BBA0006804909222A06A016813
:1033B0000B6800219847A06A022201684B6804A9A3
:1033C0009847B5A0006804909522A06A01680B6830
:1033D00000219847A06A022201684B6804A9984717
:1033E000AEA0006804900022A06A01680B68114634
:1033F0009847A06A032201684B6804A99847A8A0CF
:10340000006804909422A06A01680B680021984724
:10341000A06A022201684B6804A99847A1A000682D
:103420000490A322A06A01680B6800219847A06A53
:10343000022201684B6804A998479BA00068049089
:103440008222A06A01680B6800219847A06A0222C4
:1034500001684B6804A9984794A0006804908122F1
:10346000A06A01680B6800219847A06A02220168DF
:103470004B6804A998478EA000680490A122A06A16
:1034800001680B6800219847A06A022201684B6816
:1034900004A9984787A000680490A622A06A016842
:1034A0000B6800219847A06A032201684B6804A9B1
:1034B000984781A005C8CDE90302A06A802201686F
:1034C0000B6800219847A06A072201684B6803A98E
:1034D00098477BA0D0E90053D0E90220CDE9015301
:1034E000CDE90320A06AA02201680B68002198475B
:1034F000A06A0F2201684B6801A9984774A0D0E91F
:103500000053D0E90220CDE90153CDE90320A06AA0
:10351000B02201680B6800219847A06A0F22016859
:103520004B6801A998476EA0D0E9003280680490EA
:10353000CDE90232A06AC02201680B6800219847D9
:10354000A06A0B2201684B6802A9984767A000682F
:103550000490D022A06A01680B6800219847A06AF5
:10356000022201684B6804A9984761A0D0E90032A3
:1035700080680490CDE90232A06A802201680B685D
:1035800000219847A06A0B2201684B6802A998475E
:103590005AA0D0E901530268C06801920490CDE9B5
:1035A0000253A06A902201680B6800219847A06A24
:1035B000102201684B6801A9984750A0D0E9003556
:1035C000D0E90220CDE90135CDE90320A06AA0228F
:1035D00001680B6800219847A06A102201684B68B7
:1035E00001A9984742A0D0E9002380680490CDE962
:1035F0000223A06AB02201680B6800219847A06AE4
:103600000B2201684B6802A9984740A001A990E8E5
:103610002C00C0682CC10490C022A06A01680B680D
:1036200000219847A06A102201684B6801A99847B9
:103630003AA0D0E90053D0E90220CDE90153CDE909
:103640000320A06AD02201680B6800219847A06A75
:10365000102201684B6801A9984725A0D0E90032E3
:1036600080680490CDE90232A06A5FE0FF80090122
:10367000FF800900C4300000C4400000C5A900005C
:10368000C5340000C0500000D94E0000C1660000E3
:10369000C1080000C5010000C5360000D8797900D6
:1036A000C5330000C01B0000C5830000C4830000B8
:1036B000C10E0000B3000100CE85010084010000AE
:1036C000CE180403390000001803033A000000007C
:1036D000CE1802033B0000001801033C000000006C
:1036E000CF0101202000000102000000CF000000F7
:1036F000CB0000000000000000000000CB00000034
:10370000000000000000000000000000CB000404E6
:10371000040404000000000000000000CB000000D2
:103720000000000404040404000000000168E0221A
:103730000B6800219847A06A0B2201684B6802A918
:103740009847B8A0D0E9002380680490CDE902230F
:10375000A06AF02201680B6800219847A06A0B223A
:1037600001684B6802A99847B1A0D0E9003280688F
:103770000490CDE90232A06A802201680B68002122
:103780009847A06A0B2201684B6802A99847ABA032
:10379000D0E90035D0E90220CDE90135CDE903209B
:1037A000A06A902201680B6800219847A06A102245
:1037B00001684B6801A99847A4A0D0E90035D0E979
:1037C0000220CDE90135CDE90320A06AA0220168DD
:1037D0000B6800219847A06A102201684B6801A974
:1037E00098479EA0D0E9002380680490CDE9022389
:1037F000A06AB02201680B6800219847A06A0B22DA
:1038000001684B6802A9984797A0D0E90153026864
:10381000C06801920490CDE90253A06AC0220168F9
:103820000B6800219847A06A102201684B6801A923
:10383000984791A0D0E90035D0E90220CDE90135C3
:10384000CDE90320A06AD02201680B6800219847C7
:10385000A06A102201684B6801A998478AA00068F5
:1038600004908122A06A01680B6800219847A06A31
:10387000022201684B6804A9984784A0006804905C
:10388000B122A06A01680B6800219847A06A022251
:1038900001684B6804A998477DA000680490B6228F
:1038A000A06A01680B6800219847A06A022201689B
:1038B0004B6804A998475CA0006804900022A06AA5
:1038C00001680B6811469847A06A042201684B689A
:1038D00004A99847A06A002201680B68114698471E
:1038E00014226CA16846FCF76EFEA06A00220168F3
:1038F0000B6811469847A06A112201684B68694617
:103900009847142268A16846FCF75DFEA06A002271
:1039100001680B6811469847A06A112201684B683C
:1039200069469847A06A002201680B6811219847F0
:10393000782001F05EFDA06A772201680B683A21C9
:10394000984794F82C0028B1012811D0022808D0FB
:10395000032814D0A06A002201680B68362198471A
:1039600013E0A06AC02201680B68362198470CE07A
:10397000A06A602201680B683621984705E0A06ABA
:10398000A02201680B68362198474CA003C8CDE9F6
:103990000301A089401E000A8DF80F00207B401E05
:1039A0008DF81000A06A052201684B6803A99847AA
:1039B00044A003C8CDE90301208A401E000A8DF807
:1039C0000F00207C401E8DF81000A06A05220168BF
:1039D0004B6803A99847A06A7F2201680B685121B0
:1039E0009847A06A2C2201680B6853219847A06A67
:1039F000022201680B6855219847A06A7F2201685E
:103A00000B685E219847A06A002201680B68282194
:103A10009847A06A002201680B6805B01146BDE80E
:103A200030401847CBFFFFFFFFFFFFFFFFFFFF0006
:103A3000CC0026090B01250000000000CC0000008E
:103A40000000000000000000260A0C02CC25000047
:103A5000000000000000000000000000CC00250C69
:103A60000A02260000000000CC0000000000000058
:103A700000000000250B0901CC260000000000001A
:103A80000000000000000000C5660000C620000025
:103A9000F5060000E100090F0E07100B0A04070BE2
:103AA000080F100A01000000E200090F0E07100BBA
:103AB0000A04070B080F100A010000002A0000008A
:103AC000000000002B00000000000000F8B50446D4
:103AD0000F4615461E46099806A9009020460EC9B5
:103AE00000F0C4F8164A04460260A76284F82C600D
:103AF000F2074FF448704FF4F07102D0E06021619A
:103B000001E0E16020610020E08520866086A086DB
:103B1000E0862087012128680268284690472868A7
:103B2000C16828468847142001F063FC2868416872
:103B300028468847142001F05CFC2046F8BD0000B0
:103B4000E07000080181428170472DE9F843064684
:103B50001F46DDF820803B46CDF800803068846C3D
:103B60003046A04700250CE0002406E03068B18C08
:103B7000026D30469047641CA4B2BC42F6D36D1C63
:103B8000ADB24545F0D3BDE8F88341847047C184A8
:103B90007047818470472DE9F84F044604F1140002
:103BA0008246FFF7CFF9504602F08AF994F82010C8
:103BB00010FB01F0401C81B2504602F07EF994F8EF
:103BC00020200091218910FB02F320686289856C16
:103BD0002046A8474FF000092CE0002722E00026ED
:103BE00019E04A4631465046FFF7BDF980460025A8
:103BF0000BE0B8F1000F01D0E18C00E0618C20688F
:103C0000026D204690476D1CEDB294F82000A8424A
:103C1000EFD8761CF6B2504602F04FF9B042E0D829
:103C20007F1CFFB294F82000B842D8D809F10109EE
:103C300009F0FF09504602F043F94845CDD85046F7
:103C400002F03BF994F82020218912FB001020811A
:103C5000BDE8F88F704730B40D460468818C134678
:103C60002A46E46CA44630BC604700001FB5069CA1
:103C700014220A21FEF750FC0A49016001A90EC96D
:103C8000C0E90623416180F820401F2141844CF2A5
:103C9000186181844FF6FF71C18400210181418147
:103CA00004B010BD3C7100087CB5044604F1080066
:103CB000054602F08DFBA8B9206881682046884738
:103CC000012802D002280DD106E00120019001A9AF
:103CD000284602F08CFB05E0022069460090284649
:103CE00002F085FB284602F073FB00280CD1206807
:103CF000416820468847032807D0042804D1694634
:103D00000090284602F073FB7CBD0320019001A9BE
:103D1000284602F06CFB7CBD10B50069002806D077
:103D2000016889698847012803D0022803D0002050
:103D300010BD032010BD042010BD00002DE9F0418E
:103D40000F461646002100F0E3FF05460A482860AA
:103D500014202C46002121736173A173E07302F0DB
:103D6000B7F8A0602F6126B1306829464268304616
:103D700090472846BDE8F081987100082DE9F04190
:103D800007460C46606801680968884760680168F2
:103D90004968884747F6FF7600B23246002102F0B4
:103DA0000FFB0546606801688968884700B23246A3
:103DB000002102F005FB064660680168C968884773
:103DC000002108B1227A0AB140B10FE01022227519
:103DD000A581E6812161A561E6613FE0227A2AB1F1
:103DE00020222275A581E681216137E098B3227AED
:103DF0008AB301222275A581E6812161A269AA42C6
:103E000002D1E169B14229D0511B00D549420F29A5
:103E100006DCE169891B002900DA49420F291DDD12
:103E2000AA1AE169711A002A01DB134600E0534225
:103E30005FEA010C00D401E0C1F1000C634503DD31
:103E400003212175226103E0052222754942216187
:103E5000A561E66102E0FFE72175216120720C3463
:103E600007CC07C7BDE8F081044A02604160002129
:103E700001758181C181016170470000AC7100084A
:103E80002DE9FC5F8046894693461E46DDF830A04A
:103E9000002436E000EE106A00EE904AB8EE400AC8
:103EA000B8EE601A00EE904A20EE000AF8EE600AC2
:103EB00001EE600A02F030F8BDEEC00A10EE105AB2
:103EC0004FF6FF70012300EA4507CDE9007A09EBC0
:103ED000040081B2D8F80000ABEB0505AAB2D0F817
:103EE00028C04046E047CDE9007AA9EB040081B242
:103EF000D8F80000AAB20123856A4046A847641C8E
:103F0000A4B2B442C6D9BDE8FC9F40680268126AF8
:103F1000104740680268926A10472DE9F843174637
:103F200004460E469846DDE90892606801684D6ACD
:103F30001146A847CDF80090434660683A460168AC
:103F40004C6B3146A047BDE8F883406801680968BA
:103F5000084740680168496808472DE9FF5F9046B7
:103F600081460F46DDE90E2BDE1BA2EB080ABAF1F3
:103F7000000F0ED0D81B4442002E22D0304600DA6B
:103F80002046A2EB08025FEA0A01C2F1000532D422
:103F900032E09F4200D31F463946904500D2424648
:103FA0001098002ECDE900B000DA7642A2EB5B005B
:103FB00082B2D9F80000B3B2846A4846A047BDE88F
:103FC000FF9F9F4200D23B46904500D24246109848
:103FD000BAF1000F01DACAF1000A1FFA8AF1CDE93D
:103FE0000010A3EB5B005B4681B2D9F80000846A45
:103FF0004846A047E3E7294688422FDCBAF1000F84
:1040000000DB5546002DDADBBAF1000F01DB50462C
:1040100001E0CAF1000005FB06F191FBF0F0384425
:10402000039001DD284601E0C5F100004044029004
:104030005C46002C0EDB0298109B82B20398204451
:1040400081B2D9F80000D0F824C04846E047641E89
:10405000002CF0DA6D1E002DD6DAB0E7002E00DB62
:104060003446002CABDB002E01DD204601E0C4F11C
:1040700000003844039001DB304601E0C6F1000047
:1040800004FB0AF191FBF0F0404402905D46002DE4
:104090000EDB0298109B284482B2039881B2D9F8B3
:1040A0000000D0F824C04846E0476D1E002DF0DA2D
:1040B000641E002CD7DA82E770B505461E46686894
:1040C0000368DB6A9847002405E068680268D268E4
:1040D0009047641CE4B2315D0029F6D170BDF0B5A3
:1040E00089B005460C4617461E460FAA0E9901A830
:1040F000FCF7F8F90020009068683A460168CB6A3E
:1041000021469847002401AF05E068680268D2683C
:104110009047641CE4B2395D0029F6D106E0686876
:104120000168CA6820219047641CE4B2B442F6D307
:1041300009B0F0BD2DE9FC470446894690469A46F1
:10414000DDE90A750C9E534642464946CDE90056C4
:104150002068D0F828C02046E04708EB0700534607
:10416000401B4946CDE9005682B22068D0F828C0ED
:104170002046E047CDE9007620682B464246494676
:10418000D0F828C02046E04709EB0A002B46401B28
:104190004246CDE9007681B22068866A2046B04763
:1041A000BDE8FC872DE9F04104460E4617466068DD
:1041B00001684D6A1946A84760683A4601680B6B6A
:1041C0003146BDE8F041184710B504460348206069
:1041D00061602046FFF7B9FE204610BDB8710008A7
:1041E00010B5016CC163D0E903235A4301EB82028D
:1041F00003E0448C8B1CC3630C80C16B9142F8D3E9
:1042000010BD806A00F048BE10B5029CC1850286D0
:1042100043868486C186C36802FB03F4048702FBDD
:1042200003114164026C02EB4101C16310BDC26B1A
:10423000931CC3631180C18E491C8AB2C286C18D92
:10424000438E0B4493420BD8C186018F491C0187D2
:10425000C268416C11444164026C02EB4101C163CC
:10426000704710B5C4685C43630003EB4202036C03
:104270001A44C263118010BD2DE9FF410D9C0394C7
:10428000DDE90B460A9DCDE901460095FFF71EFCCE
:104290002D49044601600123208A82B2A08981B29F
:1042A000A06A00F001FE2046FEF7E0FFA089A76AA1
:1042B00085B2208A86B225484FF00008C0F80080F9
:1042C000042022493C390860384600F0E5FD2048CA
:1042D0001F4A783A1168C1F30B411268C2F30A020F
:1042E0006B18491C41EA03414160B118521C42EA73
:1042F0000141816002210161C0F81880FF21416104
:1043000040F20761C161796881626900CA1C42EAB2
:104310000141C1620663016841F0010101600C497D
:1043200001206039086079682164E1630022A06A95
:1043300001680B6829219847A06A00F0ADFD04B020
:104340002046BDE8F081000000720008686C014062
:104350008468014010B50446E08A002801D0401E60
:10436000E082A06988B1016889698847012808D07E
:10437000E08A50B9A08A40B1A069016849698847BC
:1043800018B1A08AE082012010BDE06988B10168FF
:1043900089698847012808D0E08A50B9A08A40B1CD
:1043A000E06901684969884718B1A08AE082022063
:1043B00010BD002010BD00002DE9F04188461746D1
:1043C0001946DDE906562A46FFF7B8FC04460E48B2
:1043D0002060C4F81880E7617DB12868016828462C
:1043E000884750B128680168284688474FF47A7199
:1043F0004E43B6FBF0F0A08201E00020A082A08A2C
:10440000E0822046BDE8F0815C72000870B5044689
:10441000A1F16500B0F5907F1AD8B2F5C37F17DA25
:10442000642A15DD2068FDF76BFE05460A48006822
:1044300001684968884709480078012803D115B107
:104440002068FDF7B1FE2068BDE87040FDF743BE6F
:104450004FF0FF3070BD0000040002206400022015
:1044600010B504460C20FBF7E7FFFDF7C4FE206003
:10447000204610BD10B504462068002804D0FDF782
:10448000CFFE08B1FCF707F8204610BD2DE9FC4F20
:104490000021009101914FF0040990E8F810D0E953
:1044A00006A8026A585C00EB400009EB4000105C73
:1044B00000287DD0801C9DF800B058448DF8000085
:1044C000605C00EB400009EB4000105C002871D0FC
:1044D000801C9DF801B058448DF80100685C00EB29
:1044E000400009EB4000105CF0B3801C9DF802B066
:1044F00058448DF80200705C00EB400009EB40006E
:10450000105C90B3801C9DF803B058448DF80300F4
:10451000785C00EB400009EB4000105C30B3801C7D
:104520009DF804B058448DF804001CF8010000EB1D
:10453000400009EB4000105CB8B3801C9DF805B04A
:1045400058448DF8050018F8010000EB400009EB15
:104550004000105C58B3801C9DF806B058448DF89C
:1045600006001AF8010002E026E027E028E000EB50
:10457000400009EB4000105C40B3801C9DF807B080
:1045800058448DF80700491CC9B203298AD300207A
:104590006A46115C09291BD00C2919D0401C082837
:1045A000F7DB0020BDE8FC8F02E00BE002E00BE04F
:1045B000002080E700208CE7002097E70020A2E79A
:1045C0000020ADE70020B9E70020C5E70020D5E7CF
:1045D0000120E7E730B58FB00446362001F078FCC3
:1045E000206238220B4901A8FBF7EDFF002101A84A
:1045F000236A01EB410203EB420300EB4202156820
:104600001D6092889A80491CC9B20929F0D30FB065
:1046100030BD00005C6E000870B50446032001F058
:1046200057FC2060032001F053FC6060032001F080
:104630004FFCA060032001F04BFCE060032001F080
:1046400047FC2061032001F043FC6061032001F07E
:104650003FFCA061032001F03BFCE0610021062348
:10466000206841546268C81C5054A268881D505488
:10467000E26801EB410050542569421C6A546269AA
:10468000801C5054A26988005054E269484203EBF0
:1046900040005054491CC9B20329E1D370BD10B584
:1046A00004462046FFF796FF2046FFF7B5FF204659
:1046B00010BD10B50446206A01F005FC206801F029
:1046C00002FC606801F0FFFBA06801F0FCFBE06801
:1046D00001F0F9FB206901F0F6FB606901F0F3FBE2
:1046E000A06901F0F0FBE06901F0EDFB204610BD90
:1046F0002DE9FE43DFF87880D8F8004000F098FA02
:104700004FF00209808A4FF4C37380B20290CDE962
:104710000039206832221146C56A2046A847B424D1
:104720004FF4DC77D8F8005000F082FA808A322209
:10473000CDE9007980B20290286823462146466B75
:104740002846B047D8F8005000F072FA808A32212B
:10475000CDE9004980B2029028683B462246466B6C
:104760002846B0478234A4B2BC42DBD3BDE8FE8306
:104770000400022077B581B012499DF80C00BDF805
:1047800008500C6801280FD002280CD100F050FA14
:10479000008A2D23BDF80A20294680B200902068A7
:1047A000066B2046B0477FBD00F042FA80892D237A
:1047B000BDF80A20294680B200902068066B20468A
:1047C000B0477FBD040002202DE9F04F0D4616468C
:1047D00099462DED028B83B0DDE90E4A4FF44878FF
:1047E0005046FBF7D1FE83464FF4C8710BEBDB70EC
:1047F000401000FB141000EE100AB8EEC08A174FEC
:104800003C6800F015FA008909F11E091FFA89F1C8
:10481000434680B2B2B2CDE900102068A9B2D0F808
:1048200028C02046E04700EE105ACDF800A00F3611
:10483000B2B2B8EEC00A0BF0FF0330EE080ABCEECD
:10484000C00A10EE100A81B238680468246AA047D2
:1048500003B0BDEC028BBDE8F08F00000400022025
:104860002DE9F04F8FB00F4691469A46DDE9188446
:10487000DDE91B51620016B21A9A012A21D10FF20A
:10488000C01CDDE91D32CDE9062C0022CDE9041360
:10489000CDE90221CDE9008453464A463946FFF767
:1048A000DFFF7F1D3FB209F105090FFA89F9AAF16F
:1048B0000A0A0FFA8AFAA8F10A080FFA88F8002003
:1048C0001A90ADB2AAEB060080B20E90CDE90005B9
:1048D000A8EB06000D9083B238190C9081B25948AC
:1048E00009EB040B1FFA8BF20068D0F800C0DCF86B
:1048F00028C0E0470C98A3B200951FFA8BF281B252
:1049000050480068D0F800C0DCF830C0E04707EB42
:10491000080000950B90001B0A9081B24948A3B291
:104920001FFA8BF20068D0F800C0DCF830C0E04716
:1049300009EB0A000990001B089082B20C980095C0
:10494000A3B281B23F480068D0F800C0DCF830C0A4
:10495000E0470898A3B2009582B20A9881B239481C
:1049600000680468246BA0470E98B3B2CDE9000537
:1049700034481FFA8BF2B9B200680468A46AA047F1
:104980000E98B3B2CDE900050B981FFA8BF2801B8D
:1049900081B22C4800680468A46AA0470D98B4B29C
:1049A000CDE9004583B20C981FFA89F281B22548FF
:1049B0000068D0F800C0DCF828C0E0470D98CDE9C9
:1049C000004583B20998801B82B20C9881B21D48C1
:1049D00000680468A46AA0471A9800282CD11F9880
:1049E000FBF7D2FD08EBD8714A1000EBD0714B10E9
:1049F0001E9903FB112100EE101AB8EEC00A00EE5A
:104A0000907A1F99C3B200910AEBDA71F8EEE00ACE
:104A100009EB61021D9930EE800A01EBD171A2EB26
:104A20006101BCEEC00A8AB210EE100A81B20548DC
:104A300000680468246AA0470FB0BDE8F08F00004A
:104A4000000000000400022070B504460D46164622
:104A5000B4F9000000280BD1002D01DA002E07DB8D
:104A6000FDF734FD32462946FDF7EAFB208028E0B9
:104A700001280BD1002D01DA002E07DB01F02EF901
:104A80003246294601F0ACF820801AE002280BD10A
:104A9000002D01DA002E07DBFDF708FF324629461C
:104AA000FDF78EFE20800CE003280AD1002D01DAEC
:104AB000002E06DBFEF708FA32462946FEF716F806
:104AC0002080B4F90000401C01D160882080B4F936
:104AD0000000B4F90210884221D013480068016830
:104AE00009688847B4F9000030B1012809D00228CC
:104AF0000CD0032813D10EE0FDF7E8FCFDF7C6FB50
:104B00000DE001F0EBF801F0A3F808E0FDF7CEFEB0
:104B1000FDF77EFE03E0FEF7D7F9FEF7D3F8B4F910
:104B20000000608070BD0000040002200A4810B53B
:104B30000078C0070DD1084801F0E4F948B10748F2
:104B400000F02EF8064A0749FBF707FD0248AFF3CD
:104B50000080024810BD00004003022044030220F0
:104B600000000008AB4B000810B5029800EB800075
:104B700033F910408C4210DA03EB4000B0F90230F8
:104B80008B420ADDB0F90410914206DAB0F9061042
:104B9000914202DDB0F9080010BD4FF0FF3010BDAA
:104BA00000210180491E41807047704770B504465E
:104BB000A161002904D001290FD0022926D119E0D2
:104BC000E0692060206A6060606AA060A06AE060BE
:104BD000E06A2061206B606118E0A06B2060E06BF0
:104BE0006060206CA060606CE060A06C2061E06C94
:104BF00060610BE0206D2060606D6060A06DA06062
:104C0000E06DE060206E2061606E6061074D20887D
:104C100081B22868026852699047A08881B22868EA
:104C200002689269BDE8704010470000040002204D
:104C30000A4810B50078C0070DD1084801F062F9A4
:104C400048B1074800F012F8064A0749FBF785FC0F
:104C50000248AFF30080024810BD00004C03022060
:104C60004806022000000008EB4C00082DE9F04146
:104C700045F20C35C5614FF6FF71016249F2F44609
:104C8000466241F66277876241F27D3CC0F82CC0F3
:104C90004EF68212026381630023C3634BF2915488
:104CA00004644EF24064446449F21964846448F632
:104CB0001C04C46449F6A20404654FF266644465AA
:104CC00049F2B248C0F85880C46540F25F340466C7
:104CD00045F28A244466056041608660C760C0F87A
:104CE00010C042618361BDE8F0817047026806E050
:104CF0008A4201D100207047536813B11A46002A36
:104D0000F6D10AB1516000E00160012070477047A0
:104D100010B504460846054921600021616000285D
:104D200002D02146FFF7E2FF204610BDA87300081D
:104D300010B5046804E0206801682046884764686C
:104D4000002CF8D110BD00210160704710B5044659
:104D500020684169204688470146207C08B101202F
:104D600000E00020A27E04EB8000806820F8121092
:104D7000E07E401CC0B2E076617E884208D2616964
:104D8000095CA176206882692046BDE81040104782
:104D90000020E07661690978A176207710BDF0B433
:104DA000067E8E4220D90023447E08E04569ED5CF2
:104DB0008D4203D10368DB69F0BC18475B1C9C4241
:104DC000F4DCB44210D28568002325F81430457E07
:104DD000C46824F81530437E5C1C44764469E15471
:104DE0000368DB69F0BC1847F0BC7047417E0029BE
:104DF00011D0017F00290ED1C176416909788176F1
:104E0000027C32B1002202740122027702689269A8
:104E100010470122F7E770472DE9F0410E4615468D
:104E20000021FFF775FF04460F48206025B1286870
:104E300021464268284690470025A576E5766576A6
:104E400026767700384601F043F8A060384601F036
:104E50003FF8E060304601F03BF86061257425774B
:104E60002046BDE8F081000070720008014A02602F
:104E7000017170479872000806480368DB07FCD090
:104E80000802044940EA0240083940F01500086071
:104E900070470000746C01400248416841F0040111
:104EA00041607047007001402DE9F0470D46904683
:104EB0009946564C606820F008006060544E306897
:104EC00020F00100306052499C31086820F0040055
:104ED0000860086820F002000860206B20F00100E4
:104EE0002063206B20F080702063206B40F0807086
:104EF0002063E068C004FCD59FED460B206B474A59
:104F000010402063206B42F6901210432063206B08
:104F100040F001002063E068C005FCD50620086071
:104F20003B4801279030076040F601203849A03106
:104F3000086004203649091D08609FED391B51ECBB
:104F4000100B53EC112B01F03BFC41EC100B53EC1C
:104F5000102B9FED350B51EC100B01F099FA01F07D
:104F6000EFFB80B2A0612A490020C0310860091D12
:104F70000860274930310F600B2121602449083136
:104F800008602349103108600521214A0C32116064
:104F90001F4960310D601E4A254964321160B9F124
:104FA000000F21D0234908604FF00112214B103B24
:104FB0001A6052001B1D1A60AD1C08F102081B1D6F
:104FC00048EA05421A606D1C08F101080B1F48EA07
:104FD00005421A60174A14321060164A1C321060DB
:104FE000086840F001000860306840F0010030605F
:104FF000606840F00800606005494FF0231094316C
:105000000860091D0C480860BDE8F0870070014089
:10501000046C01400000000065CDBD410386FCFF2B
:1050200095D626E80B2EF13D000000000000F03F71
:10503000007F0E00186801400000232370B5002097
:105040000E4B1C68E407FCD00C4D2D1F0CE00B1818
:105050000C5C5E7844EA06249E78DB78360446EAE7
:1050600003631C432C60001D9042F0D390B23921A1
:1050700041EA002001490839086070BD746C0140A4
:1050800070B50546234C206820F4F84040F4C05029
:105090002060A0682049084040F48310A060687830
:1050A0008000A0F1C040D0F840116FF3090141F435
:1050B000F271C0F8401168788000A0F1C040D0F8CB
:1050C0004811164A1140164A1143C0F848110122EE
:1050D00028460023114600F025F8012000F089F948
:1050E000002328460122022100F01CF80023284654
:1050F0000822032100F016F84FF40C732846012211
:10510000042100F00FF8606940F65E4108436061D9
:1051100070BD0000400100A0FF0F0FFF00F0F0F095
:105120006103010110B58478002C03D0022914D04A
:10513000032912D0407890B10120521E41EAC000EC
:1051400040EA421040EA43214FF02040C0F850119D
:10515000D0F858118906FBD410BD0320EDE70220DA
:10516000EBE7000070B5044601F00F00207008095D
:105170006070A2704FF4045569202946FDF73CFC8D
:105180006A202946FDF738FC75202946FDF734FCD6
:1051900080202946FDF730FC83202946FDF72CFCB2
:1051A00084202946FDF728FC85202946FDF724FCAC
:1051B00086202946FDF720FC87202946FDF71CFCA8
:1051C00088202946FDF718FC6B202946FDF714FCC2
:1051D0006C202946FDF710FC6D202946FDF70CFCDC
:1051E0006E202946FDF708FC6F202946FDF704FCD8
:1051F00070202946FDF700FC71202946FDF7FCFBD5
:1052000072202946FDF7F8FB73202946FDF7F4FBD1
:1052100074202946FDF7F0FB76202946FDF7ECFBCC
:1052200077202946FDF7E8FB78202946FDF7E4FBC7
:1052300079202946FDF7E0FB7A202946FDF7DCFBC3
:105240007B202946FDF7D8FB7C202946FDF7D4FBBF
:105250007D202946FDF7D0FB7E202946FDF7CCFBBB
:105260007F202946FDF7C8FB81202946FDF7C4FBB6
:1052700082202946FDF7C0FB8A202946FDF7BCFBAA
:105280008B202946FDF7B8FB4A202946FDF7B4FBE1
:105290004B202946FDF7B0FB56202946FDF7ACFB15
:1052A0005D202946FDF7A8FB5E202946FDF7A4FBFB
:1052B0005F202946FDF7A0FB60202946FDF79CFBF7
:1052C00061202946FDF798FB62202946FDF794FBF3
:1052D00063202946FDF790FB4C202946FDF78CFB07
:1052E0004D202946FDF788FB4E202946FDF784FB1B
:1052F0004F202946FDF780FB50202946FDF77CFB17
:1053000051202946FDF778FB98202946FDF774FBCC
:1053100099202946FDF770FB9C202946FDF76CFB80
:1053200096202946FDF768FB9A202946FDF764FB85
:105330009D202946FDF760FB8C202946FDF75CFB8C
:105340008D202946FDF758FB0648016841F0010110
:1053500001602078022802D12046FFF791FE204606
:1053600070BD0000383802400149016070470000FC
:10537000BC720008C168406802681269104710B525
:1053800004466068016849698847E168084201D0BD
:10539000012010BD002010BD034630B40C00586839
:1053A000D968026802D0926830BC1047126930BCDC
:1053B0001047C16840680268926810470A46017A3F
:1053C000406803685B681847034B036041600272E2
:1053D00001219140C1607047B47300084FF6FF711E
:1053E00001EA800002E000BF401E80B20028FAD12E
:1053F0007047024600B54FF47A7304E01846FFF791
:10540000EDFF521E92B2002AF8D100BD7047000095
:1054100005490878002801D0401E08700878002847
:1054200000D162B670470000A802022072B602489E
:105430000178491C01707047A8020220024600B59D
:10544000FFF7E4FF09B1FFF7F1FF104600BD0000D0
:10545000044801F01F01C162016841F08041016010
:10546000704700000822014030B502F007040D4DDE
:1054700008290CD00C2909D103210120FDF7BCFA21
:10548000D5F80C0240EA8410C5F80C0230BD0321A7
:105490000020FDF7B1FAD5F8100240EA0460C5F823
:1054A000100230BD002001400148006880B2704702
:1054B0004C22014010B50A461021FFF7ADFC04460E
:1054C0000C4820600C48C4600C48016841F48061BD
:1054D00001600B48D0F8001141F44031C0F80011D0
:1054E00040F601014160202101601220FCF7E6FD39
:1054F000204610BDCC720008A802022044380240A9
:105500000422014010B50B4C00290AD0012907D113
:1055100003210920FDF770FA206840F44030206034
:1055200010BD03210820FDF767FA206840F0030052
:10553000206010BD0074004000B50221FFF796FC0A
:105540000349016003490A6842F000520A6000BD45
:10555000F4720008403802400A4610B5FFF704FF15
:105560002949016029490B6843F480730B6028497D
:10557000012A01D052B11EE00B6823F440730B6086
:105580000B6848F2011423430B6014E00B6813F41A
:10559000407F07D10B6843F480330B600B6823F422
:1055A00080330B600B6823F440730B600B6848F288
:1055B000013423430B60164968390B6823F4F81350
:1055C0000B600B6843F4C8130B601249CA230B60CD
:1055D00053230B600F4918390B6843F080030B60AD
:1055E0000B685B06FCD5012A09D042B9094A41F68D
:1055F0003F73143A1360136843F4F80313600A68A6
:1056000022F080020A6010BD08730008007000409C
:1056100070380240242800400830FFF789BB4068FA
:1056200070470830FFF762BB80887047C0887047BA
:10563000007A7047044B03604181828100218180A0
:10564000C1800172704700003473000850F8841F55
:105650000A6902F060420A6101680A6942F40022A4
:105660000A610068016841F0044101607047000070
:1056700070B590F8814090F883108C4200D30C46AE
:10568000E11C8B08D0F88410896989B299420FD344
:10569000411C002280F8812080F8822006E0D0F8AA
:1056A000886051F8045B3560521C92B29A42F6D37E
:1056B000002C06D103490A680378012098408243F0
:1056C0000A6070BD34080050D0F8840081607047D3
:1056D000074909680278D140054A01F00101243ADE
:1056E000126842EAC111D0F884008068084070470F
:1056F0003408005070B580F883100378002B00D177
:1057000000210C4C256801269E40B3B21D43256044
:10571000D0F884301C6824040BD41C68C1F30A013F
:1057200000780C43910441EA80500443024804434A
:105730001C6070BD1C0800500080001010B490F870
:10574000833090F881401A46944200D2224690F865
:10575000824004B312B3D118491E91FBF3F1CBB2CE
:1057600050F8841F0C6904F060440C6101680C69F6
:1057700042EAC34214430C610B490A68012310F842
:10578000844CA3401A430A600068016841F0044158
:10579000016010BC704710BCFFF758BF0029F8D05B
:1057A00010BCFFF753BF00003408005050F8841FAE
:1057B0000A6902F060420A6101680A6910F8013C56
:1057C0001A4342F400220A610068016841F0044172
:1057D00001607047D0F8840081607047D0F8840081
:1057E00080680249096808407047000014080050AA
:1057F00010B5CA1C9308421C80F88110012180F862
:105800008210002106E0D0F88840246842F8044B5A
:10581000491C89B29942F6D310BD000070B480F8DB
:1058200083100378002B00D100210E4C266801253F
:105830009D4046EA05432360D0F884301C68240468
:1058400008D41C68C1F30A010C43074941EA8241AC
:105850000C431C600178002902D070BC00F006B82F
:1058600070BC70471C0800500080001010B490F805
:10587000831090F881208A4201D2134600E00B4643
:10588000C3B14B1E1A4492FBF1F2D2B250F8843FDE
:105890001C6904F060441C6103681C69514362F395
:1058A000DF410C431C610068016841F00441016064
:1058B00010BC704710BCFFF779BF4FF0A0404269A1
:1058C0000A43426170470000034800680249091D0D
:1058D0000968084080B27047180800500348006803
:1058E0000249091D09680840000C7047180800505B
:1058F0004FF0A040426980690240914301D00020EE
:1059000070470120704700002DE9F05F05464FF019
:10591000A049D9F81400C0077ED102212846FFF71C
:10592000E7FF18B102212846FFF7C7FF4FF4002117
:105930002846FFF7DDFF05F14C0AE0B32846FFF7E4
:10594000CDFF06464FF0000839E0F00730D0C8EB35
:10595000C80000EB800005EB800404F51F742046AE
:10596000FFF73CFF0746F8070CD02046FFF77EFF05
:1059700028680022414603682846984701212046AE
:10598000FFF728FF38070DD528680122002103689A
:105990002846984701215046FFF7D0FE08212046AF
:1059A000FFF718FFF80603D510212046FFF712FF76
:1059B00008F1010800E004E008F0FF087608002E76
:1059C000C3D14FF480212846FFF792FF05F51F7BD6
:1059D000F0B32846FFF778FF804600274FE05FEAE4
:1059E000C87048D0C7EBC70000EB800005EB80040F
:1059F0004C342046FFF76CFE0646F00718D0774976
:105A00000120B840C043086001212046FFF75CFE3A
:105A10005846FFF7CBFE00E0DEE02868012247F0A1
:105A2000800103682846984700212046FFF786FE3C
:105A3000300703D508212046FFF746FEF00603D5C0
:105A400010212046FFF740FE700605D5204600E0F5
:105A500018E04021FFF738FEB00703D502212046A9
:105A6000FFF732FE300606D52046FFF701FE802103
:105A70002046FFF729FE7F1CFFB24FEA5808B8F115
:105A8000000FACD14FF0004328461946FFF730FF16
:105A9000524C303C38B1206820F00100206019469B
:105AA0002846FFF70AFF4FF4006328461946FFF720
:105AB0001FFF18B119462846FFF7FFFE4FF4805626
:105AC00028463146FFF714FF38B128688268284617
:105AD000904731462846FFF7F0FE4FF4005628461F
