:020000040800F2
:1000000008240220F1020008F9020008FB0200089F
:10001000FD020008FF0200080103000800000000C4
:1000200000000000000000000000000003030008C2
:100030000503000800000000F90600082507000875
:100040000B0300080B0300080B0300080B03000858
:100050000B0300080B0300080B0300080B03000848
:100060000B0300080B0300080B0300080B03000838
:100070000B0300080B0300080B0300080B03000828
:100080000B0300080B030008B50600080B0300086B
:100090000B0300080B0300080B0300080B03000808
:1000A0000B030008950900080B0300080B03000868
:1000B000CD090008DD090008ED0900080B03000860
:1000C0000B0300080B0300080B0300080B030008D8
:1000D0000B0300084D0A00085D0A00086D0A0008BD
:1000E0000B0300080B0300080B0300080B030008B8
:1000F0000B0300080B0300081D0A00080B0300088F
:100100000B0300080B030008FD0900080B0300089F
:100110002D0A00083D0A00080B0300080D0A00081C
:100120000B0300080B0300080B0300080B03000877
:100130000B0300080B0300080B0300080B03000867
:100140000B0300080B0300080B030008E10600087E
:100150000B0300080B0300080B0300087D0A0008CE
:100160000B0300080B0300080B0300080B03000837
:100170000B0300080B0300080B030008000000003D
:100180000B0300080B0300080B0300080B03000817
:100190000B0300080B0300080B0300080B03000807
:1001A0000B0300080B0300080B0300080B030008F7
:1001B0000B0300080B0300080B0300080B030008E7
:1001C0000B0300080B0300080B0300080B030008D7
:1001D0000B0300080B0300080B0300080B030008C7
:1001E0000B0300080B0300080B0300080B030008B7
:1001F0000B0300080B03000800F002F800F052F8AF
:100200000AA090E8000C82448344AAF10107DA4571
:1002100001D100F047F8AFF2090EBAE80F0013F071
:10022000010F18BFFB1A43F00103184718510000D3
:10023000385100000A4410F8014B14F00F0508BFB4
:1002400010F8015B240908BF10F8014B6D1E05D0A2
:1002500010F8013B6D1E01F8013BF9D1641E03D07B
:10026000641E01F8015BFBD19142E4D370470000AA
:100270000023002400250026103A28BF78C1FBD8AF
:10028000520728BF30C148BF0B6070471FB504F04C
:10029000C3FB9DE8030000F015F900F0DFF81FBD77
:1002A00010B510BD00F08FF91146FFF7EFFF04F015
:1002B00055F800F0ADF903B4FFF7F2FF03BC00F00E
:1002C000DFF80000EFF3088020E9F00F80F30888E2
:1002D0002DED200AEFF30880704780F30888BDEC0D
:1002E000200AEFF30880B0E8F00F80F30888704729
:1002F0000948804709480047FEE7FEE7FEE7FEE7BA
:10030000FEE7FEE7FEE7FEE7FEE7FEE704480549F5
:10031000054A064B7047000061070008F901000814
:1003200008040220082402200814022008140220D5
:1003300070B5064600F0AAF8056806F10B0020F03B
:100340000704B4429CBF002070BD2B466A68BAB156
:100350001068A04210D304F1080188423CBF5068E5
:10036000586007D35168101941601168091B01607A
:1003700058601460101D70BD13465268002AE7D102
:100380002146284600F08AF80028DED170BD70B5FD
:100390000446051F00F07AF80068002C14BF44687A
:1003A00070BD002C18BFAC423CBF20466468F8D337
:1003B00001680A18AA4218BF456003D12A68054699
:1003C0001144016028684119A1421CBF6C6070BDD6
:1003D0006168696021680844286070BD10B500201C
:1003E00000F0A6F8FFF75CFFBDE81040012000F028
:1003F00047B810B5203AC0F00B80B1E81850203A49
:10040000A0E81850B1E81850A0E81850BFF4F5AFB4
:100410005FEA027C24BFB1E81850A0E8185044BF3E
:1004200018C918C0BDE810405FEA827C24BF51F8AB
:10043000043B40F8043B08BF7047D20728BF31F89F
:10044000023B48BF11F8012B28BF20F8023B48BFF0
:1004500000F8012B704770477047704770B5064C25
:100460007C44064D7D4403E0206820448047241DE1
:10047000AC42F9D170BD0000004F0000004F0000F9
:1004800001491820ABBEFEE7260002000048704775
:10049000AC030220704770477047704738B5044678
:1004A0000A4600206946AFF30080002808BF38BD27
:1004B00002460099204600F048F8012038BD01208E
:1004C00000F07AB8F8B5AFF30080054600200C467E
:1004D000102000BF0646A819A0420DD93246694631
:1004E0000020AFF30080070008BF00F065F8009817
:1004F000A04218BF0546C419FFF7C8FF05600746AC
:10050000F01D20F007004619284600F00AF8B44212
:1005100008BFF8BDA21B31463868BDE8F84000F0BE
:1005200014B800210160C0E9011070471020704725
:1005300010B500F029F8BDE8104000F020B8000028
:1005400000487047A40302207047034640688C4669
:10055000002818BF88423CBF03464068F8D318689B
:100560001844884207D00CF1030020F00700001D5A
:10057000411A521A0146081D0A60FFF708BF0028F9
:1005800001D0FFF77DBF704710B5002102A000F039
:1005900048F8012010BD0000534947414252543AE7
:1005A0002041626E6F726D616C207465726D696E50
:1005B0006174696F6E00000010B500F04BF8BDE883
:1005C0001040FFF7DCBF7546FFF7BAFFAE460500E7
:1005D0006946534620F00700854618B020B5FFF75E
:1005E00095FEBDE820404FF000064FF000074FF0A9
:1005F00000084FF0000B21F00701AC46ACE8C00941
:10060000ACE8C009ACE8C009ACE8C0098D46704749
:1006100010B50446AFF300802046BDE81040FFF758
:100620004ABE70B505460C460A2000E06D1C00F07D
:1006300039F835B128780028F8D102E0641C00F0C0
:1006400031F814B120780028F8D1BDE870400A20B4
:1006500000F028B810B5012805D0002103A0FFF74D
:10066000E0FF012010BD09A1F8E7000053494752FF
:10067000544D454D3A204F7574206F662068656172
:1006800070206D656D6F7279000000003A2048653A
:100690006170206D656D6F727920636F7272757015
:1006A0007465640008B569468DF800000320ABBE90
:1006B00008BD000010B50748006820F00200064998
:1006C000C1F8000205480068006801690348006835
:1006D000884710BD002201400020014098010220FF
:1006E00010B502F04BFF0348006803F061FA02F016
:1006F00035FF10BDE001022010B5FFF7E3FD07490B
:100700000860002105480068054A126890470349BF
:10071000086008460068FFF7E0FD10BDE801022010
:100720008C01022010B5FFF7CDFD0A4908600A4888
:100730000068401C08490860012106480068074A13
:10074000126890470349086008460068FFF7C5FD36
:1007500010BD0000E4010220900102208C01022063
:100760002DE9F0478548006840F47000834908602F
:100770008348006840F001008149086000208049FA
:10078000083108607E4800687E4908407C4908605E
:100790007D48091D0860081F006820F48020091F9B
:1007A0000860002076490C3108607548006840F404
:1007B0008030734908600846006840F00100086016
:1007C000002006E06E49096801F4003101B103E040
:1007D000401CB0F5A04FF5D36948006800F4003024
:1007E00000287DD04FF00708DFF8A091C9F80080FD
:1007F000DFF88C8108F14008D8F8008048F0805874
:10080000DFF87C9109F14009C9F80080DFF87081B8
:1008100008F10808D8F8008048F43448DFF86091FF
:1008200009F10809C9F800801924250102260827C2
:100830004FF0070CDFF85881A9F10409C9F80080CE
:10084000DFF83C81D8F8008048F08078DFF83091FC
:10085000C9F8008000BFDFF82881D8F8008008F0D0
:100860000078B8F1000FF6D0DFF8148108F108081D
:10087000D8F8008028F00308DFF8049109F108098E
:10088000C9F80080C846D8F8008048F00208C9F8C6
:10089000008000BFDFF8E88008F10808D8F8008081
:1008A00008F00C08B8F1080FF4D1DFF8D480D8F8BC
:1008B000008028F08058DFF8C890C9F8008000BF99
:1008C000DFF8BC80D8F8008008F00058B8F1000FBD
:1008D000F6D1DFF8AC8008F18808D8F8008000E095
:1008E00040E0C8F3036008214FF4C07205234FEACB
:1008F00082184FF00109C9EB510948EA094848EA52
:10090000006848EA0378DFF8789009F18809C9F8A7
:10091000008009F10408D8F8008028F4403809F173
:100920000409C9F8008009F10408D8F8008048F0EB
:10093000006809F10409C9F80080DFF84480D8F89C
:10094000008048F08058DFF83890C9F8008000BF78
:10095000DFF82C80D8F8008008F00058B8F1000FBC
:10096000F6D000BF4FF0006004498039086000F005
:10097000EBF800F099F8BDE8F087000088ED00E0A2
:1009800000380240FFFFF6FE10300024003C024019
:100990001964407810B50A48006900F0010038B1C8
:1009A0000848006800F01CF900200549086105E0CE
:1009B0000548006810B100200349086010BD000020
:1009C000000001409C0102201044014010B5024883
:1009D000006800F005F910BDA001022010B5024822
:1009E000006800F0FDF810BDA401022010B5024817
:1009F000006800F0F5F810BDA801022010B502480B
:100A0000006800F0EDF810BDAC01022010B50248FE
:100A1000006800F0E5F810BDB001022010B50248F2
:100A2000006800F0DDF810BDB401022010B50248E6
:100A3000006803F06BFB10BDD401022010B5024822
:100A4000006803F063FB10BDD801022010B5024816
:100A5000006803F05BFB10BDC801022010B502481E
:100A6000006803F053FB10BDCC01022010B5024812
:100A7000006803F04BFB10BDD001022010B5024806
:100A8000006803F043FB10BDDC010220002809DBF5
:100A900000F01F02012191404209920002F1E02280
:100AA000C2F800117047000010B50023244C2360E9
:100AB00000BF00BF00BFBFF34F8F00BF00BF00BF2C
:100AC0001F4B703B1B6823F480331D4C703C23602C
:100AD00000BF00BF00BFBFF34F8F00BF00BF00BF0C
:100AE000174B1B1F1868C0F34E3100BFC0F3C9027B
:100AF00000BF43F6E07303EA41134FF0404404EAB9
:100B0000827423430F4C236000BF00BF131EA2F169
:100B10000102EED10B1EA1F10101E7D100BF00BF20
:100B200000BFBFF34F8F00BF00BF00BF00BF00BFBB
:100B300000BFBFF36F8F00BF00BF00BF10BD00003C
:100B400084ED00E074EF00E010B500231B4C23603F
:100B500000BF00BF00BFBFF34F8F00BF00BF00BF8B
:100B6000231F1868C0F34E3100BFC0F3C90200BF95
:100B700043F6E07303EA41134FF0404404EA827401
:100B800023430F4C236000BF00BF131EA2F10102DC
:100B9000EED10B1EA1F10101E7D100BF00BF00BFE4
:100BA000BFF34F8F00BF00BF00BF00BF00BF00BF3B
:100BB000BFF36F8F00BF00BF00BF10BD84ED00E02A
:100BC00060EF00E0017080ED010AC0ED020A70479D
:100BD000024B03608180C28070470000F84E00081D
:100BE00010B504460020616908612068016920464B
:100BF000884710BD2DE9F0412DED0C8B04460E46C3
:100C0000174622468C48206002F1080002F044F8A2
:100C1000A0F1080200BF1446884810602674207CAA
:100C20000C2807D2DFE800F0060715263646566680
:100C3000747F8A959AE082486061824804608248A5
:100C4000006840F00100804908601920FFF71EFF8E
:100C50008CE04FF0804060617C4804607A48001F5F
:100C6000006840F001007849091F08601C20FFF768
:100C70000DFF7BE076486061764804607248001F93
:100C8000006840F002007049091F08601D20FFF74E
:100C9000FDFE6BE070486061704804606A48001FA8
:100CA000006840F004006849091F08601E20FFF733
:100CB000EDFE5BE06A4860616A4804606248001FBC
:100CC000006840F008006049091F08603220FFF703
:100CD000DDFE4BE064486061644804605A48001FD0
:100CE000006840F020005849091F08603720FFF7CE
:100CF000CDFE3BE05E4860615E480460524800689B
:100D000040F00200504908602E20FFF7BFFE2DE0A2
:100D100059486061594804604B48006840F480308D
:100D20004949086022E056486061564804604648D8
:100D3000006840F400304449086017E052486061A0
:100D4000524804604048006840F480203E490860F2
:100D50000CE04F4860614F4804603B48001F00684A
:100D600040F480703849091F086000BF00BF384652
:100D700003F041FD41EC1B0B9FED470B53EC102B97
:100D800003F04CFD41EC1A0B9FED450B53EC102B7F
:100D900003F044FD41EC190B03F076FB08EE100A5A
:100DA000012508E005EB85004500B2EE040AC8EE17
:100DB000000AB0EE608A9FED3C0AB4EEC08AF1EE04
:100DC00010FAEFDCBCEEC80A84ED030A284603F0F3
:100DD00012FD41EC1B0BE06803F00DFD41EC1D0B17
:100DE0009FED320B53EC102B03F018FD41EC1C0B64
:100DF00053EC1B2B03F012FD41EC1A0B9FED260B5D
:100E000053EC102B03F072FB41EC190B03F0C6FC02
:100E1000606001206169C86061694861681E61693C
:100E200088626169E068C8620120616908602046E3
:100E3000BDEC0C8BBDE8F08194520008184F0008FF
:100E4000000001409C01022044380240A001022021
:100E500000040040A401022000080040A801022074
:100E6000000C0040AC01022000140040B001022040
:100E700000040140B401022000400140B8010220FA
:100E800000440140BC01022000480140C001022092
:100E900000200040C40102200000000084D79741D8
:100EA000000000A0F7C6B03E00FF7F470000000032
:100EB00080842E4110B5044604F1080002F0FAFACD
:100EC000A179884201D0012010BD0020FCE770B557
:100ED0000446257920684169204688472071207999
:100EE00010B10DB9012070BD207910B90DB10220EB
:100EF000F9E70020F7E700002DE9F04104460F462E
:100F000090461D46069E0D4820604246394604F133
:100F1000080002F0FFFAA0F10804002020716071BF
:100F2000A671314604F1080002F0D1FA294604F115
:100F3000080002F0E4FA2046BDE8F081344F0008D2
:100F40000149016070470000644F000800B5024687
:100F50000B46B0EE401AF0EE601A31EE610ADFED9A
:100F6000090AC0EE202AB0EE622AF0EE610AB0EE65
:100F7000420A1946101DFFF725FE021F02481060A5
:100F8000104600BD00FF7F47784F00082DE9F0476D
:100F900004460F4690461E46DDE9089A00250120CA
:100FA0002071607908B102F0E9FAA6B12068816881
:100FB0002046884720683946026920469047002528
:100FC00007E018F805102068426920469047681C21
:100FD000C5B2B542F5DBBAF1000F1DD020688168BB
:100FE0002046884747F00101206802692046904763
:100FF000002507E0206881692046884709F8050038
:10100000681CC5B2AAF10100A842F3DC2068C169DE
:101010002046884709F805002068C16820468847AF
:10102000607908B102F09AFA207910B90120BDE880
:10103000F0870020FBE7FFB583B0044615461E4647
:10104000CDE90056217A606802680123576804AA36
:10105000B847617A0843607207B0F0BD0146487A2C
:1010600000224A7270470000024A026001220271A7
:1010700041717047904F00082DE9F04707460D4633
:10108000002430E01B4850F82400B7EB104F28D163
:10109000184830F82400C0F30336164810F824002E
:1010A000C0F30318134810F8240000F00F0905F0EE
:1010B0000F00032801D045F002050F480068012108
:1010C000B14008430C4908600C48011501FB060AB1
:1010D0004B462A464146504600F012F80120BDE832
:1010E000F087601C84B2034850F824000028C9D15E
:1010F00000BFF4E7640002203038024000000240E4
:101100002DE9FF4F05460C461F466006030E4FEAC9
:10111000E4080120A0406FEA000903209840C6437C
:101120002046E11704EB5171C910A4EBC1014FEA4D
:10113000810C0F2101FA0CF16FEA010A02F00300A1
:1011400000FA03FBC2F3012098400390C2F30010A1
:10115000A0400290C2F30130984001902046E11770
:1011600004EB5171C910A4EBC1014FEA810C07F0E7
:101170000F0101FA0CF1009102F000FA28683040EA
:1011800040EA0B002860E868304003990843E860B3
:10119000686800EA0900029908436860A86830405E
:1011A00001990843A86005F1200050F8280000EAE2
:1011B0000A000099084305F1200141F8280002F0D7
:1011C000CDF9BDE8FF8F000000B502460B46B0EE3A
:1011D000401AF0EE601AB4EE611AF1EE10FA06D081
:1011E00071EE610AF7EE002A82EEA00A01E0B7EE86
:1011F000000ADFED080A20EE202AF0EE610AB0EEC8
:10120000420A1946101DFFF7DDFC021F024810605C
:10121000104600BD00FF7F47B84F000801604260E4
:1012200043688360704701460020704701460020F4
:1012300070472DE9F04104460D461746DDE9068664
:10124000002201202071607908B102F097F923B3E0
:10125000002040EA034005F0FE010843A168486011
:10126000A068406840F40050A168486000220BE08C
:1012700000BFA068806900F002000028F9D0B85CC7
:10128000A1688862501CC2B29A42F1DB00BFA0681C
:10129000806900F040000028F9D0002040EA0640B4
:1012A00040F4806005F0FE010843A1684860A06832
:1012B000406840F40050A168486000220CE000BF84
:1012C000A068806900F004000028F9D0A068406A96
:1012D00008F80200501CC2B2B242F0DB00BFA068A6
:1012E000806900F040000028F9D0A068406840F410
:1012F0008040A1684860607908B102F02FF9207938
:1013000010B90120BDE8F0810020FBE7704770476D
:10131000704770472DE9F0418AB004460E461746E3
:10132000984641462046FFF79FFE04464D48206000
:10133000012E06D0022E15D0032E24D0042E33D039
:1013400043E04948A0604948006840F4001047491C
:10135000086010219F20FFF78FFE1021A020FFF7CB
:101360008BFE32E04248A0604048006840F48000B4
:101370003E4908601021A220FFF77EFE1021A32025
:10138000FFF77AFE21E03B48A0603848006840F44F
:101390000000364908601021A520FFF76DFE1021DE
:1013A000A620FFF769FE10E03348A0602F480068D0
:1013B00040F080702D4908601021A820FFF75CFEE6
:1013C0001021A920FFF758FE00BF00BF2B4903C919
:1013D000CDE908012949083103C9CDE906012749AA
:1013E000103103C9CDE904012449183103C9CDE9FD
:1013F00002012249203103C9CDE9000137B1022F92
:1014000006D0032F06D0042F06D000BF002505E02C
:10141000012503E0022501E0032500BF00BF08A865
:1014200010F8150000073DF8151040EA015002A918
:1014300031F8151040EA014004A931F8151040EACE
:10144000012006A931F815100843A1680861A068B9
:10145000006841F201010843A168086020460AB013
:10146000BDE8F081CC4F00080054004040380240F5
:1014700000580040005C004000600040C84E00087A
:101480002DE9F0412DED028B04460D461646B0EED7
:10149000408AF0EE608A1F46F0EE680AB0EE480A15
:1014A00031462046FFF752FD04460748206025617B
:1014B000206901683A464B68314698472046BDECA2
:1014C000028BBDE8F0810000F84F000838B50446F3
:1014D00004236A46032104F11000FFF7ACFD04F178
:1014E0001000FFF7BBFDF0B99DF8000000F0C00050
:1014F000802816D19DF803009DF8021001F00F011D
:1015000040EA0120A0809DF801009DF8001001F044
:101510000F0140EA0120A189081AE0800120207211
:1015200001E00020207238BD70B505460C464FF42E
:10153000F0724FF44871284602F07CF905460848DD
:10154000286005F110005421064A2A6144600172A6
:101550000022427200BFA0F11005284670BD0000B5
:1015600010500008E852000870B52DED028B0446BB
:101570000D461646B0EE408AF0EE608AF0EE680A3C
:10158000B0EE480A31462046FFF71EFE04460648E4
:1015900020602561206901684A68314690472046ED
:1015A000BDEC028B70BD00002850000801B588B06A
:1015B000FEA0006807900898806A06900898806AE4
:1015C00000680068002211460590DDE90530984763
:1015D0000898806A06900898806A0068406804222B
:1015E00007A90590DDE905309847F1A0006807904C
:1015F0000898806A06900898806A006800688022CF
:1016000000210590DDE9053098470898806A06902A
:101610000898806A00684068032207A90590DDE900
:1016200005309847E3A0006807900898806A069004
:101630000898806A00680068802200210590DDE932
:10164000053098470898806A06900898806A006874
:101650004068022207A90590DDE905309847D6A029
:10166000006807900898806A06900898806A006869
:1016700000688A2200210590DDE905309847089826
:10168000806A06900898806A00684068022207A96C
:101690000590DDE9053098470A2001F052FFC7A008
:1016A000006807900898806A06900898806A006829
:1016B0000068B12200210590DDE9053098470898BF
:1016C000806A06900898806A00684068022207A92C
:1016D0000590DDE905309847B9A0006807900898A3
:1016E000806A06900898806A00680068912200214C
:1016F0000590DDE9053098470898806A06900898BB
:10170000806A00684068022207A90590DDE905307B
:101710009847ACA0006807900898806A06900898DF
:10172000806A00680068B42200210590DDE9053078
:1017300098470898806A06900898806A0068406810
:10174000022207A90590DDE9053098479EA00068B0
:1017500007900898806A06900898806A0068006878
:10176000002211460590DDE9053098470898806A07
:1017700006900898806A00684068022207A90590D0
:10178000DDE90530984791A0006807900898806AC5
:1017900006900898806A0068006881220021059000
:1017A000DDE9053098470898806A06900898806AB5
:1017B00000684068022207A90590DDE905309847D6
:1017C00083A0006807900898806A06900898806A4D
:1017D00000680068A12200210590DDE905309847E6
:1017E0000898806A06900898806A0068406802221B
:1017F00007A90590DDE90530984776A000680790B5
:101800000898806A06900898806A006800689222AA
:1018100000210590DDE9053098470898806A069018
:101820000898806A00684068022207A90590DDE9EF
:101830000530984768A0006807900898806A06906D
:101840000898806A00680068952200210590DDE90B
:10185000053098470898806A06900898806A006862
:101860004068022207A90590DDE90530984700BFCE
:101870005AA0006807900898806A06900898806AC5
:1018800000680068002211460590DDE905309847A0
:101890000898806A06900898806A00684068032269
:1018A00007A90590DDE9053098474DA0006807902D
:1018B0000898806A06900898806A006800689422F8
:1018C00000210590DDE9053098470898806A069068
:1018D0000898806A00684068022207A90590DDE93F
:1018E000053098473FA0006807900898806A0690E6
:1018F0000898806A00680068A32200210590DDE94D
:10190000053098470898806A06900898806A0068B1
:101910004068022207A90590DDE90530984732A00A
:10192000006807900898806A06900898806A0068A6
:101930000068822200210590DDE90530984708986B
:10194000806A06900898806A00684068022207A9A9
:101950000590DDE90530984724A0006807900898B5
:10196000806A06900898806A0068006881220021D9
:101970000590DDE9053098470898806A0690089838
:10198000806A00684068022207A90590DDE90530F9
:10199000984717A0006807900898806A06900898F2
:1019A000806A00680068A122002123E0FF8009010D
:1019B000FF800900C4300000C4400000C5A9000039
:1019C000C5340000C0500000D94E0000C1660000C0
:1019D000C1080000C5010000C5360000D8797900B3
:1019E000C5330000C01B0000C5830000C483000095
:1019F000C10E00000590DDE9053098470898806A1F
:101A000006900898806A00684068022207A905903D
:101A1000DDE905309847FEA0006807900898806AC5
:101A200006900898806A00680068A6220021059048
:101A3000DDE9053098470898806A06900898806A22
:101A400000684068032207A90590DDE90530984742
:101A5000F0A103C9CDE906010898806A05900898AD
:101A6000806A00680068802200210490DDE904306B
:101A700098470898806A05900898806A00684068CE
:101A8000072206A90490DDE904309847E3A2D2E9D1
:101A90000030D2E90212CDE90430CDE906120898EF
:101AA000806A03900898806A00680068A02200217C
:101AB0000290DDE9023098470898806A0390089800
:101AC000806A006840680F2204A90290DDE90230B4
:101AD0009847D6A30FCBCDE90623CDE9040108989A
:101AE000806A03900898806A00680068B02200212C
:101AF0000290DDE9023098470898806A03900898C0
:101B0000806A006840680F2204A90290DDE9023073
:101B10009847CAA207CA05AB07C30898806A049011
:101B20000898806A00680068C02200210390DDE9FF
:101B3000033098470898806A04900898806A006883
:101B400040680B2205A90390DDE903309847BEA049
:101B5000006807900898806A06900898806A006874
:101B60000068D02200210590DDE9053098470898EB
:101B7000806A06900898806A00684068022207A977
:101B80000590DDE905309847B0A2D2E900109268CF
:101B9000CDE9060205910898806A04900898806A49
:101BA00000680068802200210390DDE90330984737
:101BB0000898806A04900898806A006840680B2240
:101BC00005A90390DDE903309847A3A30FCBCDE926
:101BD0000623CDE904010898806A03900898806A7A
:101BE00000680068902200210290DDE902309847E9
:101BF0000898806A03900898806A006840681022FC
:101C000004A90290DDE90230984793A30FCBCDE9F8
:101C10000623CDE904010898806A03900898806A39
:101C200000680068A02200210290DDE90230984798
:101C30000898806A03900898806A006840681022BB
:101C400004A90290DDE90230984780A207CA05ABDB
:101C500007C30898806A04900898806A0068006842
:101C6000B02200210390DDE9033098470898806A8C
:101C700004900898806A006840680B2205A90390C8
:101C8000DDE90330984778A30FCBCDE90623CDE9F2
:101C900004010898806A03900898806A00680068C8
:101CA000C02200210290DDE9023098470898806A3E
:101CB00003900898806A00684068102204A9029086
:101CC000DDE9023098476CA30FCBCDE90623CDE9BF
:101CD00004010898806A03900898806A0068006888
:101CE000D02200210290DDE9023098470898806AEE
:101CF00003900898806A00684068102204A9029046
:101D0000DDE90230984751A207CA05AB07C308981E
:101D1000806A04900898806A00680068E0220021C8
:101D20000390DDE9033098470898806A049008988A
:101D3000806A006840680B2205A90390DDE9033042
:101D4000984751A207CA05AB07C30898806A049058
:101D50000898806A00680068F02200210390DDE99D
:101D6000033098470898806A04900898806A006851
:101D700040680B2205A90390DDE90330984745A28E
:101D8000D2E900109268CDE9060205910898806AB0
:101D900004900898806A00680068802200210390FF
:101DA000DDE9033098470898806A04900898806AB3
:101DB000006840680B2205A90390DDE903309847CD
:101DC00037A30FCBCDE90623CDE904010898806A3B
:101DD00003900898806A00680068902200210290B1
:101DE000DDE9023098470898806A03900898806A75
:101DF00000684068102204A90290DDE9023098478B
:101E00002BA3D3E90020D3E90213CDE9061357E051
:101E1000B3000100CE85010084010000CE18040348
:101E2000390000001803033A00000000CE18020336
:101E30003B0000001801033C00000000CF0101201E
:101E40002000000102000000CF000000CB000000D5
:101E50000000000000000000CB00000000000000B7
:101E60000000000000000000CB0004040404040093
:101E70000000000000000000CB0000000000000493
:101E80000404040400000000CBFFFFFFFFFFFFFF7E
:101E9000FFFFFF00CC0026090B0125000000000019
:101EA000CC0000000000000000000000260A0C0228
:101EB000CC25000000000000000000000000000031
:101EC000CDE904200898806A03900898806A006829
:101ED0000068A02200210290DDE9023098470898AE
:101EE000806A03900898806A00684068102204A9FC
:101EF0000290DDE902309847FEA207CA05AB07C38E
:101F00000898806A04900898806A00680068B02287
:101F100000210390DDE9033098470898806A049017
:101F20000898806A006840680B2205A90390DDE9E3
:101F300003309847F2A3D3E901211868DB68CDE9A3
:101F40000613CDE904020898806A03900898806A15
:101F500000680068C02200210290DDE90230984745
:101F60000898806A03900898806A00684068102288
:101F700004A90290DDE902309847E5A3D3E90020E7
:101F8000D3E90213CDE90613CDE904200898806A4D
:101F900003900898806A00680068D02200210290AF
:101FA000DDE9023098470898806A03900898806AB3
:101FB00000684068102204A90290DDE902309847C9
:101FC000D7A0006807900898806A06900898806AF1
:101FD00000680068812200210590DDE905309847FE
:101FE0000898806A06900898806A00684068022213
:101FF00007A90590DDE905309847CAA00068079059
:102000000898806A06900898806A00680068B12283
:1020100000210590DDE9053098470898806A069010
:102020000898806A00684068022207A90590DDE9E7
:1020300005309847BCA0006807900898806A069011
:102040000898806A00680068B62200210590DDE9E2
:10205000053098470898806A06900898806A00685A
:102060004068022207A90590DDE905309847AFF2E4
:10207000E410006807900898806A06900898806AC3
:1020800000680068002211460590DDE90530984798
:102090000898806A06900898806A00684068042260
:1020A00007A90590DDE9053098470898806A0790F0
:1020B0000898806A00680068002211460690DDE9F1
:1020C00006309847142299A103A8FEF792F90898C0
:1020D000806A02900898806A0068006800221146B1
:1020E0000190DDE9013098470898806A02900898CD
:1020F000806A00684068112203A90190DDE901307F
:10210000984714228EA103A8FEF773F90898806AF5
:1021100002900898806A00680068002211460190C9
:10212000DDE9013098470898806A02900898806A33
:1021300000684068112203A90190DDE90130984749
:102140000898806A07900898806A006800680022F2
:1021500011210690DDE906309847782001F0F1F969
:102160000898806A07900898806A0068006877225B
:102170003A210690DDE906309847089890F82C003F
:1021800030B1012820D0022810D003282AD000BF67
:102190000898806A07900898806A006800680022A2
:1021A00036210690DDE90630984729E00898806AD4
:1021B00007900898806A00680068C022362106905F
:1021C000DDE9063098471BE00898806A0790089878
:1021D000806A00680068602236210690DDE90630DA
:1021E00098470DE00898806A07900898806A006810
:1021F0000068A02236210690DDE90630984700BF2E
:1022000000BF54A103C9CDE9060108988089401E8A
:10221000000A8DF81B000898007B401EC0B28DF8A4
:102220001C000898806A05900898806A00684068D9
:10223000052206A90490DDE90430984747A103C9A7
:10224000CDE906010898008A401E000A8DF81B009F
:102250000898007C401EC0B28DF81C000898806A67
:1022600005900898806A00684068052206A90490D5
:10227000DDE9043098470898806A07900898806ADA
:10228000006800687F2251210690DDE906309847FA
:102290000898806A07900898806A006800682C2275
:1022A00053210690DDE9063098470898806A079028
:1022B0000898806A00680068022255210690DDE9CE
:1022C000063098470898806A07900898806A0068E6
:1022D00000687F225E210690DDE906309847089865
:1022E000806A07900898806A0068006800222821A8
:1022F000069037E0CC00250C0A0226000000000002
:10230000CC0000000000000000000000250B0901C7
:10231000CC260000000000000000000000000000CB
:10232000C5660000C6200000F5060000E100090FA8
:102330000E07100B0A04070B080F100A010000001B
:10234000E200090F0E07100B0A04070B080F100A12
:10235000010000002A000000000000002B00000027
:1023600000000000DDE9063098470898806A079071
:102370000898806A00680068002211460690DDE92E
:102380000630984709B000BD2DE9F84304460E46D3
:1023900015461F46DDF82C80CDF80080204608A9A0
:1023A0000EC900F06FF8044619482060A66284F850
:1023B0002C7094F82C0000F0010030B14FF44870FC
:1023C000E0604FF4F070206105E04FF4F070E060E1
:1023D0004FF4487020610020E08520866086A0864A
:1023E000E0862087286801210268284690472868EF
:1023F000C16828468847142001F0A3F8286841687E
:1024000028468847142001F09CF82046BDE8F88350
:102410003C5000082DE9F84F0446894692461D4677
:102420000A9E009620682B4652464946876C2046F5
:10243000B84700270FE04FF0000808E0A18C2068A3
:10244000026D2046904708F101001FFA80F8A84568
:10245000F4DB781C87B2B742EDDBBDE8F88F41842E
:1024600070478184704770472DE9F04104460D465E
:102470001646A18C206833462A46C76C2046B847CA
:10248000BDE8F0813FB50446079D14220A2120468D
:10249000FEF79EFB04460B48206001A807C8C4E96C
:1024A0000612606184F820501F2060844CF218608E
:1024B000A0844FF6FF70E0840020208160812046D8
:1024C00004B030BD985000081CB5044604F1080063
:1024D00001F0AAFFD0B9206881682046884701280A
:1024E00002D0022810D107E0012001A9019004F1D7
:1024F000080001F0A9FF08E002206946009004F1FD
:10250000080001F0A1FF00E000BF00BF04F10800D7
:1025100001F08AFFD0B92068416820468847032827
:1025200002D0042810D107E0032001A9019004F192
:10253000080001F089FF08E004206946009004F1DA
:10254000080001F081FF00E000BF00BF1CBD10B516
:102550000446206960B120690268916988470128B2
:1025600002D0022804D101E0032010BD0420FCE7C2
:102570000020FAE72DE9F04105460F4616460021F6
:10258000284600F06DFB05460F48286005F1080459
:102590004FF01408002020716071A07184F807804A
:1025A000E079002803DDE07901F0CBFD206000BF79
:1025B000A4F108052F6126B13068294642683046EB
:1025C00090472846BDE8F081F45000082DE9F04717
:1025D00080460C4660680268116888476068026837
:1025E000516888470FFA80F947F6FF720021484684
:1025F00001F00FFF054660680268916888470FFA8E
:1026000080F947F6FF720021484601F002FF0646B6
:1026100060680268D1688847074657B1207A40B998
:1026200010212175A581E68100212161A561E66166
:102630004DE047B9207A30B120212175A581E6818E
:102640000021216143E0002F3ED0207A00283BD0BA
:1026500001212175A581E68100212161A069A8429F
:1026600002D1E069B04232D0A269511B002901DBDE
:102670000A4600E04A420F2A08DCE269901B002863
:1026800001DB024600E042420F2A20DDA269A81ABF
:10269000E269B11A0A46031E01DB9C4601E0C3F160
:1026A000000C002A01DB914601E0C2F10009CC4593
:1026B00003DD03232375206103E0052323754B42CB
:1026C0002361A561E66102E0002121752161277285
:1026D000D4E90412E06888E80700BDE8F08700004C
:1026E000044A026041600023037500228281C38195
:1026F000036170470851000870B504460D466068D4
:1027000001680A6A2946904770BD2DE9F8430446DE
:102710000D4616461F46DDE90889606801684A6A69
:1027200049469047CDF80080606801683B463246D4
:10273000D1F834C02946E047BDE8F88310B5044617
:10274000606802681168884710BD10B5044660686B
:1027500002685168884710BD2DE9F04F87B0824666
:10276000884691469B46119EABEB08041098A0EB5F
:1027700009052DBBD84501DA404600E058468046A1
:102780001098814501DA484600E010988146129879
:10279000CDE900600494002C01DB049801E004986A
:1027A000404283B206EBD670A9EB600082B203967A
:1027B000DAF800004146D0F828C05046E04797E0DC
:1027C00034BBD84501DA404600E0584680461098B0
:1027D000814501DA484600E0109881461298049538
:1027E000002D01DB049901E00499494289B2039666
:1027F000CDE9001006EBD670A8EB600081B2DAF8E4
:10280000000033464A46D0F828C05046E0476FE003
:102810002846211E01DB0A4600E04A42002801DB6F
:10282000034600E043429A4231DC281E01DB0146A8
:1028300000E041420F4627E0281E01DB014600E090
:10284000414207FB04F292FBF1F141440691002D55
:1028500001DD384600E078424844059004960FE0D8
:10286000059882B2049B0698184481B2DAF80000F9
:10287000D0F824C05046129BE0470498401E0490B4
:1028800004980028ECDA7F1E002FD5DA30E0201EF5
:1028900001DB014600E041420F4627E0002C01DD4C
:1028A000384600E0784240440690201E01DB014695
:1028B00000E0414207FB05F292FBF1F1494405912A
:1028C00004960FE0DDE90430184482B2069881B224
:1028D000DAF80000D0F824C05046129BE047049874
:1028E000401E049004980028ECDA7F1E002FD5DAF1
:1028F00007B0BDE8F08F2DE9FC47044688469146B5
:102900009A46DDE90A750C9ECDE9005620685346CB
:102910004A464146D0F828C02046E04709EB070068
:10292000401B82B2CDE90056206853464146D0F89C
:1029300028C02046E047CDE9007620682B464A466D
:102940004146D0F828C02046E04708EB0A00401B6B
:1029500081B2CDE9007620682B464A46D0F828C0DF
:102960002046E047BDE8FC872DE9F04104460E46CD
:1029700017461D46606801684A6A294690476068A4
:1029800001683A460B6B31469847BDE8F08100007C
:1029900070B504460D462046FEF7D2FA04460448B8
:1029A000206065602046FFF7C9FE204670BD00002C
:1029B0001451000810B5026CC263D0E903235A43D6
:1029C000C36B03EB820104E0438CC46BA21CC263A3
:1029D0002380C26B8A42F7D310BD10B50446A06AAB
:1029E00000F01CFA10BD70B5049CC18502864386B8
:1029F0008486C58DC586058E868975430587C5681D
:102A000002FB05154564D0E9105605EB4605C56384
:102A100070BDC36B9A1CC2631980C28E521CC286E1
:102A2000C28D438E1A44C38E9A420DDCC28DC2867B
:102A3000028F521C0287C368426C1A444264D0E978
:102A4000102302EB4302C263704730B5C4685C4395
:102A5000056C05EB440404EB4204C463C46B2180A1
:102A600030BD00002DE9FF5F0446884691469A4636
:102A7000DDF844B0CDF80CB00EA807C853468DE879
:102A800007004A4641462046FFF77EFC04461948A7
:102A90002060238A9AB2A38999B20123A06A00F028
:102AA000C7F92046FEF782FDA08986B2208A87B248
:102AB000A56A00201049086004200F493C390860CD
:102AC000284600F0ABF900233A463146281D00F0B5
:102AD0006FFC2064206CE063A06A016800220B6830
:102AE00029219847A06A00F099F9204604B0BDE872
:102AF000F09F00005C510008686C014010B504466E
:102B0000E08A10B1E08A401EE082A06990B1A0691D
:102B1000026891698847012808D0E08A50B9A08AE4
:102B200040B1A06902685169884718B1A08AE08263
:102B3000012010BDE06990B1E069026891698847A1
:102B4000012808D0E08A50B9A08A40B1E069026843
:102B50005169884718B1A08AE0820220E9E7002085
:102B6000E7E700002DE9F04704460E461746984671
:102B7000DDE908592A4641462046FFF7FBFC04469A
:102B80000E482060A661E76185B128680168284683
:102B9000884758B128680168284688474FF47A71F9
:102BA00009FB01F1B1FBF0F0A08201E00020A0825E
:102BB000A08AE0822046BDE8F0870000B8510008F6
:102BC000FEB504464FF4784002214FF4C372CDE9BC
:102BD000002102902068016813463222CD6A114616
:102BE000A847B4251EE04FF4784002214FF4DC7270
:102BF000ABB2CDE900210290A9B220680268566B01
:102C00003222B0474FF478410222A8B2CDE9012127
:102C10000090AAB2206801684FF4DC734E6B322139
:102C2000B0478235B5F5DC7FDDDBFEBD0160704766
:102C300003460A46196808E0914201D10020704716
:102C4000486808B1496800E001E00029F4D100BFFC
:102C500009B14A6000E01A600120F0E77047000007
:102C600030B504460D4605482060002060601DB167
:102C700021462846FFF7DCFF204630BD24530008DC
:102C800070B505462C6804E0206801682046884736
:102C90006468002CF8D170BD00210160704710B548
:102CA00004462068416920468847217C09B10122F9
:102CB00000E0002204F1080151F82210A27E21F860
:102CC0001200E07E401CE076E07E617E884209DAF8
:102CD000E17E6069405CA076A17E20688269204622
:102CE000904707E00020E076E17E6069405CA076D6
:102CF0000020207710BD2DE9F04104460D4617460F
:102D0000207EA8422ADD00260CE06069805DA84292
:102D100007D120683A462946C36920469847BDE84E
:102D2000F081761C607EB042EFDC607E217E8842BE
:102D300014DA0020627EA16821F812000021627E70
:102D4000E06820F81210617E481C60766069455486
:102D500020683A462946C3692046984700BFDEE707
:102D600010B50446607EA0B1207F90B90020E076C7
:102D7000E17E6069405CA076207C08B9012000E01B
:102D80000020207401202077A17E206882692046DF
:102D9000904710BD70B504460D46164600212046EA
:102DA000FFF75EFF04460F48206026B130682146D9
:102DB0004268304690470020A076E076607625761F
:102DC000680001F0BEF9A060680001F0BAF9E060A7
:102DD000284601F0B6F96061002020742077204673
:102DE00070BD0000CC510008014A026001717047BB
:102DF000F451000810B500BF074B1B6803F0010336
:102E0000002BF9D0152343EA012343EA0243024C85
:102E1000083C236010BD0000746C01400349496800
:102E200041F00401014A5160704700000070014008
:102E30002DE9F0412DED068B04460D4617461E4642
:102E40005948406820F008005749486057480068D2
:102E500020F001005549086054489C30006820F07B
:102E6000040052499C3108600846006820F00200C6
:102E700008604D48006B20F001004B49086308468C
:102E8000006B20F0807008630846006B40F0807093
:102E9000086300BF4448C06800F480500028F9D09F
:102EA0009FED438B4048006B434908403E4908630F
:102EB0000846006B42F6901108433B4908630846F8
:102EC000006B40F00100086300BF3748C06800F4A1
:102ED00080700028F9D0062034499C310860012018
:102EE00032499031086040F601203049A031086035
:102EF00004202E49091D086053EC182B9FED2F0B61
:102F000051EC100B01F08AFC41EC1A0B53EC1A2B1C
:102F10009FED2C0B51EC100B01F0E8FA41EC190B72
:102F200001F03CFC80B22049886100201F49C0317B
:102F3000086000211D48C430016001201B49303168
:102F400008600B2018490860002018490831086003
:102F50001649103108600520091F086013486030C9
:102F600005601A4811496431086026B13A4629467D
:102F7000201D00F065FA0D48006840F001000B4983
:102F800008600948406840F00800074948604FF071
:102F900023100649943108600D48091D0860BDECF6
:102FA000068BBDE8F081000000700140046C014018
:102FB0000000000065CDBD410386FCFF95D626E8E4
:102FC0000B2EF13D000000000000F03F007F0E00DE
:102FD0000000232330B50346002000BF104C2468B6
:102FE00004F00104002CF9D010E00C5C0D186D7891
:102FF00044EA05240D18AD7844EA05440D18ED782F
:1030000044EA0564064D2D1F2C60001D9042ECD350
:1030100094B2392545EA0424014D083D2C6030BDA9
:10302000746C014010B5164A0260021D42F8041982
:10303000144B1B6843F08063124C2360114B203B00
:103040001B6843F080630F4C203C236023461B68C1
:1030500023F08063236000BF10460A4A126842F0E2
:103060000062084B1A602246126842F00062234652
:103070001A601A46126822F000621A6010BD000041
:10308000085200084438024070B5054600242C4818
:10309000046824F4F84444F4C054C005C0F8404126
:1030A0002748083004682748044044F4831424481F
:1030B0000830046068788000A0F1C040D0F840413A
:1030C0006FF3090444F4F27468788000A0F1C04002
:1030D000C0F840411A480830697850F821401A4831
:1030E00004401A48044316480830697840F82140E3
:1030F000002301221146284600F02AF8012000F0A2
:1031000020FA002301220221284600F021F80023A2
:1031100008220321284600F01BF84FF40C742346C4
:1031200001220421284600F013F8054814300068F5
:1031300040F65E4108434FF02041C1F8540170BD94
:10314000400100A0FF0F0FFF00F0F0F0610301014C
:1031500070B50446A5782DB1022901D0032901D10B
:10316000032004E065780DB9022000E0012041EA67
:10317000C006551E46EA451545EA4325054E35600D
:1031800000BF044D08352D6805F02005002DF8D14D
:1031900070BD0000500100A02DE9F04104460D462D
:1031A000164605F00F00207028096070A6704FF4D5
:1031B000045739466920FDF75FFF39466A20FDF75D
:1031C0005BFF39467520FDF757FF39468020FDF734
:1031D00053FF39468320FDF74FFF39468420FDF722
:1031E0004BFF39468520FDF747FF39468620FDF71E
:1031F00043FF39468720FDF73FFF39468820FDF71A
:103200003BFF39466B20FDF737FF39466C20FDF751
:1032100033FF39466D20FDF72FFF39466E20FDF74D
:103220002BFF39466F20FDF727FF39467020FDF749
:1032300023FF39467120FDF71FFF39467220FDF745
:103240001BFF39467320FDF717FF39467420FDF741
:1032500013FF39467620FDF70FFF39467720FDF73B
:103260000BFF39467820FDF707FF39467920FDF737
:1032700003FF39467A20FDF7FFFE39467B20FDF734
:10328000FBFE39467C20FDF7F7FE39467D20FDF731
:10329000F3FE39467E20FDF7EFFE39467F20FDF72D
:1032A000EBFE39468120FDF7E7FE39468220FDF727
:1032B000E3FE39468A20FDF7DFFE39468B20FDF715
:1032C000DBFE39464A20FDF7D7FE39464B20FDF795
:1032D000D3FE39465620FDF7CFFE39465D20FDF777
:1032E000CBFE39465E20FDF7C7FE39465F20FDF76D
:1032F000C3FE39466020FDF7BFFE39466120FDF769
:10330000BBFE39466220FDF7B7FE39466320FDF764
:10331000B3FE39464C20FDF7AFFE39464D20FDF790
:10332000ABFE39464E20FDF7A7FE39464F20FDF78C
:10333000A3FE39465020FDF79FFE39465120FDF788
:103340009BFE39469820FDF797FE39469920FDF7F8
:1033500093FE39469C20FDF78FFE39469620FDF7F7
:103360008BFE39469A20FDF787FE39469D20FDF7F2
:1033700083FE39468C20FDF77FFE39468D20FDF710
:103380007BFE0748006840F001000549086020788E
:10339000022802D12046FFF777FE2046BDE8F081E3
:1033A0003838024001490160704700001852000897
:1033B0002DE9F04105460C469C46BCF1000F01D0BA
:1033C0001E4801E01D48803801461C48F838006856
:1033D000C0F30B431948F8380068C0F30A06022707
:1033E000581C04EB030840EA08404860701C02EBDC
:1033F000060840EA084088600220086100208861D1
:10340000FF20486140F20760C86128688862204652
:103410007843C01C04FB07F840EA0840C8620A630E
:10342000086840F0010008600120DFF81080A8F172
:10343000E008C8F800002868BDE8F0810469014090
:1034400070B504460B46002000210025144E35605F
:10345000401C491C41EA0045114E103E3560401C9D
:10346000491C41EA0045361D35601844114441EAC3
:103470000045361D3560401C491C41EA0045361D9B
:1034800035600025064E14363560054E1C36356015
:10349000034D2D6845F00105014E356070BD0000FB
:1034A0001868014010B50446E168606803681A694D
:1034B000904710BD10B5044660680268516988479E
:1034C000E168084008B1012010BD0020FCE770B59C
:1034D00004460D462DB1E168606803689A6890471C
:1034E00004E0E168606803681A69904770BD10B530
:1034F0000446E168606803689A68904710BD70B53B
:1035000004460D46217A6068026853682A46984747
:1035100070BD000010B5044B036041600272047A74
:103520000123A340C36010BD305300084FF6FF7164
:1035300001EA800002E000BF411E88B20028FADCE8
:10354000704700B5024605E04FF47A70FFF7EEFFD2
:10355000501E82B2002AF7DC00BD70470648007892
:10356000002804DD04480078401E03490870024822
:10357000007800B962B670478801022072B603482D
:103580000078401C01490870704700008801022043
:1035900000B503460A46FFF7E0FF0AB1FFF7EEFF6A
:1035A000184600BD01F01F02054B1A60054AD2F80B
:1035B000082242F08042024B2C3B1A607047000008
:1035C0003422014000200140F0B507460C46154664
:1035D00005F00706082C02D00C2C0CD018E00321B3
:1035E0000020FDF749FD0B48006840EA06600A49E3
:1035F000C1F810020CE003210120FDF73DFD054854
:10360000001F006840EA86100349C1F80C0200BFA1
:1036100000BFF0BD102201400020014001460248D9
:10362000006880B2704700004C22014070B504462B
:103630000D462A4610212046FFF7ACFB04460F48F2
:1036400020600F4804600F48006840F480600D4916
:1036500008600D48006840F440300C49C1F804038C
:1036600040F601000849FC39086020200749C1F8EC
:1036700004021220FDF70AFA204670BD48520008E5
:1036800098010220443802400423014000200140F8
:1036900030B505460C4614B1012C0BD015E00321C2
:1036A0000820FDF7E9FC0A48006840F003000849DB
:1036B00008600AE003210920FDF7DEFC04480068E9
:1036C00040F440300249086000BF00BF30BD000038
:1036D0000074004000B5034602211846FFF784FB42
:1036E0000346054818600548006840F0005003494B
:1036F0000860184600BD00007052000840380240C3
:1037000000B503460A461846FFF74CFE0346374805
:1037100018603748006840F4807035490860012A15
:103720000DD13448006820F44070324908600846E2
:10373000006848F2011108432E4908601DE0E2B913
:103740002C48006800F4407050B92A48006840F4E2
:103750008030284908600846006820F480300860FE
:103760002448006820F44070224908600846006838
:1037700048F2013108431F4908601E486838006854
:1037800020F4F8101B49683908600846006840F4C6
:10379000C8100860CA2018490860532008601648FD
:1037A0001838006840F0800013491839086000BFDD
:1037B00011481838006800F040000028F8D0012AAD
:1037C0000AD04AB941F63F700B49143908600846DF
:1037D000006840F4F800086007481838006820F0D6
:1037E0008000054918390860184600BD8452000859
:1037F00000700040703802402428004010B5044694
:1038000004F10800FFF73CFA10BD01464868704714
:1038100030B504460D46294604F10800FFF708FAC2
:1038200030BD0146888870470146C8887047014608
:10383000087A7047044B03604181828100238380B2
:10384000C380037270470000B052000850F8841F14
:10385000096901F06041026811610168096941F478
:103860000021026811610168096841F0044150F8C3
:10387000842911607047000070B5044694F88310E5
:1038800094F8810000F0BEFD0546E81CC11700EB6E
:1038900091718E10D4F88400806980B2B04211D347
:1038A000601C002284F8812084F88220002106E038
:1038B0000268D4F888301A604A1C91B2001DB142E7
:1038C000F6DB00BF002D07DC0448006822780121E8
:1038D000914088430149086070BD000034080050E1
:1038E000D0F88420916070470146084800680B7842
:1038F000D84000F00100054B243B1B6843EAC0128E
:10390000D1F88400806810407047000034080050EF
:1039100030B580F88310037803B90021104B1B6881
:1039200005780124AC40A4B223430D4C2360D0F8A9
:1039300084301B6803F400438BB9C1F30A0343EAE4
:103940008243047843EA845343F0805343F40043B2
:10395000D0F8844024682343D0F88440236030BDED
:103960001C0800502DE9F04104460E4694F883707F
:1039700094F8831094F8810000F044FD054694F813
:10398000820020B92046FFF761FFBDE8F08125B92C
:103990005EB32046FFF75AFF27E0E919491E91FB65
:1039A000F7F1C8B254F8841F096901F06041226838
:1039B00011610F4901EAC041C5F3120211432268A7
:1039C00012691143226811610A49096814F8843C9C
:1039D00001229A401143074A11602168096841F0A9
:1039E000044154F88429116000BF00BFCDE70000F6
:1039F0000000F81F3408005050F8841F096901F0D6
:103A000060410268116150F88419096990F88320B7
:103A100042F40022114350F8842F116101680968B3
:103A200041F0044150F8842911607047D0F8842097
:103A3000916070470146D1F884008068014A12689D
:103A4000104070471408005030B5CB1CDD1703EB55
:103A50009575C5F38F04421C80F88110012580F80C
:103A60008250002306E0D0F888502D6815605D1C58
:103A7000ABB2121DA342F6DB30BD000070B50446A8
:103A80000D46164684F88350207800B90025134867
:103A90000068227801219140114A02EA014108435D
:103AA0000E490860D4F88400006800F4004070B942
:103AB000C5F30A0040EA864040F0805040F40040E0
:103AC000D4F8841009680843D4F88410086020787A
:103AD000002802DD204600F005F870BD1C080050EB
:103AE0000000FFFF70B5044694F8835094F88310EB
:103AF00094F8810000F086FC06461EB92046FFF7C8
:103B00007BFF22E094F881102944491E91FBF5F1D6
:103B1000C8B254F8841F096901F06041226811613C
:103B20000A4901EAC04105FB00F2C2F31202114347
:103B3000226812691143226811612168096841F005
:103B4000044154F88429116000BF70BD0000F81FC3
:103B50004FF0A04252690A434FF0A0435A617047A8
:103B6000014604480068034A121D1268104080B2E2
:103B70007047000018080050014604480068034AD6
:103B8000121D12681040000C704700001808005009
:103B900002464FF0A04040694FF0A0439B69184097
:103BA0000840884201D1012070470020FCE7000056
:103BB0002DE9F04104464FF0A040406900F00100BB
:103BC00008B1BDE8F08102212046FFF7E1FF18B1FE
:103BD00002212046FFF7BCFF4FF400212046FFF7EB
:103BE000D7FF002860D02046FFF7C6FF0746002613
:103BF000002556E007F0010000284FD0C5EBC501B5
:103C000001EB810204F51F7101EB8200FFF712FF47
:103C1000064606F00100D0B1C5EBC50101EB8102FB
:103C200004F51F7101EB8200FFF75CFF20680022A2
:103C30002946036820469847C5EBC50101EB810280
:103C400004F51F7101EB82000121FFF7EFFE06F082
:103C50000800A8B120680122002103682046984787
:103C6000012104F14C00FFF77DFEC5EBC50101EB1E
:103C7000810204F51F7101EB82000821FFF7D6FED7
:103C800006F0100050B1C5EBC50101EB810204F54F
:103C90001F7101EB82001021FFF7C8FE681CC5B23E
:103CA0007F08002FA6D100BF4FF480212046FFF7E8
:103CB0006FFF00287ED02046FFF752FF0746002600
:103CC00000258DE007F00100002874D0C5EBC50188
:103CD00001EB810204F14C0101EB8200FFF704FECD
:103CE000064606F0010028B30120A840C0439B49C6
:103CF0000860C5EBC50101EB810204F14C0101EB49
:103D000082000121FFF7ECFD04F51F70FFF774FE40
:103D100045F0800120680122036820469847C5EBE2
:103D2000C50101EB810204F14C0101EB820000218D
:103D3000FFF718FE06F0080050B1C5EBC50101EB16
:103D4000810204F14C0101EB82000821FFF7C8FD5C
:103D500006F0100050B1C5EBC50101EB810204F182
:103D60004C0101EB82001021FFF7BAFD06F0400084
:103D700050B1C5EBC50101EB810204F14C0101EB2F
:103D800082004021FFF7ACFD06F0020050B1C5EB08
:103D9000C50101EB810204F14C0101EB820002211B
:103DA000FFF79EFD06F0800028B1C5EBC50101EBD1
:103DB000810201E018E010E004F14C0101EB820007
:103DC000FFF75AFDC5EBC50101EB810204F14C017F
:103DD00001EB82008021FFF783FD681CC5B27F08DC
:103DE000002F7FF46FAF00BF4FF000412046FFF778
:103DF000CFFE58B159483038006820F001005749CB
:103E00003039086049072046FFF7A2FE4FF40061F1
:103E10002046FFF7BDFE20B14FF400612046FFF7BA
:103E200097FE4FF480512046FFF7B2FE40B1206864
:103E30008168204688474FF480512046FFF788FE6E
:103E40004FF400512046FFF7A3FE28B34348303813
:103E5000006840F480704149303908604FF0A0405C
:103E6000C06820F470504FF0A041C8600846C06898
:103E700040F4A050C8600022402104F51F70FFF7F5
:103E8000FDFD0022402104F14C00FFF741FD4FF4FD
:103E900000512046FFF75CFE10212046FFF778FE18
:103EA000C0B34FF0A040806920F010004FF0A04157
:103EB00088610846056A05F00F06C5F343400228ED
:103EC00010D147F6F0702840D8B1C6EBC60101EB1F
:103ED000810204F51F7101EB8200C5F30A11FFF79F
:103EE000B3FD0EE0C5F3434006280AD1C6EBC60178
:103EF00001EB810204F51F7101EB82000821FFF73D
:103F0000A3FD4FF0A040806940F010004FF0A041A9
:103F1000886100BF08212046FFF73AFE18B108214A
:103F20002046FFF715FE4FF080412046FFF730FE98
:103F300020B14FF080412046FFF70AFE04212046C1
:103F4000FFF726FE40B14FF0A041486849680143A1
:103F50004FF0A042516000BF00BF32E6340800506D
:103F60002DE9F04703460C466006050E0120A040EF
:103F70006FEA00080320A840C7434FF0000900265D
:103F8000B24602F0010010B1012000FA05F902F07A
:103F9000040010B10120A840064302F0080010B14F
:103FA0000220A840064302F0020010B1012000FAEE
:103FB00004FAFFF7E3FA58680068384040EA09005D
:103FC000596808605868C068384030435968C8600C
:103FD0005868406800EA080040EA0A0059684860EA
:103FE000FFF7BCFABDE8F0870A0443689A6170479E
:103FF0000146486800697047426891617047000057
:10400000354A026000BF354A02600A2906D2DFE85D
:1040100001F0060F18212A333C454E5759E0304A2B
:104020004260304A126842F001022E4B1A6050E0A2
:104030002D4A42602B4A126842F00202294B1A6054
:1040400047E02A4A4260274A126842F00402254BA0
:104050001A603EE0264A4260224A126842F0080294
:10406000204B1A6035E0234A42601E4A126842F033
:1040700010021C4B1A602CE01F4A4260194A126859
:1040800042F02002174B1A6023E01C4A4260154A96
:10409000126842F04002134B1A601AE0184A42605C
:1040A000104A126842F080020E4B1A6011E0154A65
:1040B00042600C4A126842F480720A4B1A6008E0AF
:1040C000114A4260074A126842F40072054B1A60B6
:1040D00000BF00BF7047000028520008C852000807
:1040E0000000024030380240000402400008024054
:1040F000000C024000100240001402400018024070
:10410000001C0240002002400024024010B504467A
:10411000A069C06900F0400048B1A069006A40F0A1
:104120004000A16908622068C16920468847A069EB
:10413000C06900F0200018B12068816920468847D6
:1041400010BD10B504462046FCF7F2F810BDFCF790
:1041500045F9000030B587B000215F48FFF718FA35
:104160004FF47A7204215D48FCF744FD42F210726C
:1041700002215B48FCF73EFD00215A48FFF740FF53
:1041800001215948FFF73CFF02215848FFF738FF4B
:1041900003215748FFF734FF04215648FFF730FF4B
:1041A00005215548FFF72CFF08215448FFF728FF49
:1041B00009215348FFF724FF48495248FFF736FAD0
:1041C0000023DFED510A9FED510A1A464D49504830
:1041D000FDF756F94F48FFF77DFADFED4B0A9FEDEB
:1041E0004B0A00224B494C48FDF7BEF90022022140
:1041F0004A48FEF7D1FF00BF4848407810B94FF059
:10420000404001E04FF05040044621464448FEF74C
:1042100009FF0F223A494348FFF77CF904AD424CAD
:10422000621D21462846FCF7F9FF00BF02200390DB
:1042300004A807C801238DE807003A4A38493B48DB
:10424000FEF710FC39493A48FEF7A2FB012303228E
:1042500004213848FDF75EF836493748FDF764F920
:1042600035493648FEF73CFA01200423082222494A
:1042700000903348FCF740FE012004230622194930
:1042800000903048FCF738FE0120042309221A4927
:1042900000902D48FCF730FE782010492A4B284A20
:1042A000CDE9001027492948FEF75CFC01200023D6
:1042B0001A460C4900902648FCF71EFE00200123F8
:1042C0000D220F4900902348FCF716FE00212248DA
:1042D000FFF716FA07B030BD00000220F4010220FB
:1042E0000C020220040002200C0002201400022014
:1042F0001C000220240002202C0002203400022096
:104300003C0002202402022000000000333353400E
:104310004402022044000220580202204C000220E5
:10432000500002206C0202202C4A00087C0202206D
:1043300058000220C4020220D0020220EC02022017
:104340000C030220240302203C0302205403022019
:10435000740302208C0302206000022088B02749E9
:1043600007A8FEF763FC4FF4C6712448FEF7C4F9B2
:104370002248FEF7E3F940E0214904A8FEF726F9B8
:1043800007A8FEF71DFCBDF81000B0F5C37F30DABA
:10439000BDF8100064282CDDBDF81200B0F5C37F15
:1043A00027DABDF81200642823DDBDF8100032388A
:1043B000002801D5002002E0BDF81000323884B298
:1043C000BDF812003238002801D5002002E0BDF807
:1043D0001200323885B24FF478400221642213462D
:1043E000CDE9002102902A4621460448FEF783FACF
:1043F00000BF0248FEF7A9F900BFBDE75800022040
:10440000EC02022002468A4201DA10467047084652
:10441000FCE70346934201DD104670478B4201DA08
:104420000846FAE71846F8E700B50246FFF7A6F88F
:104430009079D179884201DB012000E00020034619
:10444000FFF78CF8184600BD30B502460B46002435
:10445000FFF794F89079D179884211DA18781579B4
:10446000116848551179D079401E814202DA1079DD
:10447000401C00E0002010719079401C90710124D4
:10448000FFF76CF8204630BD21F00042A2F16052E7
:10449000B2F5801F01F0004328BFD2F17F6C0BD929
:1044A0005FEA001C43EAC20242EB507018BF70473B
:1044B00028BF20F001007047B2F5801FBCBF18462E
:1044C00070474FEA410C1CF5001F02D2084600F06D
:1044D000A8BA70B500F04CFA00000089FFF7F6BFEB
:1044E0004FF00040A0F58000704700002DE9C0416A
:1044F00030B4DFF8A0C23CEA111418BF3CEA131430
:1045000000F0EC8081EA03051CEA111444EAD5743A
:1045100018BF1CEA131500F0C780A4EB05044FF088
:10452000004545EAC12145EAC32341EA505143EA27
:10453000525304F17F74994204F500344FEAC020CD
:104540004FEAC22208BF904200F09C804FEA1365F8
:104550000FF24016765D4FEA134506FB05F7C7F1EB
:10456000807706FB07F74FEAD737A7FB0368764249
:10457000C8F58038A7FB06CE38BFA8F1010807FBB5
:1045800008E64FF0000EA6FB028CE6FB03CEDCF142
:10459000000CCEF1004E38BFAEF1010EA6FB0C5858
:1045A0004FF000074FF00005E6FB0E87A1FB08C6A1
:1045B000A0FB07CE16EB0E0645F10005E1FB0765F3
:1045C00015F1E04E7EBFA4F580345FEA46066D41EA
:1045D00016F1800745F100054FEA17274FEA0666F6
:1045E00047EA0567A6F1DE46B6F1805F4FEA15257A
:1045F0001FD9384624F0010C05EBC471BCF1FE6FE5
:1046000001EB0C1102D8F0BCBDE8008124425CBF74
:1046100001F5801E9EEAC47F02D4F0BCBDE8008193
:10462000244238D4F0BCA1F1C041BDE8004100F003
:10463000EDB94FEAD22242EA43524FEAD323A7FB15
:1046400002864FEAD02040EA415007FB03661EEA8B
:104650000E0F4FEAD12105FB026658BFA6EB0056AC
:10466000B6EB00564FEA520E4EEAC37E18EB0E0E22
:1046700056EB530EBDD518EB02085E417F1C55F179
:104680000005B6E74FF480154FF000074FF0000625
:104690004FF00008ADE7F0BC4FF0000001F1C04161
:1046A00001F00041BDE8008111EA0C1F0CEA13156E
:1046B00000D00CE013EA0C1F00F025804FF0000042
:1046C000F0BC81EA030101F00041BDE80081F0BCCB
:1046D000BDE8004181EA030100F098B9F0BCBDE8F3
:1046E000004170B500F044F9097EFC3E00F007B8C7
:1046F00081EA03014FF0000001F00041704781EAB8
:10470000030100F083B9F0BCBDE800414FF00000A8
:1047100021497047FFFDFBF9F7F5F4F2F0EEEDEB00
:10472000E9E8E6E4E3E1E0DEDDDBDAD8D7D5D4D3AF
:10473000D1D0CFCDCCCBCAC8C7C6C5C4C2C1C0BFFB
:10474000BEBDBCBBBAB9B8B7B6B5B4B3B2B1B0AF01
:10475000AEADACABAAA9A8A8A7A6A5A4A3A3A2A1E5
:10476000A09F9F9E9D9C9C9B9A99999897979695A0
:1047700095949393929191908F8F8E8E8D8C8C8B3C
:104780008B8A8989888887878685858484838382C4
:10479000828181800000FF070000F87F4FEA1153FB
:1047A000A3F58063D3F11E03A8BFD3F1200C08DB6F
:1047B0004FF0004242EAC12252EA505232FA03F06C
:1047C000704709420BD4102BC4BF0020704703F57B
:1047D000787CBCF1FF3F05D04FF0FF3070474FF0C1
:1047E0000000704770B500F0C3F800BF4992248004
:1047F00000207047F0E7B0FA80F310FA03F10AD016
:10480000C3F11D0303F580634FEA41504FEA0352A1
:1048100002EBD12170474FF000007047DFF848C12C
:1048200070B51CEA111E1EBF1CEA13159EEA0C0F80
:1048300095EA0C0F00F06F8081EA030423EA4C1321
:104840004EEAD47E21EA4C1141F4801143F48013E6
:10485000AE44A1FB024CA0FB0365AEF17F7E36198E
:1048600055EB0C05A1FB034C4CF10003A0FB021C13
:1048700016EB0C06654153F10003094218BF46F0E0
:10488000010613F4007F0BD14FEA03314FEA0530E4
:10489000340341EA155140EA16506FF003020AE072
:1048A0004FEAC3214FEAC520F40241EA555140EADC
:1048B00056506FF0020202EB2E4201EB025585EAE0
:1048C000CE710AD05FEA440C18BF24F0004450F1C6
:1048D000000041F1000120EAD47040F2FE7C624504
:1048E00000D270BDA84214BF4FF080444FF0404446
:1048F000002E08BF0024BEF1806FA8BFA1F1C04107
:10490000BDE8704080F282804FF0000001F1C041AC
:1049100001F0004170479EEA0C0F0CEA131518BF16
:1049200095EA0C0F06D04FF0000081EA030E0EF05E
:10493000004170BD00F01CF88900013E00F007B88E
:1049400000F009B84FEA430C5FEA5C5C08D081EAEA
:10495000030100F05BB84FEA410C5FEA5C5CF6D102
:104960004FF00000014970470000FF070000F87F8A
:104970000EF1020E2EF0030E5EF8046B364205D4E3
:10498000012A43EB030515F5001F12D8012841EB5E
:10499000010C1CF5001F0CD80ED14FEAD17C15F587
:1049A000001F0CEB4C0C0CF1020C08BF4CEBD37C41
:1049B00004E04FF0080C01E04FEAD37C0CEB4C050F
:1049C00026FA05F606F00706B6F1040C06D20EEB41
:1049D000860CBDE870404CF0010C6047DFE80CF03D
:1049E000090B02024FF000414FF00000A1F5002139
:1049F00070BD19461046012851EB010418BFD4F5CB
:104A0000001484BF002001F0004170BD0808A0F52B
:104A100000114FEA310170474FF04070E1EE100A8B
:104A20007047FF2141EAD050C0057047207F0C0835
:104A30000C0000000000000000000000000008085A
:104A400008080808080008000000141414000000FA
:104A50000000000000000A0A3F1414147E282800F9
:104A60000000081C22201C02221C0800000020510B
:104A700022040810224502000000182020103049AE
:104A80004A443B0000000808080000000000000045
:104A90000000040808101010101008080400100886
:104AA000080404040404080810000000361C7F1CDD
:104AB00036000000000000000808087F0808080011
:104AC00000000000000000000000081000000000CE
:104AD0000000007F00000000000000000000000057
:104AE000000008000000000102040810204000003F
:104AF00000001C222222222222221C000000083850
:104B00000808080808083E0000001C2202020408E9
:104B100010203E0000001C2202020C0202221C0097
:104B20000000040C0C1414243E040E0000003E206F
:104B300020203C0202221C0000000C1020203C22FD
:104B400022221C0000003E2202040408081010006B
:104B500000001C2222221C2222221C0000001C22F7
:104B600022221E02020418000000000000080000BB
:104B7000000008000000000000080000000008100D
:104B800000000000040810201008040000000000CD
:104B9000003E003E0000000000000000100804027B
:104BA0000408100000001C2202020408080008008B
:104BB00000001E214D5555554E201C0000001808C0
:104BC000081414223E22770000007E2121213E217C
:104BD00021217E0000001E214040404040211E0057
:104BE00000007C222121212121227C0000007F2144
:104BF00020243C2420217F0000007F2120243C240D
:104C00002020780000001E214040404741211E0026
:104C10000000772222223E222222770000003E0856
:104C20000808080808083E0000001E0404040404E4
:104C300044443800000073222424283824227300BE
:104C400000007C101010101010117F000000632273
:104C500036362A2A222277000000672232322A269C
:104C60002622720000001C224141414141221C00C9
:104C700000007E2121213E202020780000001C22FF
:104C80004141414141221C1B00007E2121213E2443
:104C90002422730000003E4140403E0101413E009D
:104CA00000007F490808080808081C000000772257
:104CB0002222222222221C00000077222222141407
:104CC000140808000000772222222A2A2A1414003D
:104CD00000007722141408141422770000007722B1
:104CE0002214140808081C0000007F420404081065
:104CF00010217F0000001C10101010101010101058
:104D00001C000040201008040201000000001C04E8
:104D100004040404040404041C0814220000000019
:104D20000000000000000000000000000000000083
:104D3000FF0010080000000000000000000000005C
:104D4000003C023E42423D0000006020203E212106
:104D500021217E0000000000003E414040413E0015
:104D600000000602023E424242423F0000000000B4
:104D7000003E417F40413E0000000C10103C1010EE
:104D800010103C0000000000003F4242423E020280
:104D90003C006020202C32222222770000000800F4
:104DA0000038080808083E0000000400003C040425
:104DB00004040404380060202026242838246300DA
:104DC000000018080808080808083E000000000055
:104DD00000742A2A2A2A6B0000000000006C32228C
:104DE0002222770000000000003E414141413E0088
:104DF00000000000007E212121213E2070000000E3
:104E0000003F424242423E02070000000076191075
:104E100010107C0000000000003E413806413E00BA
:104E200000000010103C101010120C0000000000D8
:104E30000066222222261B000000000000772222AA
:104E400014140800000000000077222A2A1414001D
:104E5000000000000077221C1C22770000000000E8
:104E6000007722221414080830000000007E440855
:104E700010227E000000060808080830080808080C
:104E80000608080808080808080808080800300884
:104E900008080806080808083000003149460000E4
:104EA000000000000000001C1C1C1C1C1C1C1C1C06
:104EB0000000000000000000000000000000FFFFF4
:104EC000FFFFFFFFFFFFFFFF0B000B0005000500CA
:104ED000C700130009000300C3000F000300010016
:104EE00002000200030000000400040003000100AF
:104EF00000000000000000004F4100084F41000882
:104F00004F4100084F410008000000000000000071
:104F100000000000000000000B38000811380008F5
:104F20000000000000000000FD3700080000000045
:104F30000000000000000000000000000000000071
:104F40000000000000000000B50E0008CF0E0008B1
:104F50000000000000000000000000000000000051
:104F6000000000004F4100084F4100084F41000879
:104F70000000000000000000000000000000000031
:104F80004F4100084F4100080000000000000000F1
:104F9000000000008D0F00084F4100084F4100083D
:104FA0004F4100084F4100084F4100084F410008A1
:104FB00000000000000000000000000000000000F1
:104FC0004F41000800000000000000000000000049
:104FD000331200080F1300080D1300081113000806
:104FE00013130008271200082D120008000000000B
:104FF00000000000000000000000000000000000B1
:1050000000000000000000000000000000000000A0
:10501000CD14000823380008293800082F3800086C
:105020000000000000000000000000000000000080
:105030000000000000000000000000004F410008D8
:1050400067240008000000000000000000000000CD
:105050000000000000000000000000005F240008C5
:10506000632400080000000000000000692400081C
:1050700015240008000000000000000000000000EF
:10508000000000004F4100084F4100084F41000858
:1050900000000000000000004F41000867240008E5
:1050A0000000000000000000000000000000000000
:1050B00000000000000000005F24000863240008D6
:1050C000000000000000000069240008152400080A
:1050D00000000000000000000000000000000000D0
:1050E0004F4100084F4100084F41000800000000F8
:1050F00000000000C92400084F2500084F410008A7
:105100000000000000000000CD25000800000000A5
:10511000000000003D2700084B27000800000000A9
:105120000000000000000000F92600080000000058
:105130000000000000000000692900080B2700089B
:10514000F7280008000000005927000800000000B0
:10515000000000000000000000000000B529000869
:10516000DB29000800000000000000000000000033
:105170000000000000000000000000005F240008A4
:1051800063240008000000000000000069240008FB
:1051900015240008000000000000000000000000CE
:1051A00000000000E72900084B2A0008132A000825
:1051B0000000000000000000C92400084F2500087E
:1051C000FD2A00080000000000000000612D00081A
:1051D000F72C000800000000000000009F2C0008D1
:1051E0004F4100084F4100084F41000800000000F7
:1051F000000000004F4100084F410008000000007F
:105200000000000000000000F52D0008D52F000868
:1052100000000000000000004F4100084F4100085E
:1052200000000000000000004F4100084F4100084E
:105230004F4100084F4100084F4100084F4100080E
:105240000000000000000000612D0008F72C00089D
:1052500000000000000000009F2C00081D36000820
:10526000A5350008C9350008000000000000000056
:10527000000000009136000800000000000000005F
:10528000000000000000000000000000000000001E
:10529000000000000B380008113800084F410008DA
:1052A0004F410008FD37000800000000000000002A
:1052B0004F41000823380008293800082F3800081B
:1052C000000000000000000000000000613F000836
:1052D000F93F000800000000E93F0008F13F000826
:1052E00000000000000000000000000000000000BE
:1052F000000000000000000037100008000000005F
:10530000000000000000000000000000000000009D
:1053100000000000000000005D1000080000000018
:10532000000000005D2C00080000000000000000EC
:10533000FF340008EF340008CF340008A53400081B
:10534000B53400086853000800000220F401000092
:10535000340200087C540008F401022014220000EA
:1053600070020008F1EDFFFF016533A05020FC2022
:10537000200100A7007F019700800128307201C83A
:1053800020730178208E0168208F01C430A8007B33
:1053900010A900EC306900FC306A000C3075001C6C
:1053A0003080007C4083008C4084009C408500ACB1
:1053B000408600BC408700CC408800DC406B00EC9D
:1053C000406C00FC406D008C306E009C306F00AC77
:1053D0003070008C7071009C707200AC707300BCF7
:1053E000707400CC707600DC707700EC707800FC94
:1053F0007079000C807A001C807B002C807C003C43
:10540000807D006C807E007C807F009C808100AC71
:105410008082000C504A001C504B002C5056003C1F
:10542000505D004C505E005C505F00CC506000DC72
:10543000506100EC506200FC5063000C604C001C9A
:10544000604D002C604E003C604F004C6050005C92
:105450006051008C609800FC6099002C7096003CB4
:10546000709A005C709D00BC509C2C0C408A001C03
:0C547000408B004C808C04825C808D001E
:04000005080001F9F5
:00000001FF
