:020000040800F2
:1000000090260220F90300080104000803040008F8
:1000100005040008070400080904000800000000A7
:100020000000000000000000000000000B040008B9
:100030000D04000800000000F51D0008211E000846
:100040001304000813040008130400081304000834
:100050001304000813040008130400081304000824
:100060001304000813040008130400081304000814
:100070001304000813040008130400081304000804
:100080001304000813040008BD1D00081304000831
:1000900013040008130400081304000813040008E4
:1000A00013040008F91F00081304000813040008D3
:1000B0002D200008392000084520000813040008FE
:1000C00013040008130400081304000813040008B4
:1000D000130400088D20000899200008A5200008BE
:1000E0001304000813040008130400081304000894
:1000F0001304000813040008692000081304000812
:100100001304000813040008512000081304000819
:100110007520000881200008130400085D200008F5
:100120001304000813040008130400081304000853
:100130001304000813040008130400081304000843
:10014000130400081304000813040008D91D000854
:10015000130400081304000813040008B120000869
:100160001304000813040008130400081304000813
:100170001304000813040008130400080000000022
:1001800013040008130400081304000813040008F3
:1001900013040008130400081304000813040008E3
:1001A00013040008130400081304000813040008D3
:1001B00013040008130400081304000813040008C3
:1001C00013040008130400081304000813040008B3
:1001D00013040008130400081304000813040008A3
:1001E0001304000813040008130400081304000893
:1001F000130400081304000800F002F800F0BDF832
:100200000AA090E8000C82448344AAF10107DA4571
:1002100001D100F0B2F8AFF2090EBAE80F0013F006
:10022000010F18BFFB1A43F0010318473074000098
:10023000507400000A444FF0000C10F8013B13F01A
:10024000070408BF10F8014B1D1108BF10F8015B2F
:10025000641E05D010F8016B641E01F8016BF9D122
:1002600013F0080F1EBF10F8014BAD1C0C1B09D179
:100270006D1E58BF01F801CBFAD505E014F8016BEB
:1002800001F8016B6D1EF9D59142D6D3704700007D
:100290000023002400250026103A28BF78C1FBD88F
:1002A000520728BF30C148BF0B6070476E2900F06D
:1002B000D782702900F01984662906F0D384652955
:1002C00006F0D084672906F0CD846129AFF3008061
:1002D00003681B0A28BF41F08001692900F084826D
:1002E000642900F08182752900F07E826F2900F078
:1002F000A683782900F0E583E92900F04183E42909
:1003000000F03E83F52900F03B83EF2900F0A38342
:10031000F82900F0E4830368DB0928BF41F080017D
:10032000632900F0B487732900F0B987E32900F04E
:10033000C487F32900F0C987002070471FB506F075
:1003400087FC9DE8030000F0ABF900F0F2F801F043
:1003500031F804000020002106F066F9401C6060BE
:100360000020002106F04AF9E06000F061F91FBDAD
:1003700010B5002000F088FC10BD00F0EEFF114623
:10038000FFF7DCFF06F04EF801F0CAF803B4FFF700
:10039000EFFF03BC00F05EF90B49D1F800C04A68DA
:1003A0005CF8043B1068184442F8040B8C4528BFE5
:1003B000A1F1DC0C8A4228BFA1F1DC02C1F800C027
:1003C0004A6020F000407047E8050220EFF3088003
:1003D00020E9F00F80F308882DED200AEFF3088064
:1003E000704780F30888BDEC200AEFF30880B0E87E
:1003F000F00F80F308887047094880470948004794
:10040000FEE7FEE7FEE7FEE7FEE7FEE7FEE7FEE7C4
:10041000FEE7FEE704480549054A064B7047000021
:100420005D1E0008F90100089006022090260220B7
:10043000901602209016022070B5064600F010F9C2
:10044000056806F10B0020F00704B4429CBF0020B1
:1004500070BD2B466A68BAB11068A04210D304F18F
:10046000080188423CBF5068586007D35168101992
:1004700041601168091B016058601460101D70BD57
:1004800013465268002AE7D12146284600F0F4F8C6
:100490000028DED170BD70B50446051F00F0E0F8FD
:1004A0000068002C14BF446870BD002C18BFAC421B
:1004B0003CBF20466468F8D301680A18AA4218BFF6
:1004C000456003D12A680546114401602868411936
:1004D000A1421CBF6C6070BD6168696021680844FE
:1004E000286070BD1CB50C46064B7B4469460090E5
:1004F000204600F0CEF904460020694600F0DCF901
:1005000020461CBDCB0300000B4910B5A1F17C02B5
:100510000A4CC2E93712372106E000EB104342F8DB
:100520002130074B00FB03400B1EA1F10101F4DC5D
:1005300010BD0120E8E7000088050220E119D66619
:10054000CD0D010010B5002000F0BFFBFFF710FF3C
:10055000BDE81040012000F07DB82DE9F0410746CC
:1005600015460E461020FFF767FF04000AD06760AB
:10057000C4E9026500F078F8016821600460002099
:10058000BDE8F0810120FBE710B5431C02E010F844
:10059000011B71B18107FAD14FF0013202C88C1AE8
:1005A0008C4314EAC211F9D0C01A0A0603D0C01E47
:1005B00010BDC01A10BD0A0401D0801E10BD090272
:1005C000FCD0401E10BD10B5203AC0F00B80B1E841
:1005D0001850203AA0E81850B1E81850A0E8185078
:1005E000BFF4F5AF5FEA027C24BFB1E81850A0E881
:1005F000185044BF18C918C0BDE810405FEA827C9B
:1006000024BF51F8043B40F8043B08BF7047D207B1
:1006100028BF31F8023B48BF11F8012B28BF20F852
:10062000023B48BF00F8012B704770477047704786
:1006300070B5064C7C44064D7D4403E020682044A0
:100640008047241DAC42F9D170BD000070710000DC
:100650007071000001491820ABBEFEE726000200C1
:1006600000487047F805022000487047280602201D
:10067000704770477047704738B504460A460020F7
:100680006946AFF30080002808BF38BD02460099D4
:10069000204600F02BFB012038BD012000F056BEA3
:1006A000F8B5AFF30080054600200C46102000BFCF
:1006B0000646A819A0420DD9324669460020AFF37C
:1006C0000080070008BF00F041FE0098A04218BF5C
:1006D0000546C419FFF7C4FF05600746F01D20F06A
:1006E00007004619284600F00AF8B44208BFF8BDD2
:1006F000A21B31463868BDE8F84000F0F7BA002187
:100700000160C0E9011070471020704710B500F07B
:10071000E9FA006810BD10B5044600F0E3FA046081
:1007200010BD70B5044685690068C10601D5302644
:1007300000E02026C00707D070BDD4E90121304673
:100740009047206A401C20626D1EF6D570BD70B5C2
:10075000044685690078C00707D170BDD4E901213E
:1007600020209047206A401C20626D1EF6D570BD87
:1007700009684A0501D540B27047C905FCD500B2E9
:10078000704709684A0501D5C0B27047C905FCD554
:1007900080B2704770B50C460546012A05D028780E
:1007A000800600D5EA69002302E0012305E05B1C16
:1007B000934202D2E05C0028F9D1A869E618C01A79
:1007C000A861286A184428622846FFF7AAFF04E0B7
:1007D000D5E9012114F8010B9047B442F8D328461B
:1007E000FFF7B5FF70BD00002DE9F041064600247B
:1007F00010687529314616A510D0FFF7B9FF0028FB
:1008000002DA404213A507E031688A0701D512A534
:1008100002E0490704D511A5012401E0FFF7B1FF6B
:1008200000210A2206F1240709E0B0FBF2FCB0FB2C
:10083000F2F302FB1C00303078541846491C0028A3
:10084000F3D123462A463046BDE8F04100F0ADBA68
:10085000000000002D0000002B0000002000000020
:1008600011680268006A530501D508700AE0D305D3
:1008700001D5088006E0130603D5C217C1E90002BE
:1008800000E008600120704701694A1C0261087895
:10089000704700B58FB0CDE90131002105910549C0
:1008A0007944CDE903101146684600F029F90FB0EC
:1008B00000BD0000E5FFFFFF0A6802F8010B0A60B7
:1008C000704700002DE9FF5F15468A460446DFF8B1
:1008D000AC80F8440027D8E900103E46CDE900106E
:1008E00010E03AF816106A4602A800F0F2FC411C2B
:1008F00007D02178890603D5E269391891420DD8CD
:100900000744761C2078800602D5E069B84205DDF0
:10091000AE42E6DB3AF816000028E2D1A069C01B1F
:10092000A0612046FFF7FDFED8E90010CDE90010D8
:10093000002017E03AF818106A4602A800F0C9FC37
:10094000B0F1FF3F81460BD000250DF1080B05E00B
:10095000D4E901211BF8050090476D1C4D45F7D3E4
:1009600008F10100B0428046E4DB206A384420628E
:100970002046FFF7ECFEBDE8FF9F00008E680000F8
:100980002DE9F0418046D21D22F007020025D2E970
:100990000002F52915A614D0011E72F1000106DA35
:1009A0000023D0EB030063EB020211A608E0D8F8A5
:1009B00000108B0701D50FA602E0490701D50EA64E
:1009C00001251146002408F1240704E000F0A8F9ED
:1009D00030323A55641C50EA0102F7D12B463246B8
:1009E00021464046BDE8F04100F0DFB900000000BC
:1009F0002D0000002B0000002000000030B400217A
:100A000000F1240408E002F00705D208303542EA7C
:100A10004372DB086554491C52EA0305F3D10468AC
:100A2000002310A2250707D5A40600D421B1C4696C
:100A300001230DA2641EC46130BC00F0B6B910B52C
:100A4000044621461068FFF79CFE02462046BDE89A
:100A500010400023D2E7D21D22F00701D1E9002384
:100A6000CCE700000000000030000000F0B40D46AC
:100A70000188090502D5214C7C4402E01F4C7C44CE
:100A80000E34002100F1240608E002F00F071209DD
:100A9000E75D42EA03721B097754491C52EA0307D7
:100AA000F3D102780023120704D5702D06D009B1C6
:100AB000022311342246F0BC00F077B90123103430
:100AC000F8E770B504460D4621461068FFF759FE59
:100AD000024629462046BDE870400023C6E7D21DE5
:100AE00022F00703D3E90023C0E70368126843F04C
:100AF000200303600823C3610023B7E7F06600000A
:100B00002DE9F05F894604464FF0000ADFF874B122
:100B1000FB44C0F820A02046E1688847002874D034
:100B2000252806D0D4E901219047206A401C206284
:100B3000F1E700265F462046E16888472028054601
:100B400007DB312D05D2781910F8200C08B10643C7
:100B5000F1E7B00701D526F00406C4F81CA0002771
:100B6000C4F818A02A2D09D0284605F053FC38B344
:100B700004EB8708303DC8F8185019E059F8041BF9
:100B8000204604EB87029161E1688847012F054602
:100B900018D1E069002820DA26F020061DE0D8F8F8
:100BA000180000EB800005EB40003038C8F8180052
:100BB0002046E1688847054605F02CFC0028EED168
:100BC000012F0AD02E2D08D12046E16888477F1CCE
:100BD0000546022F46F02006C4DBA069002803DA90
:100BE000404246F00106A061F00701D026F0100651
:100BF0006C2D0BD0682D09D04C2D39D06A2D35D0F5
:100C0000742D35D07A2D33D016E038E0E1682F46C8
:100C100020468847B842054609D16C2F26D04FF4AC
:100C20008060E168064320468847054604E06C2F53
:100C30001AD04FF4807006430DB3A5F14100192876
:100C400002D8203546F400664A46294620462660EA
:100C50004E46FFF72BFB80B101280BD0F61D26F086
:100C6000070000F1080956E74020E4E78020D8E7B4
:100C70000020D6E706F104094DE7284652E7206A2E
:100C8000BDE8F09F806600002DE9F0410646FFF7C1
:100C9000EBFC8046454613E016B1E068B0420ED149
:100CA00020682860D4E90101D8F800708847204600
:100CB000FFF7F1FBD8F80000B842EBD100E0254681
:100CC0002C68002CE8D1BDE8F08110B500F026FBBF
:100CD000BDE8104000F01DBB00487047F005022041
:100CE0007047000000487047F00502200346406846
:100CF0008C46002818BF88423CBF03464068F8D3A2
:100D000018681844884207D00CF1030020F007004F
:100D1000001D411A521A0146081D0A60FFF7BBBBAD
:100D200030B5B0F10A024FEA900E71F100034EEABD
:100D3000817EB0EB0E0061EB91014FEA101E4EEA8E
:100D4000017E10EB0E0041EB11114FEA102E4EEA1E
:100D5000016E10EB0E0041EB11214FEA104E4EEAEE
:100D6000014E10EB0E0041EB1141401841F1000122
:100D70004FEAD00040EA41704FEAD10110EB800504
:100D80004FEA810444EA907444EB01046D1944EB8A
:100D90000404521BA3414FF0000348BF0A3200D5A0
:100DA00030BD401C41F1000130BD2DE9F0470D463A
:100DB00099469246044600F124080168880604D545
:100DC000E06921F01001216000E00120A84201DD6E
:100DD000471B00E00027A1697A1902EB0900081AF5
:100DE000A0612078C00602D42046FFF79AFC0026B6
:100DF00008E0D4E901211AF806009047206A401C57
:100E0000761C20624E45F4DB2078C0060AD52046C9
:100E1000FFF787FC06E0D4E9012130209047206AE3
:100E2000401C2062381EA7F10107F4DC07E0D4E97A
:100E3000012118F805009047206A401C2062281EF6
:100E4000A5F10105F3DC2046FFF781FC20780006C0
:100E500002D50220BDE8F0870120FBE770472DE9AD
:100E6000FF4F0C461E464FF0FF378BB0D2E9000112
:100E7000DDF860800A908A46C1F30A5505B93D46FF
:100E8000002108464FF00000BAF1000F00F44000C6
:100E900005DA00EB80004FF4400101EA50004FEA10
:100EA0009059B9F1010F00DDB9460A9850EA4A009D
:100EB0000ED044F61050A5F2FF3545432F14B8F17B
:100EC000000F1ED07542291E1EDDC9F100021CE074
:100ED000B8F1010F4FF0000001D0302103E0F243E0
:100EE00005E02154401CB042FBDB304600220021CB
:100EF00021540B99C1F80880C1E900200FB0BDE86A
:100F0000F08FBD1B6D1CDEE74A4600DA694206A879
:100F100000F094FA06AB93E8070003AB83E8070000
:100F200050460A9900F082FB8DE80700A0F50050BA
:100F30001F3800900398002D0ADD42F21F014A4637
:100F40000844002303A90390684600F0EBFD09E084
:100F5000A0F500504A461F38002303A903906846B5
:100F600000F0F5FD8DE807000004000C03D04FF001
:100F7000FF30410800E01046B8F1000F03D0002216
:100F8000009215461EE0751E05D4FFF7C9FE3032EB
:100F900062556D1EF9D5B3460122084302D00022E6
:100FA0007F1C04E02078302801D100227F1E002A17
:100FB000099784D01DE0112D07DAFFF7B1FE30321A
:100FC00062556D1C50EA0102F5D1084302D0009829
:100FD000C8B10EE00021681E05E0235C625C63542A
:100FE0002254401E491C8142F7DBAB46A81B401E21
:100FF0000990002004F80B000B98099AC0F80880AB
:10100000C0E9002B7AE711264FF0000857E72DE9D9
:10101000F04F88460446D21D22F0070191B0D1E975
:101020000001CDE90A0105F099F802460B98C00FBE
:1010300001D02D2007E02068810701D52B2002E098
:10104000202101EAC000032A099001D0072A05DB0C
:1010500003464146204600F0B1F90BE120788006B6
:1010600001D5E06900E00620B8F1650F814606D0A1
:10107000B8F1660F18D0B8F1670F70D131E00020D9
:10108000B9F1110F009001DB112301E009F1010317
:101090000AAA01A90CA8FFF7E2FEDDE90C70002600
:1010A00009F10105834647E001204B4600904FF0CF
:1010B00000470AAA01A90CA8FFF7D1FEDDE90DB08F
:1010C0000C995D46002610B909F101000D18B9EB25
:1010D000050003D4C0F1FF3609F10105A5EB0900B5
:1010E0002BE0B9F1010F01DA4FF001090020B9F14D
:1010F000110F0090484601DD112300E003460AAAC3
:1011000001A90CA8FFF7ABFEDDE90C704D460026E7
:101110008346207800070AD4AB4500DA5D4601A873
:10112000012D04DD411911F8011C302907D04F456C
:1011300002DA17F1040F04DA012082460FE06D1E77
:10114000EEE7002F02DCED1B3E4403E0781CA842D2
:1011500000DD7D1CB81B00F1010A4FF0004720782C
:10116000000703D4AA4501DB4FF0FF3A0021B7F195
:10117000004F0DF143088DF8431024D002202B239B
:10118000002F01DA7F422D230A21021EA0F1010067
:1011900000DC5FB197FBF1FC97FBF1F201FB1C7CDB
:1011A00017460CF1300C08F801CDEEE7A8F101006C
:1011B00003702188090501D5452100E06521A0F1D2
:1011C000010800F8011C09980FA9A1EB0807FF1DF1
:1011D00000B10120411901EBEA70A1693844081AF5
:1011E000401EA0612078C00602D42046FFF799FA7D
:1011F000099828B1D4E901219047206A401C206257
:101200002078C00622D52046FFF78BFA1EE0002E7C
:1012100004DBB34502DD01A8805D00E03020D4E9A5
:1012200001219047206A401C2062761CAAF101002F
:101230005FEA000A0AD100F0BDF8C0680168405CAE
:10124000D4E901219047206A401C2062281EA5F1A4
:101250000105DCDC07E0D4E9012118F8010B904717
:10126000206A401C2062381EA7F10107F3DC2046EB
:10127000FFF76DFA032011B041E610B5436913B1D1
:10128000AFF3008001E0FFF785FA012010BD12786E
:1012900000F124010A7000224A700122EDE7116872
:1012A0004FF0FF32E9E710B5436913B1AFF30080A7
:1012B00001E0FFF707FB012010BD128800F12401B7
:1012C00082840022C2840122EDE711684FF0FF32D0
:1012D000E9E770B516460C46054600F063F803686A
:1012E00093F80101012806D0FF2C0FD8185D68B1D2
:1012F00001202C7070BDD3F807013246214603F25D
:10130000071303442846BDE8704018474FF0FF30EC
:1013100070BD002801D0FFF79DB9704710B50021BE
:1013200002A000F006F9012010BD0000534947411A
:101330004252543A2041626E6F726D616C20746546
:10134000726D696E6174696F6E00000010B500F017
:1013500009F9BDE81040FFF7DCBF7546FFF7BCFC9C
:10136000AE4605006946534620F00700854618B092
:1013700020B5FFF74FF8BDE820404FF000064FF0D2
:1013800000074FF000084FF0000B21F00701AC46BA
:10139000ACE8C009ACE8C009ACE8C009ACE8C009D9
:1013A0008D46704710B500F005F8001D10BD00BF58
:1013B0007952000000487047100602202DE9F041E4
:1013C0001F46044603260168072A01F4006004DB77
:1013D00008B116A505E016A503E008B115A500E0C3
:1013E00015A521F010002060A069C01EA0610FB1FA
:1013F000401EA0612046FFF794F94FB1D4E90121C6
:1014000038469047206A401C2062C01C206206E0DB
:10141000206AFAE7D4E9012115F8010B9047761EFE
:10142000F8D22046FFF793F9BDE8F0814E414E0017
:101430006E616E00494E4600696E66002DE9F04708
:10144000814616468AB0354878440DC88DE80D00AF
:1014500032487844801C03AC0DC884E80D0041F686
:101460009B300844372190FBF1F290FBF1F5A5F198
:10147000800501FB12041B3C02D56442012000E000
:101480000020DFF898A080460027FA44AAF1BE0A9F
:101490000EE0E0070AD03246684607EB4701012319
:1014A0000AEB810100F053FB8DE8070064107F1CFC
:1014B000002CEED1194F7F44AE3F19E0E80715D05C
:1014C00007EB04100DF1180A90E80E008AE80E00F0
:1014D000C068F04201D1981908903246012306A94C
:1014E00003A800F034FB03AB83E807006D10641C15
:1014F000002DE3D14FF0010332466946B8F1000FE9
:1015000003A802D000F00EFB01E000F020FBC9E9C7
:101510000001C9F808200AB0BDE8F087D85D0000D6
:1015200010B50446AFF300802046BDE81040FEF73A
:101530002DBF70B505460C460A2000E06D1C00F07A
:1015400039F835B128780028F8D102E0641C00F0A1
:1015500031F814B120780028F8D1BDE870400A2095
:1015600000F028B810B5012805D0002103A0FFF72E
:10157000E0FF012010BD09A1F8E7000053494752E0
:10158000544D454D3A204F7574206F662068656153
:1015900070206D656D6F7279000000003A2048651B
:1015A0006170206D656D6F727920636F72727570F6
:1015B0007465640008B569468DF800000320ABBE71
:1015C00008BD00004FF0013C50F8042B51F8043BDB
:1015D0009A4215D1A2EB0C03934313EACC130BD11F
:1015E00050F8042B51F8043B9A4209D1A2EB0C03AA
:1015F000934313EACC13E7D04FF00000704700BFCD
:10160000D01A01BAB1FA81F101F0180122FA01F001
:10161000CB40C1F12001DBB2C0B2C01A2CFA01F3F9
:10162000D11A914311EAC311E6D170475FEA400C29
:1016300008BF91F0000F4FEA8C234FEAC12243EA22
:1016400051514FEA1C5018BF00F5F0404FEA3000EE
:1016500018BF41F000415FEA6C5C00F02980BCF1EA
:10166000FF3F08BF40F080407047130C06BF1204D4
:101670004FF0100C4FF0000C130E04BF12020CF1CF
:10168000080C130F04BF12010CF1040C930F04BFDC
:1016900092000CF1020CD30F04BF52000CF1010CAC
:1016A00011464FF00002A0F11F00A0EB0C007047A4
:1016B00011F0004F08BF704731F000413FF4D5AF43
:1016C0000B0C06BF09044FF0100C4FF0000C0B0E72
:1016D00004BF09020CF1080C0B0F04BF09010CF147
:1016E000040C8B0F04BF89000CF1020CCB0F04BF5C
:1016F00049000CF1010CCCF12003A0EB0C0022FA04
:1017000003F302FA0CF241EA030100F10100704711
:1017100020F07F4C80EA030023F07F47ACEB070307
:1017200003F57C5300F0004003F1FF032DE98049ED
:101730004FEA154B09B44FEA144325EA0B4E24EA4D
:1017400003480FF2042606EB132749083E785FEAA8
:10175000320203FB0667C7F5000707FB06F64FEAF0
:1017600054374FEAD64606F1020607FB066CCCF169
:10177000005C4FEA1C472CEA074C07FB06F40CFB05
:1017800006F504EB15464FEA961634BF00204FF0DD
:1017900000404FEAD13706FB07FC4FEA1C4C0CFB1C
:1017A0000BF7D21B03FB0CF761EB07010CFB0EF7E9
:1017B000B0EB074072EB17420CFB08F734BFA2EB0B
:1017C0000742B2EB074261EB17414FEA0C444FEA84
:1017D000910706FB07FC4FEA1C4C0CFB0BF7B0EB28
:1017E000C74072EB573203FB0CF734BFA2EBC74282
:1017F000B2EBC74261EB57310CFB0EF7B0EBC70001
:1018000072EB57720CFB08F734BFA2EBC702B2EBC6
:10181000C70261EB5771039F4FEA816141EA921160
:1018200004EBCC044FEAD1374FEA826206FB07FC97
:1018300042EA90124FEA80604FEA1C4C0CFB0BF717
:10184000D21B03FB0CF761EB07010CFB0EF7B0EBAF
:10185000074072EB17420CFB08F734BFA2EB0742BC
:10186000B2EB074261EB17414FEA8C554FEA910703
:1018700004EB9C2406FB07FC4FEA1C4C0CFB0BF70B
:10188000B0EBC74072EB573203FB0CF734BFA2EB4F
:10189000C742B2EBC74261EB57310CFB0EF7B0EB1E
:1018A000C70072EB57720CFB08F734BFA2EBC702FC
:1018B000B2EBC70261EB577115EB4C254FEA816122
:1018C00041EA92114FEA82624FEAD13742EA90121E
:1018D00006FB07FC44F100044FEA80604FEA1C4C11
:1018E0000CFB0BF7D21B03FB0CF761EB07010CFBA6
:1018F0000EF7B0EB074072EB17420CFB08F734BF52
:10190000A2EB0742B2EB074261EB174115EB1C1546
:101910004FEA813141EA92414FEA823242EA9042F3
:101920004FEA80304FEA0C7644F1000448EA034362
:101930004EEA0B484FF0000EB2EB080C71EB0307B8
:1019400024BF624639464EEB0E0E4FF0000B0018D6
:10195000524149414BEB0B0BB2EB080C71EB030707
:101960007BF1000B24BF624639464EEB0E0E4FF062
:10197000000B0018524149414BEB0B0BB2EB080C2A
:1019800071EB03077BF1000B24BF624639464EEB37
:101990000E0E51EA020718BF46F0010616EB0E764E
:1019A00055F1000254F1000103D5BDE88901BDE8FD
:1019B0000088BDE88901BDE80048B619524141EBF5
:1019C0000101A3F10103704780807F7E7D7C7B7ADB
:1019D0007978777676757473727171706F6E6E6DDB
:1019E0006C6C6B6A6A696868676666656464636381
:1019F00062616160605F5F5E5E5D5D5C5C5B5B5A07
:101A00005A59595858575756565555555454535373
:101A100052525251515050504F4F4F4E4E4D4D4DCE
:101A20004C4C4C4B4B4B4A4A4A4949494848484719
:101A30004747474646464545454444444443434357
:101A40004342424242414141002B9C4630D4770000
:101A50002BD01CB54FEA370703B44FF010004FF0FE
:101A60001001BAF1000F06D0BCF1000FDCBF40F04E
:101A7000080040F008014FF000000FBCBDE8104026
:101A80000BF1010BBBF1010F08BF5FEA170722BF83
:101A900012F1010211F101014FF0004143F1000385
:101AA00000F0004043EA00007047F9D35708D0E740
:101AB00046EA064613F1400F4FEA16461FDD13F1C2
:101AC000200FDFBF16430A46002120335B42BED001
:101AD000C3F1200746EA064602FA07F74FEA164620
:101AE00046EA0706C3F1200722FA03F201FA07F7D4
:101AF00021FA03F14FF0000342EA0702A7E746EAA2
:101B0000020646EA06464FEA164646EA0106BCBF0A
:101B100046EA0646360C4FF000034FF000024FF045
:101B2000000194E72DE9804C9A46934670B491E801
:101B3000380007C831EA400C48BF34EA430C03D5EB
:101B4000FFF7E6FDFFF780FFF0BCBDE8008C2DE954
:101B5000804C9A46934670B491E8380007C810F05C
:101B6000804F08BF13F0804F03D100F005F8FFF756
:101B70006BFFF0BCBDE8008C20F07F4780EA0300DB
:101B800023F07F4C07EB0C03A3F57C5300F00040DF
:101B9000A3F1FE0392F0000F00F0B38095F0000F68
:101BA00000F077802DE901494FEA11404FEA1446D1
:101BB00021EA004800FB06FC24EA064708FB06F67B
:101BC00007FB08F800FB07F718EB06484CEB164C30
:101BD0004FEA124B18EB07484FEA15464CEB1740FB
:101BE00022EA0B4E0BFB06FC25EA06470EFB06F627
:101BF00007FB0EFE0BFB07F71EEB064E4CEB164CDD
:101C00004FF000061EEB074E4CEB174B18EB0B0882
:101C100040F1000018EB0E0B58EB000840F10000FB
:101C20008F1A4FF000013CBFC943661B14BFB5EBD0
:101C3000040C00213CBFC943F61B4FEA17444EEA8F
:101C40008E0E27EA04454FEA1C4704FB07622CEA84
:101C5000074C05FB07F70CFB05F604FB0CFC16EB29
:101C6000074642EB174216EB0C4642EB1C421BEBBD
:101C7000060658EB0202414146EA9E0601D5BDE840
:101C80000189B619524141EB0101A3F10103BDE8FD
:101C900001894FEA14454FEA114724EA054621EA33
:101CA000074C05FB07F406FB07F70CFB06F105FBE9
:101CB0000CFC11EB074144EB17444FEA124711EBC0
:101CC0000C4144EB1C4422EA074C05FB07F206FBDF
:101CD00007F70CFB06F605FB0CFC16EB074642EB80
:101CE000174216EB0C4642EB1C456A1854F10001F2
:101CF00048BF7047B619524141EB0101A3F10103FE
:101D0000704795F0000F37D04FEA11424FEA144761
:101D100021EA024624EA074C02FB07F106FB07F71B
:101D20000CFB06F402FB0CFC14EB074441EB1741DF
:101D30004FEA154714EB0C4441EB1C4125EA074CD4
:101D400002FB07F506FB07F70CFB06F602FB0CFC93
:101D500016EB074645EB174516EB0C4645EB1C42C8
:101D6000121951F1000148BF7047B619524141EBB9
:101D70000101A3F1010370474FEA14454FEA1147EF
:101D800024EA054621EA074C05FB07F106FB07F7A5
:101D90000CFB06F24FF0000605FB0CFC12EB0742B1
:101DA00041EB174112EB0C4251EB1C4148BF70470D
:101DB000921841EB0101A3F1010370470448016847
:101DC00021F0020101600348C06801680969084701
:101DD00000220140A802022010B503F051FC044883
:101DE000406D03F0BBFEBDE8104003F03BBC0000BB
:101DF000A802022010B5FEF7E9FA074908600021A1
:101E0000064A05481268006890470349086008467A
:101E10000068FEF7E6FA10BD18030220AC020220AB
:101E200010B5FEF7D3FA0A4908600A480949006864
:101E3000401C0860084A0121054812680068904764
:101E40000349086008460068FEF7CBFA10BD0000A1
:101E500014030220B0020220AC0202202DE9F0415E
:101E60005E48016841F4700101605D49086840F016
:101E7000010008605A4A0025083215600868594B6D
:101E8000184008600C1D58482060086820F4802025
:101E90000860101D0560086840F48030086008681C
:101EA00040F00100086000204FF4A0460B689B033F
:101EB00002D4401CB042F9D30868800346D54B4B8E
:101EC0000720186046484030036843F080530360A1
:101ED000106840F43440106045482060086840F0C5
:101EE0008070086008688001FCD5106820F003004D
:101EF0001060106840F0020010601068C0F38100AC
:101F00000228FAD1086820F0805008600868800034
:101F1000FCD4334A88321068C0F303604FF458335E
:101F200043EA006040F0A0401060101D026822F4F7
:101F300040320260001D026842F0006202600868E0
:101F400040F08050086008688000FCD523494FF0BD
:101F5000006080390860214E361F3560BFF34F8F17
:101F6000371F3868C0F34E31DFF888C043F6FF747E
:101F7000C0F3C903184604EA411242EA8078CCF85B
:101F80000080401EF9D2491E481CF3D1BFF34F8F89
:101F9000BFF36F8F3560BFF34F8F104874380168FF
:101FA00021F480310160BFF34F8F3868C0F34E31A8
:101FB000104AC0F3C9061432304604EA411343EA1A
:101FC00080751560401E451CF9D1491E481CF3D18F
:101FD000BFF34F8FBFF36F8FBDE8F08188ED00E056
:101FE00000380240FFFFF6FE10300024003C0240A3
:101FF0001964407860EF00E070B5094C20694FF03B
:102000000005C00705D00748006900F015FA2561F2
:1020100070BD054801680029FAD0056070BD000058
:1020200000000140A802022010440140014840691C
:1020300000F002BAA80202200148806900F0FCB951
:10204000A80202200148C06900F0F6B9A8020220E7
:102050000148006A00F0F0B9A80202200148406A75
:1020600000F0EAB9A80202200148806A00F0E4B951
:10207000A80202200148806C04F04AB8A80202209D
:102080000148C06C04F044B8A80202200148C06BAB
:1020900004F03EB8A80202200148006C04F038B8F1
:1020A000A80202200148406C04F032B8A8020220C5
:1020B0000148006D04F02CB8A8020220002809DBBA
:1020C000012100F01F0291404009800000F1E02052
:1020D000C0F80011704770B504460025606802F032
:1020E00097F930B12088012801D0012506E00225AA
:1020F00004E06088092801D04FF0FF35284670BD04
:102100002DE9FF47044600234FF0020998464FF09F
:10211000040C6068006ACDF80880CDF80C8003EBF1
:10212000430630F81650ADF8085009EB4607C75B78
:10213000ADF80A706D1A00D56D420FFA85FABD1A16
:1021400000D56D422DB2BAF1320F05DA322D03DA25
:102150000CEB4605455D3DB15B1CDBB2092BDAD3C8
:10216000002004B0BDE8F08703EB430221780CEBBC
:10217000420281546068006A00EB46000168808872
:10218000ADF80400A068019A02F0B4FAB4F90000B6
:1021900000EBD07121F00101401A401C20806088C2
:1021A000401C60800120DCE7B0F9000070472DE999
:1021B000F04105460E46092404270EE0FEF7ECF830
:1021C000821992FBF4F004FB1022686802EB4201D2
:1021D000006A07EB4101405C28B12846FFF77BFF0E
:1021E00000280FDAEAE7686802EB4201022202EBFC
:1021F0004102006A825E30F911102846BDE8F041C4
:10220000FFF77EBFBDE8F08110B504460120FEF760
:1022100013F9A0602420FEF70FF902F002FA6060C3
:10222000A06802F027FA012020800020608020466C
:1022300010BD10B50446A068002801D0FEF72BF9A8
:10224000606820B102F0F7F908B1FEF724F92046E2
:1022500010BD0000F8B50C461546002602F022FC21
:102260000E4B2A462146009602F03AFC411C08D14A
:1022700002F018FC0121094B2A460091214602F088
:102280002FFC411C08D102F00DFC0221034B2A4611
:102290000091214602F024FCF8BD0000E00102207C
:1022A0002DE9F04788B007463E4D2C6802F08CFCC3
:1022B000018820684269204690472C6802F084FC1F
:1022C0004188206882692046904737A01025002267
:1022D000CDE9005018231146384602F033FA02F0D7
:1022E00073FCB0F90A4002F06FFCB0F90400182644
:1022F000CDE9056504942FA1304C4FF001080791FA
:102300004FF00F096288B4F90010CDE90198521A14
:10231000039012B20092E088B4F90420801A03B24C
:10232000384602F059FA02F04FFCB0F90AA002F068
:102330004BFC23A1B0F90400CDE904A6CDE9065178
:10234000A289B4F90A10CDE90198521A039012B289
:102350000092208AB4F90E20801A03B2384602F0A7
:102360003BFA02F031FCB0F90AA002F02DFC17A1F3
:10237000B0F90400CDE904A6CDE90651E28AB4F92A
:102380001410CDE90198521A039012B20092608B9A
:10239000B4F91820801A03B2384602F01DFA08B0CA
:1023A000BDE8F0870400022048617570746D656EA9
:1023B00075650000537069656C656E00E001022070
:1023C0004869676873636F726500000045696E73E2
:1023D00074656C6C756E67656E0000000A4810B518
:1023E0000078C0070DD1084803F0D0FE48B1074877
:1023F00002F092FB064A0749FEF7AFF80248AFF336
:102400000080024810BD00001C03022020030220AF
:1024100000000008192400087047017080ED010ACF
:10242000C0ED020A70470000024B03608180C28049
:102430007047000044720008426900211161016880
:10244000096908472DE9F0410E4617462DED048B2A
:102450006B4940F8081B02F04EFC083869490446F5
:1024600001602674694D68482B1F0C2E74D2DFE87A
:1024700006F07306111D28333E49545C646C6449B0
:1024800061610461286840F0010028601920FFF7AD
:1024900015FE61E04FF0804161614461186840F0D1
:1024A000010018601C20FFF709FE55E059496161E1
:1024B0008461186840F0020018601D20FFF7FEFDDF
:1024C0004AE055496161C461186840F00400186031
:1024D0001E20FFF7F3FD3FE0504961610462186878
:1024E00040F0080018603220FFF7E8FD34E04C4966
:1024F00061614462186840F0200018603720FFF7DF
:10250000DDFD29E0474961618462286840F00200EE
:1025100028602E20FFF7D2FD1EE043496161C462AE
:10252000286840F48030286016E040496161046307
:10253000286840F4003028600EE03D496161446342
:10254000286840F48020286006E03A49616184638D
:10255000186840F480701860384604F068FA9FEDFF
:10256000369B53EC192B04F075FA9FED351B53EC99
:10257000112B04F06FFA04F0A3F800EE100A012505
:102580003149F2EE040A06E005EB8500450080EED5
:10259000201AB0EE410A10EE100A8842F4DCBCEEBC
:1025A000C00A10EE106AE660284604F040FA41ECDA
:1025B000180B304604F03BFA9FED241B53EC112B13
:1025C00004F048FA53EC182B04F044FA53EC192B9E
:1025D00004F0A8F804F0FEF9606001206169C860A9
:1025E000616948616D1E61698D626269E168D162ED
:1025F000616908602046BDEC048BBDE8F0810000F5
:10260000AC75000864720008A80202204438024039
:10261000000001400004004000080040000C0040A1
:10262000001400400004014000400140004401400B
:1026300000480140002000400000000084D797417E
:10264000000000A0F7C6B03E00FF7F47000000007A
:1026500080842E4110B5044604F1080002F0B8FF52
:10266000A179884201D0012010BD002010BD70B5B5
:10267000044625792068416920468847207100B1C9
:102680000DB110B104E0012070BD0DB1022070BD8C
:10269000002070BD70B50C461E46049D0B4940F8E5
:1026A000081B214602F0BAFFA0F1080400202071A7
:1026B0006071A57104F10800294602F096FF04F14B
:1026C0000800314602F0A3FF204670BD807200086A
:1026D000F8B50D46164600240C480078C0070DD109
:1026E0000A4803F053FD48B1094802F015FA094AB7
:1026F0000949FDF732FF0548AFF300800448324630
:10270000064B2946009402F0EBF9F8BD4003022085
:102710004403022000000008234B0008440202206A
:1027200070B588B005461D4C206801680968884767
:10273000246802F049FA01882068426920469047DF
:1027400017A010260022CDE9006018231146284664
:1027500001F0F8FF02F038FAB0F90A4002F034FA5A
:10276000B0F904201821CDE9051611A007901148F1
:102770000F26049401244388B0F90010CDE90164C8
:102780005B1A03921BB20093C388B0F90420981A15
:1027900003B2284602F020F808B070BD0400022001
:1027A0004C65747A746520537069656C650000002F
:1027B00048000000440202200A4810B50078C00713
:1027C0000DD1084803F0E2FC48B1074802F0A4F933
:1027D000064A0749FDF7C1FE0248AFF300800248F0
:1027E00010BD0000280302202C0302200000000876
:1027F000F52700087047000000B530EE601ADFEDE5
:10280000051A001D81EE210AFFF707FE024940F874
:10281000041D00BD00FF7F47B07200082DE9F05F86
:1028200004468B4692461F46DDE90A8900250120B1
:1028300020716079002801D002F022FF9FB120684A
:10284000816820468847206859460269204690479B
:1028500007E020681AF8051046692046B0476D1C4D
:10286000EDB2BD42F5D3B9F1000F1DD020688168EB
:102870002046884720684BF00101026920469047B6
:102880000025A9F1010907E02068816920468847F1
:1028900008F805006D1CEDB24D45F5DB2068C169F7
:1028A0002046884708F805002068C1682046884708
:1028B000607908B102F0D6FE207910B10020BDE8A1
:1028C000F09F0120FBE73FB583B00446CDE900232C
:1028D00060680123217A0268556804AAA847617AD2
:1028E0000843607207B030BD417A00224272084648
:1028F00070470000024A0260012202714171704774
:10290000C872000870B50023144A21E0B0EB144FE0
:102910001CD132F82300C0F30330C4F3031504F0D4
:102920000F0301F00F02032A01D041F002010C4C09
:10293000226801268640324322600A4A02EB802048
:102940000A46294600F010F8012070BD5B1C9BB2BE
:1029500052F82340002CD9D1002070BD680002201D
:1029600030380240000002402DE9F04F04464FEAA3
:10297000410C4FEAD109012088406FEA000A032088
:1029800000FA0CF0C54348070F26C00E86406FEAD8
:10299000060B02F0030606FA0CF6C2F3012707FA4B
:1029A0000CF7C2F3001808FA01F8C2F3013202FA78
:1029B0000CF203F00F03834002F062FE206828400F
:1029C00030432060E06828403843E060606800EAF7
:1029D0000A0040EA08006060A06828401043A06038
:1029E00004EB8900016A01EA0B0119430162BDE8A9
:1029F000F04F02F037BE00002DE9F84F88469146AF
:102A00004FF0FF37002502F04DF8414B4A46414652
:102A1000009502F065F804464FF00106601C0FD1E6
:102A200002F040F83A4B4A464146009602F058F808
:102A30000446A01C04D102F0C7F8012102F072F88C
:102A4000601C10D102F02EF80221314B4A46009151
:102A5000414602F045F80446A01C04D102F0B4F847
:102A6000002102F05FF8601C10D102F01BF8032176
:102A7000274B4A460091414602F032F80446A01C1A
:102A800004D102F0A1F8022102F04CF8DFF884A092
:102A9000601C0DD102F006F804211D4B4A4600913E
:102AA000414602F01DF80446A01C01D18AF80050EE
:102AB000601C0DD101F0F6FF0521154B4A4600912F
:102AC000414602F00DF80446A01C01D18AF80060CE
:102AD000A01C1AD13C461048006801680968884764
:102AE0000E480078C0070DD10C4803F04FFB48B1E9
:102AF0000B4802F011F80B4A0B49FDF72EFD074871
:102B0000AFF30080064800F065F82046BDE8F88F76
:102B10004402022064000220040002203403022048
:102B20003803022000000008092E0008FEB51048F6
:102B3000022528264FF4BF544FF4827203780D48C3
:102B4000002B00680BD0012B08D1CDE90065029461
:102B5000DC230168CC6A4FF4FA71A047FEBDCDE9D1
:102B600000650294DC230168CC6A1146A047FEBDD3
:102B7000640002200400022038B502F025F8B0F904
:102B80000C004FF4BF52124968B1012815D0022839
:102B900008D1009232230868782201680C6B4FF448
:102BA0000271A04738BD009232230868782201687C
:102BB0000C6B4FF4CD71A04738BD009232230868EA
:102BC000782201680C6B4FF49671A04738BD000065
:102BD000040002202DE9F04788B00646684C2568BD
:102BE00001F0F2FF0188286842692846904725686D
:102BF00001F0EAFF4188286882692846904761A071
:102C000010270022CDE9007018231146304601F04C
:102C100099FD01F0D9FFB0F90A5001F0D5FFB0F9E4
:102C200004201821CDE9051759A007905B480F270C
:102C3000049501254388B0F90010CDE901755B1AB0
:102C400003921BB20093C388B0F90420981A03B210
:102C5000304601F0C1FD2068782251A30168CD699A
:102C60002821A847256801F0AFFF40893223009052
:102C7000782228684FF496784146076B2846B84773
:102C80004FF6FF70009020682823782201680D6BB2
:102C90004146A847256801F097FF408932230090FC
:102CA000782228684FF4CD784146076B2846B8470C
:102CB00047F6CF30009020682823782201680D6BFA
:102CC0004146A847256801F07FFF408932230090E4
:102CD000782228684FF402784146076B2846B847A7
:102CE00049F6A200009020682823782201680D6B25
:102CF0004146A8473046FFF73FFF20682BA34FF41B
:102D0000877A52460168CD692821A847256801F0D5
:102D10005BFF022740894FF0280802904FF4827928
:102D2000CDE900872868DC234A464946D0F82CC004
:102D30002846E047206820A352460168CD694FF439
:102D40008C71A847256801F03FFF4089DC23CDE95D
:102D5000008702904FF4FA7128684A46C76A2846ED
:102D6000B847206817A352460168CC6940F2262173
:102D7000A04708B03046BDE8F047FFF7D7BE0000D7
:102D80000400022053657474696E677300000000CC
:102D900048617570746D656E750000004402022014
:102DA00046617262736368656D613A00537069656C
:102DB0006C6D6F6475733A0076732E20537069657D
:102DC0006C65720076732E20426F74000A4810B54D
:102DD0000078C0070DD1084803F0D8F948B107487A
:102DE00001F09AFE064A0749FDF7B7FB0248AFF328
:102DF0000080024810BD0000340302203803022086
:102E000000000008092E00087047000000B5B4EE6D
:102E1000600AF1EE10FA06D030EE601AF7EE001AF2
:102E200081EE810A01E0B7EE000A9FED051A001D50
:102E300020EE010AFFF7F1FA024940F8041D00BD37
:102E400000FF7F47F072000830B5002203681C784D
:102E50008C4204D85D788D4201D3091BCAB29B789D
:102E6000416802FB0311816030BD034600B518467E
:102E700003F067F902FB001081B2986801F00702C5
:102E800000EBD10080210078D140084008B101203A
:102E900000BD002000BD01604260826070470020DC
:102EA0007047002070472DE9F04104468846DDE96F
:102EB00006760025012020716079002801D002F0FB
:102EC000DFFB08F0FE0CBBB1A1684CEA0340486090
:102ED000A068416841F40051416007E0A068816941
:102EE0008907FCD5515D81626D1CEDB29D42F5D321
:102EF000A06881694906FCD5A1684CEA064040F407
:102F000080604860A068416841F400514160002041
:102F100007E0A1688A695207FCD5496A3954401C08
:102F2000C0B2B042F5D3A06881694906FCD54168BA
:102F300041F480414160607908B102F093FB20794F
:102F400010B10020BDE8F0810120FBE77047704719
:102F50007047704770B58AB00E4615461946FFF7A0
:102F6000C9FC044645482060012E454806D0022E83
:102F700013D0032E20D0042E3BD12CE04149A16078
:102F8000016841F40011016010219F20FFF7BAFC95
:102F90001021A020FFF7B6FC2BE03B49A16001689F
:102FA00041F4800101601021A220FFF7ABFC102149
:102FB000A320FFF7A7FC1CE03449A160016841F49D
:102FC000000101601021A520FFF79CFC1021A62024
:102FD000FFF798FC0DE02E49A160016841F0807177
:102FE00001601021A820FFF78DFC1021A920FFF718
:102FF00089FC2848D0E90512CDE90812D0E907126A
:10300000CDE90612D0E90912CDE90412D0E90B127C
:10301000CDE90212D0E90D01CDE900012DB1022D5B
:1030200005D0032D05D0042D05D0002104E0012199
:1030300002E0022100E0032108A83DF8112010F869
:103040001100000740EA025002AA32F8112040EABB
:10305000024004AA32F8112040EA022006AA32F8FF
:1030600011100843A1680861A068016841F20102DB
:10307000114301600AB0204670BD000004730008CF
:10308000403802400054004000580040005C0040BE
:10309000006000402871000870B50C4616461A46BC
:1030A0003146FFF7A9FB0549054601602C61204622
:1030B00021684C683146A047284670BD307300082F
:1030C00038B504466A4604F110000423054603217E
:1030D000FFF7F9FB2846FFF707FC002819D19DF8F8
:1030E00000000221B1EB901F14D19DF802209DF841
:1030F000031002F00F0241EA0221A1809DF80110A5
:1031000000F00F0041EA0020A189081AE0800120A8
:10311000207238BD0020207238BD000010B50C466A
:103120004FF4F0724FF4487102F0AEFB02460548CE
:103130001060542304491046116144610376002154
:10314000417610BD48730008007600080B4610B5A4
:103150001146FFF75BFE04460448206023611846D1
:1031600019684B6811469847204610BD60730008E7
:1031700030B585B00446FEA0006804900022A06A25
:1031800001680B6811469847A06A042201684B68E1
:1031900004A99847F7A0006804908022A06A0168FB
:1031A0000B6800219847A06A032201684B6804A9B4
:1031B0009847F1A0006804908022A06A01680B681B
:1031C00000219847A06A022201684B6804A9984729
:1031D000EAA0006804908A22A06A01680B680021B6
:1031E0009847A06A022201684B6804A998470A2000
:1031F00002F029FAE2A000680490B122A06A0168F6
:103200000B6800219847A06A022201684B6804A954
:103210009847DCA0006804909122A06A01680B68BE
:1032200000219847A06A022201684B6804A99847C8
:10323000D5A000680490B422A06A01680B68002140
:103240009847A06A022201684B6804A99847CFA05A
:10325000006804900022A06A01680B681146984734
:10326000A06A022201684B6804A99847C8A00068B8
:1032700004908122A06A01680B6800219847A06A27
:10328000022201684B6804A99847C2A00068049014
:10329000A122A06A01680B6800219847A06A022257
:1032A00001684B6804A99847BBA00068049092226B
:1032B000A06A01680B6800219847A06A0222016891
:1032C0004B6804A99847B5A0006804909522A06AAD
:1032D00001680B6800219847A06A022201684B68C8
:1032E00004A99847AEA0006804900022A06A016873
:1032F0000B6811469847A06A032201684B6804A92D
:103300009847A8A0006804909422A06A01680B68FE
:1033100000219847A06A022201684B6804A99847D7
:10332000A1A000680490A322A06A01680B68002194
:103330009847A06A022201684B6804A998479BA09D
:10334000006804908222A06A01680B6800219847F7
:10335000A06A022201684B6804A9984794A00068FB
:1033600004908122A06A01680B6800219847A06A36
:10337000022201684B6804A998478EA00068049057
:10338000A122A06A01680B6800219847A06A022266
:1033900001684B6804A9984787A000680490A6229A
:1033A000A06A01680B6800219847A06A032201689F
:1033B0004B6804A9984781A005C8CDE90302A06A1B
:1033C000802201680B6800219847A06A07220168E3
:1033D0004B6803A998477BA0D0E90053D0E90220AD
:1033E000CDE90153CDE90320A06AA02201680B6852
:1033F00000219847A06A0F2201684B6801A99847ED
:1034000074A0D0E90053D0E90220CDE90153CDE901
:103410000320A06AB02201680B6800219847A06AC7
:103420000F2201684B6801A998476EA0D0E90032CD
:1034300080680490CDE90232A06AC02201680B685E
:1034400000219847A06A0B2201684B6802A998479F
:1034500067A000680490D022A06A01680B68002170
:103460009847A06A022201684B6804A9984761A0A6
:10347000D0E9003280680490CDE90232A06A80224F
:1034800001680B6800219847A06A0B2201684B680D
:1034900002A998475AA0D0E901530268C068019276
:1034A0000490CDE90253A06A902201680B680021C4
:1034B0009847A06A102201684B6801A9984750A05C
:1034C000D0E90035D0E90220CDE90135CDE903206E
:1034D000A06AA02201680B6800219847A06A102208
:1034E00001684B6801A9984742A0D0E90023806891
:1034F0000490CDE90223A06AB02201680B68002184
:103500009847A06A0B2201684B6802A9984740A01F
:1035100001A990E82C00C0682CC10490C022A06AC8
:1035200001680B6800219847A06A102201684B6867
:1035300001A998473AA0D0E90053D0E90220CDE98B
:103540000153CDE90320A06AD02201680B68002155
:103550009847A06A102201684B6801A9984725A0E6
:10356000D0E9003280680490CDE90232A06A5FE0C1
:10357000FF800901FF800900C4300000C440000042
:10358000C5A90000C5340000C0500000D94E00009D
:10359000C1660000C1080000C5010000C53600007A
:1035A000D8797900C5330000C01B0000C583000036
:1035B000C4830000C10E0000B3000100CE850100ED
:1035C00084010000CE180403390000001803033AF8
:1035D00000000000CE1802033B0000001801033C6D
:1035E00000000000CF0101202000000102000000C7
:1035F000CF000000CB000000000000000000000031
:10360000CB000000000000000000000000000000EF
:10361000CB000404040404000000000000000000CB
:10362000CB000000000000040404040400000000BB
:103630000168E0220B6800219847A06A0B2201680C
:103640004B6802A99847B8A0D0E90023806804908D
:10365000CDE90223A06AF02201680B680021984797
:10366000A06A0B2201684B6802A99847B1A0D0E973
:10367000003280680490CDE90232A06A802201689D
:103680000B6800219847A06A0B2201684B6802A9C9
:103690009847ABA0D0E90035D0E90220CDE901354B
:1036A000CDE90320A06A902201680B6800219847A9
:1036B000A06A102201684B6801A99847A4A0D0E92C
:1036C0000035D0E90220CDE90135CDE90320A06A1B
:1036D000A02201680B6800219847A06A10220168A7
:1036E0004B6801A998479EA0D0E900238068049008
:1036F000CDE90223A06AB02201680B680021984737
:10370000A06A0B2201684B6802A9984797A0D0E9EC
:1037100001530268C06801920490CDE90253A06A87
:10372000C02201680B6800219847A06A1022016836
:103730004B6801A9984791A0D0E90035D0E9022053
:10374000CDE90135CDE90320A06AD02201680B68DC
:1037500000219847A06A102201684B6801A9984788
:103760008AA0006804908122A06A01680B68002189
:103770009847A06A022201684B6804A9984784A070
:1037800000680490B122A06A01680B680021984784
:10379000A06A022201684B6804A998477DA00068CE
:1037A0000490B622A06A01680B6800219847A06ABD
:1037B000022201684B6804A998475CA00068049045
:1037C0000022A06A01680B6811469847A06A04228B
:1037D00001684B6804A99847A06A002201680B6839
:1037E0001146984714226CA16846FCF7ECFEA06ACB
:1037F000002201680B6811469847A06A11220168EF
:103800004B6869469847142268A16846FCF7DBFEBE
:10381000A06A002201680B6811469847A06A11222D
:1038200001684B6869469847A06A002201680B68E6
:1038300011219847782001F006FFA06A77220168DD
:103840000B683A21984794F82C0028B1012811D030
:10385000022808D0032814D0A06A002201680B684F
:103860003621984713E0A06AC02201680B68362110
:1038700098470CE0A06A602201680B6836219847DF
:1038800005E0A06AA02201680B68362198474CA089
:1038900003C8CDE90301A089401E000A8DF80F007E
:1038A000207B401E8DF81000A06A052201684B683D
:1038B00003A9984744A003C8CDE90301208A401E0C
:1038C000000A8DF80F00207C401E8DF81000A06AC1
:1038D000052201684B6803A99847A06A7F22016806
:1038E0000B6851219847A06A2C2201680B6853216C
:1038F0009847A06A022201680B6855219847A06A80
:103900007F2201680B685E219847A06A0022016847
:103910000B6828219847A06A002201680B6805B04F
:103920001146BDE830401847CBFFFFFFFFFFFFFF08
:10393000FFFFFF00CC0026090B012500000000005E
:10394000CC0000000000000000000000260A0C026D
:10395000CC25000000000000000000000000000076
:10396000CC00250C0A02260000000000CC0000005C
:103970000000000000000000250B0901CC2600001B
:10398000000000000000000000000000C56600000C
:10399000C6200000F5060000E100090F0E07100B1D
:1039A0000A04070B080F100A01000000E200090FCB
:1039B0000E07100B0A04070B080F100A0100000085
:1039C0002A000000000000002B00000000000000A2
:1039D000F8B504460F4615461E46099806A90090FC
:1039E00020460EC900F0C4F8164A04460260A762D9
:1039F00084F82C60F2074FF448704FF4F07102D055
:103A0000E060216101E0E16020610020E085208626
:103A10006086A086E0862087012128680268284603
:103A200090472868C16828468847142001F00BFE9B
:103A30002868416828468847142001F004FE204683
:103A4000F8BD0000747300080181428170472DE9C0
:103A5000F84306461F46DDF820803B46CDF800803F
:103A60003068846C3046A04700250CE0002406E056
:103A70003068B18C026D30469047641CA4B2BC42E1
:103A8000F6D36D1CADB24545F0D3BDE8F883418453
:103A90007047C1847047818470472DE9F84F044610
:103AA00004F114008246FFF7CFF9504602F04CFBB8
:103AB00094F8201010FB01F0401C81B2504602F037
:103AC00040FB94F820200091218910FB02F320682C
:103AD0006289856C2046A8474FF000092CE000273A
:103AE00022E0002619E04A4631465046FFF7BDF96C
:103AF000804600250BE0B8F1000F01D0E18C00E01A
:103B0000618C2068026D204690476D1CEDB294F8E0
:103B10002000A842EFD8761CF6B2504602F011FB06
:103B2000B042E0D87F1CFFB294F82000B842D8D849
:103B300009F1010909F0FF09504602F005FB48456B
:103B4000CDD8504602F0FDFA94F82020218912FBCE
:103B500000102081BDE8F88F704730B40D4604682E
:103B6000818C13462A46E46CA44630BC60470000B2
:103B70001FB5069C14220A21FEF756FC0A49016073
:103B800001A90EC9C0E90623416180F820401F2128
:103B900041844CF2186181844FF6FF71C184002189
:103BA0000181418104B010BDD07300087CB504468A
:103BB00004F10800054602F055FDA8B920688168A7
:103BC00020468847012802D002280DD106E00120B6
:103BD000019001A9284602F054FD05E00220694643
:103BE0000090284602F04DFD284602F03BFD0028DB
:103BF0000CD12068416820468847032807D0042854
:103C000004D169460090284602F03BFD7CBD0320AC
:103C1000019001A9284602F034FD7CBD10B5006971
:103C2000002806D0016889698847012803D0022846
:103C300003D0002010BD032010BD042010BD0000E3
:103C40002DE9F0410F461646002101F039F80546EE
:103C50000A48286014202C46002121736173A17347
:103C6000E07302F079FAA0602F6126B1306829462E
:103C70004268304690472846BDE8F0812C74000821
:103C80002DE9F04107460C466068016809688847DD
:103C9000606801684968884747F6FF7600B2324697
:103CA000002102F0D7FC05466068016889688847F2
:103CB00000B23246002102F0CDFC06466068016881
:103CC000C9688847002108B1227A0AB140B10FE0E3
:103CD00010222275A581E6812161A561E6613FE0A0
:103CE000227A2AB120222275A581E681216137E05E
:103CF00098B3227A8AB301222275A581E6812161D7
:103D0000A269AA4202D1E169B14229D0511B00D572
:103D100049420F2906DCE169891B002900DA494282
:103D20000F291DDDAA1AE169711A002A01DB134669
:103D300000E053425FEA010C00D401E0C1F1000C45
:103D4000634503DD03212175226103E0052222750D
:103D500049422161A561E66102E0FFE72175216129
:103D600020720C3407CC07C7BDE8F081044A02601A
:103D70004160002101758181C181016170470000AE
:103D8000407400082DE9FC5F8046894693461E4634
:103D9000DDF830A0002436E000EE106A00EE904A14
:103DA000B8EE400AB8EE601A00EE904A20EE000A23
:103DB000F8EE600A01EE600A02F0F2F9BDEEC00A08
:103DC00010EE105A4FF6FF70012300EA4507CDE9C7
:103DD000007A09EB040081B2D8F80000ABEB0505CE
:103DE000AAB2D0F828C04046E047CDE9007AA9EB56
:103DF000040081B2D8F80000AAB20123856A4046C7
:103E0000A847641CA4B2B442C6D9BDE8FC9F406870
:103E10000268126A104740680268926A10472DE9EA
:103E2000F843174604460E469846DDE90892606856
:103E300001684D6A1146A847CDF800904346606876
:103E40003A4601684C6B3146A047BDE8F8834068AC
:103E500001680968084740680168496808472DE912
:103E6000FF5F904681460F46DDE90E2BDE1BA2EB7D
:103E7000080ABAF1000F0ED0D81B4442002E22D0FF
:103E8000304600DA2046A2EB08025FEA0A01C2F1DE
:103E9000000532D432E09F4200D31F463946904598
:103EA00000D242461098002ECDE900B000DA7642EA
:103EB000A2EB5B0082B2D9F80000B3B2846A484634
:103EC000A047BDE8FF9F9F4200D23B46904500D2ED
:103ED00042461098BAF1000F01DACAF1000A1FFA3F
:103EE0008AF1CDE90010A3EB5B005B4681B2D9F803
:103EF0000000846A4846A047E3E7294688422FDC51
:103F0000BAF1000F00DB5546002DDADBBAF1000FE5
:103F100001DB504601E0CAF1000005FB06F191FB10
:103F2000F0F03844039001DD284601E0C5F10000BF
:103F3000404402905C46002C0EDB0298109B82B23B
:103F40000398204481B2D9F80000D0F824C0484634
:103F5000E047641E002CF0DA6D1E002DD6DAB0E7C3
:103F6000002E00DB3446002CABDB002E01DD2046AA
:103F700001E0C4F100003844039001DB304601E069
:103F8000C6F1000004FB0AF191FBF0F040440290FE
:103F90005D46002D0EDB0298109B284482B20398E8
:103FA00081B2D9F80000D0F824C04846E0476D1E21
:103FB000002DF0DA641E002CD7DA82E770B50546D2
:103FC0001E4668680368DB6A9847002405E0686855
:103FD0000268D2689047641CE4B2315D0029F6D1D2
:103FE00070BDF0B589B005460C4617461E460FAAAF
:103FF0000E9901A8FCF776FA0020009068683A460E
:104000000168CB6A21469847002401AF05E0686843
:104010000268D2689047641CE4B2395D0029F6D189
:1040200006E068680168CA6820219047641CE4B211
:10403000B442F6D309B0F0BD2DE9FC4704468946E9
:1040400090469A46DDE90A750C9E5346424649461B
:10405000CDE900562068D0F828C02046E04708EB9C
:1040600007005346401B4946CDE9005682B22068FE
:10407000D0F828C02046E047CDE9007620682B46DE
:1040800042464946D0F828C02046E04709EB0A00DE
:104090002B46401B4246CDE9007681B22068866AF5
:1040A0002046B047BDE8FC872DE9F04104460E46A6
:1040B0001746606801684D6A1946A84760683A4625
:1040C00001680B6B3146BDE8F041184710B5044656
:1040D0000348206061602046FFF7B9FE204610BD0E
:1040E0004C74000810B5016CC163D0E903235A4336
:1040F00001EB820203E0448C8B1CC3630C80C16B18
:104100009142F8D310BD806A00F09EBE10B5029CAB
:10411000C185028643868486C186C36802FB03F498
:10412000048702FB03114164026C02EB4101C1638D
:1041300010BDC26B931CC3631180C18E491C8AB22F
:10414000C286C18D438E0B4493420BD8C186018F2A
:10415000491C0187C268416C11444164026C02EB46
:104160004101C163704710B5C4685C43630003EB51
:104170004202036C1A44C263118010BD2DE9FF4155
:104180000D9C0394DDE90B460A9DCDE9014600959F
:10419000FFF71EFC2D49044601600123208A82B2EC
:1041A000A08981B2A06A00F057FE2046FEF7E0FF2A
:1041B000A089A76A85B2208A86B225484FF00008F8
:1041C000C0F80080042022493C390860384600F0DD
:1041D0003BFE20481F4A783A1168C1F30B41126830
:1041E000C2F30A026B18491C41EA03414160B1184D
:1041F000521C42EA0141816002210161C0F818802D
:10420000FF21416140F20761C16179688162690003
:10421000CA1C42EA0141C1620663016841F0010122
:1042200001600C4901206039086079682164E1630C
:104230000022A06A01680B6829219847A06A00F053
:1042400003FE04B02046BDE8F0810000947400082D
:10425000686C01408468014010B50446E08A00287B
:1042600001D0401EE082A06988B101688969884751
:10427000012808D0E08A50B9A08A40B1A06901683D
:104280004969884718B1A08AE082012010BDE06921
:1042900088B1016889698847012808D0E08A50B947
:1042A000A08A40B1E06901684969884718B1A08ACD
:1042B000E082022010BD002010BD00002DE9F04179
:1042C000884617461946DDE906562A46FFF7B8FC28
:1042D00004460E482060C4F81880E7617DB1286864
:1042E00001682846884750B12868016828468847F1
:1042F0004FF47A714E43B6FBF0F0A08201E000204B
:10430000A082A08AE0822046BDE8F081F074000817
:104310002DE9F04104460F4615461E462068FDF77C
:1043200043FF804628480078C0070DD1264801F099
:104330002DFF48B1254801F033FE254A2549FCF7F9
:104340000CF92148AFF300802048414601F0AAFD56
:10435000A7F16500B0F5907F18D8B5F5C37F15DAE1
:10436000642D13DD2068FDF71FFF02280ED02068A2
:104370002A463946FDF7C4FE1748006801684968B7
:1043800088472068BDE8F041FDF7A5BE13480078D6
:10439000012804D12068FDF707FF022803D04FF061
:1043A000FF30BDE8F081A088142806D0401CA08012
:1043B0002068BDE8F041FDF78EBE20683146FDF76C
:1043C000F6FE0020A080F3E75803022084060220B6
:1043D00000000008AD5F0008040002206400022015
:1043E00010B504460C20FCF727F8FDF70DFF206000
:1043F0000020A080204610BD10B50446206800288B
:1044000004D0FDF716FF08B1FCF745F8204610BDB3
:104410002DE9FC4F0021009101914FF0040990E833
:10442000F810D0E906A8026A585C00EB400009EBDE
:104430004000105C00287DD0801C9DF800B05844DE
:104440008DF80000605C00EB400009EB4000105C60
:10445000002871D0801C9DF801B058448DF80100EF
:10446000685C00EB400009EB4000105CF0B3801C7E
:104470009DF802B058448DF80200705C00EB4000DB
:1044800009EB4000105C90B3801C9DF803B05844C9
:104490008DF80300785C00EB400009EB4000105CF5
:1044A00030B3801C9DF804B058448DF804001CF80B
:1044B000010000EB400009EB4000105CB8B3801C29
:1044C0009DF805B058448DF8050018F8010000EB80
:1044D000400009EB4000105C58B3801C9DF806B00A
:1044E00058448DF806001AF8010002E026E027E0A3
:1044F00028E000EB400009EB4000105C40B3801C5A
:104500009DF807B058448DF80700491CC9B203292B
:104510008AD300206A46115C09291BD00C2919D0C6
:10452000401C0828F7DB0020BDE8FC8F02E00BE010
:1045300002E00BE0002080E700208CE7002097E7F6
:104540000020A2E70020ADE70020B9E70020C5E782
:104550000020D5E70120E7E730B58FB004463620CC
:1045600001F0FAFD206238220B4901A8FCF72BF874
:10457000002101A8236A01EB410203EB420300EB97
:10458000420215681D6092889A80491CC9B20929A7
:10459000F0D30FB030BD0000F070000870B50446D5
:1045A000032001F0D9FD2060032001F0D5FD6060FB
:1045B000032001F0D1FDA060032001F0CDFDE060FB
:1045C000032001F0C9FD2061032001F0C5FD6061F9
:1045D000032001F0C1FDA061032001F0BDFDE061F9
:1045E00000210623206841546268C81C5054A26808
:1045F000881D5054E26801EB410050542569421C6B
:104600006A546269801C5054A26988005054E2695F
:10461000484203EB40005054491CC9B20329E1D37E
:1046200070BD10B504462046FFF796FF2046FFF701
:10463000B5FF204610BD10B50446206A01F087FD85
:10464000206801F084FD606801F081FDA06801F040
:104650007EFDE06801F07BFD206901F078FD606976
:1046600001F075FDA06901F072FDE06901F06FFDD8
:10467000204610BD2DE9FE43DFF87480D8F80040D5
:1046800000F0A2FA4FF0020940894FF4C373029080
:104690003222CDE9003920681146C56A2046A84774
:1046A000B4244FF4DC77D8F8005000F08DFA40893C
:1046B0003222CDE900790290234628682146466BD4
:1046C0002846B047D8F8005000F07EFA40893221E1
:1046D000CDE9004902903B4628682246466B2846B1
:1046E000B0478234A4B2BC42DDD3BDE8FE830000F3
:1046F0000400022007B50F480078C0070DD10D480F
:1047000001F044FD48B10C4800F057FF0B4A0C493A
:10471000FBF723FF0748AFF3008007489DF80830F8
:10472000BDF90620BDF9041003B05DF804EB00F0FC
:104730000BBF0000500302205403022000000008B9
:10474000C55500082DE9F04F0D46164699462DED4A
:10475000028B83B0DDE90E4A4FF448785046FBF7F0
:1047600013FF83464FF4C8710BEBDB70401000FB66
:10477000141000EE100AB8EEC08A164F3C6800F024
:1047800023FA808809F11E091FFA89F14346B2B263
:10479000CDE900102068A9B2D0F828C02046E04733
:1047A00000EE105ACDF800A00F36B2B2B8EEC00A33
:1047B0000BF0FF0330EE080ABCEEC00A10EE100A40
:1047C00081B238680468246AA04703B0BDEC028B4C
:1047D000BDE8F08F040002202DE9F04F8FB00F46A6
:1047E00091469A46DDE91884DDE91B51620016B254
:1047F0001A9A012A21D10FF2C01CDDE91D32CDE940
:10480000062C0022CDE90413CDE90221CDE9008474
:1048100053464A463946FFF7DFFF7F1D3FB209F195
:1048200005090FFA89F9AAF10A0A0FFA8AFAA8F11A
:104830000A080FFA88F800201A90ADB2AAEB060019
:1048400080B20E90CDE90005A8EB06000D9083B272
:1048500038190C9081B2594809EB040B1FFA8BF2FE
:104860000068D0F800C0DCF828C0E0470C98A3B27C
:1048700000951FFA8BF281B250480068D0F800C052
:10488000DCF830C0E04707EB080000950B90001BF8
:104890000A9081B24948A3B21FFA8BF20068D0F89F
:1048A00000C0DCF830C0E04709EB0A000990001BAB
:1048B000089082B20C980095A3B281B23F4800687C
:1048C000D0F800C0DCF830C0E0470898A3B20095EB
:1048D00082B20A9881B2394800680468246BA04704
:1048E0000E98B3B2CDE9000534481FFA8BF2B9B285
:1048F00000680468A46AA0470E98B3B2CDE9000529
:104900000B981FFA8BF2801B81B22C480068046858
:10491000A46AA0470D98B4B2CDE9004583B20C98C3
:104920001FFA89F281B225480068D0F800C0DCF88F
:1049300028C0E0470D98CDE9004583B20998801B57
:1049400082B20C9881B21D4800680468A46AA0472E
:104950001A9800282CD11F98FBF716FE08EBD87187
:104960004A1000EBD0714B101E9903FB112100EE91
:10497000101AB8EEC00A00EE907A1F99C3B20091E7
:104980000AEBDA71F8EEE00A09EB61021D9930EEEC
:10499000800A01EBD171A2EB6101BCEEC00A8AB2C0
:1049A00010EE100A81B2054800680468246AA04726
:1049B0000FB0BDE8F08F00000000000004000220EE
:1049C00070B504460D461646B4F9000000280BD118
:1049D000002D01DA002E07DBFDF700FD32462946E7
:1049E000FDF738FC208028E001280BD1002D01DAEA
:1049F000002E07DB01F0B6FA3246294601F01AFA1A
:104A000020801AE002280BD1002D01DA002E07DBEE
:104A1000FDF7D2FE32462946FDF75AFE20800CE013
:104A200003280AD1002D01DA002E06DBFEF7CEF9AD
:104A300032462946FDF7E0FF2080B4F90000401C13
:104A400001D160882080B4F90000B4F902108842D6
:104A500021D013480068016809688847B4F900004C
:104A600030B1012809D002280CD0032813D10EE060
:104A7000FDF7B4FCFDF714FC0DE001F073FA01F052
:104A80002DFA08E0FDF798FEFDF74AFE03E0FEF779
:104A90009DF9FEF79FF8B4F90000608070BD00003A
:104AA000040002200A4810B50078C0070DD108485C
:104AB00001F06CFB48B1074800F02EF8064A0749A0
:104AC000FBF74BFD0248AFF30080024810BD000029
:104AD000400302204403022000000008234B00088A
:104AE00010B5029800EB800033F910408C4210DAC8
:104AF00003EB4000B0F902308B420ADDB0F904103C
:104B0000914206DAB0F90610914202DDB0F90800D0
:104B100010BD4FF0FF3010BD00210180491E4180C3
:104B20007047704770B50446A181002904D001295F
:104B300015D0022938D125E0E0892080208A6080C4
:104B4000608AA080A08AE080E08A2081208B60813A
:104B500000F0DCFC0122002100F0A4FC24E0A08B8A
:104B60002080E08B6080208CA080608CE080A08C16
:104B70002081E08C608100F0C9FC0122002100F05E
:104B800091FC11E0208D2080608D6080A08DA08040
:104B9000E08DE080208E2081608E608100F0B6FC88
:104BA0000322022100F07EFC064D2188286802685D
:104BB000526990472868618802689269BDE8704030
:104BC00010470000040002200A4810B50078C00712
:104BD0000DD1084801F0DAFA48B1074800F012F8A0
:104BE000064A0749FBF7B9FC0248AFF300800248C8
:104BF00010BD00004C0302205006022000000008F7
:104C0000994C00082DE9F041044645F20C32E2814E
:104C10004FF0FF3020821D4B638241F66276A68200
:104C200041F27D37E782DFF868C0A4F818C0A0839E
:104C30000025E5834BF2915121844EF2406161845D
:104C400049F21961A18448F61C01E18449F6A201E8
:104C500021851049618549F2B248A4F82C80E1858C
:104C6000218645F28A21618622806080A380E680C9
:104C70002781A4F80AC000F049FC0122002100F0BD
:104C800011FCA5812046BDE8F0810000F494FFFFEF
:104C900082E9FFFF66F6FFFF7047026806E08A427E
:104CA00001D100207047536813B11A46002AF6D18B
:104CB0000AB1516000E001600120704770470000B8
:104CC00010B50446084605492160002161600028AE
:104CD00002D02146FFF7E1FF204610BD3C760008D8
:104CE00010B5046804E020680168204688476468BD
:104CF000002CF8D110BD00210160704710B50446AA
:104D000020684169204688470146207C08B101207F
:104D100000E00020A27E04EB8000806820F81210E2
:104D2000E07E401CC0B2E076617E884208D26169B4
:104D3000095CA176206882692046BDE810401047D2
:104D40000020E07661690978A176207710BDF0B483
:104D5000067E8E4220D90023447E08E04569ED5C42
:104D60008D4203D10368DB69F0BC18475B1C9C4291
:104D7000F4DCB44210D28568002325F81430457E57
:104D8000C46824F81530437E5C1C44764469E154C1
:104D90000368DB69F0BC1847F0BC7047417E00290E
:104DA00011D0017F00290ED1C17641690978817641
:104DB000027C32B1002202740122027702689269F9
:104DC00010470122F7E770472DE9F0410E461546DE
:104DD0000021FFF775FF04460F48206025B12868C1
:104DE00021464268284690470025A576E5766576F7
:104DF00026767700384601F0AFF9A060384601F01A
:104E0000ABF9E060304601F0A7F9606125742577C1
:104E10002046BDE8F081000004750008014A0260E8
:104E2000017170472C75000806480368DB07FCD049
:104E30000802044940EA0240083940F015000860C1
:104E400070470000746C01400248416841F0040161
:104E500041607047007001402DE9F0470D469046D3
:104E60009946564C606820F008006060544E3068E7
:104E700020F00100306052499C31086820F00400A5
:104E80000860086820F002000860206B20F0010034
:104E90002063206B20F080702063206B40F08070D6
:104EA0002063E068C004FCD59FED460B206B474AA9
:104EB00010402063206B42F6901210432063206B59
:104EC00040F001002063E068C005FCD506200860C2
:104ED0003B4801279030076040F601203849A03157
:104EE000086004203649091D08609FED391B51EC0C
:104EF000100B53EC112B01F0ADFD41EC100B53ECFA
:104F0000102B9FED350B51EC100B01F00BFC01F059
:104F100061FD80B2A0612A490020C0310860091DEE
:104F20000860274930310F600B2121602449083186
:104F300008602349103108600521214A0C321160B4
:104F40001F4960310D601E4A254964321160B9F174
:104F5000000F21D0234908604FF00112214B103B74
:104F60001A6052001B1D1A60AD1C08F102081B1DBF
:104F700048EA05421A606D1C08F101080B1F48EA57
:104F800005421A60174A14321060164A1C3210602B
:104F9000086840F001000860306840F001003060AF
:104FA000606840F00800606005494FF023109431BC
:104FB0000860091D0C480860BDE8F08700700140DA
:104FC000046C01400000000065CDBD410386FCFF7C
:104FD00095D626E80B2EF13D000000000000F03FC2
:104FE000007F0E00186801400000232370B50020E8
:104FF0000E4B1C68E407FCD00C4D2D1F0CE00B1869
:105000000C5C5E7844EA06249E78DB78360446EA37
:1050100003631C432C60001D9042F0D390B23921F1
:1050200041EA002001490839086070BD746C0140F4
:1050300070B50546234C206820F4F84040F4C05079
:105040002060A0682049084040F48310A060687880
:105050008000A0F1C040D0F840116FF3090141F485
:10506000F271C0F8401168788000A0F1C040D0F81B
:105070004811164A1140164A1143C0F8481101223E
:1050800028460023114600F025F8012000F0DBFA45
:10509000002328460122022100F01CF800232846A4
:1050A0000822032100F016F84FF40C732846012261
:1050B000042100F00FF8606940F65E41084360612A
:1050C00070BD0000400100A0FF0F0FFF00F0F0F0E6
:1050D0006103010110B58478002C03D0022914D09B
:1050E000032912D0407890B10120521E41EAC0003D
:1050F00040EA421040EA43214FF02040C0F85011EE
:10510000D0F858118906FBD410BD0320EDE702202A
:10511000EBE7000070B5044601F00F0020700809AD
:105120006070A2704FF4045569202946FDF7EAFB30
:105130006A202946FDF7E6FB75202946FDF7E2FBCC
:1051400080202946FDF7DEFB83202946FDF7DAFBA8
:1051500084202946FDF7D6FB85202946FDF7D2FBA2
:1051600086202946FDF7CEFB87202946FDF7CAFB9E
:1051700088202946FDF7C6FB6B202946FDF7C2FBB8
:105180006C202946FDF7BEFB6D202946FDF7BAFBD2
:105190006E202946FDF7B6FB6F202946FDF7B2FBCE
:1051A00070202946FDF7AEFB71202946FDF7AAFBCA
:1051B00072202946FDF7A6FB73202946FDF7A2FBC6
:1051C00074202946FDF79EFB76202946FDF79AFBC1
:1051D00077202946FDF796FB78202946FDF792FBBC
:1051E00079202946FDF78EFB7A202946FDF78AFBB8
:1051F0007B202946FDF786FB7C202946FDF782FBB4
:105200007D202946FDF77EFB7E202946FDF77AFBAF
:105210007F202946FDF776FB81202946FDF772FBAA
:1052200082202946FDF76EFB8A202946FDF76AFB9E
:105230008B202946FDF766FB4A202946FDF762FBD5
:105240004B202946FDF75EFB56202946FDF75AFB09
:105250005D202946FDF756FB5E202946FDF752FBEF
:105260005F202946FDF74EFB60202946FDF74AFBEB
:1052700061202946FDF746FB62202946FDF742FBE7
:1052800063202946FDF73EFB4C202946FDF73AFBFB
:105290004D202946FDF736FB4E202946FDF732FB0F
:1052A0004F202946FDF72EFB50202946FDF72AFB0B
:1052B00051202946FDF726FB98202946FDF722FBC1
:1052C00099202946FDF71EFB9C202946FDF71AFB75
:1052D00096202946FDF716FB9A202946FDF712FB7A
:1052E0009D202946FDF70EFB8C202946FDF70AFB81
:1052F0008D202946FDF706FB0648016841F00101B3
:1053000001602078022802D12046FFF791FE204656
:1053100070BD00003838024001490160704700004C
:1053200050750008F8B50D4616460B4F98B2009020
:10533000B2B2A9B2386803681C6B2D23A0473C6841
:10534000FFF742FC0088A9B20090B2B22068232384
:10535000056B2046A847F8BD040002202DE9FE4356
:10536000A1F12D05A2F12D04DFF870809EB212206C
:1053700004F11502CDE9010692B20092D8F80000BE
:1053800005F149018BB20F46383989B2D0F800C017
:10539000DCF834C0E04704F1500290B214218DE8EB
:1053A0004300D8F8000005F12D018BB2343A92B2D7
:1053B000056889B26D6BA847D8F80060FFF704FC58
:1053C000008804F10C02009092B23068B9B20B234D
:1053D000046B3046A047BDE8FE83000004000220B5
:1053E0002DE9FE43A1F12D05A2F12D042C4E1FFA4B
:1053F00083F9CDF8009004F1230205F12D07306800
:1054000092B2B9B20368D3F830C01E23E047D6F891
:105410000080FFF7D9FB008804F11E02009005F11F
:105420002801D8F8000092B289B21823D0F830C011
:105430004046E047D6F80080FFF7C6FB008804F13D
:105440002D02009005F11401D8F8000092B289B243
:105450001323D0F830C04046E047D6F80080FFF76D
:10546000B3FB008804F13602009005F12101D8F861
:10547000000092B289B20B23056B4046A84704F1A5
:10548000500290B20E218DE803023068163ABBB28A
:1054900092B2B9B20468646BA047BDE8FE83000015
:1054A0000400022001804280704700002DE9FE4F79
:1054B0002D392D3ADFF850A04FF00A0902F15300C0
:1054C0001FFA80F89FB20297CDE90089DAF8000050
:1054D000D21D01F153041646C91DA3B20D46D0F8E2
:1054E00000C092B289B2DCF834C0E047CDE9019740
:1054F000B0B20090DAF80000A3B2A9B20268546B0F
:105500004246A047BDE8FE8F040002200A4810B5BD
:105510000078C0070DD1084800F038FE48B10748B0
:1055200000F04BF8064A0749FBF717F80248AFF3BB
:105530000080024810BD00005003022054030220E6
:1055400000000008C55500082DE9F04105460E464B
:105550001746012B13D0B5F90240FFF735FBB0F920
:1055600008309CB1012C18D0022C1DD0032C22D164
:105570003A4631462846BDE8F041FFF7EFBEB5F99F
:105580000040FFF721FBB0F90630EAE73A46314622
:105590002846BDE8F041FFF789BF3A463146284624
:1055A000BDE8F041FFF7BEBE3A4631462846BDE8A9
:1055B000F041FFF715BFBDE8F08100210180012116
:1055C000418070477047C16840680268126910479F
:1055D00010B504466068016849698847E168084277
:1055E00001D0012010BD002010BD034630B40C00D6
:1055F0005868D968026802D0926830BC10471269B6
:1056000030BC1047C16840680268926810470A467B
:10561000017A406803685B6818470000034B036029
:105620004160027201219140C160704748760008D4
:105630004FF6FF7101EA800002E000BF401E80B219
:105640000028FAD17047024600B54FF47A7304E09F
:105650001846FFF7EDFF521E92B2002AF8D100BDA6
:105660007047000005490878002801D0401E0870E6
:105670000878002800D162B670470000A802022016
:1056800072B602480178491C01707047A8020220D6
:10569000024600B5FFF7E4FF09B1FFF7F1FF10463E
:1056A00000BD0000044801F01F01C162016841F023
:1056B00080410160704700000822014030B502F0CF
:1056C00007040D4D08290CD00C2909D10321012014
:1056D000FDF718F9D5F80C0240EA8410C5F80C0261
:1056E00030BD03210020FDF70DF9D5F8100240EA86
:1056F0000460C5F8100230BD002001400148006878
:1057000080B270474C22014010B50A461021FFF7C5
:105710005BFB04460C4820600C48C4600C480168E0
:1057200041F4806101600B48D0F8001141F4403130
:10573000C0F8001140F601014160202101601220F3
:10574000FCF7BCFC204610BD60750008A8020220D2
:10575000443802400422014010B50B4C00290AD005
:10576000012907D103210920FDF7CCF8206840F476
:105770004030206010BD03210820FDF7C3F82068E9
:1057800040F00300206010BD0074004000B502210D
:10579000FFF744FB0349016003490A6842F00052E5
:1057A0000A6000BD88750008403802400A4610B5FE
:1057B000FFF7B2FD2949016029490B6843F4807362
:1057C0000B602849012A01D052B11EE00B6823F476
:1057D00040730B600B6848F2011423430B6014E024
:1057E0000B6813F4407F07D10B6843F480330B60E0
:1057F0000B6823F480330B600B6823F440730B6059
:105800000B6848F2013423430B60164968390B6872
:1058100023F4F8130B600B6843F4C8130B601249B0
:10582000CA230B6053230B600F4918390B6843F0F0
:1058300080030B600B685B06FCD5012A09D042B9D6
:10584000094A41F63F73143A1360136843F4F803AE
:1058500013600A6822F080020A6010BD9C7500087F
:105860000070004070380240242800400830FFF7E4
:1058700037BA406870470830FFF70FBA8088704722
:10588000C0887047007A7047044B03604181828171
:1058900000218180C180017270470000C875000836
:1058A00050F8841F0A6902F060420A6101680A69BF
:1058B00042F400220A610068016841F0044101607D
:1058C0007047000070B590F8814090F883108C42CA
:1058D00000D30C46E11C8B08D0F88410896989B28A
:1058E00099420FD3411C002280F8812080F8822049
:1058F00006E0D0F8886051F8045B3560521C92B223
:105900009A42F6D3002C06D103490A680378012095
:10591000984082430A6070BD34080050D0F884007B
:1059200081607047074909680278D140054A01F053
:105930000101243A126842EAC111D0F8840080685B
:10594000084070473408005070B580F88310037821
:10595000002B00D100210C4C256801269E40B3B2DB
:105960001D432560D0F884301C6824040BD41C68C7
:10597000C1F30A0100780C43910441EA80500443CA
:10598000024804431C6070BD1C08005000800010D9
:1059900010B490F8833090F881401A46944200D2B7
:1059A000224690F8824004B312B3D118491E91FBED
:1059B000F3F1CBB250F8841F0C6904F060440C6121
:1059C00001680C6942EAC34214430C610B490A683E
:1059D000012310F8844CA3401A430A600068016850
:1059E00041F00441016010BC704710BCFFF758BF84
:1059F0000029F8D010BCFFF753BF00003408005056
:105A000050F8841F0A6902F060420A6101680A695D
:105A100010F8013C1A4342F400220A610068016850
:105A200041F0044101607047D0F884008160704704
:105A3000D0F8840080680249096808407047000077
:105A40001408005010B5CA1C9308421C80F881103D
:105A5000012180F88210002106E0D0F888402468F7
:105A600042F8044B491C89B29942F6D310BD00009C
:105A700070B480F883100378002B00D100210E4C05
:105A8000266801259D4046EA05432360D0F884300E
:105A90001C68240408D41C68C1F30A010C4307499C
:105AA00041EA82410C431C600178002902D070BC9D
:105AB00000F006B870BC70471C0800500080001051
:105AC00010B490F8831090F881208A4201D21346D6
:105AD00000E00B46C3B14B1E1A4492FBF1F2D2B266
