:020000040800F2
:10000000082402209D030008A5030008A703000898
:10001000A9030008AB030008AD03000800000000BE
:10002000000000000000000000000000AF03000816
:10003000B103000800000000F51C0008211D0008A5
:10004000B7030008B7030008B7030008B7030008A8
:10005000B7030008B7030008B7030008B703000898
:10006000B7030008B7030008B7030008B703000888
:10007000B7030008B7030008B7030008B703000878
:10008000B7030008B7030008B11C0008B703000855
:10009000B7030008B7030008B7030008B703000858
:1000A000B7030008911F0008B7030008B703000852
:1000B000C91F0008D91F0008E91F0008B70300087E
:1000C000B7030008B7030008B7030008B703000828
:1000D000B7030008492000085920000869200008DB
:1000E000B7030008B7030008B7030008B703000808
:1000F000B7030008B703000819200008B703000879
:10010000B7030008B7030008F91F0008B703000889
:100110002920000839200008B7030008092000083A
:10012000B7030008B7030008B7030008B7030008C7
:10013000B7030008B7030008B7030008B7030008B7
:10014000B7030008B7030008B7030008DD1C000868
:10015000B7030008B7030008B703000879200008B8
:10016000B7030008B7030008B7030008B703000887
:10017000B7030008B7030008B70300080000000039
:10018000B7030008B7030008B7030008B703000867
:10019000B7030008B7030008B7030008B703000857
:1001A000B7030008B7030008B7030008B703000847
:1001B000B7030008B7030008B7030008B703000837
:1001C000B7030008B7030008B7030008B703000827
:1001D000B7030008B7030008B7030008B703000817
:1001E000B7030008B7030008B7030008B703000807
:1001F000B7030008B703000800F002F800F0A8F801
:100200000AA090E8000C82448344AAF10107DA4571
:1002100001D100F09DF8AFF2090EBAE80F0013F01B
:10022000010F18BFFB1A43F001031847BC6B000015
:10023000DC6B00000A4410F8014B14F00F0508BFF6
:1002400010F8015B240908BF10F8014B6D1E05D0A2
:1002500010F8013B6D1E01F8013BF9D1641E03D07B
:10026000641E01F8015BFBD19142E4D370470000AA
:100270000023002400250026103A28BF78C1FBD8AF
:10028000520728BF30C148BF0B6070476E2900F08D
:100290008182702900F0C383662906F0AB8065294E
:1002A00006F0A880672906F0A5806129AFF30080D9
:1002B00003681B0A28BF41F08001692900F02E82E3
:1002C000642900F02B82752900F028826F2900F044
:1002D0005083782900F08F83E92900F0EB82E4292C
:1002E00000F0E882F52900F0E582EF2900F04D8367
:1002F000F82900F08E830368DB0928BF41F08001F4
:10030000632900F03E87732900F04387E32900F05A
:100310004E87F32900F05387002070471FB506F081
:100320005FF89DE8030000F055F900F0BDFF040000
:100330000020002105F034FD401C606000200021F9
:1003400005F018FDE06000F011F91FBD10B510BDFB
:1003500000F07DFF1146FFF7E1FF05F0E7FC01F03B
:1003600059F803B4FFF7F2FF03BC00F011F90000E5
:10037000EFF3088020E9F00F80F308882DED200AC4
:10038000EFF30880704780F30888BDEC200AEFF394
:100390000880B0E8F00F80F308887047094880476C
:1003A00009480047FEE7FEE7FEE7FEE7FEE7FEE757
:1003B000FEE7FEE7FEE7FEE704480549054A064B6F
:1003C000704700005D1D0008F901000808040220C4
:1003D00008240220081402200814022070B50646E2
:1003E00000F0DCF8056806F10B0020F00704B442C9
:1003F0009CBF002070BD2B466A68BAB11068A0424D
:1004000010D304F1080188423CBF5068586007D3FC
:100410005168101941601168091B0160586014602F
:10042000101D70BD13465268002AE7D121462846A8
:1004300000F0BCF80028DED170BD70B50446051F81
:1004400000F0ACF80068002C14BF446870BD002CAC
:1004500018BFAC423CBF20466468F8D301680A1854
:10046000AA4218BF456003D12A68054611440160BD
:1004700028684119A1421CBF6C6070BD6168696049
:1004800021680844286070BD1CB50C46064B7B44AF
:1004900069460090204600F096F90446002069461F
:1004A00000F0A4F920461CBD5B03000010B500203D
:1004B00000F084FBFFF74AFFBDE81040012000F088
:1004C00067B810B5431C02E010F8011B71B1810739
:1004D000FAD14FF0013202C88C1A8C4314EAC211CF
:1004E000F9D0C01A0A0603D0C01E10BDC01A10BD34
:1004F0000A0401D0801E10BD0902FCD0401E10BDB0
:1005000010B5203AC0F00B80B1E81850203AA0E8AE
:100510001850B1E81850A0E81850BFF4F5AF5FEAE2
:10052000027C24BFB1E81850A0E8185044BF18C995
:1005300018C0BDE810405FEA827C24BF51F8043B3C
:1005400040F8043B08BF7047D20728BF31F8023B90
:1005500048BF11F8012B28BF20F8023B48BF00F824
:10056000012B7047704770477047000070B5064C0C
:100570007C44064D7D4403E0206820448047241DD0
:10058000AC42F9D170BD0000C0690000C069000034
:1005900001491820ABBEFEE7260002000048704764
:1005A000AC030220704770477047704738B5044667
:1005B0000A4600206946AFF30080002808BF38BD16
:1005C00002460099204600F00BFB012038BD0120B7
:1005D00000F036BEF8B5AFF30080054600200C46AB
:1005E000102000BF0646A819A0420DD93246694620
:1005F0000020AFF30080070008BF00F021FE009844
:10060000A04218BF0546C419FFF7C8FF056007469A
:10061000F01D20F007004619284600F00AF8B44201
:1006200008BFF8BDA21B31463868BDE8F84000F0AD
:10063000D7BA00210160C0E901107047102070474F
:1006400010B500F0C9FA006810BD10B5044600F0FE
:10065000C3FA046010BD70B5044685690068C10620
:1006600001D5302600E02026C00707D070BDD4E9B0
:10067000012130469047206A401C20626D1EF6D54D
:1006800070BD70B5044685690078C00707D170BD9C
:10069000D4E9012120209047206A401C20626D1E71
:1006A000F6D570BD09684A0501D540B27047C90545
:1006B000FCD500B2704709684A0501D5C0B2704741
:1006C000C905FCD580B2704770B50C460546012AB5
:1006D00005D02878800600D5EA69002302E00123CE
:1006E00005E05B1C934202D2E05C0028F9D1A869C6
:1006F000E618C01AA861286A184428622846FFF73D
:10070000AAFF04E0D5E9012114F8010B9047B44297
:10071000F8D32846FFF7B5FF70BD00002DE9F04182
:100720000646002410687529314616A510D0FFF73B
:10073000B9FF002802DA404213A507E031688A07B2
:1007400001D512A502E0490704D511A5012401E055
:10075000FFF7B1FF00210A2206F1240709E0B0FBF0
:10076000F2FCB0FBF2F302FB1C0030307854184668
:10077000491C0028F3D123462A463046BDE8F04103
:1007800000F08DBA000000002D0000002B000000DA
:100790002000000011680268006A530501D5087046
:1007A0000AE0D30501D5088006E0130603D5C21779
:1007B000C1E9000200E008600120704701694A1C9D
:1007C00002610878704700B58FB0CDE90131002192
:1007D000059105497944CDE903101146684600F0BA
:1007E00029F90FB000BD0000E5FFFFFF0A6802F81D
:1007F000010B0A60704700002DE9FF5F15468A462D
:100800000446DFF8AC80F8440027D8E900103E46E3
:10081000CDE9001010E03AF816106A4602A800F080
:10082000D2FC411C07D02178890603D5E26939182A
:1008300091420DD80744761C2078800602D5E069E5
:10084000B84205DDAE42E6DB3AF816000028E2D1F8
:10085000A069C01BA0612046FFF7FDFED8E900108B
:10086000CDE90010002017E03AF818106A4602A8F7
:1008700000F0A9FCB0F1FF3F81460BD000250DF13F
:10088000080B05E0D4E901211BF8050090476D1C19
:100890004D45F7D308F10100B0428046E4DB206A01
:1008A000384420622046FFF7ECFEBDE8FF9F0000C1
:1008B000B26000002DE9F0418046D21D22F007020F
:1008C0000025D2E90002F52915A614D0011E72F107
:1008D000000106DA0023D0EB030063EB020211A64D
:1008E00008E0D8F800108B0701D50FA602E04907F1
:1008F00001D50EA601251146002408F1240704E0C5
:1009000000F088F930323A55641C50EA0102F7D100
:100910002B46324621464046BDE8F04100F0BFB9C3
:10092000000000002D0000002B000000200000004F
:1009300030B4002100F1240408E002F00705D208D9
:10094000303542EA4372DB086554491C52EA03051C
:10095000F3D10468002310A2250707D5A40600D40C
:1009600021B1C46901230DA2641EC46130BC00F032
:1009700096B910B5044621461068FFF79CFE024662
:100980002046BDE810400023D2E7D21D22F0070127
:10099000D1E90023CCE70000000000003000000097
:1009A000F0B40D460188090502D5214C7C4402E0D3
:1009B0001F4C7C440E34002100F1240608E002F0B4
:1009C0000F071209E75D42EA03721B097754491CBD
:1009D00052EA0307F3D102780023120704D5702DE1
:1009E00006D009B1022311342246F0BC00F057B9F9
:1009F00001231034F8E770B504460D46214610680F
:100A0000FFF759FE024629462046BDE87040002304
:100A1000C6E7D21D22F00703D3E90023C0E703682D
:100A2000126843F0200303600823C3610023B7E783
:100A3000145F00002DE9F05F894604464FF0000A7C
:100A4000DFF874B1FB44C0F820A02046E168884775
:100A5000002874D0252806D0D4E901219047206AC7
:100A6000401C2062F1E700265F462046E168884787
:100A70002028054607DB312D05D2781910F8200C07
:100A800008B10643F1E7B00701D526F00406C4F823
:100A90001CA00027C4F818A02A2D09D0284605F06C
:100AA0003DF938B304EB8708303DC8F8185019E019
:100AB00059F8041B204604EB87029161E1688847DE
:100AC000012F054618D1E069002820DA26F020061B
:100AD0001DE0D8F8180000EB800005EB400030382E
:100AE000C8F818002046E1688847054605F016F961
:100AF0000028EED1012F0AD02E2D08D12046E16822
:100B000088477F1C0546022F46F02006C4DBA069FB
:100B1000002803DA404246F00106A061F00701D048
:100B200026F010066C2D0BD0682D09D04C2D39D035
:100B30006A2D35D0742D35D07A2D33D016E038E0BB
:100B4000E1682F4620468847B842054609D16C2FF8
:100B500026D04FF48060E16806432046884705466A
:100B600004E06C2F1AD04FF4807006430DB3A5F14A
:100B70004100192802D8203546F400664A46294625
:100B8000204626604E46FFF781FB80B101280BD03E
:100B9000F61D26F0070000F1080956E74020E4E7BB
:100BA0008020D8E70020D6E706F104094DE7284663
:100BB00052E7206ABDE8F09FA45E000010B500F087
:100BC00027FBBDE8104000F01EBB00000048704746
:100BD000A40302207047000000487047A4030220CD
:100BE000034640688C46002818BF88423CBF034635
:100BF0004068F8D318681844884207D00CF1030005
:100C000020F00700001D411A521A0146081D0A6013
:100C1000FFF713BC30B5B0F10A024FEA900E71F144
:100C200000034EEA817EB0EB0E0061EB91014FEACA
:100C3000101E4EEA017E10EB0E0041EB11114FEA3F
:100C4000102E4EEA016E10EB0E0041EB11214FEA1F
:100C5000104E4EEA014E10EB0E0041EB11414018D0
:100C600041F100014FEAD00040EA41704FEAD10162
:100C700010EB80054FEA810444EA907444EB0104D0
:100C80006D1944EB0404521BA3414FF0000348BF0D
:100C90000A3200D530BD401C41F1000130BD2DE9C4
:100CA000F0470D4699469246044600F12408016833
:100CB000880604D5E06921F01001216000E00120E0
:100CC000A84201DD471B00E00027A1697A1902EB69
:100CD0000900081AA0612078C00602D42046FFF758
:100CE000BAFC002608E0D4E901211AF80600904772
:100CF000206A401C761C20624E45F4DB2078C0063A
:100D00000AD52046FFF7A7FC06E0D4E901213020F0
:100D10009047206A401C2062381EA7F10107F4DCCE
:100D200007E0D4E9012118F805009047206A401C2B
:100D30002062281EA5F10105F3DC2046FFF7A1FC87
:100D40002078000602D50220BDE8F0870120FBE7ED
:100D500070472DE9FF4F0C461E464FF0FF378BB012
:100D6000D2E90001DDF860800A908A46C1F30A5595
:100D700005B93D46002108464FF00000BAF1000FCA
:100D800000F4400005DA00EB80004FF4400101EA76
:100D900050004FEA9059B9F1010F00DDB9460A98A9
:100DA00050EA4A000ED044F61050A5F2FF354543F4
:100DB0002F14B8F1000F1ED07542291E1EDDC9F197
:100DC00000021CE0B8F1010F4FF0000001D030210B
:100DD00003E0F24305E02154401CB042FBDB304607
:100DE0000022002121540B99C1F80880C1E900209C
:100DF0000FB0BDE8F08FBD1B6D1CDEE74A4600DA80
:100E0000694206A800F094FA06AB93E8070003AB2A
:100E100083E8070050460A9900F082FB8DE807003E
:100E2000A0F500501F3800900398002D0ADD42F213
:100E30001F014A460844002303A90390684600F0B6
:100E4000EBFD09E0A0F500504A461F38002303A936
:100E50000390684600F0F5FD8DE807000004000CE3
:100E600003D04FF0FF30410800E01046B8F1000F0A
:100E700003D00022009215461EE0751E05D4FFF730
:100E8000C9FE303262556D1EF9D5B34601220843C2
:100E900002D000227F1C04E02078302801D10022FB
:100EA0007F1E002A099784D01DE0112D07DAFFF775
:100EB000B1FE303262556D1C50EA0102F5D1084393
:100EC00002D00098C8B10EE00021681E05E0235C46
:100ED000625C63542254401E491C8142F7DBAB46DE
:100EE000A81B401E0990002004F80B000B98099ADB
:100EF000C0F80880C0E9002B7AE711264FF00008FF
:100F000057E72DE9F04F88460446D21D22F007012D
:100F100091B0D1E90001CDE90A0104F0C4FD024617
:100F20000B98C00F01D02D2007E02068810701D564
:100F30002B2002E0202101EAC000032A099001D001
:100F4000072A05DB03464146204600F0B1F90BE1D4
:100F50002078800601D5E06900E00620B8F1650F31
:100F6000814606D0B8F1660F18D0B8F1670F70D17E
:100F700031E00020B9F1110F009001DB112301E0F5
:100F800009F101030AAA01A90CA8FFF7E2FEDDE9B5
:100F90000C70002609F10105834647E001204B460D
:100FA00000904FF000470AAA01A90CA8FFF7D1FE54
:100FB000DDE90DB00C995D46002610B909F101007C
:100FC0000D18B9EB050003D4C0F1FF3609F1010596
:100FD000A5EB09002BE0B9F1010F01DA4FF001098F
:100FE0000020B9F1110F0090484601DD112300E007
:100FF00003460AAA01A90CA8FFF7ABFEDDE90C70B5
:101000004D4600268346207800070AD4AB4500DA17
:101010005D4601A8012D04DD411911F8011C30299C
:1010200007D04F4502DA17F1040F04DA0120824697
:101030000FE06D1EEEE7002F02DCED1B3E4403E0E7
:10104000781CA84200DD7D1CB81B00F1010A4FF09E
:1010500000472078000703D4AA4501DB4FF0FF3A90
:101060000021B7F1004F0DF143088DF8431024D053
:1010700002202B23002F01DA7F422D230A21021E9A
:10108000A0F1010000DC5FB197FBF1FC97FBF1F2EE
:1010900001FB1C7C17460CF1300C08F801CDEEE783
:1010A000A8F1010003702188090501D5452100E060
:1010B0006521A0F1010800F8011C09980FA9A1EB16
:1010C0000807FF1D00B10120411901EBEA70A16979
:1010D0003844081A401EA0612078C00602D4204679
:1010E000FFF7B9FA099828B1D4E901219047206A9D
:1010F000401C20622078C00622D52046FFF7ABFABC
:101100001EE0002E04DBB34502DD01A8805D00E097
:101110003020D4E901219047206A401C2062761CCF
:10112000AAF101005FEA000A0AD100F0BDF8C06828
:101130000168405CD4E901219047206A401C20628C
:10114000281EA5F10105DCDC07E0D4E9012118F82F
:10115000010B9047206A401C2062381EA7F101074E
:10116000F3DC2046FFF78DFA032011B041E610B5FD
:10117000436913B1AFF3008001E0FFF7A5FA012046
:1011800010BD127800F124010A7000224A70012279
:10119000EDE711684FF0FF32E9E710B5436913B18D
:1011A000AFF3008001E0FFF727FB012010BD12889C
:1011B00000F1240182840022C2840122EDE711683B
:1011C0004FF0FF32E9E770B516460C46054600F0D1
:1011D00063F8036893F80101012806D0FF2C0FD8AB
:1011E000185D68B101202C7070BDD3F8070132463C
:1011F000214603F2071303442846BDE87040184710
:101200004FF0FF3070BD002801D0FFF7C1B9704723
:1012100010B5002102A000F006F9012010BD000069
:10122000534947414252543A2041626E6F726D6198
:101230006C207465726D696E6174696F6E00000078
:1012400010B500F009F9BDE81040FFF7DCBF7546A6
:10125000FFF7BCFCAE4605006946534620F0070088
:10126000854618B020B5FFF7A7F8BDE820404FF03D
:1012700000064FF000074FF000084FF0000B21F080
:101280000701AC46ACE8C009ACE8C009ACE8C0094D
:10129000ACE8C0098D46704710B500F005F8001D98
:1012A00010BD00BFFD4A000000487047C403022083
:1012B0002DE9F0411F46044603260168072A01F480
:1012C000006004DB08B116A505E016A503E008B12F
:1012D00015A500E015A521F010002060A069C01E32
:1012E000A0610FB1401EA0612046FFF7B4F94FB1D5
:1012F000D4E9012138469047206A401C2062C01C76
:10130000206206E0206AFAE7D4E9012115F8010B12
:101310009047761EF8D22046FFF7B3F9BDE8F0817A
:101320004E414E006E616E00494E4600696E660089
:101330002DE9F047814616468AB0354878440DC8F5
:101340008DE80D0032487844801C03AC0DC884E859
:101350000D0041F69B300844372190FBF1F290FBE1
:10136000F1F5A5F1800501FB12041B3C02D5644296
:10137000012000E00020DFF898A080460027FA4412
:10138000AAF1BE0A0EE0E0070AD03246684607EB33
:10139000470101230AEB810100F053FB8DE80700B0
:1013A00064107F1C002CEED1194F7F44AE3F19E032
:1013B000E80715D007EB04100DF1180A90E80E00AD
:1013C0008AE80E00C068F04201D1981908903246B0
:1013D000012306A903A800F034FB03AB83E8070050
:1013E0006D10641C002DE3D14FF0010332466946B5
:1013F000B8F1000F03A802D000F00EFB01E000F0EE
:1014000020FBC9E90001C9F808200AB0BDE8F0874F
:101410003C56000010B50446AFF300802046BDE8FE
:101420001040FEF79EBF70B505460C460A2000E04E
:101430006D1C00F039F835B128780028F8D102E0A9
:10144000641C00F031F814B120780028F8D1BDE810
:1014500070400A2000F028B810B5012805D00021FE
:1014600003A0FFF7E0FF012010BD09A1F8E700008D
:1014700053494752544D454D3A204F7574206F667D
:101480002068656170206D656D6F727900000000E5
:101490003A2048656170206D656D6F727920636FC9
:1014A000727275707465640008B569468DF8000045
:1014B0000320ABBE08BD00004FF0013C50F8042BE8
:1014C00051F8043B9A4215D1A2EB0C03934313EA63
:1014D000CC130BD150F8042B51F8043B9A4209D19C
:1014E000A2EB0C03934313EACC13E7D04FF00000B8
:1014F000704700BFD01A01BAB1FA81F101F01801AA
:1015000022FA01F0CB40C1F12001DBB2C0B2C01A17
:101510002CFA01F3D11A914311EAC311E6D17047B5
:101520005FEA400C08BF91F0000F4FEA8C234FEAAE
:10153000C12243EA51514FEA1C5018BF00F5F04058
:101540004FEA300018BF41F000415FEA6C5C00F0E8
:101550002980BCF1FF3F08BF40F080407047130C6A
:1015600006BF12044FF0100C4FF0000C130E04BF16
:1015700012020CF1080C130F04BF12010CF1040C41
:10158000930F04BF92000CF1020CD30F04BF520062
:101590000CF1010C11464FF00002A0F11F00A0EB6E
:1015A0000C00704711F0004F08BF704731F0004148
:1015B0003FF4D5AF0B0C06BF09044FF0100C4FF0F1
:1015C000000C0B0E04BF09020CF1080C0B0F04BF3A
:1015D00009010CF1040C8B0F04BF89000CF1020C03
:1015E000CB0F04BF49000CF1010CCCF12003A0EBA0
:1015F0000C0022FA03F302FA0CF241EA030100F1B3
:101600000100704720F07F4C80EA030023F07F4701
:10161000ACEB070303F57C5300F0004003F1FF033C
:101620002DE980494FEA154B09B44FEA144325EAE6
:101630000B4E24EA03480FF2042606EB1327490851
:101640003E785FEA320203FB0667C7F5000707FB37
:1016500006F64FEA54374FEAD64606F1020607FB74
:10166000066CCCF1005C4FEA1C472CEA074C07FBE8
:1016700006F40CFB06F504EB15464FEA961634BF4C
:1016800000204FF000404FEAD13706FB07FC4FEA3D
:101690001C4C0CFB0BF7D21B03FB0CF761EB070197
:1016A0000CFB0EF7B0EB074072EB17420CFB08F790
:1016B00034BFA2EB0742B2EB074261EB17414FEA9E
:1016C0000C444FEA910706FB07FC4FEA1C4C0CFB4D
:1016D0000BF7B0EBC74072EB573203FB0CF734BF8C
:1016E000A2EBC742B2EBC74261EB57310CFB0EF7DE
:1016F000B0EBC70072EB57720CFB08F734BFA2EBDC
:10170000C702B2EBC70261EB5771039F4FEA8161D9
:1017100041EA921104EBCC044FEAD1374FEA8262DE
:1017200006FB07FC42EA90124FEA80604FEA1C4C2D
:101730000CFB0BF7D21B03FB0CF761EB07010CFB57
:101740000EF7B0EB074072EB17420CFB08F734BF03
:10175000A2EB0742B2EB074261EB17414FEA8C550F
:101760004FEA910704EB9C2406FB07FC4FEA1C4C54
:101770000CFB0BF7B0EBC74072EB573203FB0CF7D7
:1017800034BFA2EBC742B2EBC74261EB57310CFB4F
:101790000EF7B0EBC70072EB57720CFB08F734BFC3
:1017A000A2EBC702B2EBC70261EB577115EB4C25F8
:1017B0004FEA816141EA92114FEA82624FEAD137E2
:1017C00042EA901206FB07FC44F100044FEA8060F5
:1017D0004FEA1C4C0CFB0BF7D21B03FB0CF761EB25
:1017E00007010CFB0EF7B0EB074072EB17420CFB46
:1017F00008F734BFA2EB0742B2EB074261EB174197
:1018000015EB1C154FEA813141EA92414FEA8232D1
:1018100042EA90424FEA80304FEA0C7644F10004ED
:1018200048EA03434EEA0B484FF0000EB2EB080CB7
:1018300071EB030724BF624639464EEB0E0E4FF0A4
:10184000000B0018524149414BEB0B0BB2EB080C5B
:1018500071EB03077BF1000B24BF624639464EEB68
:101860000E0E4FF0000B0018524149414BEB0B0B91
:10187000B2EB080C71EB03077BF1000B24BF62464F
:1018800039464EEB0E0E51EA020718BF46F001062C
:1018900016EB0E7655F1000254F1000103D5BDE8B8
:1018A0008901BDE80088BDE88901BDE80048B61996
:1018B000524141EB0101A3F10103704780807F7E1B
:1018C0007D7C7B7A797877767675747372717170B6
:1018D0006F6E6E6D6C6C6B6A6A6968686766666568
:1018E0006464636362616160605F5F5E5E5D5D5CF6
:1018F0005C5B5B5A5A595958585757565655555567
:101900005454535352525251515050504F4F4F4EC6
:101910004E4D4D4D4C4C4C4B4B4B4A4A4A49494914
:101920004848484747474746464645454544444456
:10193000444343434342424242414141002B9C467F
:1019400030D477002BD01CB54FEA370703B44FF0E3
:1019500010004FF01001BAF1000F06D0BCF1000FDB
:10196000DCBF40F0080040F008014FF000000FBC61
:10197000BDE810400BF1010BBBF1010F08BF5FEA9E
:10198000170722BF12F1010211F101014FF00041CE
:1019900043F1000300F0004043EA00007047F9D330
:1019A0005708D0E746EA064613F1400F4FEA1646BD
:1019B0001FDD13F1200FDFBF16430A46002120333D
:1019C0005B42BED0C3F1200746EA064602FA07F79B
:1019D0004FEA164646EA0706C3F1200722FA03F249
:1019E00001FA07F721FA03F14FF0000342EA070278
:1019F000A7E746EA020646EA06464FEA164646EAE0
:101A00000106BCBF46EA0646360C4FF000034FF015
:101A100000024FF0000194E72DE9804C9A4693466E
:101A200070B491E8380007C831EA400C48BF34EA86
:101A3000430C03D5FFF7E6FDFFF780FFF0BCBDE8E0
:101A4000008C2DE9804C9A46934670B491E838009A
:101A500007C810F0804F08BF13F0804F03D100F08B
:101A600005F8FFF76BFFF0BCBDE8008C20F07F4766
:101A700080EA030023F07F4C07EB0C03A3F57C53B3
:101A800000F00040A3F1FE0392F0000F00F0B380DD
:101A900095F0000F00F077802DE901494FEA1140E1
:101AA0004FEA144621EA004800FB06FC24EA0647F8
:101AB00008FB06F607FB08F800FB07F718EB0648DB
:101AC0004CEB164C4FEA124B18EB07484FEA154601
:101AD0004CEB174022EA0B4E0BFB06FC25EA0647AF
:101AE0000EFB06F607FB0EFE0BFB07F71EEB064E82
:101AF0004CEB164C4FF000061EEB074E4CEB174B11
:101B000018EB0B0840F1000018EB0E0B58EB000827
:101B100040F100008F1A4FF000013CBFC943661B23
:101B200014BFB5EB040C00213CBFC943F61B4FEAC0
:101B300017444EEA8E0E27EA04454FEA1C4704FB81
:101B400007622CEA074C05FB07F70CFB05F604FBC4
:101B50000CFC16EB074642EB174216EB0C4642EB29
:101B60001C421BEB060658EB0202414146EA9E0668
:101B700001D5BDE80189B619524141EB0101A3F13C
:101B80000103BDE801894FEA14454FEA114724EAF1
:101B9000054621EA074C05FB07F406FB07F70CFB9B
:101BA00006F105FB0CFC11EB074144EB17444FEA2F
:101BB000124711EB0C4144EB1C4422EA074C05FB95
:101BC00007F206FB07F70CFB06F605FB0CFC16EB11
:101BD000074642EB174216EB0C4642EB1C456A18CF
:101BE00054F1000148BF7047B619524141EB010161
:101BF000A3F10103704795F0000F37D04FEA11426F
:101C00004FEA144721EA024624EA074C02FB07F197
:101C100006FB07F70CFB06F402FB0CFC14EB074475
:101C200041EB17414FEA154714EB0C4441EB1C41C3
:101C300025EA074C02FB07F506FB07F70CFB06F647
:101C400002FB0CFC16EB074645EB174516EB0C4662
:101C500045EB1C42121951F1000148BF7047B619FB
:101C6000524141EB0101A3F1010370474FEA1445D2
:101C70004FEA114724EA054621EA074C05FB07F124
:101C800006FB07F70CFB06F24FF0000605FB0CFC09
:101C900012EB074241EB174112EB0C4251EB1C4196
:101CA00048BF7047921841EB0101A3F1010370474F
:101CB00010B50748006820F002000649C1F800028C
:101CC000054800680068016903480068884710BD3E
:101CD00000220140002001409801022010B503F0CD
:101CE000F1F80348006803F007FC03F0DBF810BDCF
:101CF000E001022010B5FEF73BFB07490860002118
:101D000005480068054A126890470349086008467C
:101D10000068FEF738FB10BDE80102208C010220AC
:101D200010B5FEF725FB0A4908600A480068401C08
:101D300008490860012106480068074A1268904770
:101D40000349086008460068FEF71DFB10BD00004F
:101D5000E4010220900102208C0102202DE9F047CD
:101D60008548006840F47000834908608348006833
:101D700040F0010081490860002080490831086076
:101D80007E4800687E4908407C4908607D48091DFE
:101D90000860081F006820F48020091F08600020E8
:101DA00076490C3108607548006840F4803073490A
:101DB00008600846006840F001000860002006E066
:101DC0006E49096801F4003101B103E0401CB0F52F
:101DD000A04FF5D36948006800F4003000287DD09A
:101DE0004FF00708DFF8A091C9F80080DFF88C8178
:101DF00008F14008D8F8008048F08058DFF87C915E
:101E000009F14009C9F80080DFF8708108F108087D
:101E1000D8F8008048F43448DFF8609109F10809E7
:101E2000C9F8008019242501022608274FF0070C65
:101E3000DFF85881A9F10409C9F80080DFF83C8176
:101E4000D8F8008048F08078DFF83091C9F8008039
:101E500000BFDFF82881D8F8008008F00078B8F1DA
:101E6000000FF6D0DFF8148108F10808D8F80080D8
:101E700028F00308DFF8049109F10809C9F8008087
:101E8000C846D8F8008048F00208C9F8008000BFB2
:101E9000DFF8E88008F10808D8F8008008F00C089E
:101EA000B8F1080FF4D1DFF8D480D8F8008028F01A
:101EB0008058DFF8C890C9F8008000BFDFF8BC8008
:101EC000D8F8008008F00058B8F1000FF6D1DFF81C
:101ED000AC8008F18808D8F8008000E040E0C8F342
:101EE000036008214FF4C07205234FEA82184FF0B7
:101EF0000109C9EB510948EA094848EA006848EA7B
:101F00000378DFF8789009F18809C9F8008009F1B1
:101F10000408D8F8008028F4403809F10409C9F809
:101F2000008009F10408D8F8008048F0006809F141
:101F30000409C9F80080DFF84480D8F8008048F030
:101F40008058DFF83890C9F8008000BFDFF82C8097
:101F5000D8F8008008F00058B8F1000FF6D000BFA4
:101F60004FF0006004498039086000F0EBF800F0A1
:101F700099F8BDE8F087000088ED00E000380240E5
:101F8000FFFFF6FE10300024003C02401964407848
:101F900010B50A48006900F0010038B1084800682F
:101FA00000F01CF900200549086105E005480068BB
:101FB00010B100200349086010BD0000000001407E
:101FC0009C0102201044014010B50248006800F056
:101FD00005F910BDA001022010B50248006800F00C
:101FE000FDF810BDA401022010B50248006800F001
:101FF000F5F810BDA801022010B50248006800F0F5
:10200000EDF810BDAC01022010B50248006800F0E8
:10201000E5F810BDB001022010B50248006800F0DC
:10202000DDF810BDB401022010B50248006803F0CD
:1020300011FD10BDD401022010B50248006803F064
:1020400009FD10BDD801022010B50248006803F058
:1020500001FD10BDC801022010B50248006803F060
:10206000F9FC10BDCC01022010B50248006803F055
:10207000F1FC10BDD001022010B50248006803F049
:10208000E9FC10BDDC010220002809DB00F01F0282
:10209000012191404209920002F1E022C2F80011B0
:1020A0007047000010B50023244C236000BF00BF20
:1020B00000BFBFF34F8F00BF00BF00BF1F4B703B7F
:1020C0001B6823F480331D4C703C236000BF00BFAD
:1020D00000BFBFF34F8F00BF00BF00BF174B1B1FD8
:1020E0001868C0F34E3100BFC0F3C90200BF43F609
:1020F000E07303EA41134FF0404404EA827423433F
:102100000F4C236000BF00BF131EA2F10102EED1ED
:102110000B1EA1F10101E7D100BF00BF00BFBFF35B
:102120004F8F00BF00BF00BF00BF00BF00BFBFF3A5
:102130006F8F00BF00BF00BF10BD000084ED00E046
:1021400074EF00E010B500231B4C236000BF00BFFC
:1021500000BFBFF34F8F00BF00BF00BF231F186831
:10216000C0F34E3100BFC0F3C90200BF43F6E073B5
:1021700003EA41134FF0404404EA827423430F4CB6
:10218000236000BF00BF131EA2F10102EED10B1E9F
:10219000A1F10101E7D100BF00BF00BFBFF34F8F26
:1021A00000BF00BF00BF00BF00BF00BFBFF36F8F05
:1021B00000BF00BF00BF10BD84ED00E060EF00E095
:1021C000017080ED010AC0ED020A7047024B036006
:1021D0008180C280704700009C69000810B50446E9
:1021E000002061690861206801692046884710BDA8
:1021F0002DE9F0412DED0C8B04460E461746224684
:102200008C48206002F1080002F0EAF9A0F108020F
:1022100000BF1446884810602674207C0C2807D222
:10222000DFE800F00607152636465666747F8A9565
:102230009AE082486061824804608248006840F009
:102240000100804908601920FFF71EFF8CE04FF065
:10225000804060617C4804607A48001F006840F05C
:1022600001007849091F08601C20FFF70DFF7BE083
:1022700076486061764804607248001F006840F04C
:1022800002007049091F08601D20FFF7FDFE6BE08A
:1022900070486061704804606A48001F006840F040
:1022A00004006849091F08601E20FFF7EDFE5BE08F
:1022B0006A4860616A4804606248001F006840F034
:1022C00008006049091F08603220FFF7DDFE4BE07F
:1022D00064486061644804605A48001F006840F028
:1022E00020005849091F08603720FFF7CDFE3BE06A
:1022F0005E4860615E4804605248006840F0020039
:10230000504908602E20FFF7BFFE2DE0594860615C
:10231000594804604B48006840F4803049490860DF
:1023200022E056486061564804604648006840F420
:1023300000304449086017E0524860615248046028
:102340004048006840F480203E4908600CE04F4857
:1023500060614F4804603B48001F006840F4807093
:102360003849091F086000BF00BF384603F027FF47
:1023700041EC1B0B9FED470B53EC102B03F032FF8E
:1023800041EC1A0B9FED450B53EC102B03F02AFF89
:1023900041EC190B03F05CFD08EE100A012508E082
:1023A00005EB85004500B2EE040AC8EE000AB0EE67
:1023B000608A9FED3C0AB4EEC08AF1EE10FAEFDCC1
:1023C000BCEEC80A84ED030A284603F0F8FE41EC8F
:1023D0001B0BE06803F0F3FE41EC1D0B9FED320B8D
:1023E00053EC102B03F0FEFE41EC1C0B53EC1B2BAB
:1023F00003F0F8FE41EC1A0B9FED260B53EC102B6B
:1024000003F058FD41EC190B03F0ACFE60600120B5
:102410006169C86061694861681E61698862616953
:10242000E068C8620120616908602046BDEC0C8B41
:10243000BDE8F081386D0008BC690008000001406B
:102440009C01022044380240A00102200004004008
:10245000A401022000080040A8010220000C004056
:10246000AC01022000140040B00102200004014031
:10247000B401022000400140B801022000440140A4
:10248000BC01022000480140C001022000200040A1
:10249000C40102200000000084D79741000000A082
:1024A000F7C6B03E00FF7F470000000080842E4149
:1024B00010B5044604F1080002F0A0FCA17988429E
:1024C00001D0012010BD0020FCE770B5044625793D
:1024D00020684169204688472071207910B10DB9E4
:1024E000012070BD207910B90DB10220F9E700205C
:1024F000F7E700002DE9F04104460F4690461D46DF
:10250000069E0D4820604246394604F1080002F05C
:10251000A5FCA0F10804002020716071A67131466D
:1025200004F1080002F077FC294604F1080002F0EB
:102530008AFC2046BDE8F081D869000801490160A5
:1025400070470000086A000800B502460B46B0EE6E
:10255000401AF0EE601A31EE610ADFED090AC0EEB2
:10256000202AB0EE622AF0EE610AB0EE420A194665
:10257000101DFFF725FE021F02481060104600BD27
:1025800000FF7F471C6A00082DE9F04704460F460C
:1025900090461E46DDE9089A0025012020716079E9
:1025A00008B102F08FFCA6B12068816820468847F8
:1025B00020683946026920469047002507E018F850
:1025C00005102068426920469047681CC5B2B54294
:1025D000F5DBBAF1000F1DD02068816820468847DE
:1025E00047F001012068026920469047002507E076
:1025F000206881692046884709F80500681CC5B233
:10260000AAF10100A842F3DC2068C169204688478E
:1026100009F805002068C16820468847607908B13C
:1026200002F040FC207910B90120BDE8F0870020BD
:10263000FBE7FFB583B0044615461E46CDE90056BC
:10264000217A606802680123576804AAB847617A52
:102650000843607207B0F0BD0146487A00224A7212
:1026600070470000024A0260012202714171704706
:10267000346A00082DE9F04707460D46002430E093
:102680001B4850F82400B7EB104F28D1184830F8F9
:102690002400C0F30336164810F82400C0F30318D2
:1026A000134810F8240000F00F0905F00F0003286C
:1026B00001D045F002050F4800680121B1400843F0
:1026C0000C4908600C48011501FB060A4B462A46D6
:1026D0004146504600F012F80120BDE8F087601C2A
:1026E00084B2034850F824000028C9D100BFF4E7A1
:1026F0006400022030380240000002402DE9FF4F04
:1027000005460C461F466006030E4FEAE40801200A
:10271000A0406FEA000903209840C6432046E11715
:1027200004EB5171C910A4EBC1014FEA810C0F21D8
:1027300001FA0CF16FEA010A02F0030000FA03FB50
:10274000C2F3012098400390C2F30010A040029011
:10275000C2F30130984001902046E11704EB51711B
:10276000C910A4EBC1014FEA810C07F00F0101FA77
:102770000CF1009102F0A6FB2868304040EA0B0003
:102780002860E868304003990843E860686800EA18
:102790000900029908436860A8683040019908431D
:1027A000A86005F1200050F8280000EA0A0000990E
:1027B000084305F1200141F8280002F073FBBDE851
:1027C000FF8F000000B502460B46B0EE401AF0EE57
:1027D000601AB4EE611AF1EE10FA06D071EE610AD9
:1027E000F7EE002A82EEA00A01E0B7EE000ADFED64
:1027F000080A20EE202AF0EE610AB0EE420A1946DD
:10280000101DFFF7DDFC021F02481060104600BDDE
:1028100000FF7F475C6A000810B5002203681B7840
:102820008B4207DC03685B788B4203DB03681B7811
:10283000CB1ADAB2D0E90043A47802FB04338360F8
:1028400010BDF0B503460C46184603F01EF902FB16
:10285000004085B2986800EBE500007805F00707B6
:102860008021394100EA01060EB10120F0BD0020AF
:10287000FCE70160426043688360704701460020C6
:1028800070470146002070472DE9F04104460D468F
:102890001746DDE90686002201202071607908B123
:1028A00002F010FB23B3002040EA034005F0FE01D4
:1028B0000843A1684860A068406840F40050A168DF
:1028C000486000220BE000BFA068806900F00200B1
:1028D0000028F9D0B85CA1688862501CC2B29A4244
:1028E000F1DB00BFA068806900F040000028F9D04B
:1028F000002040EA064040F4806005F0FE010843F5
:10290000A1684860A068406840F40050A168486031
:1029100000220CE000BFA068806900F004000028DD
:10292000F9D0A068406A08F80200501CC2B2B24256
:10293000F0DB00BFA068806900F040000028F9D0FB
:10294000A068406840F48040A1684860607908B1A0
:1029500002F0A8FA207910B90120BDE8F08100202A
:10296000FBE7704770477047704700002DE9F04162
:102970008AB004460E461746984641462046FFF761
:1029800071FE04464D482060012E06D0022E15D05F
:10299000032E24D0042E33D043E04948A060494898
:1029A000006840F400104749086010219F20FFF79D
:1029B00061FE1021A020FFF75DFE32E04248A060DA
:1029C0004048006840F480003E4908601021A22081
:1029D000FFF750FE1021A320FFF74CFE21E03B48FB
:1029E000A0603848006840F40000364908601021B3
:1029F000A520FFF73FFE1021A620FFF73BFE10E0C9
:102A00003348A0602F48006840F080702D4908606E
:102A10001021A820FFF72EFE1021A920FFF72AFE83
:102A200000BF00BF2B4903C9CDE90801294908317E
:102A300003C9CDE906012749103103C9CDE90401D5
:102A40002449183103C9CDE902012249203103C9C3
:102A5000CDE9000137B1022F06D0032F06D0042F95
:102A600006D000BF002505E0012503E0022501E0B6
:102A7000032500BF00BF08A810F8150000073DF8A7
:102A8000151040EA015002A931F8151040EA014042
:102A900004A931F8151040EA012006A931F81510F3
:102AA0000843A1680861A068006841F20101084379
:102AB000A168086020460AB0BDE8F081706A00088D
:102AC000005400404038024000580040005C004084
:102AD00000600040946800082DE9F0412DED028B64
:102AE00004460D461646B0EE408AF0EE608A1F4658
:102AF000F0EE680AB0EE480A31462046FFF724FDA2
:102B00000446074820602561206901683A464B6801
:102B1000314698472046BDEC028BBDE8F0810000AD
:102B20009C6A000838B5044604236A46032104F170
:102B30001000FFF77EFD04F11000FFF78DFDF0B9E6
:102B40009DF8000000F0C000802816D19DF8030019
:102B50009DF8021001F00F0140EA0120A0809DF8CD
:102B600001009DF8001001F00F0140EA0120A18949
:102B7000081AE0800120207201E00020207238BD98
:102B800070B505460C464FF4F0724FF44871284674
:102B900002F0F4FA05460848286005F110005421B7
:102BA000064A2A61446001720022427200BFA0F10D
:102BB0001005284670BD0000B46A00088C6D00083E
:102BC00070B52DED028B04460D461646B0EE408AD8
:102BD000F0EE608AF0EE680AB0EE480A3146204610
:102BE000FFF7F0FD04460648206025612069016872
:102BF0004A68314690472046BDEC028B70BD00000C
:102C0000CC6A000801B588B0FEA00068079008985B
:102C1000806A06900898806A006800680022114661
:102C20000590DDE9053098470898806A0690089875
:102C3000806A00684068042207A90590DDE9053034
:102C40009847F1A0006807900898806A0690089855
:102C5000806A00680068802200210590DDE9053067
:102C600098470898806A06900898806A00684068CB
:102C7000032207A90590DDE905309847E3A0006825
:102C800007900898806A06900898806A0068006833
:102C9000802200210590DDE9053098470898806A78
:102CA00006900898806A00684068022207A905908B
:102CB000DDE905309847D6A0006807900898806A3B
:102CC00006900898806A006800688A2200210590B2
:102CD000DDE9053098470898806A06900898806A70
:102CE00000684068022207A90590DDE90530984791
:102CF0000A2002F0CAF8C7A0006807900898806A06
:102D000006900898806A00680068B122002105904A
:102D1000DDE9053098470898806A06900898806A2F
:102D200000684068022207A90590DDE90530984750
:102D3000B9A0006807900898806A06900898806A91
:102D400000680068912200210590DDE90530984770
:102D50000898806A06900898806A00684068022295
:102D600007A90590DDE905309847ACA000680790F9
:102D70000898806A06900898806A00680068B42203
:102D800000210590DDE9053098470898806A069093
:102D90000898806A00684068022207A90590DDE96A
:102DA000053098479EA0006807900898806A0690B2
:102DB0000898806A00680068002211460590DDE9E5
:102DC000053098470898806A06900898806A0068DD
:102DD0004068022207A90590DDE90530984791A0D7
:102DE000006807900898806A06900898806A0068D2
:102DF0000068812200210590DDE905309847089898
:102E0000806A06900898806A00684068022207A9D4
:102E10000590DDE90530984783A000680790089881
:102E2000806A06900898806A00680068A1220021E4
:102E30000590DDE9053098470898806A0690089863
:102E4000806A00684068022207A90590DDE9053024
:102E5000984776A0006807900898806A06900898BE
:102E6000806A00680068922200210590DDE9053043
:102E700098470898806A06900898806A00684068B9
:102E8000022207A90590DDE90530984768A000688F
:102E900007900898806A06900898806A0068006821
:102EA000952200210590DDE9053098470898806A51
:102EB00006900898806A00684068022207A9059079
:102EC000DDE90530984700BF5AA0006807900898D0
:102ED000806A06900898806A00680068002211469F
:102EE0000590DDE9053098470898806A06900898B3
:102EF000806A00684068032207A90590DDE9053073
:102F000098474DA0006807900898806A0690089836
:102F1000806A00680068942200210590DDE9053090
:102F200098470898806A06900898806A0068406808
:102F3000022207A90590DDE9053098473FA0006807
:102F400007900898806A06900898806A0068006870
:102F5000A32200210590DDE9053098470898806A92
:102F600006900898806A00684068022207A90590C8
:102F7000DDE90530984732A0006807900898806A1C
:102F800006900898806A00680068822200210590F7
:102F9000DDE9053098470898806A06900898806AAD
:102FA00000684068022207A90590DDE905309847CE
:102FB00024A0006807900898806A06900898806AA4
:102FC00000680068812200210590DDE905309847FE
:102FD0000898806A06900898806A00684068022213
:102FE00007A90590DDE90530984717A0006807900C
:102FF0000898806A06900898806A00680068A12294
:10300000002123E0FF800901FF800900C430000097
:10301000C4400000C5A90000C5340000C050000035
:10302000D94E0000C1660000C1080000C5010000C3
:10303000C5360000D8797900C5330000C01B0000F8
:10304000C5830000C4830000C10E00000590DDE9C7
:10305000053098470898806A06900898806A00684A
:103060004068022207A90590DDE905309847FEA0D7
:10307000006807900898806A06900898806A00683F
:103080000068A62200210590DDE9053098470898E0
:10309000806A06900898806A00684068032207A941
:1030A0000590DDE905309847F0A103C9CDE9060197
:1030B0000898806A05900898806A006800688022F5
:1030C00000210490DDE9043098470898806A059053
:1030D0000898806A00684068072206A90490DDE924
:1030E00004309847E3A2D2E90030D2E90212CDE9D8
:1030F0000430CDE906120898806A03900898806A27
:1031000000680068A02200210290DDE902309847A3
:103110000898806A03900898806A006840680F22C7
:1031200004A90290DDE902309847D6A30FCBCDE980
:103130000623CDE904010898806A03900898806A04
:1031400000680068B02200210290DDE90230984753
:103150000898806A03900898806A006840680F2287
:1031600004A90290DDE902309847CAA207CA05AB5C
:1031700007C30898806A04900898806A006800680D
:10318000C02200210390DDE9033098470898806A47
:1031900004900898806A006840680B2205A9039093
:1031A000DDE903309847BEA0006807900898806A60
:1031B00006900898806A00680068D0220021059077
:1031C000DDE9053098470898806A06900898806A7B
:1031D00000684068022207A90590DDE9053098479C
:1031E000B0A2D2E900109268CDE9060205910898D4
:1031F000806A04900898806A006800688022002134
:103200000390DDE9033098470898806A0490089895
:10321000806A006840680B2205A90390DDE903304D
:103220009847A3A30FCBCDE90623CDE90401089865
:10323000806A03900898806A0068006890220021E4
:103240000290DDE9023098470898806A0390089858
:10325000806A00684068102204A90290DDE902300B
:10326000984793A30FCBCDE90623CDE90401089835
:10327000806A03900898806A00680068A022002194
:103280000290DDE9023098470898806A0390089818
:10329000806A00684068102204A90290DDE90230CB
:1032A000984780A207CA05AB07C30898806A0490B4
:1032B0000898806A00680068B02200210390DDE968
:1032C000033098470898806A04900898806A0068DC
:1032D00040680B2205A90390DDE90330984778A3E5
:1032E0000FCBCDE90623CDE904010898806A03904D
:1032F0000898806A00680068C02200210290DDE919
:10330000023098470898806A03900898806A00689D
:103310004068102204A90290DDE9023098476CA3AE
:103320000FCBCDE90623CDE904010898806A03900C
:103330000898806A00680068D02200210290DDE9C8
:10334000023098470898806A03900898806A00685D
:103350004068102204A90290DDE90230984751A28A
:1033600007CA05AB07C30898806A04900898806A6A
:1033700000680068E02200210390DDE903309847EF
:103380000898806A04900898806A006840680B2258
:1033900005A90390DDE90330984751A207CA05ABA0
:1033A00007C30898806A04900898806A00680068DB
:1033B000F02200210390DDE9033098470898806AE5
:1033C00004900898806A006840680B2205A9039061
:1033D000DDE90330984745A2D2E900109268CDE9B3
:1033E000060205910898806A04900898806A00682F
:1033F0000068802200210390DDE903309847089897
:10340000806A04900898806A006840680B2205A9C9
:103410000390DDE90330984737A30FCBCDE90623AE
:10342000CDE904010898806A03900898806A0068D2
:103430000068902200210290DDE902309847089848
:10344000806A03900898806A00684068102204A986
:103450000290DDE9023098472BA3D3E90020D3E99D
:103460000213CDE9061357E0B3000100CE85010039
:1034700084010000CE180403390000001803033A49
:1034800000000000CE1802033B0000001801033CBE
:1034900000000000CF010120200000010200000018
:1034A000CF000000CB000000000000000000000082
:1034B000CB00000000000000000000000000000041
:1034C000CB0004040404040000000000000000001D
:1034D000CB0000000000000404040404000000000D
:1034E000CBFFFFFFFFFFFFFFFFFFFF00CC00260920
:1034F0000B01250000000000CC00000000000000CF
:1035000000000000260A0C02CC250000000000008C
:103510000000000000000000CDE904200898806A47
:1035200003900898806A00680068A0220021029039
:10353000DDE9023098470898806A03900898806A0D
:1035400000684068102204A90290DDE90230984723
:10355000FEA207CA05AB07C30898806A04900898C2
:10356000806A00680068B02200210390DDE9033022
:1035700098470898806A04900898806A00684068B4
:103580000B2205A90390DDE903309847F2A3D3E9A4
:1035900001211868DB68CDE90613CDE9040208981B
:1035A000806A03900898806A00680068C022002141
:1035B0000290DDE9023098470898806A03900898E5
:1035C000806A00684068102204A90290DDE9023098
:1035D0009847E5A3D3E90020D3E90213CDE9061308
:1035E000CDE904200898806A03900898806A0068F2
:1035F0000068D02200210290DDE902309847089847
:10360000806A03900898806A00684068102204A9C4
:103610000290DDE902309847D7A00068079008982B
:10362000806A06900898806A0068006881220021FC
:103630000590DDE9053098470898806A069008985B
:10364000806A00684068022207A90590DDE905301C
:103650009847CAA0006807900898806A0690089862
:10366000806A00680068B12200210590DDE905301C
:1036700098470898806A06900898806A00684068B1
:10368000022207A90590DDE905309847BCA0006833
:1036900007900898806A06900898806A0068006819
:1036A000B62200210590DDE9053098470898806A28
:1036B00006900898806A00684068022207A9059071
:1036C000DDE905309847AFF2E410006807900898EC
:1036D000806A06900898806A006800680022114697
:1036E0000590DDE9053098470898806A06900898AB
:1036F000806A00684068042207A90590DDE905306A
:1037000098470898806A07900898806A006800685F
:10371000002211460690DDE906309847142299A14F
:1037200003A8FCF7EDFE0898806A02900898806A6A
:1037300000680068002211460190DDE901309847D9
:103740000898806A02900898806A00684068112290
:1037500003A90190DDE90130984714228EA103A846
:10376000FCF7CEFE0898806A02900898806A00688C
:103770000068002211460190DDE901309847089861
:10378000806A02900898806A00684068112203A944
:103790000190DDE9013098470898806A0790089801
:1037A000806A00680068002211210690DDE9063079
:1037B0009847782001F069FB0898806A079008987C
:1037C000806A0068006877223A210690DDE90630B9
:1037D0009847089890F82C0030B1012820D0022892
:1037E00010D003282AD000BF0898806A0790089854
:1037F000806A00680068002236210690DDE9063004
:10380000984729E00898806A07900898806A0068BD
:103810000068C02236210690DDE9063098471BE09B
:103820000898806A07900898806A0068006860229B
:1038300036210690DDE9063098470DE00898806A49
:1038400007900898806A00680068A02236210690D8
:10385000DDE90630984700BF00BF54A103C9CDE998
:10386000060108988089401E000A8DF81B00089800
:10387000007B401EC0B28DF81C000898806A05903D
:103880000898806A00684068052206A90490DDE96E
:103890000430984747A103C9CDE906010898008A7A
:1038A000401E000A8DF81B000898007C401EC0B224
:1038B0008DF81C000898806A05900898806A006856
:1038C0004068052206A90490DDE90430984708986D
:1038D000806A07900898806A006800687F225121FA
:1038E0000690DDE9063098470898806A07900898A6
:1038F000806A006800682C2253210690DDE90630BA
:1039000098470898806A07900898806A006800685D
:10391000022255210690DDE9063098470898806A12
:1039200007900898806A006800687F225E210690F0
:10393000DDE9063098470898806A07900898806A01
:103940000068006800222821069037E0CC00250C92
:103950000A02260000000000CC0000000000000069
:1039600000000000250B0901CC260000000000002B
:103970000000000000000000C5660000C620000036
:10398000F5060000E100090F0E07100B0A04070BF3
:10399000080F100A01000000E200090F0E07100BCB
:1039A0000A04070B080F100A010000002A0000009B
:1039B000000000002B00000000000000DDE90630E0
:1039C00098470898806A07900898806A006800689D
:1039D000002211460690DDE90630984709B000BD87
:1039E0002DE9F84304460E4615461F46DDF82C80A7
:1039F000CDF80080204608A90EC900F0CDF8044695
:103A000019482060A66284F82C7094F82C0000F00D
:103A1000010030B14FF44870E0604FF4F070206165
:103A200005E04FF4F070E0604FF448702061002032
:103A3000E08520866086A086E086208728680121B0
:103A40000268284690472868C1682846884714209D
:103A500001F01BFA2868416828468847142001F0C5
:103A600014FA2046BDE8F883E06A0008018142812B
:103A700070472DE9F84F0446894692461D460A9E36
:103A8000009620682B4652464946876C2046B84728
:103A900000270FE04FF0000808E0A18C2068026DBD
:103AA0002046904708F101001FFA80F8A845F4DB92
:103AB000781C87B2B742EDDBBDE8F88F41847047D0
:103AC000818470472DE9F84F04468946494604F140
:103AD0001400FEF7A1FE04F1140001F0DAFF94F8DF
:103AE000201010FB01F0401C85B204F1140001F01D
:103AF000CCFF94F8201010FB01F600956289218913
:103B000020683346876C2046B847002530E0002700
:103B100028E000261EE02A46314604F11400FEF794
:103B200090FE82464FF000080EE0BAF1000F01D07F
:103B3000E08C00E0608C01462068026D20469047D2
:103B400008F1010000F0FF0894F820004045ECDC8B
:103B5000701CC6B204F1140001F097FFB042DADC29
:103B6000781CC7B294F82000B842D2DC681CC5B2F9
:103B700004F1140001F08DFFA842C8DC04F1140028
:103B800001F083FF218994F8202012FB001020818E
:103B9000BDE8F88F704700003FB50446079D14222A
:103BA0000A212046FEF712FB04460B48206001A8BC
:103BB00007C8C4E90612606184F820501F206084A1
:103BC0004CF21860A0844FF6FF70E0840020208142
:103BD0006081204604B030BD3C6B00081CB5044633
:103BE00004F1080002F004F9D0B920688168204689
:103BF0008847012802D0022810D107E0012001A93E
:103C0000019004F1080002F003F908E0022069467F
:103C1000009004F1080002F0FBF800E000BF00BFD4
:103C200004F1080002F0E4F8D0B9206841682046A9
:103C30008847032802D0042810D107E0032001A9F7
:103C4000019004F1080002F0E3F808E0042069465E
:103C5000009004F1080002F0DBF800E000BF00BFB4
:103C60001CBD10B50446206960B1206902689169E5
:103C70008847012802D0022804D101E0032010BDAA
:103C80000420FCE70020FAE72DE9F04105460F4645
:103C900016460021284600F087FC05460F4828609C
:103CA00005F108044FF01408002020716071A07124
:103CB00084F80780E079002803DDE07901F0EDFE6B
:103CC000206000BFA4F108052F6126B130682946A5
:103CD0004268304690472846BDE8F081986B00085E
:103CE0002DE9F04780460C466068026811688847F5
:103CF00060680268516888470FFA80F947F6FF72DA
:103D00000021484602F069F805466068026891683B
:103D100088470FFA80F947F6FF720021484602F003
:103D20005CF8064660680268D1688847074657B164
:103D3000207A40B910212175A581E68100212161F9
:103D4000A561E6614DE047B9207A30B120212175A7
:103D5000A581E6810021216143E0002F3ED0207A39
:103D600000283BD001212175A581E6810021216138
:103D7000A069A84202D1E069B04232D0A269511BC9
:103D8000002901DB0A4600E04A420F2A08DCE2690A
:103D9000901B002801DB024600E042420F2A20DD92
:103DA000A269A81AE269B11A0A46031E01DB9C4601
:103DB00001E0C3F1000C002A01DB914601E0C2F1F1
:103DC0000009CC4503DD03232375206103E00523AF
:103DD00023754B422361A561E66102E00021217554
:103DE00021612772D4E90412E06888E80700BDE881
:103DF000F0870000044A026041600023037500223E
:103E00008281C38103617047AC6B00082DE9F047E4
:103E10002DED028B82B00746884691461D46DDF89F
:103E200030A000243BE000EE105AB8EE400A60EEED
:103E3000000A00EE104AB8EE401A00EE104AB8EE42
:103E4000400AB0EE608A01EE408AB0EE480A01F006
:103E500044FEBDEEC00A10EE106A7004000CCDE9FD
:103E6000000AA9EB060082B208EB040081B23868B0
:103E70000123D0F828C03846E0477004000CCDE993
:103E8000000AA9EB060082B2A8EB040081B23868F0
:103E90000123D0F828C03846E047601C84B2AC4209
:103EA000C1DD02B0BDEC028BBDE8F08770B5044601
:103EB0000D46606801680A6A2946904770BD2DE981
:103EC000F84304460D4616461F46DDE9088960683A
:103ED00001684A6A49469047CDF8008060680168E9
:103EE0003B463246D1F834C02946E047BDE8F88366
:103EF00010B50446606802681168884710BD10B5A7
:103F00000446606802685168884710BD2DE9F04199
:103F10008AB004460F4690461E4611A8019002A89A
:103F2000019A1099FCF7B0FA0020019060680168CE
:103F30004246CB6A39469847002507E002AB595DF7
:103F400060680368DA689047681CC5B202A8405DE3
:103F50000028F3D106E060680168CA682021904714
:103F6000681CC5B2B542F6DB0AB0BDE8F0810000BE
:103F700070B504460D462046FEF7E0FA04460448B4
:103F8000206065602046FFF7B3FF204670BD00004B
:103F9000B86B000810B5026CC263D0E903235A4322
:103FA000C36B03EB820104E0438CC46BA21CC263AD
:103FB0002380C26B8A42F7D310BD10B50446A06AB5
:103FC00000F0D0FB10BD70B5049CC185028643860D
:103FD0008486C58DC586058E868975430587C56827
:103FE00002FB05154564D0E9105605EB4605C5638F
:103FF00070BDC36B9A1CC2631980C28E521CC286EC
:10400000C28D438E1A44C38E9A420DDCC28DC28685
:10401000028F521C0287C368426C1A444264D0E982
:10402000102302EB4302C263704700002DE9FF5FDB
:104030000446884691469A46DDF844B0CDF80CB067
:104040000EA807C853468DE807004A464146204659
:10405000FFF7C6FC044619482060238A9AB2A38958
:1040600099B20123A06A00F087FB2046FEF7CAFD43
:10407000A08986B2208A87B2A56A0020104908600C
:1040800004200F493C390860284600F06BFB0023F0
:104090003A463146281D00F02FFE2064206CE06374
:1040A000A06A016800220B6829219847A06A00F0E5
:1040B00059FB204604B0BDE8F09F0000006C0008EA
:1040C000686C014010B50446E08A10B1E08A401ED9
:1040D000E082A06990B1A0690268916988470128CF
:1040E00008D0E08A50B9A08A40B1A069026851693D
:1040F000884718B1A08AE082012010BDE06990B124
:10410000E069026891698847012808D0E08A50B9BF
:10411000A08A40B1E06902685169884718B1A08A55
:10412000E0820220E9E70020E7E700002DE9F04700
:1041300004460E4617469846DDE908592A46414688
:104140002046FFF7A1FD04460E482060A661E76106
:1041500085B1286801682846884758B128680168F1
:10416000284688474FF47A7109FB01F1B1FBF0F062
:10417000A08201E00020A082A08AE0822046BDE863
:10418000F08700005C6C0008016070472DE9F04F7B
:104190002DED028B83B004460D4617469A464FF428
:1041A000F07002904FF448764FF01E086069FCF7FB
:1041B00088F98146314606EBD1725310484609EB27
:1041C000D0724FEA620C0E9A0CFB123200EE102AEB
:1041D000B8EEC00AB0EE408A208A80B20AEB08012D
:1041E00089B23346BAB2CDE90010A9B22068D0F83E
:1041F00000B0DBF828C0E0476069C34608EBDB7E0F
:1042000007EB6E0E1FFA8EF209F0FF0300EE105A54
:10421000B8EEC00A30EE080ABCEEC00A10EE10EA92
:104220001FFA8EF100902068D0F800E0DEF820C080
:10423000E04703B0BDEC028BBDE8F08F2DE9F04FF5
:104240002DED028B89B004460E4617469946DDF8DF
:104250005CB0DDE914A568000FFA80F81698012813
:1042600021D194A3DDE918121A98CDE90603CDE90E
:104270000412084600214B463A46CDE900A5CDE997
:10428000021031462046FFF7D9FF701D06B2781D97
:1042900007B2A9F10A000FFA80F9AAF10A000FFA91
:1042A00080FA002016901FFA8BF0A9EB080189B262
:1042B000AAEB080E1FFA8EF307EB050E1FFA8EF21B
:1042C00006EB050ECDE900101FFA8EF12068D0F83C
:1042D00000E0DEF828C0E0471FFA8BF0ABB207EB36
:1042E000050E1FFA8EF206EB050E1FFA8EF10090F6
:1042F0002068D0F800E0DEF830C0E0471FFA8BF00D
:10430000ABB207EB050E1FFA8EF206EB0A0EAEEB10
:10431000050E1FFA8EF100902068D0F800E0DEF85C
:1043200030C0E0471FFA8BF0ABB207EB090EAEEBE3
:10433000050E1FFA8EF206EB050E1FFA8EF10090A5
:104340002068D0F800E0DEF830C0E0471FFA8BF0BC
:10435000ABB207EB090EAEEB050E1FFA8EF206EBC1
:104360000A0EAEEB050E1FFA8EF100902068D0F811
:1043700000E0DEF830C0E0471FFA8BF0A9EB08013F
:1043800089B21FFA88F307EB050E1FFA8EF2CDE90A
:104390000010B1B22068D0F800E0DEF828C0E04795
:1043A0001FFA8BF0A9EB080189B21FFA88F307EB1B
:1043B000050E1FFA8EF206EB0A0EAEEB080ECDE9E3
:1043C00000101FFA8EF12068D0F800E0DEF828C057
:1043D000E0471FFA8BF01FFA88F1AAEB080E1FFACC
:1043E0008EF3BAB206EB050ECDE900101FFA8EF17E
:1043F0002068D0F800E0DEF828C0E0471FFA8BF014
:104400001FFA88F1AAEB080E1FFA8EF307EB090ECC
:10441000AEEB080E1FFA8EF206EB050ECDE900108A
:104420001FFA8EF12068D0F800E0DEF828C0E047DF
:104430001698D0BB1B98FCF744F8089051460AEB3D
:10444000D1725310089800EBD0724FEA620C1A9A9E
:104450000CFB123200EE102AB8EEC00AB0EE408A11
:104460001B98CDF81890009009EBD97007EB600EFF
:104470001998079000EBD070AEEB600082B20898FC
:10448000C3B200EE106AB8EEC00A30EE080ABCEE05
:10449000C00A10EE100A81B22068059020680068FA
:1044A000D0F820C00598E04700BF09B0BDEC028BF2
:1044B000BDE8F08F0000000011B1012914D109E01E
:1044C00045F20C3282604EF60262C26049F2F4425A
:1044D00002610AE04FF6FF72826040F27D62C260C4
:1044E00048F2FA52026100E000BF00BF70470000CE
:1044F00010B588B004460DA01021182240F27D634B
:10450000CDE90432CDE90610208A00B201210F2244
:10451000C823CDE90032CDE902103C23C822502146
:104520002046FFF78BFE08B010BD00004869000070
:1045300038B504462068026811688847238999B213
:10454000206803685A6990471020182300221146FA
:1045500000902046FFF71AFE2046FFF7C9FF38BD3E
:1045600070B504460D461646256031462046FFF7D5
:10457000A3FF6361204670BD03460A46196808E040
:10458000914201D100207047486808B1496800E0B5
:1045900001E00029F4D100BF09B14A6000E01A60CF
:1045A0000120F0E77047000030B504460D4605488D
:1045B0002060002060601DB121462846FFF7DCFF27
:1045C000204630BDC86D000870B505462C6804E073
:1045D00020680168204688476468002CF8D170BDC7
:1045E00000210160704710B50446206841692046EB
:1045F0008847217C09B1012200E0002204F1080172
:1046000051F82210A27E21F81200E07E401CE076D4
:10461000E07E617E884209DAE17E6069405CA076D6
:10462000A17E206882692046904707E00020E0765E
:10463000E17E6069405CA0760020207710BD2DE906
:10464000F04104460D461746207EA8422ADD00268A
:104650000CE06069805DA84207D120683A4629468F
:10466000C36920469847BDE8F081761C607EB04261
:10467000EFDC607E217E884214DA0020627EA16831
:1046800021F812000021627EE06820F81210617E9D
:10469000481C60766069455420683A462946C369DB
:1046A0002046984700BFDEE710B50446607EA0B103
:1046B000207F90B90020E076E17E6069405CA076C2
:1046C000207C08B9012000E0002020740120207720
:1046D000A17E206882692046904710BD70B50446CF
:1046E0000D46164600212046FFF75EFF04460F48A0
:1046F000206026B13068214642683046904700204D
:10470000A076E07660762576680001F0C6F9A060B4
:10471000680001F0C2F9E060284601F0BEF960616E
:10472000002020742077204670BD0000706C0008C7
:10473000014A026001717047986C000810B500BF13
:10474000074B1B6803F00103002BF9D0152343EA44
:10475000012343EA0243024C083C236010BD0000E1
:10476000746C01400349496841F00401014A5160F9
:1047700070470000007001402DE9F0412DED068BDF
:1047800004460D4617461E465948406820F008006A
:10479000574948605748006820F0010055490860B3
:1047A00054489C30006820F0040052499C31086055
:1047B0000846006820F0020008604D48006B20F0B9
:1047C00001004B4908630846006B20F080700863C5
:1047D0000846006B40F08070086300BF4448C06822
:1047E00000F480500028F9D09FED438B4048006BC7
:1047F000434908403E4908630846006B42F6901161
:1048000008433B4908630846006B40F00100086319
:1048100000BF3748C06800F480700028F9D0062037
:1048200034499C310860012032499031086040F6DB
:1048300001203049A031086004202E49091D08607C
:1048400053EC182B9FED2F0B51EC100B01F0CAFC11
:1048500041EC1A0B53EC1A2B9FED2C0B51EC100B67
:1048600001F028FB41EC190B01F07CFC80B22049DF
:10487000886100201F49C031086000211D48C430F4
:10488000016001201B49303108600B201849086085
:1048900000201849083108601649103108600520C9
:1048A000091F08601348603005601A4811496431D7
:1048B000086026B13A462946201D00F065FA0D48E9
:1048C000006840F001000B4908600948406840F06A
:1048D0000800074948604FF02310064994310860EA
:1048E0000D48091D0860BDEC068BBDE8F081000095
:1048F00000700140046C01400000000065CDBD4126
:104900000386FCFF95D626E80B2EF13D0000000043
:104910000000F03F007F0E000000232330B5034667
:10492000002000BF104C246804F00104002CF9D0D2
:1049300010E00C5C0D186D7844EA05240D18AD7874
:1049400044EA05440D18ED7844EA0564064D2D1F30
:104950002C60001D9042ECD394B2392545EA042422
:10496000014D083D2C6030BD746C014010B5164AF5
:104970000260021D42F80419144B1B6843F0806367
:10498000124C2360114B203B1B6843F080630F4C9B
:10499000203C236023461B6823F08063236000BF14
:1049A00010460A4A126842F00062084B1A6022461A
:1049B000126842F0006223461A601A46126822F01A
:1049C00000621A6010BD0000AC6C00084438024060
:1049D00070B5054600242C48046824F4F84444F4D7
:1049E000C054C005C0F84041274808300468274833
:1049F000044044F48314244808300460687880003C
:104A0000A0F1C040D0F840416FF3090444F4F274BF
:104A100068788000A0F1C040C0F840411A480830D2
:104A2000697850F821401A4804401A48044316484F
:104A30000830697840F821400023012211462846B9
:104A400000F02AF8012000F020FA002301220221C0
:104A5000284600F021F8002308220321284600F010
:104A60001BF84FF40C74234601220421284600F061
:104A700013F805481430006840F65E4108434FF0D3
:104A80002041C1F8540170BD400100A0FF0F0FFF8D
:104A900000F0F0F06103010170B50446A5782DB176
:104AA000022901D0032901D1032004E065780DB962
:104AB000022000E0012041EAC006551E46EA4515E5
:104AC00045EA4325054E356000BF044D08352D6885
:104AD00005F02005002DF8D170BD0000500100A0A8
:104AE0002DE9F04104460D46164605F00F002070F2
:104AF00028096070A6704FF4045739466920FDF705
:104B0000B9FD39466A20FDF7B5FD39467520FDF738
:104B1000B1FD39468020FDF7ADFD39468320FDF714
:104B2000A9FD39468420FDF7A5FD39468520FDF70E
:104B3000A1FD39468620FDF79DFD39468720FDF70A
:104B400099FD39468820FDF795FD39466B20FDF724
:104B500091FD39466C20FDF78DFD39466D20FDF73E
:104B600089FD39466E20FDF785FD39466F20FDF73A
:104B700081FD39467020FDF77DFD39467120FDF736
:104B800079FD39467220FDF775FD39467320FDF732
:104B900071FD39467420FDF76DFD39467620FDF72D
:104BA00069FD39467720FDF765FD39467820FDF728
:104BB00061FD39467920FDF75DFD39467A20FDF724
:104BC00059FD39467B20FDF755FD39467C20FDF720
:104BD00051FD39467D20FDF74DFD39467E20FDF71C
:104BE00049FD39467F20FDF745FD39468120FDF717
:104BF00041FD39468220FDF73DFD39468A20FDF70B
:104C000039FD39468B20FDF735FD39464A20FDF741
:104C100031FD39464B20FDF72DFD39465620FDF775
:104C200029FD39465D20FDF725FD39465E20FDF75B
:104C300021FD39465F20FDF71DFD39466020FDF757
:104C400019FD39466120FDF715FD39466220FDF753
:104C500011FD39466320FDF70DFD39464C20FDF767
:104C600009FD39464D20FDF705FD39464E20FDF77B
:104C700001FD39464F20FDF7FDFC39465020FDF778
:104C8000F9FC39465120FDF7F5FC39469820FDF72F
:104C9000F1FC39469920FDF7EDFC39469C20FDF7E3
:104CA000E9FC39469620FDF7E5FC39469A20FDF7E8
:104CB000E1FC39469D20FDF7DDFC39468C20FDF7EF
:104CC000D9FC39468D20FDF7D5FC0748006840F037
:104CD0000100054908602078022802D12046FFF72C
:104CE00077FE2046BDE8F081383802400149016076
:104CF00070470000BC6C00082DE9F04105460C46E9
:104D00009C46BCF1000F01D01E4801E01D488038D0
:104D100001461C48F8380068C0F30B431948F838BE
:104D20000068C0F30A060227581C04EB030840EA97
:104D300008404860701C02EB060840EA08408860A2
:104D40000220086100208861FF20486140F207606E
:104D5000C8612868886220467843C01C04FB07F8B5
:104D600040EA0840C8620A63086840F00100086031
:104D70000120DFF81080A8F1E008C8F800002868DA
:104D8000BDE8F0810469014070B504460B4600207F
:104D900000210025144E3560401C491C41EA0045A5
:104DA000114E103E3560401C491C41EA0045361D3D
:104DB00035601844114441EA0045361D3560401CF9
:104DC000491C41EA0045361D35600025064E143663
:104DD0003560054E1C363560034D2D6845F00105E4
:104DE000014E356070BD00001868014010B50446E2
:104DF000E168606803681A69904710BD10B5044601
:104E00006068026851698847E168084008B101207C
:104E100010BD0020FCE770B504460D462DB1E168D9
:104E2000606803689A68904704E0E1686068036816
:104E30001A69904770BD10B50446E1686068036860
:104E40009A68904710BD70B504460D46217A606897
:104E5000026853682A46984770BD000010B5044B9D
:104E6000036041600272047A0123A340C36010BD55
:104E7000D46D00084FF6FF7101EA800002E000BF28
:104E8000411E88B20028FADC704700B5024605E0F2
:104E90004FF47A70FFF7EEFF501E82B2002AF7DC63
:104EA00000BD704706480078002804DD04480078FB
:104EB000401E034908700248007800B962B6704786
:104EC0008801022072B603480078401C014908702E
:104ED000704700008801022000B503460A46FFF72C
:104EE000E0FF0AB1FFF7EEFF184600BD01F01F0218
:104EF000054B1A60054AD2F8082242F08042024B64
:104F00002C3B1A6070470000342201400020014011
:104F1000F0B507460C46154605F00706082C02D0EA
:104F20000C2C0CD018E003210020FDF7A3FB0B484C
:104F3000006840EA06600A49C1F810020CE003214B
:104F40000120FDF797FB0548001F006840EA861026
:104F50000349C1F80C0200BF00BFF0BD10220140A0
:104F60000020014001460248006880B270470000FE
:104F70004C22014070B504460D462A4610212046B9
:104F8000FFF7ACFB04460F4820600F4804600F4851
:104F9000006840F480600D4908600D48006840F4E6
:104FA00040300C49C1F8040340F601000849FC39BF
:104FB000086020200749C1F804021220FDF764F8B8
:104FC000204670BDEC6C0008980102204438024075
:104FD000042301400020014030B505460C4614B1C1
:104FE000012C0BD015E003210820FDF743FB0A48F4
:104FF000006840F00300084908600AE00321092026
:10500000FDF738FB0448006840F44030024908606E
:1050100000BF00BF30BD00000074004000B5034673
:1050200002211846FFF784FB03460548186005482F
:10503000006840F0005003490860184600BD0000B9
:10504000146D00084038024000B503460A46184671
:10505000FFF74CFE0346374818603748006840F4B5
:10506000807035490860012A0DD13448006820F469
:105070004070324908600846006848F20111084350
:105080002E4908601DE0E2B92C48006800F4407029
:1050900050B92A48006840F4803028490860084622
:1050A000006820F4803008602448006820F44070D4
:1050B000224908600846006848F2013108431F4948
:1050C00008601E486838006820F4F8101B496839E9
:1050D00008600846006840F4C8100860CA201849F3
:1050E00008605320086016481838006840F08000B7
:1050F00013491839086000BF11481838006800F0DB
:1051000040000028F8D0012A0AD04AB941F63F7081
:105110000B49143908600846006840F4F80008603C
:1051200007481838006820F08000054918390860E1
:10513000184600BD286D000800700040703802401D
:105140002428004010B5044604F10800FFF73CFA9B
:1051500010BD01464868704730B504460D462946E3
:1051600004F10800FFF708FA30BD0146888870474F
:105170000146C88870470146087A7047044B0360AF
:105180004181828100238380C380037270470000C5
:10519000546D000850F8841F096901F060410268ED
:1051A00011610168096941F4002102681161016817
:1051B000096841F0044150F88429116070470000EB
:1051C00070B5044694F8831094F8810000F0FEFD59
:1051D0000546E81CC11700EB91718E10D4F88400CD
:1051E000806980B2B04211D3601C002284F8812013
:1051F00084F88220002106E00268D4F888301A6022
:105200004A1C91B2001DB142F6DB00BF002D07DC45
:1052100004480068227801219140884301490860D0
:1052200070BD000034080050D0F8842091607047B1
:105230000146084800680B78D84000F00100054B93
:10524000243B1B6843EAC012D1F8840080681040F8
:10525000704700003408005030B580F883100378A0
:1052600003B90021104B1B6805780124AC40A4B29F
:1052700023430D4C2360D0F884301B6803F40043B3
:105280008BB9C1F30A0343EA8243047843EA8453A7
:1052900043F0805343F40043D0F884402468234310
:1052A000D0F88440236030BD1C0800502DE9F04147
:1052B00004460E4694F8837094F8831094F88100A5
:1052C00000F084FD054694F8820020B92046FFF7DF
:1052D00061FFBDE8F08125B95EB32046FFF75AFFB4
:1052E00027E0E919491E91FBF7F1C8B254F8841F71
:1052F000096901F06041226811610F4901EAC0416A
:10530000C5F3120211432268126911432268116128
:105310000A49096814F8843C01229A401143074A5B
:1053200011602168096841F0044154F88429116032
:1053300000BF00BFCDE700000000F81F3408005098
:1053400050F8841F096901F060410268116150F84A
:105350008419096990F8832042F40022114350F81F
:10536000842F11610168096841F0044150F88429D3
:1053700011607047D0F88420916070470146D1F8E1
:1053800084008068014A1268104070471408005079
:1053900030B5CB1CDD1703EB9575C5F38F04421CAC
:1053A00080F88110012580F88250002306E0D0F8B3
:1053B00088502D6815605D1CABB2121DA342F6DB50
:1053C00030BD000070B504460D46164684F8835083
:1053D000207800B900251348006822780121914007
:1053E000114A02EA014108430E490860D4F88400DA
:1053F000006800F4004070B9C5F30A0040EA864036
:1054000040F0805040F40040D4F88410096808430C
:10541000D4F8841008602078002802DD204600F0CF
:1054200005F870BD1C0800500000FFFF70B5044671
:1054300094F8835094F8831094F8810000F0C6FC2F
:1054400006461EB92046FFF77BFF22E094F8811044
:105450002944491E91FBF5F1C8B254F8841F09692B
:1054600001F06041226811610A4901EAC04105FB6F
:1054700000F2C2F31202114322681269114322683A
:1054800011612168096841F0044154F884291160D0
:1054900000BF70BD0000F81F4FF0A04252690A43E0
:1054A0004FF0A0435A617047014604480068034A20
:1054B000121D1268104080B270470000180800509A
:1054C000014604480068034A121D12681040000C8F
:1054D000704700001808005002464FF0A040406995
:1054E0004FF0A0439B6918400840884201D1012039
:1054F00070470020FCE700002DE9F04104464FF022
:10550000A040406900F0010008B1BDE8F08102212F
:105510002046FFF7E1FF18B102212046FFF7BCFF4C
:105520004FF400212046FFF7D7FF002860D0204627
:10553000FFF7C6FF07460026002556E007F00100EA
:1055400000284FD0C5EBC50101EB810204F51F71A6
:1055500001EB8200FFF712FF064606F00100D0B112
:10556000C5EBC50101EB810204F51F7101EB82005F
:10557000FFF75CFF20680022294603682046984711
:10558000C5EBC50101EB810204F51F7101EB82003F
:105590000121FFF7EFFE06F00800A8B12068012204
:1055A0000021036820469847012104F14C00FFF7D1
:1055B0007DFEC5EBC50101EB810204F51F7101EB16
:1055C00082000821FFF7D6FE06F0100050B1C5EBAF
:1055D000C50101EB810204F51F7101EB820010216E
:1055E000FFF7C8FE681CC5B27F08002FA6D100BF18
:1055F0004FF480212046FFF76FFF00287ED0204621
:10560000FFF752FF0746002600258DE007F0010056
:10561000002874D0C5EBC50101EB810204F14C01F7
:1056200001EB8200FFF704FE064606F0010028B3F6
:105630000120A840C0439B490860C5EBC50101EBB0
:10564000810204F14C0101EB82000121FFF7ECFD26
:1056500004F51F70FFF774FE45F0800120680122F9
:10566000036820469847C5EBC50101EB810204F1B0
:105670004C0101EB82000021FFF718FE06F0080044
:1056800050B1C5EBC50101EB810204F14C0101EB06
:1056900082000821FFF7C8FD06F0100050B1C5EBED
:1056A000C50101EB810204F14C0101EB82001021E4
:1056B000FFF7BAFD06F0400050B1C5EBC50101EBA4
:1056C000810204F14C0101EB82004021FFF7ACFDA7
:1056D00006F0020050B1C5EBC50101EB810204F1F7
:1056E0004C0101EB82000221FFF79EFD06F08000D5
:1056F00028B1C5EBC50101EB810201E018E010E023
:1057000004F14C0101EB8200FFF75AFDC5EBC50126
:1057100001EB810204F14C0101EB82008021FFF7D3
:1057200083FD681CC5B27F08002F7FF46FAF00BFF8
:105730004FF000412046FFF7CFFE58B159483038AE
:10574000006820F0010057493039086049072046B9
:10575000FFF7A2FE4FF400612046FFF7BDFE20B127
:105760004FF400612046FFF797FE4FF4805120462A
:10577000FFF7B2FE40B120688168204688474FF4A9
:1057800080512046FFF788FE4FF400512046FFF776
:10579000A3FE28B343483038006840F48070414984
:1057A000303908604FF0A040C06820F470504FF0CE
:1057B000A041C8600846C06840F4A050C8600022FC
:1057C000402104F51F70FFF7FDFD0022402104F188
:1057D0004C00FFF741FD4FF400512046FFF75CFEFF
:1057E00010212046FFF778FEC0B34FF0A04080693B
:1057F00020F010004FF0A04188610846056A05F0CE
:105800000F06C5F34340022810D147F6F070284038
:10581000D8B1C6EBC60101EB810204F51F7101EBA3
:105820008200C5F30A11FFF7B3FD0EE0C5F3434054
:1058300006280AD1C6EBC60101EB810204F51F71EF
:1058400001EB82000821FFF7A3FD4FF0A040806923
:1058500040F010004FF0A041886100BF08212046B1
:10586000FFF73AFE18B108212046FFF715FE4FF06A
:1058700080412046FFF730FE20B14FF080412046A6
:10588000FFF70AFE04212046FFF726FE40B14FF045
:10589000A0414868496801434FF0A042516000BFF1
:1058A00000BF32E6340800502DE9F04703460C46AD
:1058B0006006050E0120A0406FEA00080320A84002
:1058C000C7434FF000090026B24602F0010010B1B4
:1058D000012000FA05F902F0040010B10120A840EF
:1058E000064302F0080010B10220A840064302F06F
:1058F000020010B1012000FA04FAFFF7E3FA586839
:105900000068384040EA0900596808605868C06873
:10591000384030435968C8605868406800EA080059
:1059200040EA0A0059684860FFF7BCFABDE8F08712
:105930000A0443689A6170470146486800697047E5
:105940004268916170470000354A026000BF354AE5
:1059500002600A2906D2DFE801F0060F18212A3377
:105960003C454E5759E0304A4260304A126842F096
:1059700001022E4B1A6050E02D4A42602B4A1268F9
:1059800042F00202294B1A6047E02A4A4260274A45
:10599000126842F00402254B1A603EE0264A42603B
:1059A000224A126842F00802204B1A6035E0234A6E
:1059B00042601E4A126842F010021C4B1A602CE032
:1059C0001F4A4260194A126842F02002174B1A60BF
:1059D00023E01C4A4260154A126842F04002134B11
:1059E0001A601AE0184A4260104A126842F08002B7
:1059F0000E4B1A6011E0154A42600C4A126842F4DC
:105A000080720A4B1A6008E0114A4260074A126825
:105A100042F40072054B1A6000BF00BF70470000DF
:105A2000CC6C00086C6D0008000002403038024069
:105A30000004024000080240000C02400010024036
:105A40000014024000180240001C024000200240E6
:105A50000024024010B50446A069C06900F040006F
:105A600048B1A069006A40F04000A169086220685E
:105A7000C16920468847A069C06900F0200018B1BC
:105A8000206881692046884710BD01460868C078B3
:105A90007047014608680079704710B504462046F3
:105AA000FAF79CFC10BD03B401984100009850EA3D
:105AB000C12018BF04204A0D18BF40F0010040F279
:105AC000FF72B2EB515F08BF40F00200012808BF2F
:105AD000052002B07047FAF7E9FC10B52DED028BF6
