:020000040800F2
:10000000982302209D030008A5030008A703000809
:10001000A9030008AB030008AD03000800000000BE
:10002000000000000000000000000000AF03000816
:10003000B1030008000000008D1C0008B91C000876
:10004000B7030008B7030008B7030008B7030008A8
:10005000B7030008B7030008B7030008B703000898
:10006000B7030008B7030008B7030008B703000888
:10007000B7030008B7030008B7030008B703000878
:10008000B7030008B7030008511C0008B7030008B5
:10009000B7030008B7030008B7030008B703000858
:1000A000B7030008911E0008B7030008B703000853
:1000B000C11E0008CD1E0008D91E0008B7030008A5
:1000C000B7030008B7030008B7030008B703000828
:1000D000B7030008211F00082D1F0008391F000862
:1000E000B7030008B7030008B7030008B703000808
:1000F000B7030008B7030008FD1E0008B703000897
:10010000B7030008B7030008E51E0008B70300089E
:10011000091F0008151F0008B7030008F11E00089A
:10012000B7030008B7030008B7030008B7030008C7
:10013000B7030008B7030008B7030008B7030008B7
:10014000B7030008B7030008B7030008711C0008D4
:10015000B7030008B7030008B7030008451F0008ED
:10016000B7030008B7030008B7030008B703000887
:10017000B7030008B7030008B70300080000000039
:10018000B7030008B7030008B7030008B703000867
:10019000B7030008B7030008B7030008B703000857
:1001A000B7030008B7030008B7030008B703000847
:1001B000B7030008B7030008B7030008B703000837
:1001C000B7030008B7030008B7030008B703000827
:1001D000B7030008B7030008B7030008B703000817
:1001E000B7030008B7030008B7030008B703000807
:1001F000B7030008B703000800F002F800F0A8F801
:100200000AA090E8000C82448344AAF10107DA4571
:1002100001D100F09DF8AFF2090EBAE80F0013F01B
:10022000010F18BFFB1A43F0010318479C4F000051
:10023000BC4F00000A4410F8014B14F00F0508BF32
:1002400010F8015B240908BF10F8014B6D1E05D0A2
:1002500010F8013B6D1E01F8013BF9D1641E03D07B
:10026000641E01F8015BFBD19142E4D370470000AA
:100270000023002400250026103A28BF78C1FBD8AF
:10028000520728BF30C148BF0B6070476E2900F08D
:100290005582702900F09783662904F083836529CD
:1002A00004F08083672904F07D836129AFF3008027
:1002B00003681B0A28BF41F08001692900F002820F
:1002C000642900F0FF81752900F0FC816F2900F09E
:1002D0002483782900F06383E92900F0BF82E429B0
:1002E00000F0BC82F52900F0B982EF2900F02183EB
:1002F000F82900F062830368DB0928BF41F0800120
:10030000632900F00D87732900F01287E32900F0BC
:100310001D87F32900F02287002070471FB504F0E5
:1003200037FB9DE8030000F035F900F08DFF040075
:100330000020002104F020F8401C60600020002113
:1003400004F004F8E06000F0F1F81FBD10B510BD36
:1003500000F04DFF1146FFF7E1FF03F04BFF01F006
:1003600029F803B4FFF7F2FF03BC00F0F1F8000036
:10037000EFF3088020E9F00F80F308882DED200AC4
:10038000EFF30880704780F30888BDEC200AEFF394
:100390000880B0E8F00F80F308887047094880476C
:1003A00009480047FEE7FEE7FEE7FEE7FEE7FEE757
:1003B000FEE7FEE7FEE7FEE704480549054A064B6F
:1003C00070470000F51C0008F9010008980302209E
:1003D00098230220981302209813022070B5064635
:1003E00000F0BCF8056806F10B0020F00704B442E9
:1003F0009CBF002070BD2B466A68BAB11068A0424D
:1004000010D304F1080188423CBF5068586007D3FC
:100410005168101941601168091B0160586014602F
:10042000101D70BD13465268002AE7D121462846A8
:1004300000F09CF80028DED170BD70B50446051FA1
:1004400000F08CF80068002C14BF446870BD002CCC
:1004500018BFAC423CBF20466468F8D301680A1854
:10046000AA4218BF456003D12A68054611440160BD
:1004700028684119A1421CBF6C6070BD6168696049
:1004800021680844286070BD1CB50C46064B7B44AF
:1004900069460090204600F06AF90446002069464B
:1004A00000F078F920461CBD0303000010B50020C1
:1004B00000F058FBFFF74AFFBDE81040012000F0B4
:1004C00047B810B5203AC0F00B80B1E81850203A78
:1004D000A0E81850B1E81850A0E81850BFF4F5AFE4
:1004E0005FEA027C24BFB1E81850A0E8185044BF6E
:1004F00018C918C0BDE810405FEA827C24BF51F8DB
:10050000043B40F8043B08BF7047D20728BF31F8CE
:10051000023B48BF11F8012B28BF20F8023B48BF1F
:1005200000F8012B704770477047704770B5064C54
:100530007C44064D7D4403E0206820448047241D10
:10054000AC42F9D170BD0000E04D0000E04D00006C
:1005500001491820ABBEFEE72600020000487047A4
:1005600040030220704770477047704738B5044613
:100570000A4600206946AFF30080002808BF38BD56
:1005800002460099204600F0FAFA012038BD012009
:1005900000F026BEF8B5AFF30080054600200C46FB
:1005A000102000BF0646A819A0420DD93246694660
:1005B0000020AFF30080070008BF00F011FE009894
:1005C000A04218BF0546C419FFF7C8FF05600746DB
:1005D000F01D20F007004619284600F00AF8B44242
:1005E00008BFF8BDA21B31463868BDE8F84000F0EE
:1005F000C6BA00210160C0E90110704710207047A1
:1006000070B5044685690068C10601D5302600E052
:100610002026C00707D070BDD4E90121304690479D
:10062000206A401C20626D1EF6D570BD70B5044670
:1006300085690078C00707D170BDD4E90121202069
:100640009047206A401C20626D1EF6D570BD096877
:100650004A0501D540B27047C905FCD500B27047C4
:1006600009684A0501D5C0B27047C905FCD580B2FA
:10067000704770B50C460546012A05D028788006DB
:1006800000D5EA69002302E0012305E05B1C9342E8
:1006900002D2E05C0028F9D1A869E618C01AA86166
:1006A000286A184428622846FFF7AAFF04E0D5E923
:1006B000012114F8010B9047B442F8D32846FFF704
:1006C000B5FF70BD2DE9F04106460024106875297C
:1006D000314616A510D0FFF7BAFF002802DA4042D3
:1006E00013A507E031688A0701D512A502E0490782
:1006F00004D511A5012401E0FFF7B2FF00210A2271
:1007000006F1240709E0B0FBF2FCB0FBF2F302FBB8
:100710001C00303078541846491C0028F3D1234679
:100720002A463046BDE8F04100F088BA00000000DB
:100730002D0000002B00000020000000116802685E
:10074000006A530501D508700AE0D30501D5088079
:1007500006E0130603D5C217C1E9000200E00860F5
:100760000120704701694A1C02610878704700B592
:100770008FB0CDE901310021059105497944CDE9DA
:1007800003101146684600F029F90FB000BD0000C3
:10079000E5FFFFFF0A6802F8010B0A6070470000DE
:1007A0002DE9FF5F15468A460446DFF8AC80F84421
:1007B0000027D8E900103E46CDE9001010E03AF8D5
:1007C00016106A4602A800F0CDFC411C07D0217823
:1007D000890603D5E269391891420DD80744761C81
:1007E0002078800602D5E069B84205DDAE42E6DB3E
:1007F0003AF816000028E2D1A069C01BA06120468B
:10080000FFF7FEFED8E90010CDE90010002017E048
:100810003AF818106A4602A800F0A4FCB0F1FF3FB5
:1008200081460BD000250DF1080B05E0D4E901212C
:100830001BF8050090476D1C4D45F7D308F10100EA
:10084000B0428046E4DB206A384420622046FFF74D
:10085000EDFEBDE8FF9F00007E4600002DE9F0415F
:100860008046D21D22F007020025D2E90002F529B8
:1008700015A614D0011E72F1000106DA0023D0EB98
:10088000030063EB020211A608E0D8F800108B0702
:1008900001D50FA602E0490701D50EA60125114694
:1008A000002408F1240704E000F083F930323A55BF
:1008B000641C50EA0102F7D12B46324621464046DD
:1008C000BDE8F04100F0BAB9000000002D000000C2
:1008D0002B0000002000000030B4002100F12404AF
:1008E00008E002F00705D208303542EA4372DB081F
:1008F0006554491C52EA0305F3D10468002310A291
:10090000250707D5A40600D421B1C46901230DA28F
:10091000641EC46130BC00F091B910B50446214694
:100920001068FFF79DFE02462046BDE810400023F8
:10093000D2E7D21D22F00701D1E90023CCE7000065
:100940000000000030000000F0B40D4601880905E9
:1009500002D5214C7C4402E01F4C7C440E34002123
:1009600000F1240608E002F00F071209E75D42EAF1
:1009700003721B097754491C52EA0307F3D102782A
:100980000023120704D5702D06D009B102231134BB
:100990002246F0BC00F052B901231034F8E770B5DC
:1009A00004460D4621461068FFF75AFE02462946C6
:1009B0002046BDE870400023C6E7D21D22F00703A1
:1009C000D3E90023C0E70368126843F02003036003
:1009D0000823C3610023B7E7E04400002DE9F05F7E
:1009E000894604464FF0000ADFF874B1FB44C0F8B2
:1009F00020A02046E1688847002874D0252806D02A
:100A0000D4E901219047206A401C2062F1E70026CA
:100A10005F462046E16888472028054607DB312DE0
:100A200005D2781910F8200C08B10643F1E7B00799
:100A300001D526F00406C4F81CA00027C4F818A0AD
:100A40002A2D09D0284603F0CDFB38B304EB8708E4
:100A5000303DC8F8185019E059F8041B204604EB43
:100A600087029161E1688847012F054618D1E06946
:100A7000002820DA26F020061DE0D8F8180000EB48
:100A8000800005EB40003038C8F818002046E168C7
:100A90008847054603F0A6FB0028EED1012F0AD0B7
:100AA0002E2D08D12046E16888477F1C0546022F7D
:100AB00046F02006C4DBA069002803DA404246F075
:100AC0000106A061F00701D026F010066C2D0BD0B6
:100AD000682D09D04C2D39D06A2D35D0742D35D0E4
:100AE0007A2D33D016E038E0E1682F46204688475B
:100AF000B842054609D16C2F26D04FF48060E168DA
:100B0000064320468847054604E06C2F1AD04FF470
:100B1000807006430DB3A5F14100192802D8203595
:100B200046F400664A462946204626604E46FFF7B0
:100B3000ADFB80B101280BD0F61D26F0070000F1B7
:100B4000080956E74020E4E78020D8E70020D6E7F0
:100B500006F104094DE7284652E7206ABDE8F09FF8
:100B60007044000010B500F023FBBDE8104000F019
:100B700019BB000000487047380302207047034645
:100B800040688C46002818BF88423CBF0346406836
:100B9000F8D318681844884207D00CF1030020F0FD
:100BA0000700001D411A521A0146081D0A60FFF78E
:100BB00044BC30B5B0F10A024FEA900E71F1000367
:100BC0004EEA817EB0EB0E0061EB91014FEA101E00
:100BD0004EEA017E10EB0E0041EB11114FEA102E90
:100BE0004EEA016E10EB0E0041EB11214FEA104E60
:100BF0004EEA014E10EB0E0041EB1141401841F15D
:100C000000014FEAD00040EA41704FEAD10110EBF9
:100C100080054FEA810444EA907444EB01046D19A5
:100C200044EB0404521BA3414FF0000348BF0A32B7
:100C300000D530BD401C41F1000130BD2DE9F04729
:100C40000D4699469246044600F12408016888063C
:100C500004D5E06921F01001216000E00120A842E4
:100C600001DD471B00E00027A1697A1902EB0900AA
:100C7000081AA0612078C00602D42046FFF7C0FC05
:100C8000002608E0D4E901211AF806009047206AFE
:100C9000401C761C20624E45F4DB2078C0060AD545
:100CA0002046FFF7ADFC06E0D4E901213020904753
:100CB000206A401C2062381EA7F10107F4DC07E01F
:100CC000D4E9012118F805009047206A401C2062F1
:100CD000281EA5F10105F3DC2046FFF7A7FC2078CC
:100CE000000602D50220BDE8F0870120FBE770472F
:100CF0002DE9FF4F0C461E464FF0FF378BB0D2E96F
:100D00000001DDF860800A908A46C1F30A5505B9F2
:100D10003D46002108464FF00000BAF1000F00F4F4
:100D2000400005DA00EB80004FF4400101EA50007A
:100D30004FEA9059B9F1010F00DDB9460A9850EA1F
:100D40004A000ED044F61050A5F2FF3545432F144B
:100D5000B8F1000F1ED07542291E1EDDC9F1000238
:100D60001CE0B8F1010F4FF0000001D0302103E08A
:100D7000F24305E02154401CB042FBDB3046002228
:100D8000002121540B99C1F80880C1E900200FB05F
:100D9000BDE8F08FBD1B6D1CDEE74A4600DA6942F4
:100DA00006A800F095FA06AB93E8070003AB83E8CA
:100DB000070050460A9900F083FB8DE80700A0F574
:100DC00000501F3800900398002D0ADD42F21F01E9
:100DD0004A460844002303A90390684600F0ECFD4E
:100DE00009E0A0F500504A461F38002303A90390EC
:100DF000684600F0F6FD8DE807000004000C03D003
:100E00004FF0FF30410800E01046B8F1000F03D06A
:100E10000022009215461EE0751E05D4FFF7C9FE9C
:100E2000303262556D1EF9D5B3460122084302D017
:100E300000227F1C04E02078302801D100227F1E90
:100E4000002A099784D01DE0112D07DAFFF7B1FEC3
:100E5000303262556D1C50EA0102F5D1084302D0D0
:100E60000098C8B10EE00021681E05E0235C625CBA
:100E700063542254401E491C8142F7DBAB46A81B39
:100E8000401E0990002004F80B000B98099AC0F846
:100E90000880C0E9002B7AE711264FF0000857E7D9
:100EA0002DE9F04F88460446D21D22F0070191B08B
:100EB000D1E90001CDE90A0103F099F802460B9847
:100EC000C00F01D02D2007E02068810701D52B201D
:100ED00002E0202101EAC000032A099001D0072A7C
:100EE00005DB03464146204600F0B2F90BE12078CD
:100EF000800601D5E06900E00620B8F1650F814663
:100F000006D0B8F1660F18D0B8F1670F70D131E094
:100F10000020B9F1110F009001DB112301E009F16C
:100F200001030AAA01A90CA8FFF7E2FEDDE90C7093
:100F3000002609F10105834647E001204B46009059
:100F40004FF000470AAA01A90CA8FFF7D1FEDDE97E
:100F50000DB00C995D46002610B909F101000D187D
:100F6000B9EB050003D4C0F1FF3609F10105A5EB8B
:100F700009002BE0B9F1010F01DA4FF0010900205F
:100F8000B9F1110F0090484601DD112300E003463E
:100F90000AAA01A90CA8FFF7ABFEDDE90C704D46CB
:100FA00000268346207800070AD4AB4500DA5D4668
:100FB00001A8012D04DD411911F8011C302907D0C9
:100FC0004F4502DA17F1040F04DA012082460FE0E0
:100FD0006D1EEEE7002F02DCED1B3E4403E0781CA3
:100FE000A84200DD7D1CB81B00F1010A4FF000474C
:100FF0002078000703D4AA4501DB4FF0FF3A002117
:10100000B7F1004F0DF143088DF8431024D00220B2
:101010002B23002F01DA7F422D230A21021EA0F18B
:10102000010000DC5FB197FBF1FC97FBF1F201FBE3
:101030001C7C17460CF1300C08F801CDEEE7A8F146
:10104000010003702188090501D5452100E06521D3
:10105000A0F1010800F8011C09980FA9A1EB0807ED
:10106000FF1D00B10120411901EBEA70A16938446C
:10107000081A401EA0612078C00602D42046FFF75F
:10108000BFFA099828B1D4E901219047206A401C91
:1010900020622078C00622D52046FFF7B1FA1EE074
:1010A000002E04DBB34502DD01A8805D00E03020A6
:1010B000D4E901219047206A401C2062761CAAF1E5
:1010C00001005FEA000A0AD100F0BEF8C0680168BA
:1010D000405CD4E901219047206A401C2062281E10
:1010E000A5F10105DCDC07E0D4E9012118F8010BCA
:1010F0009047206A401C2062381EA7F10107F3DCEC
:101100002046FFF793FA032011B041E610B543697A
:1011100013B1AFF3008001E0FFF7ABFA012010BD7F
:10112000127800F124010A7000224A700122EDE7D2
:1011300011684FF0FF32E9E710B5436913B1AFF31F
:10114000008001E0FFF72CFB012010BD128800F1A8
:10115000240182840022C2840122EDE711684FF04D
:10116000FF32E9E770B516460C46054600F064F814
:10117000036893F80101012806D0FF2C0FD8185DF1
:1011800068B101202C7070BDD3F8070132462146AA
:1011900003F2071303442846BDE8704018474FF098
:1011A000FF3070BD002801D0FFF7D2B970470000B2
:1011B00010B5002102A000F006F9012010BD0000CA
:1011C000534947414252543A2041626E6F726D61F9
:1011D0006C207465726D696E6174696F6E000000D9
:1011E00010B500F009F9BDE81040FFF7DBBF754608
:1011F000FFF7C0FCAE4605006946534620F00700E5
:10120000854618B020B5FFF7D7F8BDE820404FF06D
:1012100000064FF000074FF000084FF0000B21F0E0
:101220000701AC46ACE8C009ACE8C009ACE8C009AD
:10123000ACE8C0098D46704710B500F005F8001DF8
:1012400010BD00BF35310000004870475803022030
:101250002DE9F0411F46044603260168072A01F4E0
:10126000006004DB08B116A505E016A503E008B18F
:1012700015A500E015A521F010002060A069C01E92
:10128000A0610FB1401EA0612046FFF7B9F94FB130
:10129000D4E9012138469047206A401C2062C01CD6
:1012A000206206E0206AFAE7D4E9012115F8010B73
:1012B0009047761EF8D22046FFF7B8F9BDE8F081D6
:1012C0004E414E006E616E00494E4600696E6600EA
:1012D0002DE9F047814616468AB0354878440DC856
:1012E0008DE80D0032487844801C03AC0DC884E8BA
:1012F0000D0041F69B300844372190FBF1F290FB42
:10130000F1F5A5F1800501FB12041B3C02D56442F6
:10131000012000E00020DFF898A080460027FA4472
:10132000AAF1BE0A0EE0E0070AD03246684607EB93
:10133000470101230AEB810100F053FB8DE8070010
:1013400064107F1C002CEED1194F7F44AE3F19E092
:10135000E80715D007EB04100DF1180A90E80E000D
:101360008AE80E00C068F04201D198190890324610
:10137000012306A903A800F034FB03AB83E80700B0
:101380006D10641C002DE3D14FF001033246694615
:10139000B8F1000F03A802D000F00EFB01E000F04E
:1013A00020FBC9E90001C9F808200AB0BDE8F087B0
:1013B000103C000010B50446AFF300802046BDE8A5
:1013C0001040FEF7CEBF70B505460C460A2000E07F
:1013D0006D1C00F039F835B128780028F8D102E00A
:1013E000641C00F031F814B120780028F8D1BDE871
:1013F00070400A2000F028B810B5012805D000215F
:1014000003A0FFF7E0FF012010BD09A1F8E70000ED
:1014100053494752544D454D3A204F7574206F66DD
:101420002068656170206D656D6F72790000000045
:101430003A2048656170206D656D6F727920636F29
:10144000727275707465640008B569468DF80000A5
:101450000320ABBE08BD00004FF0013C50F8042B48
:1014600051F8043B9A4215D1A2EB0C03934313EAC3
:10147000CC130BD150F8042B51F8043B9A4209D1FC
:10148000A2EB0C03934313EACC13E7D04FF0000018
:10149000704700BFD01A01BAB1FA81F101F018010A
:1014A00022FA01F0CB40C1F12001DBB2C0B2C01A78
:1014B0002CFA01F3D11A914311EAC311E6D1704716
:1014C0005FEA400C08BF91F0000F4FEA8C234FEA0F
:1014D000C12243EA51514FEA1C5018BF00F5F040B9
:1014E0004FEA300018BF41F000415FEA6C5C00F049
:1014F0002980BCF1FF3F08BF40F080407047130CCB
:1015000006BF12044FF0100C4FF0000C130E04BF76
:1015100012020CF1080C130F04BF12010CF1040CA1
:10152000930F04BF92000CF1020CD30F04BF5200C2
:101530000CF1010C11464FF00002A0F11F00A0EBCE
:101540000C00704711F0004F08BF704731F00041A8
:101550003FF4D5AF0B0C06BF09044FF0100C4FF051
:10156000000C0B0E04BF09020CF1080C0B0F04BF9A
:1015700009010CF1040C8B0F04BF89000CF1020C63
:10158000CB0F04BF49000CF1010CCCF12003A0EB00
:101590000C0022FA03F302FA0CF241EA030100F113
:1015A0000100704720F07F4C80EA030023F07F4762
:1015B000ACEB070303F57C5300F0004003F1FF039D
:1015C0002DE980494FEA154B09B44FEA144325EA47
:1015D0000B4E24EA03480FF2042606EB13274908B2
:1015E0003E785FEA320203FB0667C7F5000707FB98
:1015F00006F64FEA54374FEAD64606F1020607FBD5
:10160000066CCCF1005C4FEA1C472CEA074C07FB48
:1016100006F40CFB06F504EB15464FEA961634BFAC
:1016200000204FF000404FEAD13706FB07FC4FEA9D
:101630001C4C0CFB0BF7D21B03FB0CF761EB0701F7
:101640000CFB0EF7B0EB074072EB17420CFB08F7F0
:1016500034BFA2EB0742B2EB074261EB17414FEAFE
:101660000C444FEA910706FB07FC4FEA1C4C0CFBAD
:101670000BF7B0EBC74072EB573203FB0CF734BFEC
:10168000A2EBC742B2EBC74261EB57310CFB0EF73E
:10169000B0EBC70072EB57720CFB08F734BFA2EB3C
:1016A000C702B2EBC70261EB5771039F4FEA81613A
:1016B00041EA921104EBCC044FEAD1374FEA82623F
:1016C00006FB07FC42EA90124FEA80604FEA1C4C8E
:1016D0000CFB0BF7D21B03FB0CF761EB07010CFBB8
:1016E0000EF7B0EB074072EB17420CFB08F734BF64
:1016F000A2EB0742B2EB074261EB17414FEA8C5570
:101700004FEA910704EB9C2406FB07FC4FEA1C4CB4
:101710000CFB0BF7B0EBC74072EB573203FB0CF737
:1017200034BFA2EBC742B2EBC74261EB57310CFBAF
:101730000EF7B0EBC70072EB57720CFB08F734BF23
:10174000A2EBC702B2EBC70261EB577115EB4C2558
:101750004FEA816141EA92114FEA82624FEAD13742
:1017600042EA901206FB07FC44F100044FEA806055
:101770004FEA1C4C0CFB0BF7D21B03FB0CF761EB85
:1017800007010CFB0EF7B0EB074072EB17420CFBA6
:1017900008F734BFA2EB0742B2EB074261EB1741F7
:1017A00015EB1C154FEA813141EA92414FEA823232
:1017B00042EA90424FEA80304FEA0C7644F100044E
:1017C00048EA03434EEA0B484FF0000EB2EB080C18
:1017D00071EB030724BF624639464EEB0E0E4FF005
:1017E000000B0018524149414BEB0B0BB2EB080CBC
:1017F00071EB03077BF1000B24BF624639464EEBC9
:101800000E0E4FF0000B0018524149414BEB0B0BF1
:10181000B2EB080C71EB03077BF1000B24BF6246AF
:1018200039464EEB0E0E51EA020718BF46F001068C
:1018300016EB0E7655F1000254F1000103D5BDE818
:101840008901BDE80088BDE88901BDE80048B619F6
:10185000524141EB0101A3F10103704780807F7E7B
:101860007D7C7B7A79787776767574737271717016
:101870006F6E6E6D6C6C6B6A6A69686867666665C8
:101880006464636362616160605F5F5E5E5D5D5C56
:101890005C5B5B5A5A5959585857575656555555C7
:1018A0005454535352525251515050504F4F4F4E27
:1018B0004E4D4D4D4C4C4C4B4B4B4A4A4A49494975
:1018C00048484847474747464646454545444444B7
:1018D000444343434342424242414141002B9C46E0
:1018E00030D477002BD01CB54FEA370703B44FF044
:1018F00010004FF01001BAF1000F06D0BCF1000F3C
:10190000DCBF40F0080040F008014FF000000FBCC1
:10191000BDE810400BF1010BBBF1010F08BF5FEAFE
:10192000170722BF12F1010211F101014FF000412E
:1019300043F1000300F0004043EA00007047F9D390
:101940005708D0E746EA064613F1400F4FEA16461D
:101950001FDD13F1200FDFBF16430A46002120339D
:101960005B42BED0C3F1200746EA064602FA07F7FB
:101970004FEA164646EA0706C3F1200722FA03F2A9
:1019800001FA07F721FA03F14FF0000342EA0702D8
:10199000A7E746EA020646EA06464FEA164646EA40
:1019A0000106BCBF46EA0646360C4FF000034FF076
:1019B00000024FF0000194E72DE9804C9A469346CF
:1019C00070B491E8380007C831EA400C48BF34EAE7
:1019D000430C03D5FFF7E6FDFFF780FFF0BCBDE841
:1019E000008C2DE9804C9A46934670B491E83800FB
:1019F00007C810F0804F08BF13F0804F03D100F0EC
:101A000005F8FFF76BFFF0BCBDE8008C20F07F47C6
:101A100080EA030023F07F4C07EB0C03A3F57C5313
:101A200000F00040A3F1FE0392F0000F00F0B3803D
:101A300095F0000F00F077802DE901494FEA114041
:101A40004FEA144621EA004800FB06FC24EA064758
:101A500008FB06F607FB08F800FB07F718EB06483B
:101A60004CEB164C4FEA124B18EB07484FEA154661
:101A70004CEB174022EA0B4E0BFB06FC25EA06470F
:101A80000EFB06F607FB0EFE0BFB07F71EEB064EE2
:101A90004CEB164C4FF000061EEB074E4CEB174B71
:101AA00018EB0B0840F1000018EB0E0B58EB000888
:101AB00040F100008F1A4FF000013CBFC943661B84
:101AC00014BFB5EB040C00213CBFC943F61B4FEA21
:101AD00017444EEA8E0E27EA04454FEA1C4704FBE2
:101AE00007622CEA074C05FB07F70CFB05F604FB25
:101AF0000CFC16EB074642EB174216EB0C4642EB8A
:101B00001C421BEB060658EB0202414146EA9E06C8
:101B100001D5BDE80189B619524141EB0101A3F19C
:101B20000103BDE801894FEA14454FEA114724EA51
:101B3000054621EA074C05FB07F406FB07F70CFBFB
:101B400006F105FB0CFC11EB074144EB17444FEA8F
:101B5000124711EB0C4144EB1C4422EA074C05FBF5
:101B600007F206FB07F70CFB06F605FB0CFC16EB71
:101B7000074642EB174216EB0C4642EB1C456A182F
:101B800054F1000148BF7047B619524141EB0101C1
:101B9000A3F10103704795F0000F37D04FEA1142CF
:101BA0004FEA144721EA024624EA074C02FB07F1F8
:101BB00006FB07F70CFB06F402FB0CFC14EB0744D6
:101BC00041EB17414FEA154714EB0C4441EB1C4124
:101BD00025EA074C02FB07F506FB07F70CFB06F6A8
:101BE00002FB0CFC16EB074645EB174516EB0C46C3
:101BF00045EB1C42121951F1000148BF7047B6195C
:101C0000524141EB0101A3F1010370474FEA144532
:101C10004FEA114724EA054621EA074C05FB07F184
:101C200006FB07F70CFB06F24FF0000605FB0CFC69
:101C300012EB074241EB174112EB0C4251EB1C41F6
:101C400048BF7047921841EB0101A3F101037047AF
:101C50000548D0F8001221F00201C0F80012034834
:101C6000C06801680969084700200140840102201A
:101C700010B501F093FD0448406D01F091FFBDE8FF
:101C8000104001F07FBD00008401022010B5FEF776
:101C90006FFB074908600021064A05481268006882
:101CA00090470349086008460068FEF76CFB10BDCA
:101CB000F40102208801022010B5FEF759FB0A4901
:101CC00008600A4809490068401C0860084A012168
:101CD0000548126800689047034908600846006894
:101CE000FEF751FB10BD0000F00102208C01022024
:101CF000880102205E4A0023F0B55E4814685D4901
:101D000044F47004146008310268041D42F00102BA
:101D100002600B600268584D584E2A4002602660EF
:101D200005680A1D25F4802505601360026842F4E9
:101D300080320260026842F00102026000224FF429
:101D4000A0450668B60302D4521CAA42F9D3026821
:101D5000920343D54A4E474A4032072535601568FD
:101D600045F0805515600D68464A45F434450D60D0
:101D70002260026842F08072026002689201FCD523
:101D80000A6822F003020A600A6842F002020A604E
:101D90000A68C2F38102022AFAD1016821F0805157
:101DA000016001688900FCD4324C374E8834211D13
:101DB00025680A1DC5F3036546EA056525600C68BC
:101DC00024F440340C60116841F000611160016836
:101DD00041F08051016001688900FCD524494FF031
:101DE000006080390860DFF888C0ACF1040CCCF8E2
:101DF0000030BFF34F8FACF1040E244F43F6FF7158
:101E0000DEF80000C0F34E32C0F3C90501EA421605
:101E1000284600BF46EA80743C60401EFAD2521E3B
:101E2000F4D2BFF34F8FBFF36F8FCCF80030BFF306
:101E30004F8F0F487438026822F480320260BFF37B
:101E40004F8FDEF80000114C1434C0F34E32C0F353
:101E5000C90301EA4215184645EA80762660401E0D
:101E6000FAD2521EF5D2BFF34F8FBFF36F8FF0BD82
:101E700088ED00E000380240FFFFF6FE103000243D
:101E8000003C0240196440780060035060EF00E0BD
:101E900070B5084D00242869C00705D006480069C0
:101EA00000F06CF82C6170BD044801680029FAD07C
:101EB000046070BD00000140840102201044014014
:101EC0000148406900F05AB8840102200148806945
:101ED00000F054B8840102200148C06900F04EB8F7
:101EE000840102200148006A00F048B88401022001
:101EF0000148406A00F042B8840102200148806A2B
:101F000000F03CB8840102200148806C02F054B813
:101F1000840102200148C06C02F04EB88401022006
:101F20000148C06B02F048B8840102200148006CEF
:101F300002F042B8840102200148406C02F03CB833
:101F4000840102200148006D02F036B884010220AD
:101F5000002809DB410900F01F028900012001F17E
:101F6000E0219040C1F80001704700008180024BE1
:101F7000C280036070470000104F000842690021D2
:101F8000116101680969084770B515460446644B3C
:101F90000022644E2DED048B8260181F5F4A0C29CD
:101FA0002660217466D2DFE801F065060F1B242D40
:101FB000363F484F575E5C4860611461186840F0D6
:101FC00001001860192008E04FF080416161546100
:101FD000016841F0010101601C20FFF7B9FF49E0F1
:101FE000524961619461016841F0020101601D2064
:101FF000F3E74F496161D461016841F00401016078
:102000001E20EAE74B4961611462016841F0080152
:1020100001603220E1E7484961615462016841F0A2
:10202000200101603720D8E7444860619462186855
:1020300040F0020018602E20CFE741486061D46272
:10204000186840F4803005E03E4860611463186809
:1020500040F4003018600DE03B486061546318683C
:1020600040F48020F6E7394961619463016841F4E6
:1020700080710160284602F07AFB9FED359B53EC9E
:10208000192B02F087FB9FED341B53EC112B02F050
:1020900081FB02F0B5F93249012500EE100AF2EE9B
:1020A000040A06E080EE201A05EB85004500B0EE3C
:1020B000410A10EE100A8842F4DCBCEEC00A284641
:1020C00010EE106AE66002F052FB41EC180B30464D
:1020D00002F04DFB9FED231B53EC112B02F05AFB3A
:1020E00053EC182B02F056FB53EC192B02F0BAF903
:1020F00002F010FB0146616061690120C8606169FE
:1021000048616D1E61698D626269E168D1626169D1
:1021100008602046BDEC048B70BD000084010220E5
:1021200044380240304F00080000014000040040E5
:1021300000080040000C0040001400400004014072
:1021400000400140004401400048014000200040A0
:102150000000000084D79741000000A0F7C6B03E01
:1021600000FF7F470000000080842E4110B5044628
:10217000083001F0BDFAA179884201D0012010BDDC
:10218000002010BD417182798A4201D0012100E016
:102190000021083001F0B7BA70B50579044600682F
:1021A000416920468847207110B125B9012070BDD2
:1021B0000DB1022070BD002070BD000070B51E463C
:1021C0000A4B049D40F8083B01F0B8FAA0F108045E
:1021D0000021217161712946A57101F094FA04F181
:1021E0000800314601F09FFA204670BD4C4F0008B0
:1021F000F0B5154A002421E0B0EB134F1CD132F8A2
:10220000242001F00F000328C3F3031503F00F038C
:10221000C2F3033001D041F002010C4A0C4F0126F9
:10222000146886403443146007EB80200A46294630
:1022300000F010F80120F0BD641CA4B252F8243064
:10224000002BD9D10020F0BD6C00022030380240B4
:10225000000002402DE9F04F04464FF0030948000A
:102260004FF001084D070F274FEAD56C03F00F051B
:1022700007FA0CF709FA00F908FA01F805FA0CF563
:1022800002F00306C2F3012C86406FEA080B0CFA39
:1022900000F8C2F3001CC2F301320CFA01FA6FEA33
:1022A00009038240FF434FEAD10901F077FA206821
:1022B000184030432060E16804EB8900194041EA8E
:1022C0000801E160616801EA0B0141EA0A0161600D
:1022D000A16819401143A160016A39402943016294
:1022E000BDE8F04F01F04EBA30B502680023147813
:1022F0008C4204D855788D4201D3091BCBB2927819
:10230000416813FB0211816030BD30B50568802340
:102310008468E87812FB001080B200F0070204EB3A
:10232000D001D3400878184000D0012030BDC0E96A
:10233000001282607047000010B50446FEA086B00F
:10234000002200680090A06A01680B681146984757
:10235000A06A042201684B6869469847F7A080226A
:1023600000680090A06A01680B6800219847A06A85
:10237000032201684B6869469847F1A080220068F3
:102380000090A06A01680B6800219847A06A0222A9
:1023900001684B6869469847EAA08A220068009065
:1023A000A06A01680B6800219847A06A02220168B0
:1023B0004B68694698470A2001F0D7F9E2A0B1229C
:1023C00000680090A06A01680B6800219847A06A25
:1023D000022201684B6869469847DCA09122006898
:1023E0000090A06A01680B6800219847A06A022249
:1023F00001684B6869469847D5A0B42200680090F0
:10240000A06A01680B6800219847A06A022201684F
:102410004B6869469847CFA0002200680090A06AE8
:1024200001680B6811469847A06A022201684B6850
:1024300069469847C8A0812200680090A06A016898
:102440000B6800219847A06A022201684B68694620
:102450009847C2A0A12200680090A06A01680B689A
:1024600000219847A06A022201684B686946984794
:10247000BBA0922200680090A06A01680B6800214E
:102480009847A06A022201684B6869469847B5A040
:10249000952200680090A06A01680B6800219847A7
:1024A000A06A022201684B6869469847AEA00022E4
:1024B00000680090A06A01680B6811469847A06AFE
:1024C000032201684B6869469847A8A094220068D7
:1024D0000090A06A01680B6800219847A06A022258
:1024E00001684B6869469847A1A0A3220068009044
:1024F000A06A01680B6800219847A06A022201685F
:102500004B68694698479BA0822200680090A06AA9
:1025100001680B6800219847A06A022201684B6895
:102520006946984794A0812200680090A06A0168DB
:102530000B6800219847A06A022201684B6869462F
:1025400098478EA0A12200680090A06A01680B68DD
:1025500000219847A06A022201684B6869469847A3
:1025600087A0A62200680090A06A01680B6800217D
:102570009847A06A032201684B686946984781A181
:102580008022D1E90001CDE90001A06A01680B6851
:1025900000219847A06A072201684B68694698475E
:1025A0007AA30FCB8DE80F00A06AA02201680B6808
:1025B00000219847A06A0F2201684B686946984736
:1025C00076A30FCB8DE80F00A06AB02201680B68DC
:1025D00000219847A06A0F2201684B686946984716
:1025E00072A207CA8DE80700A06AC02201680B68C2
:1025F00000219847A06A0B2201684B6869469847FA
:102600006DA0D02200680090A06A01680B680021CC
:102610009847A06A022201684B686946984767A2FA
:1026200007CA8DE80700A06A802201680B680021B4
:102630009847A06A0B2201684B686946984762A3D5
:102640000FCB8DE80F00A06A902201680B68002173
:102650009847A06A102201684B68694698475AA3B8
:102660000FCB8DE80F00A06AA02201680B68002143
:102670009847A06A102201684B68694698474FA2A4
:1026800007CA8DE80700A06AB02201680B68002124
:102690009847A06A0B2201684B68694698474EA389
:1026A0000FCB8DE80F00A06AC02201680B680021E3
:1026B0009847A06A102201684B68694698474AA368
:1026C0000FCB8DE80F00A06AD02201680B680021B3
:1026D0009847A06A102201684B686946984737A15D
:1026E00007C98DE80700A06AE02201680B68002195
:1026F0009847A06A0B2201684B68694698473EA23A
:1027000007CA8DE80700A06AF02201680B68002163
:102710009847A06A0B2201684B686946984739A21E
:1027200007CA8DE80700A06A802201680B680021B3
:102730009847A06A01686BE0FF800901FF800900EB
:10274000C4300000C4400000C5A90000C53400002A
:10275000C0500000D94E0000C1660000C108000052
:10276000C5010000C5360000D8797900C5330000E6
:10277000C01B0000C5830000C4830000C10E000020
:10278000B3000100CE85010084010000CE180403CF
:10279000390000001803033A00000000CE180203BD
:1027A0003B0000001801033C00000000CF010120A5
:1027B0002000000102000000CF000000CB0000005C
:1027C0000000000000000000CB000000000000003E
:1027D0000000000000000000CB000404040404001A
:1027E0000000000000000000CB000000000000041A
:1027F0000404040400000000CBFFFFFFFFFFFFFF05
:10280000FFFFFF00CC0026090B012500000000009F
:102810004B680B226946984798A30FCB8DE80F00B1
:10282000A06A902201680B6800219847A06A1022D4
:1028300001684B686946984794A00FC88DE80F005F
:10284000A06AA02201680B6800219847A06A1022A4
:1028500001684B686946984790A207CA8DE807004F
:10286000A06AB02201680B6800219847A06A0B2279
:1028700001684B68694698478BA30FCB8DE80F0022
:10288000A06AC02201680B6800219847A06A102244
:1028900001684B686946984787A30FCB8DE80F0006
:1028A000A06AD02201680B6800219847A06A102214
:1028B00001684B686946984783A0812200680090B0
:1028C000A06A01680B6800219847A06A022201688B
:1028D0004B68694698477DA0B12200680090A06AC5
:1028E00001680B6800219847A06A022201684B68C2
:1028F0006946984776A0B62200680090A06A0168F1
:102900000B6800219847A06A022201684B6869465B
:102910009847AFF21810006800220090A06A016882
:102920000B6811469847A06A042201684B68694603
:102930009847A06A002201680B6811469847142244
:10294000684664A1FDF7BDFDA06A002201680B681E
:1029500011469847A06A112201684B68694698475A
:102960001422684660A1FDF7ACFDA06A0022016850
:102970000B6811469847A06A112201684B686946A6
:102980009847A06A002201680B68112198477820B7
:1029900000F0EBFEA06A772201680B683A219847A5
:1029A00094F82C0028B101285DD0022806D0032815
:1029B0005ED0A06A002201680B6803E0A06AC02212
:1029C00001680B68362198474CA1D1E90001CDE997
:1029D0000001A089401E000A8DF80300207B401EE4
:1029E0008DF80400A06A052201684B686946984783
:1029F00044A0D0E90010CDE90010208A401E000A52
:102A00008DF80300207C401E8DF80400A06A05228A
:102A100001684B6869469847A06A7F2201680B6885
:102A200051219847A06A2C2201680B6853219847CE
:102A3000A06A022201680B6855219847A06A7F228C
:102A400001680B685E219847A06A002201680B6844
:102A500028219847A06A002201680B6806B0114639
:102A6000BDE810401847A06A602201680B68A9E71A
:102A7000A06AA02201680B68A4E70000CC00000057
:102A80000000000000000000260A0C02CC25000017
:102A9000000000000000000000000000CC00250C39
:102AA0000A02260000000000CC0000000000000028
:102AB00000000000250B0901CC26000000000000EA
:102AC0000000000000000000C5660000C6200000F5
:102AD000F5060000E100090F0E07100B0A04070BB2
:102AE000080F100A01000000E200090F0E07100B8A
:102AF0000A04070B080F100A010000002A0000005A
:102B0000000000002B00000000000000F8B50DF1EF
:102B1000180C15460F461E46099B9CE816000093AC
:102B2000234600F097F880F82C60F207144B4FF41E
:102B3000487187624FF4F0720446036002D0C4E922
:102B4000031201E0C4E903210020E0852086012171
:102B50006086A086E086208728680268284690471D
:102B60002868C16828468847142000F0FEFD2868C0
:102B7000416828468847142000F0F7FD2046F8BD3C
:102B80007C4F000810B54369DC7814FB02F290F822
:102B90002040624302811A7912FB01F161434181B5
:102BA00010BD00002DE9F84F044614308246FFF7AF
:102BB0009BFB616994F820000A79C97812FB00F246
:102BC00011FB00F3521C92B20092206862892189A5
:102BD000856C2046A84700202BE0002722E0002536
:102BE0001AE04A4629465046FFF78FFB00268046EA
:102BF0000CE000BFB8F1000F01D0E18C00E0618C67
:102C00002068026D20469047761CF6B294F82000AA
:102C1000B042EFD86D1CEDB26069C078A842E0D830
:102C20007F1CFFB294F82000B842D8D809F1010007
:102C3000C0B28146606901794945CED8606994F88F
:102C400020202189C07812FB00102081BDE8F88F78
:102C500070470000F0B50C46154614221E46059F2D
:102C60000A21FFF783F9DFF82CE00021C0F800E02B
:102C70001F2280F820704CF2186342844FF6FF7CCC
:102C80008384A0F826C00181418100F1140181E80C
:102C90007000F0BDD84F0008024600B500F07EFD80
:102CA000907B80B100F06EFD0023083200F076FDCD
:102CB000907988B150791368D179491E1B5C88429C
:102CC00005DA401C04E000F05DFD002000BD00209E
:102CD00091795071491E917100F054FD184600BD64
:102CE0007CB504460830054601F05CFBA0B92068BD
:102CF000816820468847012802D002280CD104E0D0
:102D0000012069468DF8000003E002208DF80400E0
:102D100001A9284601F055FB284601F043FB002895
:102D20000DD12068416820468847032808D0042830
:102D300005D101A98DF80400284601F042FB7CBDB5
:102D4000032069468DF80000F6E710B5006930B140
:102D5000016889698847012803D0022803D0002030
:102D600010BD032010BD042010BD00002DE9F0416E
:102D700015460E46002100F073F904460B48002268
:102D80001421206004F10807227308466273A273BD
:102D9000E17301F02AF93860266125B128682146DF
:102DA0004268284690472046BDE8F081345000082C
:102DB0004068016809680847F0B589B01F461446A5
:102DC0000E460FAA05460E996846FDF75DFB68683A
:102DD000224601688B683146984700246E4605E01C
:102DE00068680268D2689047641CE4B2315D0029CB
:102DF000F6D106E068680168CA6820219047641C23
:102E0000E4B2BC42F6D309B0F0BD4068016849683D
:102E10000847000010B504460348C4E900012046F5
:102E2000FFF7C6FF204610BD4850000810B5D0E996
:102E300003214A43016CC16301EB820203E0448C2D
:102E40008B1CC3630C80C16B9142F8D310BD806AA8
:102E500000F0D6B970B5C468049E0286056C43863E
:102E600002FB04F302FB04128686C185C18605EBD2
:102E700042014264C163038770BD30B5C26B931CCD
:102E8000C3631180C18E491C89B2C186C28D438E35
:102E900013448B420BD8D0E91034C568018FC28629
:102EA0006219491C018703EB4203C363426430BDCE
:102EB0002DE9FF410DF1280898E8F0008DE8F000B9
:102EC000FFF724FE2D49012301600446028A81890F
:102ED000806A92B289B200F09BF92046FFF72CFA83
:102EE000274A0027A5890420238A2549AEB2D4F8B1
:102EF00028809DB23C3917600860404600F080F998
:102F00002049204878300B6802220968C3F30B433C
:102F100006EB030C5B1C43EA0C434360C1F30A015C
:102F20006B18491C41EA03418160FF23026140F2B2
:102F30000761876143617200C161D31CD8F8041036
:102F400043EA02428162C2620563016801220D4BBD
:102F500041F00101016018331A600022D8F8041012
:102F60002164E163A06A01680B6829219847A06A7F
:102F700000F046F904B02046BDE8F081905000080A
:102F8000686C01400C68014010B50446C08A08B165
:102F9000401EE082A06988B10168896988470128DC
:102FA00008D0E08A50B9A08A40B1A0690168496997
:102FB000884718B1A08AE082012010BDE06988B17D
:102FC000016889698847012808D0E08A50B9A08A39
:102FD00040B1E06901684969884718B1A08AE08278
:102FE000022010BD002010BD2DE9F04116460F460D
:102FF0001946DDE906582A46FFF7B8FE04460E4892
:103000002060C4E9067685B12868016828468847AB
:1030100058B128680168284688474FF47A720146FB
:1030200008FB02F0B0FBF1F000E00020A082E0829B
:103030002046BDE8F0810000EC500008026852B163
:103040008A4201D10020704753680BB11A46F7E756
:103050000AB1516000E00160012070477047000034
:103060000A004FF0000110B504460548C4E900010C
:1030700003D021461046FFF7E1FF204610BD0000B7
:10308000A851000810B5046804E0206801682046D3
:1030900088476468002CF8D110BD0B46024600B585
:1030A00000F07CFB107C48B1002002EB80008068BF
:1030B00030F8132000F066FB104600BD0120F4E755
:1030C00010B504460068416920468847217C01B15B
:1030D0000121A27E04EB8101896821F81200E07EC3
:1030E000401CC0B2E076617E884208D26169095C0A
:1030F000A176206882692046BDE810401047002074
:10310000E07661690978A176207710BDF0B4057E7C
:103110008D421DD9447E002308E04669F65C8E424C
:1031200003D10368DB69F0BC18475B1C9C42F4DCEC
:10313000AC420DD28568002325F81430457EC46862
:1031400024F81530437E45695C1C4476E954E8E771
:10315000F0BC7047417E002911D0017F00290ED1BB
:10316000C176416909788176027C32B1002303740B
:10317000012202770268926910470123F7E770473E
:103180002DE9F04115460E460021FFF769FF044680
:103190000F48206025B1286821464268284690479C
:1031A00026760025A5767700E5763846657600F028
:1031B0001CFFA060384600F018FFE060304600F0C9
:1031C00014FF6061204625742577BDE8F08100007A
:1031D00000510008014A017102607047285100083F
:1031E00006480368DB07FCD00448090241EA0241B3
:1031F000083841F01501016070470000746C01400F
:103200000248416841F0040141607047007001408C
:103210002DE9F0475C4C91465C489A46DFF86C819A
:103220000D469C30626822F008026260D8F80020E7
:1032300022F00102C8F80020016821F004010160B9
:10324000016821F002010160216B21F0010121637D
:10325000216B21F080712163216B41F0807121632A
:10326000E168C904FCD54A4B42F69012216B194023
:103270002163216B9FED470B11432163216B41F0CB
:1032800001012163E168C905FCD5404A01263F4F91
:103290000621903240F60123A0374FF0040C016064
:1032A0003A481660001D3B60C0F800C09FED3B1B14
:1032B00051EC100B53EC112B01F06CFA41EC100B9C
:1032C00053EC102B9FED370B51EC100B01F0CAF8AB
:1032D00001F020FA2D4A002180B2A061C0322B48B3
:1032E000131D303011600B221960284B274F083313
:1032F00006601037226005201E1D244ADFF8ACC08E
:1033000060321960131D396030601560C3F800C069
:10331000BAF1000F24D0264A4FF00117DFF890C011
:10332000ACF1100C11607B000CF10406CCF80070BD
:1033300009F102003360AD1C361D40EA05433360DD
:10334000131F401C6D1C40EA05401860184B1848BC
:1033500014331C3019600160106840F001001060E7
:10336000D8F800304FF02311084A43F00105114B03
:103370009432C8F800506568101D45F00805656076
:1033800011600360BDE8F08700700140046C0140EB
:103390000386FCFF0000000065CDBD4195D626E800
:1033A0000B2EF13D000000000000F03F007F0E00FA
:1033B00018680140000023230C4B002030B51C6826
:1033C000E407FCD0094C241F904207D20B18DD788B
:1033D0001B6865F31F632360001DF5E791B2034886
:1033E0003922083842EA0121016030BD746C014085
:1033F00070B54FF0204426490546D4F84001254BCE
:10340000254A20F4F84040F4C050C4F84001D4F8F4
:103410004801084040F48310C4F8480168788000EF
:10342000A0F1C040D0F840116FF3090141F4F271EE
:10343000C0F8401168788000A0F1C040D0F8481171
:1034400019401143C0F848110122284600231146B3
:1034500004F5A07400F022F8012000F086F90023A2
:1034600028460122022100F019F8002328460822EC
:10347000032100F013F80122284604214FF40C73B5
:1034800000F00CF8606940F65E410843606170BD71
:10349000FF0F0FFF00F0F0F06103010110B5847819
:1034A0001CB1022917D0032915D04078A8B10120FA
:1034B0006FF01F0441EAC0014FF0204004EB4212BC
:1034C000114341EA4321C0F8501100BFD0F8581110
:1034D0008906FBD410BD0320EAE70220E8E70000DC
:1034E00070B5044601F00F00090920704FF404552F
:1034F000617069202946A270FEF77AFE6A2029468B
:10350000FEF776FE75202946FEF772FE80202946DA
:10351000FEF76EFE83202946FEF76AFE84202946C8
:10352000FEF766FE85202946FEF762FE86202946C4
:10353000FEF75EFE87202946FEF75AFE88202946C0
:10354000FEF756FE6B202946FEF752FE6C202946F8
:10355000FEF74EFE6D202946FEF74AFE6E202946F4
:10356000FEF746FE6F202946FEF742FE70202946F0
:10357000FEF73EFE71202946FEF73AFE72202946EC
:10358000FEF736FE73202946FEF732FE74202946E8
:10359000FEF72EFE76202946FEF72AFE77202946E2
:1035A000FEF726FE78202946FEF722FE79202946DE
:1035B000FEF71EFE7A202946FEF71AFE7B202946DA
:1035C000FEF716FE7C202946FEF712FE7D202946D6
:1035D000FEF70EFE7E202946FEF70AFE7F202946D2
:1035E000FEF706FE81202946FEF702FE82202946CC
:1035F000FEF7FEFD8A202946FEF7FAFD8B202946BC
:10360000FEF7F6FD4A202946FEF7F2FD4B2029463B
:10361000FEF7EEFD56202946FEF7EAFD5D2029461D
:10362000FEF7E6FD5E202946FEF7E2FD5F20294613
:10363000FEF7DEFD60202946FEF7DAFD612029460F
:10364000FEF7D6FD62202946FEF7D2FD632029460B
:10365000FEF7CEFD4C202946FEF7CAFD4D20294637
:10366000FEF7C6FD4E202946FEF7C2FD4F20294633
:10367000FEF7BEFD50202946FEF7BAFD512029462F
:10368000FEF7B6FD98202946FEF7B2FD992029469F
:10369000FEF7AEFD9C202946FEF7AAFD962029469E
:1036A000FEF7A6FD9A202946FEF7A2FD9D20294699
:1036B000FEF79EFD8C202946FEF79AFD8D202946B7
:1036C000FEF796FD0648016841F00101016020788F
:1036D000022802D12046FFF78BFE204670BD000075
:1036E0003838024001464068C968026812691047CC
:1036F00010B504464068016849698847E168084098
:1037000000D0012010BD42680B00C168106801D0D4
:10371000836800E003691046184701464068C9689D
:1037200002689268104730B4034640681C7A026809
:1037300053680A46214630BC18470000012310B5E3
:1037400093400272024CC360C0E9004110BD00000A
:10375000B45100084FF6FF7101EA800002E000BF9B
:10376000401E80B20028FAD170474FF47A730246A7
:1037700000B504E01846FFF7EDFF521E92B2002A92
:10378000F8D100BD0449087820B1401E10F0FF00B8
:10379000087000D162B670478401022072B60248F8
:1037A0000178491C0170704784010220024600B56F
:1037B00009B1FFF7F3FF104600BD0000054801F016
:1037C0001F01C0F83412D0F8081241F08041C0F84F
:1037D000081270470020014030B50E4C082902F055
:1037E00007050CD00C2909D103210120FEF700FDAB
:1037F000D4F80C0240EA8510C4F80C0230BD032155
:103800000020FEF7F5FCD4F8100240EA0560C4F889
:10381000100230BD002001400248D0F84C0280B2B6
:1038200070470000002001400A46102110B5FFF744
:10383000A7FC0E4B044603600F4B0D4A0D49D860A0
:10384000136840F6010043F480631360D1F8043339
:10385000202243F44033C1F80433C1F80802C1F810
:1038600004221220FEF774FB204610BD4C510008C4
:1038700044380240002001408401022021F00F0062
:1038800022B1012A01D103490860704701490C396E
:10389000FAE700001874004010B50A4C51B1012934
:1038A00007D103210920FEF7A3FC206840F4403033
:1038B000206010BD03210820FEF79AFC206840F02C
:1038C0000300F5E700740040022100B5FFF782FC19
:1038D0000449034A02600A6842F000520A6000BDCF
:1038E00074510008403802400830FFF7CBBB4068F5
:1038F00070470830FFF7A2BB50F8841F0A6902F036
:1039000060420A6101680A6942F400220A610068A3
:10391000016841F0044101607047000070B590F803
:10392000812090F883108A4200D21146D0F884306A
:10393000CA1C9B6994089AB2A24210D3002380F853
:103940008130421C80F8823007E000BFD0F88860E8
:103950005B1C52F8045B9BB23560A342F6D300298E
:1039600006D10449037801200A68984082430A601E
:1039700070BD00003408005007490278D0F8840078
:103980000968054B243BD1401A68806801F00101A9
:1039900042EAC111084070473408005030B503783E
:1039A00080F8831003B900210C4C01259D40236849
:1039B000ADB22B432360D0F884301C6824040BD4B0
:1039C00004781868C1F30A019504054A084345EADA
:1039D000845108431043186030BD00001C0800509B
:1039E0000080001070B490F8833090F881401A463F
:1039F000944200D2224690F8824014B3FAB1D6180D
:103A0000114C0125761E96FBF3F350F8841F0E69C6
:103A100006F060460E61DBB242EAC34201680B6900
:103A200013430B61216810F8842C954029432160D1
:103A30000068016841F00441016070BC70470029D2
:103A4000FBD070BCFFF758BF3408005050F8841FFB
:103A50000A6902F060420A61016810F8013C0A69D3
:103A60001A4342F400220A610068016841F00441EF
:103A700001607047D0F884000249806809680840F6
:103A80007047000014080050CA1C10B5930880F855
:103A90008110012480F88240411C002207E000BF11
:103AA000D0F888402468521C92B241F8044B9A42E4
:103AB000F6D310BD70B4037880F8831003B90021E9
:103AC0000E4C012526689D4046EA05432360D0F848
:103AD00084301C68240408D41C68C1F30A01084D12
:103AE0000C4345EA824214431C600178002902D04D
:103AF00070BC00F007B870BC704700001C08005094
:103B00000080001030B490F8831090F881208A4231
:103B100001D2134600E00B46CBB14B1E1A4492FB78
:103B2000F1F250F8843F1C6904F060451D61D2B287
:103B300011FB02F4016862F3DF440A6922430A615F
:103B40000068016841F00441016030BC704730BC3E
:103B5000FFF77CBF4FF0A04042690A4342617047C3
:103B60000348011D00680968084080B270470000E2
:103B7000180800500348011D006809680840000C3F
:103B800070470000180800504FF0A040426980695B
:103B90000240914301D0002070470120704700008F
:103BA0002DE9F05F4FF0A0480446D8F81400C00794
:103BB0007ED102212046FFF7E7FF18B102212046FF
:103BC000FFF7C8FF4FF400212046FFF7DDFF04F1A7
:103BD0004C0BE8B32046FFF7CDFF0026054635E045
:103BE000E80730D0C6EBC60000EB800004EB800095
:103BF00000F51F708146FFF73DFF0746C0070CD058
:103C00004846FFF77FFF20680022314603682046C0
:103C10009847D9F884100120886038070DD52068AE
:103C20000122002103682046984701215846FFF7EA
:103C3000D9FED9F8841008208860F80603D5D9F891
:103C40008410102088606D08761CF6B2002D00E00C
:103C500000E0C5D14FF480212046FFF795FF010019
:103C600004F51F7A53D02046FFF77AFF0026074657
:103C70004BE0F80746D0C6EBC60000EB800004EB33
:103C800080004C308146FFF777FE0546C00718D00C
:103C9000714A012000FA06F1C9431160D9F8841075
:103CA00088605046FFF7D2FE206846F0800100E0B1
:103CB000D0E0036801222046984700214846FFF7DC
:103CC00091FE280703D5D9F8841008208860E806FB
:103CD00003D5D9F8841010208860680603D5D9F878
:103CE000841040208860A80703D5D9F884100220EA
:103CF0008860280606D54846FFF710FED9F88410DC
:103D0000802088607F08761CF6B2002FB1D14FF07A
:103D1000004320461946FFF737FF504D38B1286859
:103D200020F00100286019462046FFF713FF4FF4EA
:103D3000006320461946FFF727FF18B119462046B1
:103D4000FFF708FF4FF4805620463146FFF71CFF6F
:103D500038B1206881682046884731462046FFF701
:103D6000F9FE4FF4005620463146FFF70DFFE8B14B
:103D7000296841F480712960D8F80C1021F4705141
:103D8000C8F80C10D8F80C1041F4A051C8F80C1069
:103D9000002250464021FFF78DFE00225846402168
:103DA000FFF7FCFD31462046FFF7D4FE10212046E8
:103DB000FFF7EAFE68B3D8F81800454620F0100077
:103DC000C8F81800D8F8200000F00F01C0F34342F3
:103DD000022A02D0062A0DD017E047F6F0721042F0
:103DE00013D0C1EBC102C0F30A1102EB820004EB55
:103DF000800006E0C1EBC100082100EB800004EB6D
:103E0000800000F51F70FFF73FFEA86940F010002A
:103E1000A86108212046FFF7B7FE18B10821204607
:103E2000FFF798FE4FF0804320461946FFF7ACFE9F
:103E300018B119462046FFF78DFE04212046FFF7F2
:103E4000A3FE002806D0D8F80420D8F804101143A7
:103E5000C8F80410BDE8F09F340800500408005072
:103E60002DE9F04306464FF0010C48064C000323B1
:103E70004FEA10684FF001000CFA01FC03FA08F356
:103E8000D10700FA04F06FEA03074FF000046FEA6D
:103E90000C092346254600D00446510700D50346A9
:103EA000100703D5022000FA08F00343900700D55D
:103EB0006546FFF773FC7068016839402143016073
:103EC0007168C86838401843C8607168486800EA7B
:103ED000090028434860BDE8F043FFF753BC406841
:103EE00009048161704740680069704740688161DA
:103EF00070470000244B0A29244A036042D2DFE8BD
:103F000001F0050B11171D23292F353B2049416076
:103F1000116841F0010134E01E494160116841F02F
:103F200002012EE01C494160116841F0040128E0C3
:103F30001A494160116841F0080122E018494160C6
:103F4000116841F010011CE016494160116841F010
:103F5000200116E014494160116841F0400110E071
:103F600012494160116841F080010AE01049416046
:103F7000116841F4807104E00E494160116841F418
:103F8000007111607047000088510008303802400D
:103F9000000002400004024000080240000C024001
:103FA000001002400014024000180240001C0240B1
:103FB000002002400024024010B504468069C16917
:103FC000490607D5016A41F0400101622068C169D4
:103FD00020468847A069C069800605D520688169A8
:103FE0002046BDE81040084710BDFCF7F7B903B400
:103FF00001984100009850EAC12018BF04204A0DE2
:1040000018BF40F0010040F2FF72B2EB515F08BFF1
:1040100040F00200012808BF052002B07047FCF7FD
:1040200045FA000010B56948002188B0FFF7BEFBD3
:10403000674804214FF47A72FDF7A6FF6448022115
:1040400042F210721830FDF79FFF604800211430D3
:10405000FFF750FF5D4801211C30FFF74BFF5B4825
:1040600002212430FFF746FF584803212C30FFF788
:1040700041FF564804213430FFF73CFF53480521E7
:104080003C30FFF737FF514808214430FFF732FF3B
:104090004E4809214C30FFF72DFF4D4901F130000A
:1040A000FFF7C2FB49485430FFF70EFC4748002297
:1040B0000221401CFFF714FA44485C30A0F15B0178
:1040C000497800297ED04FF0504242490160424970
:1040D00042600A68404842F080620A602038026804
:1040E00042F080620260026822F0806202600A6828
:1040F00042F000620A60016841F0006101600168FD
:1041000021F00061016031490F2231484C315030BB
:10411000FFF714FB314904A84A1DFEF708F904AB68
:104120000220039093E8070001238DE80700284A46
:10413000264950325C3102F11000FEF7B9FE2449E5
:10414000224860316430FEF765FE20490124204892
:104150000423082200943C31A830FEF72FF81B49B5
:1041600004231B4809223C310094C030FEF726F896
:10417000164904231648062214310094D830FEF75D
:104180001DF81348002400F1C003CDE9000400F13C
:10419000D80200F1A801F030FEF726FF0B490423F6
:1041A0000F48002214310094FEF708F80749012354
:1041B0000B480D224C3100941830FDF7FFFF08B07A
:1041C00010BDFFE74FF040427FE7000000000220F3
:1041D000F80102203C51000844380240A849000878
:1041E0000803022030380A2801D20120704700203D
:1041F000704700001CB5414C0026354632466068C9
:1042000001684B6831469847A06801684A680121F7
:10421000904700233AA01A461946009004F1640022
:10422000FEF7CAFD00233CA01A460121009004F1CC
:104230006400FEF7C1FDE06801684969884700B184
:10424000761C2069016889698847012800D1002609
:104250003548FEF721FD012804D0022804D00328A8
:1042600005D103E06D1E02E06D1C00E000256068D2
:1042700001688A680021904707462B482030FDF7E7
:1042800075FF8046014628483830FDF77BFFD4F89B
:1042900008C0B9B20122DCF8000003686046984704
:1042A00022A0CDE9000615480A230022022164302D
:1042B000FEF782FD1FA0CDE9000510480A23022168
:1042C0001A466430FEF778FD1CA0CDE900070B48C4
:1042D0000A23002203216430FEF76EFD074819A16E
:1042E0000A23CDE9001803211A466430FEF764FD65
:1042F00002486430FEF789FD9DE7000000000220BF
:104300004A756E20203820323032312031393A312E
:10431000363A33360000000048656C6C6F20776FCA
:10432000726C642100000000E8020220636E743A9F
:10433000256400006E756D3A2564000076616C3A64
:10434000256400007377303A2564000010B5002919
:104350000AD00878002807D005487844FDF77CF893
:10436000002801D0002010BD0248784410BD000094
:104370008E0E0000860E000010B500290AD00878C5
:10438000002807D005487844FDF766F8002801D0DA
:10439000002010BD0248784410BD00007E0E0000D1
:1043A000760E0000024600B5FFF7F8F99079D17952
:1043B000884201D3012200E00022FFF7E3F9104612
:1043C00000BD10B500230C460246FFF7E7F99079CF
:1043D000D179884210D2137911682078C854D179E4
:1043E0001079491E884201DA401C00E000209179D2
:1043F00010710123491C9171FFF7C4F9184610BDD3
:1044000021F00042A2F16052B2F5801F01F000439A
:1044100028BFD2F17F6C0BD95FEA001C43EAC202CD
:1044200042EB507018BF704728BF20F00100704762
:10443000B2F5801FBCBF184670474FEA410C1CF50F
:10444000001F02D2084600F0A8BA70B500F04CFA7E
:1044500000000089FFF7F6BF4FF00040A0F5800094
:10446000704700002DE9C04130B4DFF8A0C23CEA3B
:10447000111418BF3CEA131400F0EC8081EA030524
:104480001CEA111444EAD57418BF1CEA131500F095
:10449000C780A4EB05044FF0004545EAC12145EA79
:1044A000C32341EA505143EA525304F17F749942C5
:1044B00004F500344FEAC0204FEAC22208BF904200
:1044C00000F09C804FEA13650FF24016765D4FEACC
:1044D000134506FB05F7C7F1807706FB07F74FEAA0
:1044E000D737A7FB03687642C8F58038A7FB06CE0E
:1044F00038BFA8F1010807FB08E64FF0000EA6FB45
:10450000028CE6FB03CEDCF1000CCEF1004E38BF8E
:10451000AEF1010EA6FB0C584FF000074FF000055E
:10452000E6FB0E87A1FB08C6A0FB07CE16EB0E0626
:1045300045F10005E1FB076515F1E04E7EBFA4F5EE
:1045400080345FEA46066D4116F1800745F10005AB
:104550004FEA17274FEA066647EA0567A6F1DE46E7
:10456000B6F1805F4FEA15251FD9384624F0010CBB
:1045700005EBC471BCF1FE6F01EB0C1102D8F0BC6D
:10458000BDE8008124425CBF01F5801E9EEAC47F25
:1045900002D4F0BCBDE80081244238D4F0BCA1F1C3
:1045A000C041BDE8004100F0EDB94FEAD22242EA35
:1045B00043524FEAD323A7FB02864FEAD02040EABA
:1045C000415007FB03661EEA0E0F4FEAD12105FB9F
:1045D000026658BFA6EB0056B6EB00564FEA520EE5
:1045E0004EEAC37E18EB0E0E56EB530EBDD518EBFC
:1045F00002085E417F1C55F10005B6E74FF48015B7
:104600004FF000074FF000064FF00008ADE7F0BC98
:104610004FF0000001F1C04101F00041BDE8008110
:1046200011EA0C1F0CEA131500D00CE013EA0C1F62
:1046300000F025804FF00000F0BC81EA030101F09A
:104640000041BDE80081F0BCBDE8004181EA030102
:1046500000F098B9F0BCBDE8004170B500F044F935
:10466000097EFC3E00F007B881EA03014FF000002C
:1046700001F00041704781EA030100F083B9F0BC0A
:10468000BDE800414FF0000021497047FFFDFBF9F4
:10469000F7F5F4F2F0EEEDEBE9E8E6E4E3E1E0DE75
:1046A000DDDBDAD8D7D5D4D3D1D0CFCDCCCBCAC8E7
:1046B000C7C6C5C4C2C1C0BFBEBDBCBBBAB9B8B70E
:1046C000B6B5B4B3B2B1B0AFAEADACABAAA9A8A801
:1046D000A7A6A5A4A3A3A2A1A09F9F9E9D9C9C9BCF
:1046E0009A9999989797969595949393929191907A
:1046F0008F8F8E8E8D8C8C8B8B8A8989888887870B
:104700008685858484838382828181800000FF077F
:104710000000F87F4FEA1153A3F58063D3F11E0325
:10472000A8BFD3F1200C08DB4FF0004242EAC122BF
:1047300052EA505232FA03F0704709420BD4102B60
:10474000C4BF0020704703F5787CBCF1FF3F05D063
:104750004FF0FF3070474FF00000704770B500F029
:10476000C3F800BF4992248000207047F0E7B0FAF8
:1047700080F310FA03F10AD0C3F11D0303F580633F
:104780004FEA41504FEA035202EBD12170474FF0FC
:1047900000007047DFF848C170B51CEA111E1EBF4B
:1047A0001CEA13159EEA0C0F95EA0C0F00F06F80BF
:1047B00081EA030423EA4C134EEAD47E21EA4C1129
:1047C00041F4801143F48013AE44A1FB024CA0FBE2
:1047D0000365AEF17F7E361955EB0C05A1FB034C4A
:1047E0004CF10003A0FB021C16EB0C06654153F1D3
:1047F0000003094218BF46F0010613F4007F0BD1F5
:104800004FEA03314FEA0530340341EA155140EADB
:1048100016506FF003020AE04FEAC3214FEAC520A9
:10482000F40241EA555140EA56506FF0020202EBA1
:104830002E4201EB025585EACE710AD05FEA440CA4
:1048400018BF24F0004450F1000041F1000120EABB
:10485000D47040F2FE7C624500D270BDA84214BF05
:104860004FF080444FF04044002E08BF0024BEF1BA
:10487000806FA8BFA1F1C041BDE8704080F2828086
:104880004FF0000001F1C04101F0004170479EEA85
:104890000C0F0CEA131518BF95EA0C0F06D04FF059
:1048A000000081EA030E0EF0004170BD00F01CF81C
:1048B0008900013E00F007B800F009B84FEA430C48
:1048C0005FEA5C5C08D081EA030100F05BB84FEA64
:1048D000410C5FEA5C5CF6D14FF000000149704783
:1048E0000000FF070000F87F0EF1020E2EF0030E0D
:1048F0005EF8046B364205D4012A43EB030515F537
:10490000001F12D8012841EB010C1CF5001F0CD828
:104910000ED14FEAD17C15F5001F0CEB4C0C0CF1BD
:10492000020C08BF4CEBD37C04E04FF0080C01E014
:104930004FEAD37C0CEB4C0526FA05F606F0070689
:10494000B6F1040C06D20EEB860CBDE870404CF0BC
:10495000010C6047DFE80CF0090B02024FF0004148
:104960004FF00000A1F5002170BD19461046012846
:1049700051EB010418BFD4F5001484BF002001F0EE
:10498000004170BD0808A0F500114FEA31017047E1
:104990004FF04070E1EE100A7047FF2141EAD0501D
:1049A000C0057047FCF77CBA207F0C080C000000A3
:1049B00000000000000000000000080808080808C7
:1049C000080008000000141414000000000000009B
:1049D00000000A0A3F1414147E2828000000081C56
:1049E00022201C02221C0800000020512204081072
:1049F0002245020000001820201030494A443B00A4
:104A00000000080808000000000000000000040882
:104A100008101010101008080400100808040404FE
:104A20000404080810000000361C7F1C360000003B
:104A3000000000000808087F0808080000000000C7
:104A40000000000000000810000000000000007FCF
:104A5000000000000000000000000000000008004E
:104A600000000001020408102040000000001C2289
:104A70002222222222221C000000083808080808EE
:104A800008083E0000001C220202040810203E001C
:104A900000001C2202020C0202221C000000040C76
:104AA0000C1414243E040E0000003E2020203C0282
:104AB00002221C0000000C1020203C2222221C009C
:104AC00000003E22020404080810100000001C220E
:104AD00022221C2222221C0000001C2222221E0252
:104AE0000204180000000000000800000000080098
:104AF0000000000000080000000008100000000096
:104B0000040810201008040000000000003E003ED1
:104B1000000000000000000010080402040810005B
:104B200000001C22020204080800080000001E21E8
:104B30004D5555554E201C0000001808081414222D
:104B40003E22770000007E2121213E2121217E008E
:104B500000001E214040404040211E0000007C22F9
:104B60002121212121227C0000007F2120243C24BE
:104B700020217F0000007F2120243C242020780079
:104B800000001E214040404741211E0000007722C6
:104B900022223E222222770000003E080808080850
:104BA00008083E0000001E040404040444443800C5
:104BB00000007322242428382422730000007C1073
:104BC0001010101010117F000000632236362A2AC0
:104BD000222277000000672232322A262622720023
:104BE00000001C224141414141221C0000007E2165
:104BF00021213E202020780000001C22414141411B
:104C000041221C1B00007E2121213E24242273000E
:104C100000003E4140403E0101413E0000007F490E
:104C20000808080808081C00000077222222222217
:104C300022221C00000077222222141414080800EB
:104C40000000772222222A2A2A1414000000772248
:104C50001414081414227700000077222214140878
:104C600008081C0000007F420404081010217F0087
:104C700000001C1010101010101010101C0000402C
:104C8000201008040201000000001C0404040404B5
:104C9000040404041C0814220000000000000000AA
:104CA000000000000000000000000000FF001008ED
:104CB000000000000000000000000000003C023E78
:104CC00042423D0000006020203E212121217E0043
:104CD00000000000003E414040413E00000006024E
:104CE000023E424242423F0000000000003E417F3F
:104CF00040413E0000000C10103C101010103C0011
:104D000000000000003F4242423E02023C006020A0
:104D1000202C3222222277000000080000380808E8
:104D200008083E0000000400003C040404040404DD
:104D3000380060202026242838246300000018084A
:104D40000808080808083E000000000000742A2A2D
:104D50002A2A6B0000000000006C32222222770019
:104D600000000000003E414141413E0000000000C3
:104D7000007E212121213E2070000000003F4242A0
:104D800042423E02070000000076191010107C001D
:104D900000000000003E413806413E0000000010C7
:104DA000103C101010120C000000000000662222BF
:104DB00022261B00000000000077222214140800A5
:104DC000000000000077222A2A14140000000000CE
:104DD0000077221C1C2277000000000000772222AE
:104DE0001414080830000000007E440810227E00E1
:104DF000000006080808083008080808060808081F
:104E00000808080808080808080030080808080604
:104E10000808080830000031494600000000000082
:104E20000000001C1C1C1C1C1C1C1C1C0000000086
:104E300000000000000000003031323334353637D6
:104E400038394142434445464030580030313233CE
:104E500034353637383961626364656640307800CE
:104E60000400000800000000000000020001000033
:104E70001000000002400000000000A00000000040
:104E800005400000000000C8000000000C400000C9
:104E90000000409C00000000194000000020BCBE43
:104EA0000000000034400000BFC91B8E0000000459
:104EB000B5400000504BCFD06607E2CF01000000A4
:104EC0006C4100003E8251AADFEEA73401000000D1
:104ED000D9420000DCB5A0E23A301F97FFFFFFFF88
:104EE000B4450000FD25A0C8E9A3C14FFFFFFFFFA7
:104EF000FF3F00000000008000000000FF3F0000B6
:104F00000000008000000000000000000000000021
:104F10001F4000081F4000081F4000081F400008F5
:104F20000000000000000000000000000000000081
:104F3000EF380008F338000800000000000000000F
:104F4000E938000800000000000000000000000038
:104F500085210008000000000000000000000000A3
:104F60006D210008992100080000000000000000E9
:104F70000000000000000000000000001F400008CA
:104F8000512C0008852B0008A52B0008000000000C
:104F90000000000000000000000000000000000011
:104FA0000000000000000000000000000000000001
:104FB00000000000000000000000000000000000F1
:104FC000000000001F4000081F4000081F400008AC
:104FD00000000000000000001F400008512C0008E5
:104FE000852B0008A52B0008000000000000000031
:104FF00000000000000000000000000000000000B1
:1050000000000000000000000000000000000000A0
:105010000000000000000000000000000000000090
:105020001F4000081F4000081F400008000000004B
:1050300000000000E12C00084B2D00081F40000874
:105040000000000000000000B12D00080B2E000839
:10505000B92D000800000000000000000000000062
:105060000000000000000000000000000000000040
:105070000000000000000000000000000000000030
:105080000000000000000000000000000000000020
:105090002D2E00084F2E0008852B0008A52B000898
:1050A0000000000000000000000000000000000000
:1050B00000000000000000000000000000000000F0
:1050C00000000000000000000000000000000000E0
:1050D0000000000000000000552E00080000000045
:1050E0007B2E00080000000000000000E12C0008FA
:1050F0004B2D0008892F0008000000000000000070
:10510000553100080D3100089B30000800000000F8
:10511000C13000081F4000081F4000081F40000861
:1051200000000000000000001F4000081F400008B1
:10513000000000000000000000000000E131000855
:10514000B9330008000000000000000055310008DD
:105150000D3100089B30000800000000C13000083D
:1051600019380008BD370008D937000800000000D2
:10517000000000007D380008993800080000000099
:10518000000000000000000000000000613E000878
:10519000ED3E000800000000DF3E0008E73E00088A
:1051A00000000000000000005D300008000000006A
:1051B00000000000273700081B37000807370008E9
:1051C000E5360008F13600081853000800000220F8
:1051D000F80100003402000840540008F8010220E1
:1051E000A0210000700200081C0000004300000025
:1051F000F8FFFFFF0C0000000E0000000F00000091
:105200002E0000001001000043000000F8FFFFFF27
:1052100000404040404040404040414141414140C9
:10522000404040404040404040404040404040407E
:10523000400502020202020202020202020202020D
:105240000220202020202020202020020202020212
:10525000020290909090909010101010101010106A
:105260001010101010101010101010100202020276
:1052700002028888888888880808080808080808BA
:1052800008080808080808080808080802020202B6
:1052900040000000000000000000000000000000CE
:1052A00000000000000000000000000000000000FE
:1052B00000000000000000000000000000000000EE
:1052C00000000000000000000000000000000000DE
:1052D00000000000000000000000000000000000CE
:1052E00000000000000000000000000000000000BE
:1052F00000000000000000000000000000000000AE
:10530000000000000000000000000000000000009D
:105310000000000011EDFFFF512628020220540B6F
:10532000590220A0020220D002022033A05020FC0B
:105330002020010040000800A7007F0197008001A5
:1053400028307201C820730178208E0168208F01F7
:10535000C430A8007B10A900EC306900FC306A0062
:105360000C3075001C3080007C4083008C40840031
:105370009C408500AC408600BC408700CC40880043
:10538000DC406B00EC406C00FC406D008C306E002B
:105390009C306F00AC3070008C7071009C7072009B
:1053A000AC707300BC707400CC707600DC70770059
:1053B000EC707800FC7079000C807A001C807B0017
:1053C0002C807C003C807D006C807E007C807F0097
:1053D0009C808100AC8082000C504A001C504B0025
:1053E0002C5056003C505D004C505E005C505F00FD
:1053F000CC506000DC506100EC506200FC50630057
:105400000C604C001C604D002C604E003C604F0056
:105410004C6050005C6051008C609800FC6099000A
:105420002C7096003C709A005C709D2CBC509C00C7
:105430000C408A001C408B087A4C808C005C808D6C
:04000005080001F9F5
:00000001FF
